{
  "_format": "hh-sol-artifact-1",
  "contractName": "MainModuleGasEstimation",
  "sourceName": "contracts/modules/MainModuleGasEstimation.sol",
  "abi": [
    {
      "inputs": [
        {
          "internalType": "uint256",
          "name": "_space",
          "type": "uint256"
        },
        {
          "internalType": "uint256",
          "name": "_provided",
          "type": "uint256"
        },
        {
          "internalType": "uint256",
          "name": "_current",
          "type": "uint256"
        }
      ],
      "name": "BadGapNonce",
      "type": "error"
    },
    {
      "inputs": [
        {
          "internalType": "uint256",
          "name": "_space",
          "type": "uint256"
        },
        {
          "internalType": "uint256",
          "name": "_provided",
          "type": "uint256"
        },
        {
          "internalType": "uint256",
          "name": "_current",
          "type": "uint256"
        }
      ],
      "name": "BadNonce",
      "type": "error"
    },
    {
      "inputs": [
        {
          "internalType": "uint256",
          "name": "_space",
          "type": "uint256"
        },
        {
          "internalType": "uint256",
          "name": "_nonce",
          "type": "uint256"
        }
      ],
      "name": "ExpectedEmptyNonce",
      "type": "error"
    },
    {
      "inputs": [
        {
          "internalType": "bytes4",
          "name": "_signature",
          "type": "bytes4"
        }
      ],
      "name": "HookAlreadyExists",
      "type": "error"
    },
    {
      "inputs": [
        {
          "internalType": "bytes4",
          "name": "_signature",
          "type": "bytes4"
        }
      ],
      "name": "HookDoesNotExist",
      "type": "error"
    },
    {
      "inputs": [],
      "name": "ImageHashIsZero",
      "type": "error"
    },
    {
      "inputs": [
        {
          "internalType": "address",
          "name": "_implementation",
          "type": "address"
        }
      ],
      "name": "InvalidImplementation",
      "type": "error"
    },
    {
      "inputs": [
        {
          "internalType": "bytes32",
          "name": "_hash",
          "type": "bytes32"
        },
        {
          "internalType": "address",
          "name": "_addr",
          "type": "address"
        },
        {
          "internalType": "bytes",
          "name": "_signature",
          "type": "bytes"
        }
      ],
      "name": "InvalidNestedSignature",
      "type": "error"
    },
    {
      "inputs": [
        {
          "internalType": "uint256",
          "name": "_type",
          "type": "uint256"
        }
      ],
      "name": "InvalidNonceType",
      "type": "error"
    },
    {
      "inputs": [
        {
          "internalType": "bytes",
          "name": "_signature",
          "type": "bytes"
        },
        {
          "internalType": "bytes32",
          "name": "_s",
          "type": "bytes32"
        }
      ],
      "name": "InvalidSValue",
      "type": "error"
    },
    {
      "inputs": [
        {
          "internalType": "bytes32",
          "name": "_hash",
          "type": "bytes32"
        },
        {
          "internalType": "bytes",
          "name": "_signature",
          "type": "bytes"
        }
      ],
      "name": "InvalidSignature",
      "type": "error"
    },
    {
      "inputs": [
        {
          "internalType": "uint256",
          "name": "_flag",
          "type": "uint256"
        }
      ],
      "name": "InvalidSignatureFlag",
      "type": "error"
    },
    {
      "inputs": [
        {
          "internalType": "bytes",
          "name": "_signature",
          "type": "bytes"
        }
      ],
      "name": "InvalidSignatureLength",
      "type": "error"
    },
    {
      "inputs": [
        {
          "internalType": "uint256",
          "name": "_type",
          "type": "uint256"
        }
      ],
      "name": "InvalidSignatureType",
      "type": "error"
    },
    {
      "inputs": [
        {
          "internalType": "bytes",
          "name": "_signature",
          "type": "bytes"
        },
        {
          "internalType": "uint256",
          "name": "_v",
          "type": "uint256"
        }
      ],
      "name": "InvalidVValue",
      "type": "error"
    },
    {
      "inputs": [
        {
          "internalType": "uint256",
          "name": "_requested",
          "type": "uint256"
        },
        {
          "internalType": "uint256",
          "name": "_available",
          "type": "uint256"
        }
      ],
      "name": "NotEnoughGas",
      "type": "error"
    },
    {
      "inputs": [
        {
          "internalType": "address",
          "name": "_sender",
          "type": "address"
        },
        {
          "internalType": "address",
          "name": "_self",
          "type": "address"
        }
      ],
      "name": "OnlySelfAuth",
      "type": "error"
    },
    {
      "inputs": [
        {
          "internalType": "bytes",
          "name": "_data",
          "type": "bytes"
        }
      ],
      "name": "ReadFirstUint8OutOfBounds",
      "type": "error"
    },
    {
      "inputs": [
        {
          "internalType": "bytes",
          "name": "_signature",
          "type": "bytes"
        }
      ],
      "name": "SignerIsAddress0",
      "type": "error"
    },
    {
      "inputs": [
        {
          "internalType": "bytes",
          "name": "_signature",
          "type": "bytes"
        },
        {
          "internalType": "uint256",
          "name": "_type",
          "type": "uint256"
        },
        {
          "internalType": "bool",
          "name": "_recoverMode",
          "type": "bool"
        }
      ],
      "name": "UnsupportedSignatureType",
      "type": "error"
    },
    {
      "anonymous": false,
      "inputs": [
        {
          "indexed": false,
          "internalType": "address",
          "name": "_contract",
          "type": "address"
        }
      ],
      "name": "CreatedContract",
      "type": "event"
    },
    {
      "anonymous": false,
      "inputs": [
        {
          "indexed": false,
          "internalType": "uint256",
          "name": "_space",
          "type": "uint256"
        },
        {
          "indexed": false,
          "internalType": "uint256",
          "name": "_oldNonce",
          "type": "uint256"
        },
        {
          "indexed": false,
          "internalType": "uint256",
          "name": "_newNonce",
          "type": "uint256"
        }
      ],
      "name": "GapNonceChange",
      "type": "event"
    },
    {
      "anonymous": false,
      "inputs": [
        {
          "indexed": false,
          "internalType": "bytes32",
          "name": "newImageHash",
          "type": "bytes32"
        }
      ],
      "name": "ImageHashUpdated",
      "type": "event"
    },
    {
      "anonymous": false,
      "inputs": [
        {
          "indexed": false,
          "internalType": "address",
          "name": "newImplementation",
          "type": "address"
        }
      ],
      "name": "ImplementationUpdated",
      "type": "event"
    },
    {
      "anonymous": false,
      "inputs": [],
      "name": "NoNonceUsed",
      "type": "event"
    },
    {
      "anonymous": false,
      "inputs": [
        {
          "indexed": false,
          "internalType": "uint256",
          "name": "_space",
          "type": "uint256"
        },
        {
          "indexed": false,
          "internalType": "uint256",
          "name": "_newNonce",
          "type": "uint256"
        }
      ],
      "name": "NonceChange",
      "type": "event"
    },
    {
      "anonymous": true,
      "inputs": [
        {
          "indexed": false,
          "internalType": "bytes32",
          "name": "_tx",
          "type": "bytes32"
        }
      ],
      "name": "TxExecuted",
      "type": "event"
    },
    {
      "anonymous": false,
      "inputs": [
        {
          "indexed": false,
          "internalType": "bytes32",
          "name": "_tx",
          "type": "bytes32"
        },
        {
          "indexed": false,
          "internalType": "bytes",
          "name": "_reason",
          "type": "bytes"
        }
      ],
      "name": "TxFailed",
      "type": "event"
    },
    {
      "stateMutability": "payable",
      "type": "fallback"
    },
    {
      "inputs": [
        {
          "internalType": "bytes4",
          "name": "_signature",
          "type": "bytes4"
        },
        {
          "internalType": "address",
          "name": "_implementation",
          "type": "address"
        }
      ],
      "name": "addHook",
      "outputs": [],
      "stateMutability": "nonpayable",
      "type": "function"
    },
    {
      "inputs": [
        {
          "internalType": "bytes",
          "name": "_code",
          "type": "bytes"
        }
      ],
      "name": "createContract",
      "outputs": [
        {
          "internalType": "address",
          "name": "addr",
          "type": "address"
        }
      ],
      "stateMutability": "payable",
      "type": "function"
    },
    {
      "inputs": [
        {
          "components": [
            {
              "internalType": "bool",
              "name": "delegateCall",
              "type": "bool"
            },
            {
              "internalType": "bool",
              "name": "revertOnError",
              "type": "bool"
            },
            {
              "internalType": "uint256",
              "name": "gasLimit",
              "type": "uint256"
            },
            {
              "internalType": "address",
              "name": "target",
              "type": "address"
            },
            {
              "internalType": "uint256",
              "name": "value",
              "type": "uint256"
            },
            {
              "internalType": "bytes",
              "name": "data",
              "type": "bytes"
            }
          ],
          "internalType": "struct IModuleCalls.Transaction[]",
          "name": "_txs",
          "type": "tuple[]"
        },
        {
          "internalType": "uint256",
          "name": "_nonce",
          "type": "uint256"
        },
        {
          "internalType": "bytes",
          "name": "_signature",
          "type": "bytes"
        }
      ],
      "name": "execute",
      "outputs": [],
      "stateMutability": "nonpayable",
      "type": "function"
    },
    {
      "inputs": [],
      "name": "imageHash",
      "outputs": [
        {
          "internalType": "bytes32",
          "name": "",
          "type": "bytes32"
        }
      ],
      "stateMutability": "view",
      "type": "function"
    },
    {
      "inputs": [
        {
          "internalType": "bytes32",
          "name": "_hash",
          "type": "bytes32"
        },
        {
          "internalType": "bytes",
          "name": "_signatures",
          "type": "bytes"
        }
      ],
      "name": "isValidSignature",
      "outputs": [
        {
          "internalType": "bytes4",
          "name": "",
          "type": "bytes4"
        }
      ],
      "stateMutability": "view",
      "type": "function"
    },
    {
      "inputs": [
        {
          "internalType": "bytes",
          "name": "_data",
          "type": "bytes"
        },
        {
          "internalType": "bytes",
          "name": "_signatures",
          "type": "bytes"
        }
      ],
      "name": "isValidSignature",
      "outputs": [
        {
          "internalType": "bytes4",
          "name": "",
          "type": "bytes4"
        }
      ],
      "stateMutability": "view",
      "type": "function"
    },
    {
      "inputs": [],
      "name": "nonce",
      "outputs": [
        {
          "internalType": "uint256",
          "name": "",
          "type": "uint256"
        }
      ],
      "stateMutability": "view",
      "type": "function"
    },
    {
      "inputs": [
        {
          "internalType": "address",
          "name": "",
          "type": "address"
        },
        {
          "internalType": "address",
          "name": "",
          "type": "address"
        },
        {
          "internalType": "uint256[]",
          "name": "",
          "type": "uint256[]"
        },
        {
          "internalType": "uint256[]",
          "name": "",
          "type": "uint256[]"
        },
        {
          "internalType": "bytes",
          "name": "",
          "type": "bytes"
        }
      ],
      "name": "onERC1155BatchReceived",
      "outputs": [
        {
          "internalType": "bytes4",
          "name": "",
          "type": "bytes4"
        }
      ],
      "stateMutability": "nonpayable",
      "type": "function"
    },
    {
      "inputs": [
        {
          "internalType": "address",
          "name": "",
          "type": "address"
        },
        {
          "internalType": "address",
          "name": "",
          "type": "address"
        },
        {
          "internalType": "uint256",
          "name": "",
          "type": "uint256"
        },
        {
          "internalType": "uint256",
          "name": "",
          "type": "uint256"
        },
        {
          "internalType": "bytes",
          "name": "",
          "type": "bytes"
        }
      ],
      "name": "onERC1155Received",
      "outputs": [
        {
          "internalType": "bytes4",
          "name": "",
          "type": "bytes4"
        }
      ],
      "stateMutability": "nonpayable",
      "type": "function"
    },
    {
      "inputs": [
        {
          "internalType": "address",
          "name": "",
          "type": "address"
        },
        {
          "internalType": "address",
          "name": "",
          "type": "address"
        },
        {
          "internalType": "uint256",
          "name": "",
          "type": "uint256"
        },
        {
          "internalType": "bytes",
          "name": "",
          "type": "bytes"
        }
      ],
      "name": "onERC721Received",
      "outputs": [
        {
          "internalType": "bytes4",
          "name": "",
          "type": "bytes4"
        }
      ],
      "stateMutability": "nonpayable",
      "type": "function"
    },
    {
      "inputs": [
        {
          "internalType": "uint256",
          "name": "_space",
          "type": "uint256"
        }
      ],
      "name": "readGapNonce",
      "outputs": [
        {
          "internalType": "uint256",
          "name": "",
          "type": "uint256"
        }
      ],
      "stateMutability": "view",
      "type": "function"
    },
    {
      "inputs": [
        {
          "internalType": "bytes4",
          "name": "_signature",
          "type": "bytes4"
        }
      ],
      "name": "readHook",
      "outputs": [
        {
          "internalType": "address",
          "name": "",
          "type": "address"
        }
      ],
      "stateMutability": "view",
      "type": "function"
    },
    {
      "inputs": [
        {
          "internalType": "uint256",
          "name": "_space",
          "type": "uint256"
        }
      ],
      "name": "readNonce",
      "outputs": [
        {
          "internalType": "uint256",
          "name": "",
          "type": "uint256"
        }
      ],
      "stateMutability": "view",
      "type": "function"
    },
    {
      "inputs": [
        {
          "internalType": "bytes4",
          "name": "_signature",
          "type": "bytes4"
        }
      ],
      "name": "removeHook",
      "outputs": [],
      "stateMutability": "nonpayable",
      "type": "function"
    },
    {
      "inputs": [
        {
          "components": [
            {
              "internalType": "bool",
              "name": "delegateCall",
              "type": "bool"
            },
            {
              "internalType": "bool",
              "name": "revertOnError",
              "type": "bool"
            },
            {
              "internalType": "uint256",
              "name": "gasLimit",
              "type": "uint256"
            },
            {
              "internalType": "address",
              "name": "target",
              "type": "address"
            },
            {
              "internalType": "uint256",
              "name": "value",
              "type": "uint256"
            },
            {
              "internalType": "bytes",
              "name": "data",
              "type": "bytes"
            }
          ],
          "internalType": "struct IModuleCalls.Transaction[]",
          "name": "_txs",
          "type": "tuple[]"
        }
      ],
      "name": "selfExecute",
      "outputs": [],
      "stateMutability": "nonpayable",
      "type": "function"
    },
    {
      "inputs": [
        {
          "internalType": "bytes4",
          "name": "_interfaceID",
          "type": "bytes4"
        }
      ],
      "name": "supportsInterface",
      "outputs": [
        {
          "internalType": "bool",
          "name": "",
          "type": "bool"
        }
      ],
      "stateMutability": "pure",
      "type": "function"
    },
    {
      "inputs": [
        {
          "internalType": "bytes32",
          "name": "_imageHash",
          "type": "bytes32"
        }
      ],
      "name": "updateImageHash",
      "outputs": [],
      "stateMutability": "nonpayable",
      "type": "function"
    },
    {
      "inputs": [
        {
          "internalType": "address",
          "name": "_implementation",
          "type": "address"
        }
      ],
      "name": "updateImplementation",
      "outputs": [],
      "stateMutability": "nonpayable",
      "type": "function"
    },
    {
      "stateMutability": "payable",
      "type": "receive"
    }
  ],
  "bytecode": "0x608060405234801561001057600080fd5b50612aba806100206000396000f3fe60806040526004361061012d5760003560e01c806361c2926c116100a5578063affed0e011610074578063bc197c8111610059578063bc197c8114610463578063cc63f2e2146104ab578063f23a6e61146104cb57610134565b8063affed0e01461042e578063b93ea7ad1461044357610134565b806361c2926c146103bb5780637a9a1628146103db5780638c3f5563146103fb57806390042baf1461041b57610134565b80631a9b2337116100fc57806329561426116100e157806329561426146103585780634fcf3eca1461037857806351605d801461039857610134565b80631a9b2337146102f357806320c13b0b1461033857610134565b806301ffc9a714610208578063025b22bc1461023d578063150b7a021461025d5780631626ba7e146102d357610134565b3661013457005b60006101636000357fffffffff0000000000000000000000000000000000000000000000000000000016610511565b905073ffffffffffffffffffffffffffffffffffffffff811615610206576000808273ffffffffffffffffffffffffffffffffffffffff166000366040516101ac929190611f9a565b600060405180830381855af49150503d80600081146101e7576040519150601f19603f3d011682016040523d82523d6000602084013e6101ec565b606091505b5091509150816101fe57805160208201fd5b805160208201f35b005b34801561021457600080fd5b50610228610223366004611fd8565b610565565b60405190151581526020015b60405180910390f35b34801561024957600080fd5b5061020661025836600461201e565b610570565b34801561026957600080fd5b506102a2610278366004612082565b7f150b7a020000000000000000000000000000000000000000000000000000000095945050505050565b6040517fffffffff000000000000000000000000000000000000000000000000000000009091168152602001610234565b3480156102df57600080fd5b506102a26102ee3660046120f1565b610671565b3480156102ff57600080fd5b5061031361030e366004611fd8565b6106ba565b60405173ffffffffffffffffffffffffffffffffffffffff9091168152602001610234565b34801561034457600080fd5b506102a261035336600461213d565b6106c5565b34801561036457600080fd5b506102066103733660046121a9565b610726565b34801561038457600080fd5b50610206610393366004611fd8565b6107f7565b3480156103a457600080fd5b506103ad610929565b604051908152602001610234565b3480156103c757600080fd5b506102066103d6366004612444565b610958565b3480156103e757600080fd5b506102066103f6366004612479565b610a6e565b34801561040757600080fd5b506103ad6104163660046121a9565b610b00565b6103136104293660046124d0565b610b2c565b34801561043a57600080fd5b506103ad610bc8565b34801561044f57600080fd5b5061020661045e366004612505565b610bd4565b34801561046f57600080fd5b506102a261047e36600461257f565b7fbc197c810000000000000000000000000000000000000000000000000000000098975050505050505050565b3480156104b757600080fd5b506103ad6104c63660046121a9565b610d19565b3480156104d757600080fd5b506102a26104e636600461263a565b7ff23a6e61000000000000000000000000000000000000000000000000000000009695505050505050565b600061055f7fbe27a319efc8734e89e26ba4bc95f5c788584163b959f03fa04e2d7ab4b9a1207fffffffff000000000000000000000000000000000000000000000000000000008416610d41565b92915050565b600061055f82610d9f565b3330146105b6576040517fe12588940000000000000000000000000000000000000000000000000000000081523360048201523060248201526044015b60405180910390fd5b73ffffffffffffffffffffffffffffffffffffffff81163b61061c576040517f0c76093700000000000000000000000000000000000000000000000000000000815273ffffffffffffffffffffffffffffffffffffffff821660048201526024016105ad565b610624813055565b60405173ffffffffffffffffffffffffffffffffffffffff821681527f310ba5f1d2ed074b51e2eccd052a47ae9ab7c6b800d1fca3db3999d6a592ca03906020015b60405180910390a150565b60008061067f858585610dfb565b50905080156106b157507f1626ba7e0000000000000000000000000000000000000000000000000000000090506106b3565b505b9392505050565b600061055f82610511565b6000806106ea86866040516106db929190611f9a565b60405180910390208585610dfb565b509050801561071c57507f20c13b0b00000000000000000000000000000000000000000000000000000000905061071e565b505b949350505050565b333014610767576040517fe12588940000000000000000000000000000000000000000000000000000000081523360048201523060248201526044016105ad565b8061079e576040517f4294d12700000000000000000000000000000000000000000000000000000000815260040160405180910390fd5b6107c77fea7157fa25e3aa17d0ae2d5280fa4e24d421c61842aa85e45194e1145aa72bf8829055565b6040518181527f307ed6bd941ee9fc80f369c94af5fa11e25bab5102a6140191756c5474a30bfa90602001610666565b333014610838576040517fe12588940000000000000000000000000000000000000000000000000000000081523360048201523060248201526044016105ad565b600061084382610511565b73ffffffffffffffffffffffffffffffffffffffff16036108b4576040517f1c3812cc0000000000000000000000000000000000000000000000000000000081527fffffffff00000000000000000000000000000000000000000000000000000000821660048201526024016105ad565b604080517fbe27a319efc8734e89e26ba4bc95f5c788584163b959f03fa04e2d7ab4b9a1206020808301919091527fffffffff00000000000000000000000000000000000000000000000000000000841682840152825180830384018152606090920190925280519101206000905550565b50565b60006109537fea7157fa25e3aa17d0ae2d5280fa4e24d421c61842aa85e45194e1145aa72bf85490565b905090565b333014610999576040517fe12588940000000000000000000000000000000000000000000000000000000081523360048201523060248201526044016105ad565b6000610a5e826040516020016109af91906127d5565b604080517fffffffffffffffffffffffffffffffffffffffffffffffffffffffffffffffe081840301815282825280516020918201207f1901000000000000000000000000000000000000000000000000000000000000848301524660228501523060601b7fffffffffffffffffffffffffffffffffffffffff000000000000000000000000166042850152605680850191909152825180850390910181526076909301909152815191012090565b9050610a6a8183610e9c565b5050565b610a778361107b565b600080610aad8587604051602001610a9092919061281c565b604051602081830303815290604052805190602001208585610dfb565b9150915081610aee578084846040517f8f4a234f0000000000000000000000000000000000000000000000000000000081526004016105ad9392919061287e565b610af88187610e9c565b505050505050565b600061055f7f8d0bf1fd623d628c741362c1289948e57b3e2905218c676d3e69abee36d6ae2e83610d41565b6000333014610b6f576040517fe12588940000000000000000000000000000000000000000000000000000000081523360048201523060248201526044016105ad565b81516020830134f060405173ffffffffffffffffffffffffffffffffffffffff821681529091507fa506ad4e7f05eceba62a023c3219e5bd98a615f4fa87e2afb08a2da5cf62bf0c9060200160405180910390a1919050565b60006109536000610b00565b333014610c15576040517fe12588940000000000000000000000000000000000000000000000000000000081523360048201523060248201526044016105ad565b6000610c2083610511565b73ffffffffffffffffffffffffffffffffffffffff1614610c91576040517f5b4d6d6a0000000000000000000000000000000000000000000000000000000081527fffffffff00000000000000000000000000000000000000000000000000000000831660048201526024016105ad565b604080517fbe27a319efc8734e89e26ba4bc95f5c788584163b959f03fa04e2d7ab4b9a1206020808301919091527fffffffff000000000000000000000000000000000000000000000000000000008516828401528251808303840181526060909201909252805191012073ffffffffffffffffffffffffffffffffffffffff821690555050565b600061055f7f2a37c7c3c3449f4795b05559a0f92a1730815bf20be16b02bbd6dbb8ae8532fe835b6000808383604051602001610d60929190918252602082015260400190565b604080517fffffffffffffffffffffffffffffffffffffffffffffffffffffffffffffffe0818403018152919052805160209091012054949350505050565b60007f6ffbd451000000000000000000000000000000000000000000000000000000007fffffffff00000000000000000000000000000000000000000000000000000000831601610df257506001919050565b61055f8261131b565b600080600080610e0b868661145c565b909250905060ff8216610e2f57610e24868689846114a9565b935093505050610e94565b60018260ff1603610e4657610e2486868984611564565b60028260ff1603610e5d57610e24868689846115fb565b6040517fbff01fa700000000000000000000000000000000000000000000000000000000815260ff831660048201526024016105ad565b935093915050565b60005b8151811015611076576000828281518110610ebc57610ebc6128a1565b602002602001015190506000606082604001515a1015610f175782604001515a6040517f9fa72982000000000000000000000000000000000000000000000000000000008152600481019290925260248201526044016105ad565b825115610faf57826060015173ffffffffffffffffffffffffffffffffffffffff168360400151600014610f4f578360400151610f51565b5a5b8460a00151604051610f6391906128d0565b6000604051808303818686f4925050503d8060008114610f9f576040519150601f19603f3d011682016040523d82523d6000602084013e610fa4565b606091505b509092509050611044565b826060015173ffffffffffffffffffffffffffffffffffffffff1683608001518460400151600014610fe5578460400151610fe7565b5a5b908560a00151604051610ffa91906128d0565b600060405180830381858888f193505050503d8060008114611038576040519150601f19603f3d011682016040523d82523d6000602084013e61103d565b606091505b5090925090505b81156110605760405186815260200160405180910390a061106b565b61106b838783611683565b505050600101610e9f565b505050565b6000806000611089846116d3565b919450925090508161118b5760006110a084610b00565b90508181141580156110b0575060005b156110f8576040517f9b6514f40000000000000000000000000000000000000000000000000000000081526004810185905260248101839052604481018290526064016105ad565b604080517f8d0bf1fd623d628c741362c1289948e57b3e2905218c676d3e69abee36d6ae2e60208083019190915281830187905282518083038401815260609092019092528051910120600183019081905560408051868152602081018390527f1f180c27086c7a39ea2a7b25239d1ab92348f07ca7bb59d1438fcf527568f881910160405180910390a1505050505050565b6001820361128857600061119e84610d19565b90508082111580156111ae575060005b156111f6576040517fcf9c69b80000000000000000000000000000000000000000000000000000000081526004810185905260248101839052604481018290526064016105ad565b604080517f2a37c7c3c3449f4795b05559a0f92a1730815bf20be16b02bbd6dbb8ae8532fe60208083019190915281830187905282518083038401815260608301808552815191909201208590558690526080810183905260a0810184905290517fd9aa9f0269d7ebe0e495362c56c21163d40a52f13ad524fb0e844ff41811f0529181900360c00190a15050505050565b6002820361130d578215158061129d57508015155b156112de576040517f333fc10200000000000000000000000000000000000000000000000000000000815260048101849052602481018290526044016105ad565b6040517fffcdc510cc982d77c612ebe049ca925f66c6effb232c431c01fd0e79f6dad4f590600090a150505050565b6113156128ec565b50505050565b60007fffffffff0000000000000000000000000000000000000000000000000000000082167fec6aba500000000000000000000000000000000000000000000000000000000014806113ae57507fffffffff0000000000000000000000000000000000000000000000000000000082167f4e2312e000000000000000000000000000000000000000000000000000000000145b806113fa57507fffffffff0000000000000000000000000000000000000000000000000000000082167f150b7a0200000000000000000000000000000000000000000000000000000000145b8061144657507fffffffff0000000000000000000000000000000000000000000000000000000082167fc0ee0b8a00000000000000000000000000000000000000000000000000000000145b1561145357506001919050565b61055f82611733565b60008082810361149c5783836040517f322952a30000000000000000000000000000000000000000000000000000000081526004016105ad92919061291b565b5050503560f81c90600190565b604080517f19010000000000000000000000000000000000000000000000000000000000006020808301919091524660228301523060601b7fffffffffffffffffffffffffffffffffffffffff00000000000000000000000016604283015260568083018690528351808403909101815260769092019092528051910120600090600080600061153c848a8a600061178f565b92509250925080821015801561155657506115568361196b565b945050505094509492505050565b604080517f19010000000000000000000000000000000000000000000000000000000000006020808301919091524660228301523060601b7fffffffffffffffffffffffffffffffffffffffff0000000000000000000000001660428301526056808301869052835180840390910181526076909201909252805191012060009081905b9050600080600061153c848a8a8961178f565b604080517f19010000000000000000000000000000000000000000000000000000000000006020808301919091526000602283018190523060601b7fffffffffffffffffffffffffffffffffffffffff0000000000000000000000001660428401526056808401879052845180850390910181526076909301909352815191012081906115e8565b82602001511561169557805160208201fd5b7f3dbd1590ea96dd3253a91f24e64e3a502e1225d602a5731357bc12643070ccd782826040516116c692919061292f565b60405180910390a1505050565b606081901c605882901c60ff166affffffffffffffffffffff8316600282111561172c576040517ff5587439000000000000000000000000000000000000000000000000000000008152600481018390526024016105ad565b9193909250565b60007ffda4dd44000000000000000000000000000000000000000000000000000000007fffffffff0000000000000000000000000000000000000000000000000000000083160161178657506001919050565b61055f82611984565b8281013560f01c600081600284015b8581101561196057600281019087013560f881901c9060f01c60ff1660007fffffffffffffffffffffffffffffffffffffffffffffffffffffffffffffffff83016117f45750601483019289013560601c611910565b8261182a57600084604201905061181c8c8c8c8890859261181793929190612948565b6119e0565b968301969094509050611910565b600283036118db57838a013560601c601485019450905060008a85013560f01c600286018161ffff1691508096508192505050600081860190506118808d848e8e8a90869261187b93929190612948565b611ca3565b6118ce578c838d8d8990859261189893929190612948565b6040517f9a9462320000000000000000000000000000000000000000000000000000000081526004016105ad9493929190612972565b9683019694506119109050565b6040517fb2505f7c000000000000000000000000000000000000000000000000000000008152600481018490526024016105ad565b604080516020810189905290810183905273ffffffffffffffffffffffffffffffffffffffff8216606082015260800160405160208183030381529060405280519060200120965050505061179e565b509450945094915050565b600061197682611e47565b8061055f5750600192915050565b60007f0b050cdb000000000000000000000000000000000000000000000000000000007fffffffff000000000000000000000000000000000000000000000000000000008316016119d757506001919050565b61055f82611e7a565b600060428214611a205782826040517f2ee17a3d0000000000000000000000000000000000000000000000000000000081526004016105ad92919061291b565b6000611a39611a306001856129b2565b85013560f81c90565b60ff169050604084013560f81c843560208601357f7fffffffffffffffffffffffffffffff5d576e7357a4501ddfe92f46681b20a0811115611aad578686826040517fad4aac760000000000000000000000000000000000000000000000000000000081526004016105ad939291906129f0565b8260ff16601b14158015611ac557508260ff16601c14155b15611b02578686846040517fe578897e0000000000000000000000000000000000000000000000000000000081526004016105ad93929190612a14565b60018403611b6f576040805160008152602081018083528a905260ff851691810191909152606081018390526080810182905260019060a0015b6020604051602081039080840390855afa158015611b5e573d6000803e3d6000fd5b505050602060405103519450611c47565b60028403611c0c576040517f19457468657265756d205369676e6564204d6573736167653a0a3332000000006020820152603c8101899052600190605c01604080517fffffffffffffffffffffffffffffffffffffffffffffffffffffffffffffffe08184030181528282528051602091820120600084529083018083525260ff861690820152606081018490526080810183905260a001611b3c565b86868560016040517f9dfba8520000000000000000000000000000000000000000000000000000000081526004016105ad9493929190612a3b565b73ffffffffffffffffffffffffffffffffffffffff8516611c985786866040517f6c1719d20000000000000000000000000000000000000000000000000000000081526004016105ad92919061291b565b505050509392505050565b6000808383611cb36001826129b2565b818110611cc257611cc26128a1565b919091013560f81c9150506001811480611cdc5750600281145b15611d21578473ffffffffffffffffffffffffffffffffffffffff16611d038786866119e0565b73ffffffffffffffffffffffffffffffffffffffff1614915061071c565b60038103611e0c5773ffffffffffffffffffffffffffffffffffffffff8516631626ba7e8786600087611d556001826129b2565b92611d6293929190612948565b6040518463ffffffff1660e01b8152600401611d809392919061287e565b602060405180830381865afa158015611d9d573d6000803e3d6000fd5b505050506040513d601f19601f82011682018060405250810190611dc19190612a67565b7fffffffff00000000000000000000000000000000000000000000000000000000167f1626ba7e0000000000000000000000000000000000000000000000000000000014915061071c565b83838260006040517f9dfba8520000000000000000000000000000000000000000000000000000000081526004016105ad9493929190612a3b565b6000811580159061055f5750507fea7157fa25e3aa17d0ae2d5280fa4e24d421c61842aa85e45194e1145aa72bf8541490565b60007f87c9b65a000000000000000000000000000000000000000000000000000000007fffffffff00000000000000000000000000000000000000000000000000000000831601611ecd57506001919050565b61055f8260007fffffffff0000000000000000000000000000000000000000000000000000000082161580611f4357507fffffffff0000000000000000000000000000000000000000000000000000000082167f36e7817500000000000000000000000000000000000000000000000000000000145b15611f5057506001919050565b7f01ffc9a7000000000000000000000000000000000000000000000000000000007fffffffff0000000000000000000000000000000000000000000000000000000083161461055f565b8183823760009101908152919050565b7fffffffff000000000000000000000000000000000000000000000000000000008116811461092657600080fd5b600060208284031215611fea57600080fd5b81356106b381611faa565b803573ffffffffffffffffffffffffffffffffffffffff8116811461201957600080fd5b919050565b60006020828403121561203057600080fd5b6106b382611ff5565b60008083601f84011261204b57600080fd5b50813567ffffffffffffffff81111561206357600080fd5b60208301915083602082850101111561207b57600080fd5b9250929050565b60008060008060006080868803121561209a57600080fd5b6120a386611ff5565b94506120b160208701611ff5565b935060408601359250606086013567ffffffffffffffff8111156120d457600080fd5b6120e088828901612039565b969995985093965092949392505050565b60008060006040848603121561210657600080fd5b83359250602084013567ffffffffffffffff81111561212457600080fd5b61213086828701612039565b9497909650939450505050565b6000806000806040858703121561215357600080fd5b843567ffffffffffffffff8082111561216b57600080fd5b61217788838901612039565b9096509450602087013591508082111561219057600080fd5b5061219d87828801612039565b95989497509550505050565b6000602082840312156121bb57600080fd5b5035919050565b7f4e487b7100000000000000000000000000000000000000000000000000000000600052604160045260246000fd5b60405160c0810167ffffffffffffffff81118282101715612214576122146121c2565b60405290565b604051601f82017fffffffffffffffffffffffffffffffffffffffffffffffffffffffffffffffe016810167ffffffffffffffff81118282101715612261576122616121c2565b604052919050565b8035801515811461201957600080fd5b600082601f83011261228a57600080fd5b813567ffffffffffffffff8111156122a4576122a46121c2565b6122d560207fffffffffffffffffffffffffffffffffffffffffffffffffffffffffffffffe0601f8401160161221a565b8181528460208386010111156122ea57600080fd5b816020850160208301376000918101602001919091529392505050565b600082601f83011261231857600080fd5b8135602067ffffffffffffffff80831115612335576123356121c2565b8260051b61234483820161221a565b938452858101830193838101908886111561235e57600080fd5b84880192505b858310156124385782358481111561237c5760008081fd5b880160c0818b037fffffffffffffffffffffffffffffffffffffffffffffffffffffffffffffffe0018113156123b25760008081fd5b6123ba6121f1565b6123c5888401612269565b815260406123d4818501612269565b8983015260608085013582840152608091506123f1828601611ff5565b9083015260a0848101358284015292840135928884111561241457600091508182fd5b6124228e8b86880101612279565b9083015250845250509184019190840190612364565b98975050505050505050565b60006020828403121561245657600080fd5b813567ffffffffffffffff81111561246d57600080fd5b61071e84828501612307565b6000806000806060858703121561248f57600080fd5b843567ffffffffffffffff808211156124a757600080fd5b6124b388838901612307565b955060208701359450604087013591508082111561219057600080fd5b6000602082840312156124e257600080fd5b813567ffffffffffffffff8111156124f957600080fd5b61071e84828501612279565b6000806040838503121561251857600080fd5b823561252381611faa565b915061253160208401611ff5565b90509250929050565b60008083601f84011261254c57600080fd5b50813567ffffffffffffffff81111561256457600080fd5b6020830191508360208260051b850101111561207b57600080fd5b60008060008060008060008060a0898b03121561259b57600080fd5b6125a489611ff5565b97506125b260208a01611ff5565b9650604089013567ffffffffffffffff808211156125cf57600080fd5b6125db8c838d0161253a565b909850965060608b01359150808211156125f457600080fd5b6126008c838d0161253a565b909650945060808b013591508082111561261957600080fd5b506126268b828c01612039565b999c989b5096995094979396929594505050565b60008060008060008060a0878903121561265357600080fd5b61265c87611ff5565b955061266a60208801611ff5565b94506040870135935060608701359250608087013567ffffffffffffffff81111561269457600080fd5b6126a089828a01612039565b979a9699509497509295939492505050565b60005b838110156126cd5781810151838201526020016126b5565b838111156113155750506000910152565b600081518084526126f68160208601602086016126b2565b601f017fffffffffffffffffffffffffffffffffffffffffffffffffffffffffffffffe0169290920160200192915050565b600081518084526020808501808196508360051b8101915082860160005b858110156127c85782840389528151805115158552858101511515868601526040808201519086015260608082015173ffffffffffffffffffffffffffffffffffffffff16908601526080808201519086015260a09081015160c0918601829052906127b4818701836126de565b9a87019a9550505090840190600101612746565b5091979650505050505050565b60408152600560408201527f73656c663a00000000000000000000000000000000000000000000000000000060608201526080602082015260006106b36080830184612728565b82815260406020820152600061071e6040830184612728565b8183528181602085013750600060208284010152600060207fffffffffffffffffffffffffffffffffffffffffffffffffffffffffffffffe0601f840116840101905092915050565b838152604060208201526000612898604083018486612835565b95945050505050565b7f4e487b7100000000000000000000000000000000000000000000000000000000600052603260045260246000fd5b600082516128e28184602087016126b2565b9190910192915050565b7f4e487b7100000000000000000000000000000000000000000000000000000000600052600160045260246000fd5b60208152600061071e602083018486612835565b82815260406020820152600061071e60408301846126de565b6000808585111561295857600080fd5b8386111561296557600080fd5b5050820193919092039150565b84815273ffffffffffffffffffffffffffffffffffffffff841660208201526060604082015260006129a8606083018486612835565b9695505050505050565b6000828210156129eb577f4e487b7100000000000000000000000000000000000000000000000000000000600052601160045260246000fd5b500390565b604081526000612a04604083018587612835565b9050826020830152949350505050565b604081526000612a28604083018587612835565b905060ff83166020830152949350505050565b606081526000612a4f606083018688612835565b60208301949094525090151560409091015292915050565b600060208284031215612a7957600080fd5b81516106b381611faa56fea26469706673582212207658b12cb20c42d0bbdd7dd22b7c3f5c9d5674112896dfcc9f45745b8cea5a5764736f6c634300080e0033",
  "linkReferences": {},
  "deployedLinkReferences": {}
}