{
  "contracts/mocks/HookMock.sol": {
    "HookMock": {
      "abi": [
        {
          "inputs": [
            {
              "internalType": "uint256",
              "name": "_num",
              "type": "uint256"
            }
          ],
          "name": "onHookMockCall",
          "outputs": [
            {
              "internalType": "uint256",
              "name": "",
              "type": "uint256"
            }
          ],
          "stateMutability": "pure",
          "type": "function"
        }
      ],
      "evm": {
        "bytecode": {
          "linkReferences": {},
          "object": "6080604052348015600f57600080fd5b5060958061001e6000396000f3fe6080604052348015600f57600080fd5b506004361060285760003560e01c8063b68fe6cf14602d575b600080fd5b604760048036036020811015604157600080fd5b50356059565b60408051918252519081900360200190f35b6002029056fea26469706673582212206f5c160773b693b9db657913a13a894a3f98df566f31f52a440537f493f34d2064736f6c63430007060033",
          "opcodes": "PUSH1 0x80 PUSH1 0x40 MSTORE CALLVALUE DUP1 ISZERO PUSH1 0xF JUMPI PUSH1 0x0 DUP1 REVERT JUMPDEST POP PUSH1 0x95 DUP1 PUSH2 0x1E PUSH1 0x0 CODECOPY PUSH1 0x0 RETURN INVALID PUSH1 0x80 PUSH1 0x40 MSTORE CALLVALUE DUP1 ISZERO PUSH1 0xF JUMPI PUSH1 0x0 DUP1 REVERT JUMPDEST POP PUSH1 0x4 CALLDATASIZE LT PUSH1 0x28 JUMPI PUSH1 0x0 CALLDATALOAD PUSH1 0xE0 SHR DUP1 PUSH4 0xB68FE6CF EQ PUSH1 0x2D JUMPI JUMPDEST PUSH1 0x0 DUP1 REVERT JUMPDEST PUSH1 0x47 PUSH1 0x4 DUP1 CALLDATASIZE SUB PUSH1 0x20 DUP2 LT ISZERO PUSH1 0x41 JUMPI PUSH1 0x0 DUP1 REVERT JUMPDEST POP CALLDATALOAD PUSH1 0x59 JUMP JUMPDEST PUSH1 0x40 DUP1 MLOAD SWAP2 DUP3 MSTORE MLOAD SWAP1 DUP2 SWAP1 SUB PUSH1 0x20 ADD SWAP1 RETURN JUMPDEST PUSH1 0x2 MUL SWAP1 JUMP INVALID LOG2 PUSH5 0x6970667358 0x22 SLT KECCAK256 PUSH16 0x5C160773B693B9DB657913A13A894A3F SWAP9 0xDF JUMP PUSH16 0x31F52A440537F493F34D2064736F6C63 NUMBER STOP SMOD MOD STOP CALLER "
        },
        "methodIdentifiers": {
          "onHookMockCall(uint256)": "b68fe6cf"
        }
      }
    }
  }
}