{
  "contracts/mocks/ERC165CheckerMock.sol": {
    "ERC165CheckerMock": {
      "abi": [
        {
          "inputs": [
            {
              "internalType": "address",
              "name": "_contract",
              "type": "address"
            },
            {
              "internalType": "bytes4",
              "name": "_interfaceId",
              "type": "bytes4"
            }
          ],
          "name": "doesContractImplementInterface",
          "outputs": [
            {
              "internalType": "bool",
              "name": "",
              "type": "bool"
            }
          ],
          "stateMutability": "view",
          "type": "function"
        }
      ],
      "evm": {
        "bytecode": {
          "linkReferences": {},
          "object": "608060405234801561001057600080fd5b506101f7806100206000396000f3fe608060405234801561001057600080fd5b506004361061002b5760003560e01c8063e9c5438414610030575b600080fd5b61008b6004803603604081101561004657600080fd5b50803573ffffffffffffffffffffffffffffffffffffffff1690602001357fffffffff000000000000000000000000000000000000000000000000000000001661009f565b604080519115158252519081900360200190f35b600080806100cd857f01ffc9a700000000000000000000000000000000000000000000000000000000610174565b90925090508115806100dd575080155b156100ed5760009250505061016e565b610117857fffffffff00000000000000000000000000000000000000000000000000000000610174565b909250905081158061012857508015155b156101385760009250505061016e565b6101428585610174565b90925090506001821480156101575750806001145b156101675760019250505061016e565b6000925050505b92915050565b6040517f01ffc9a7000000000000000000000000000000000000000000000000000000008082526004820183905260009182919060208160248189617530fa90519096909550935050505056fea26469706673582212206d04c51d5c6e2f2851c433944dad1daf87abb8733f5a39c2851d695babdc860664736f6c63430007060033",
          "opcodes": "PUSH1 0x80 PUSH1 0x40 MSTORE CALLVALUE DUP1 ISZERO PUSH2 0x10 JUMPI PUSH1 0x0 DUP1 REVERT JUMPDEST POP PUSH2 0x1F7 DUP1 PUSH2 0x20 PUSH1 0x0 CODECOPY PUSH1 0x0 RETURN INVALID PUSH1 0x80 PUSH1 0x40 MSTORE CALLVALUE DUP1 ISZERO PUSH2 0x10 JUMPI PUSH1 0x0 DUP1 REVERT JUMPDEST POP PUSH1 0x4 CALLDATASIZE LT PUSH2 0x2B JUMPI PUSH1 0x0 CALLDATALOAD PUSH1 0xE0 SHR DUP1 PUSH4 0xE9C54384 EQ PUSH2 0x30 JUMPI JUMPDEST PUSH1 0x0 DUP1 REVERT JUMPDEST PUSH2 0x8B PUSH1 0x4 DUP1 CALLDATASIZE SUB PUSH1 0x40 DUP2 LT ISZERO PUSH2 0x46 JUMPI PUSH1 0x0 DUP1 REVERT JUMPDEST POP DUP1 CALLDATALOAD PUSH20 0xFFFFFFFFFFFFFFFFFFFFFFFFFFFFFFFFFFFFFFFF AND SWAP1 PUSH1 0x20 ADD CALLDATALOAD PUSH32 0xFFFFFFFF00000000000000000000000000000000000000000000000000000000 AND PUSH2 0x9F JUMP JUMPDEST PUSH1 0x40 DUP1 MLOAD SWAP2 ISZERO ISZERO DUP3 MSTORE MLOAD SWAP1 DUP2 SWAP1 SUB PUSH1 0x20 ADD SWAP1 RETURN JUMPDEST PUSH1 0x0 DUP1 DUP1 PUSH2 0xCD DUP6 PUSH32 0x1FFC9A700000000000000000000000000000000000000000000000000000000 PUSH2 0x174 JUMP JUMPDEST SWAP1 SWAP3 POP SWAP1 POP DUP2 ISZERO DUP1 PUSH2 0xDD JUMPI POP DUP1 ISZERO JUMPDEST ISZERO PUSH2 0xED JUMPI PUSH1 0x0 SWAP3 POP POP POP PUSH2 0x16E JUMP JUMPDEST PUSH2 0x117 DUP6 PUSH32 0xFFFFFFFF00000000000000000000000000000000000000000000000000000000 PUSH2 0x174 JUMP JUMPDEST SWAP1 SWAP3 POP SWAP1 POP DUP2 ISZERO DUP1 PUSH2 0x128 JUMPI POP DUP1 ISZERO ISZERO JUMPDEST ISZERO PUSH2 0x138 JUMPI PUSH1 0x0 SWAP3 POP POP POP PUSH2 0x16E JUMP JUMPDEST PUSH2 0x142 DUP6 DUP6 PUSH2 0x174 JUMP JUMPDEST SWAP1 SWAP3 POP SWAP1 POP PUSH1 0x1 DUP3 EQ DUP1 ISZERO PUSH2 0x157 JUMPI POP DUP1 PUSH1 0x1 EQ JUMPDEST ISZERO PUSH2 0x167 JUMPI PUSH1 0x1 SWAP3 POP POP POP PUSH2 0x16E JUMP JUMPDEST PUSH1 0x0 SWAP3 POP POP POP JUMPDEST SWAP3 SWAP2 POP POP JUMP JUMPDEST PUSH1 0x40 MLOAD PUSH32 0x1FFC9A700000000000000000000000000000000000000000000000000000000 DUP1 DUP3 MSTORE PUSH1 0x4 DUP3 ADD DUP4 SWAP1 MSTORE PUSH1 0x0 SWAP2 DUP3 SWAP2 SWAP1 PUSH1 0x20 DUP2 PUSH1 0x24 DUP2 DUP10 PUSH2 0x7530 STATICCALL SWAP1 MLOAD SWAP1 SWAP7 SWAP1 SWAP6 POP SWAP4 POP POP POP POP JUMP INVALID LOG2 PUSH5 0x6970667358 0x22 SLT KECCAK256 PUSH14 0x4C51D5C6E2F2851C433944DAD1D 0xAF DUP8 0xAB 0xB8 PUSH20 0x3F5A39C2851D695BABDC860664736F6C63430007 MOD STOP CALLER "
        },
        "methodIdentifiers": {
          "doesContractImplementInterface(address,bytes4)": "e9c54384"
        }
      }
    }
  }
}