{
  "contracts/mocks/DelegateCallMock.sol": {
    "DelegateCallMock": {
      "abi": [
        {
          "anonymous": false,
          "inputs": [
            {
              "indexed": false,
              "internalType": "uint256",
              "name": "_val",
              "type": "uint256"
            }
          ],
          "name": "Readed",
          "type": "event"
        },
        {
          "inputs": [
            {
              "internalType": "uint256",
              "name": "_key",
              "type": "uint256"
            }
          ],
          "name": "read",
          "outputs": [],
          "stateMutability": "nonpayable",
          "type": "function"
        },
        {
          "inputs": [
            {
              "internalType": "bool",
              "name": "_revertFlag",
              "type": "bool"
            }
          ],
          "name": "setRevertFlag",
          "outputs": [],
          "stateMutability": "nonpayable",
          "type": "function"
        },
        {
          "inputs": [
            {
              "internalType": "uint256",
              "name": "_key",
              "type": "uint256"
            },
            {
              "internalType": "uint256",
              "name": "_val",
              "type": "uint256"
            }
          ],
          "name": "write",
          "outputs": [],
          "stateMutability": "nonpayable",
          "type": "function"
        }
      ],
      "evm": {
        "bytecode": {
          "linkReferences": {},
          "object": "608060405234801561001057600080fd5b50610258806100206000396000f3fe608060405234801561001057600080fd5b50600436106100415760003560e01c8063381ba140146100465780639c0e3f7a14610067578063ed2e5a971461008a575b600080fd5b6100656004803603602081101561005c57600080fd5b503515156100a7565b005b6100656004803603604081101561007d57600080fd5b5080359060200135610107565b610065600480360360208110156100a057600080fd5b50356101ba565b806100b35760006100b6565b60015b7f6108217547eb0f6456375f9cad1dc0e5578e94c4334120e3e36fa8a89e5462ce600090815260205260ff167f462254436fc6d6fc89769c1be7cfba1d2f72eac77695d0f0241c9f493adcf1465550565b7f6108217547eb0f6456375f9cad1dc0e5578e94c4334120e3e36fa8a89e5462ce60009081526020527f462254436fc6d6fc89769c1be7cfba1d2f72eac77695d0f0241c9f493adcf14654156101a8576040517f08c379a00000000000000000000000000000000000000000000000000000000081526004018080602001828103825260238152602001806102006023913960400191505060405180910390fd5b60009182526020829052604090912055565b6000818152602081815260409182902054825190815291517fbc729c7b482904bbcfeab92d0354ccfb7a805b45b9c1f13b723d751d99ac70ff9281900390910190a15056fe44656c656761746543616c6c4d6f636b2377726974653a205245564552545f464c4147a2646970667358221220bfb5ed61dec8b626af338591a752c31a14209619f71c5deac75c59149da6f69d64736f6c63430007060033",
          "opcodes": "PUSH1 0x80 PUSH1 0x40 MSTORE CALLVALUE DUP1 ISZERO PUSH2 0x10 JUMPI PUSH1 0x0 DUP1 REVERT JUMPDEST POP PUSH2 0x258 DUP1 PUSH2 0x20 PUSH1 0x0 CODECOPY PUSH1 0x0 RETURN INVALID PUSH1 0x80 PUSH1 0x40 MSTORE CALLVALUE DUP1 ISZERO PUSH2 0x10 JUMPI PUSH1 0x0 DUP1 REVERT JUMPDEST POP PUSH1 0x4 CALLDATASIZE LT PUSH2 0x41 JUMPI PUSH1 0x0 CALLDATALOAD PUSH1 0xE0 SHR DUP1 PUSH4 0x381BA140 EQ PUSH2 0x46 JUMPI DUP1 PUSH4 0x9C0E3F7A EQ PUSH2 0x67 JUMPI DUP1 PUSH4 0xED2E5A97 EQ PUSH2 0x8A JUMPI JUMPDEST PUSH1 0x0 DUP1 REVERT JUMPDEST PUSH2 0x65 PUSH1 0x4 DUP1 CALLDATASIZE SUB PUSH1 0x20 DUP2 LT ISZERO PUSH2 0x5C JUMPI PUSH1 0x0 DUP1 REVERT JUMPDEST POP CALLDATALOAD ISZERO ISZERO PUSH2 0xA7 JUMP JUMPDEST STOP JUMPDEST PUSH2 0x65 PUSH1 0x4 DUP1 CALLDATASIZE SUB PUSH1 0x40 DUP2 LT ISZERO PUSH2 0x7D JUMPI PUSH1 0x0 DUP1 REVERT JUMPDEST POP DUP1 CALLDATALOAD SWAP1 PUSH1 0x20 ADD CALLDATALOAD PUSH2 0x107 JUMP JUMPDEST PUSH2 0x65 PUSH1 0x4 DUP1 CALLDATASIZE SUB PUSH1 0x20 DUP2 LT ISZERO PUSH2 0xA0 JUMPI PUSH1 0x0 DUP1 REVERT JUMPDEST POP CALLDATALOAD PUSH2 0x1BA JUMP JUMPDEST DUP1 PUSH2 0xB3 JUMPI PUSH1 0x0 PUSH2 0xB6 JUMP JUMPDEST PUSH1 0x1 JUMPDEST PUSH32 0x6108217547EB0F6456375F9CAD1DC0E5578E94C4334120E3E36FA8A89E5462CE PUSH1 0x0 SWAP1 DUP2 MSTORE PUSH1 0x20 MSTORE PUSH1 0xFF AND PUSH32 0x462254436FC6D6FC89769C1BE7CFBA1D2F72EAC77695D0F0241C9F493ADCF146 SSTORE POP JUMP JUMPDEST PUSH32 0x6108217547EB0F6456375F9CAD1DC0E5578E94C4334120E3E36FA8A89E5462CE PUSH1 0x0 SWAP1 DUP2 MSTORE PUSH1 0x20 MSTORE PUSH32 0x462254436FC6D6FC89769C1BE7CFBA1D2F72EAC77695D0F0241C9F493ADCF146 SLOAD ISZERO PUSH2 0x1A8 JUMPI PUSH1 0x40 MLOAD PUSH32 0x8C379A000000000000000000000000000000000000000000000000000000000 DUP2 MSTORE PUSH1 0x4 ADD DUP1 DUP1 PUSH1 0x20 ADD DUP3 DUP2 SUB DUP3 MSTORE PUSH1 0x23 DUP2 MSTORE PUSH1 0x20 ADD DUP1 PUSH2 0x200 PUSH1 0x23 SWAP2 CODECOPY PUSH1 0x40 ADD SWAP2 POP POP PUSH1 0x40 MLOAD DUP1 SWAP2 SUB SWAP1 REVERT JUMPDEST PUSH1 0x0 SWAP2 DUP3 MSTORE PUSH1 0x20 DUP3 SWAP1 MSTORE PUSH1 0x40 SWAP1 SWAP2 KECCAK256 SSTORE JUMP JUMPDEST PUSH1 0x0 DUP2 DUP2 MSTORE PUSH1 0x20 DUP2 DUP2 MSTORE PUSH1 0x40 SWAP2 DUP3 SWAP1 KECCAK256 SLOAD DUP3 MLOAD SWAP1 DUP2 MSTORE SWAP2 MLOAD PUSH32 0xBC729C7B482904BBCFEAB92D0354CCFB7A805B45B9C1F13B723D751D99AC70FF SWAP3 DUP2 SWAP1 SUB SWAP1 SWAP2 ADD SWAP1 LOG1 POP JUMP INVALID DIFFICULTY PUSH6 0x6C6567617465 NUMBER PUSH2 0x6C6C 0x4D PUSH16 0x636B2377726974653A20524556455254 0x5F CHAINID 0x4C COINBASE SELFBALANCE LOG2 PUSH5 0x6970667358 0x22 SLT KECCAK256 0xBF 0xB5 0xED PUSH2 0xDEC8 0xB6 0x26 0xAF CALLER DUP6 SWAP2 0xA7 MSTORE 0xC3 BYTE EQ KECCAK256 SWAP7 NOT 0xF7 SHR 0x5D 0xEA 0xC7 0x5C MSIZE EQ SWAP14 0xA6 0xF6 SWAP14 PUSH5 0x736F6C6343 STOP SMOD MOD STOP CALLER "
        },
        "methodIdentifiers": {
          "read(uint256)": "ed2e5a97",
          "setRevertFlag(bool)": "381ba140",
          "write(uint256,uint256)": "9c0e3f7a"
        }
      }
    }
  }
}