{
  "contracts/mocks/GasBurnerMock.sol": {
    "GasBurnerMock": {
      "abi": [
        {
          "anonymous": false,
          "inputs": [
            {
              "indexed": false,
              "internalType": "uint256",
              "name": "_val",
              "type": "uint256"
            }
          ],
          "name": "ProvidedGas",
          "type": "event"
        },
        {
          "inputs": [
            {
              "internalType": "uint256",
              "name": "_burn",
              "type": "uint256"
            }
          ],
          "name": "burnGas",
          "outputs": [],
          "stateMutability": "nonpayable",
          "type": "function"
        }
      ],
      "evm": {
        "bytecode": {
          "linkReferences": {},
          "object": "608060405234801561001057600080fd5b5060f48061001f6000396000f3fe6080604052348015600f57600080fd5b506004361060285760003560e01c80634ad5d16f14602d575b600080fd5b604760048036036020811015604157600080fd5b50356049565b005b7fb5769a7bae701ca7bcd4ed2e803959a466a236728fcb0dc25fa836e3a38bc2225a60408051918252519081900360200190a16000805a90505b825a8203101560b95781604051602001808281526020019150506040516020818303038152906040528051906020012091506083565b50505056fea264697066735822122065488e7ff1ba0744963dcf621cada7e5f1f5601febf5b2273f4e4c3f92e335db64736f6c63430007060033",
          "opcodes": "PUSH1 0x80 PUSH1 0x40 MSTORE CALLVALUE DUP1 ISZERO PUSH2 0x10 JUMPI PUSH1 0x0 DUP1 REVERT JUMPDEST POP PUSH1 0xF4 DUP1 PUSH2 0x1F PUSH1 0x0 CODECOPY PUSH1 0x0 RETURN INVALID PUSH1 0x80 PUSH1 0x40 MSTORE CALLVALUE DUP1 ISZERO PUSH1 0xF JUMPI PUSH1 0x0 DUP1 REVERT JUMPDEST POP PUSH1 0x4 CALLDATASIZE LT PUSH1 0x28 JUMPI PUSH1 0x0 CALLDATALOAD PUSH1 0xE0 SHR DUP1 PUSH4 0x4AD5D16F EQ PUSH1 0x2D JUMPI JUMPDEST PUSH1 0x0 DUP1 REVERT JUMPDEST PUSH1 0x47 PUSH1 0x4 DUP1 CALLDATASIZE SUB PUSH1 0x20 DUP2 LT ISZERO PUSH1 0x41 JUMPI PUSH1 0x0 DUP1 REVERT JUMPDEST POP CALLDATALOAD PUSH1 0x49 JUMP JUMPDEST STOP JUMPDEST PUSH32 0xB5769A7BAE701CA7BCD4ED2E803959A466A236728FCB0DC25FA836E3A38BC222 GAS PUSH1 0x40 DUP1 MLOAD SWAP2 DUP3 MSTORE MLOAD SWAP1 DUP2 SWAP1 SUB PUSH1 0x20 ADD SWAP1 LOG1 PUSH1 0x0 DUP1 GAS SWAP1 POP JUMPDEST DUP3 GAS DUP3 SUB LT ISZERO PUSH1 0xB9 JUMPI DUP2 PUSH1 0x40 MLOAD PUSH1 0x20 ADD DUP1 DUP3 DUP2 MSTORE PUSH1 0x20 ADD SWAP2 POP POP PUSH1 0x40 MLOAD PUSH1 0x20 DUP2 DUP4 SUB SUB DUP2 MSTORE SWAP1 PUSH1 0x40 MSTORE DUP1 MLOAD SWAP1 PUSH1 0x20 ADD KECCAK256 SWAP2 POP PUSH1 0x83 JUMP JUMPDEST POP POP POP JUMP INVALID LOG2 PUSH5 0x6970667358 0x22 SLT KECCAK256 PUSH6 0x488E7FF1BA07 DIFFICULTY SWAP7 RETURNDATASIZE 0xCF PUSH3 0x1CADA7 0xE5 CALL CREATE2 PUSH1 0x1F 0xEB CREATE2 0xB2 0x27 EXTCODEHASH 0x4E 0x4C EXTCODEHASH SWAP3 0xE3 CALLDATALOAD 0xDB PUSH5 0x736F6C6343 STOP SMOD MOD STOP CALLER "
        },
        "methodIdentifiers": {
          "burnGas(uint256)": "4ad5d16f"
        }
      }
    }
  }
}