{
  "_format": "hh-sol-artifact-1",
  "contractName": "LibBytesImpl",
  "sourceName": "contracts/mocks/LibBytesImpl.sol",
  "abi": [
    {
      "inputs": [
        {
          "internalType": "bytes",
          "name": "_data",
          "type": "bytes"
        },
        {
          "internalType": "uint256",
          "name": "_index",
          "type": "uint256"
        }
      ],
      "name": "readAddress",
      "outputs": [
        {
          "internalType": "address",
          "name": "",
          "type": "address"
        },
        {
          "internalType": "uint256",
          "name": "",
          "type": "uint256"
        }
      ],
      "stateMutability": "pure",
      "type": "function"
    },
    {
      "inputs": [
        {
          "internalType": "bytes",
          "name": "_data",
          "type": "bytes"
        },
        {
          "internalType": "uint256",
          "name": "_index",
          "type": "uint256"
        }
      ],
      "name": "readBytes32",
      "outputs": [
        {
          "internalType": "bytes32",
          "name": "",
          "type": "bytes32"
        }
      ],
      "stateMutability": "pure",
      "type": "function"
    },
    {
      "inputs": [
        {
          "internalType": "bytes",
          "name": "_data",
          "type": "bytes"
        },
        {
          "internalType": "uint256",
          "name": "_index",
          "type": "uint256"
        }
      ],
      "name": "readBytes66",
      "outputs": [
        {
          "internalType": "bytes",
          "name": "",
          "type": "bytes"
        },
        {
          "internalType": "uint256",
          "name": "",
          "type": "uint256"
        }
      ],
      "stateMutability": "pure",
      "type": "function"
    },
    {
      "inputs": [
        {
          "internalType": "bytes",
          "name": "_data",
          "type": "bytes"
        }
      ],
      "name": "readFirstUint16",
      "outputs": [
        {
          "internalType": "uint16",
          "name": "",
          "type": "uint16"
        },
        {
          "internalType": "uint256",
          "name": "",
          "type": "uint256"
        }
      ],
      "stateMutability": "pure",
      "type": "function"
    },
    {
      "inputs": [
        {
          "internalType": "bytes",
          "name": "_data",
          "type": "bytes"
        },
        {
          "internalType": "uint256",
          "name": "_index",
          "type": "uint256"
        }
      ],
      "name": "readUint8Uint8",
      "outputs": [
        {
          "internalType": "uint8",
          "name": "",
          "type": "uint8"
        },
        {
          "internalType": "uint8",
          "name": "",
          "type": "uint8"
        },
        {
          "internalType": "uint256",
          "name": "",
          "type": "uint256"
        }
      ],
      "stateMutability": "pure",
      "type": "function"
    }
  ],
  "bytecode": "0x608060405234801561001057600080fd5b50610894806100206000396000f3fe608060405234801561001057600080fd5b50600436106100675760003560e01c8063ca9cd01d11610050578063ca9cd01d1461017c578063e8a7c08a1461026b578063f0e9da23146102ff57610067565b8063285badc21461006c578063af500fb7146100fa575b600080fd5b6100dc6004803603602081101561008257600080fd5b81019060208101813564010000000081111561009d57600080fd5b8201836020820111156100af57600080fd5b803590602001918460018302840111640100000000831117156100d157600080fd5b50909250905061039f565b6040805161ffff909316835260208301919091528051918290030190f35b61016a6004803603604081101561011057600080fd5b81019060208101813564010000000081111561012b57600080fd5b82018360208201111561013d57600080fd5b8035906020019184600183028401116401000000008311171561015f57600080fd5b9193509150356103ed565b60408051918252519081900360200190f35b6101ec6004803603604081101561019257600080fd5b8101906020810181356401000000008111156101ad57600080fd5b8201836020820111156101bf57600080fd5b803590602001918460018302840111640100000000831117156101e157600080fd5b91935091503561043a565b6040518080602001838152602001828103825284818151815260200191508051906020019080838360005b8381101561022f578181015183820152602001610217565b50505050905090810190601f16801561025c5780820380516001836020036101000a031916815260200191505b50935050505060405180910390f35b6102db6004803603604081101561028157600080fd5b81019060208101813564010000000081111561029c57600080fd5b8201836020820111156102ae57600080fd5b803590602001918460018302840111640100000000831117156102d057600080fd5b91935091503561048d565b6040805160ff94851681529290931660208301528183015290519081900360600190f35b61036f6004803603604081101561031557600080fd5b81019060208101813564010000000081111561033057600080fd5b82018360208201111561034257600080fd5b8035906020019184600183028401116401000000008311171561036457600080fd5b9193509150356104e4565b6040805173ffffffffffffffffffffffffffffffffffffffff909316835260208301919091528051918290030190f35b6000806103e184848080601f01602080910402602001604051908101604052809392919081815260200183838082843760009201919091525061052a92505050565b915091505b9250929050565b60006104328285858080601f01602080910402602001604051908101604052809392919081815260200183838082843760009201919091525092939250506105989050565b949350505050565b606060006104818386868080601f01602080910402602001604051908101604052809392919081815260200183838082843760009201919091525092939250506106009050565b91509150935093915050565b60008060006104d58487878080601f01602080910402602001604051908101604052809392919081815260200183838082843760009201919091525092939250506106a89050565b92509250925093509350939050565b6000806104818386868080601f01602080910402602001604051908101604052809392919081815260200183838082843760009201919091525092939250506107229050565b6020810151815160f09190911c90600290811115610593576040517f08c379a00000000000000000000000000000000000000000000000000000000081526004018080602001828103825260278152602001806107b36027913960400191505060405180910390fd5b915091565b600081602001835110156105f7576040517f08c379a000000000000000000000000000000000000000000000000000000000815260040180806020018281038252603c815260200180610823603c913960400191505060405180910390fd5b50016020015190565b60408051604280825260808201909252606091600091906020820181803683370190505091508284016020018051602084015260208101516040840152602281015160428401525060428301905083518111156103e6576040517f08c379a00000000000000000000000000000000000000000000000000000000081526004018080602001828103825260238152602001806107da6023913960400191505060405180910390fd5b80820160200151825160f882901c9160f01c60ff1690600284019081111561071b576040517f08c379a00000000000000000000000000000000000000000000000000000000081526004018080602001828103825260268152602001806107fd6026913960400191505060405180910390fd5b9250925092565b80820160200151825160609190911c9060148301908111156103e6576040517f08c379a00000000000000000000000000000000000000000000000000000000081526004018080602001828103825260238152602001806107906023913960400191505060405180910390fdfe4c696242797465732372656164416464726573733a204f55545f4f465f424f554e44534c696242797465732372656164466972737455696e7431363a204f55545f4f465f424f554e44534c696242797465732372656164427974657336363a204f55545f4f465f424f554e44534c69624279746573237265616455696e743855696e74383a204f55545f4f465f424f554e44534c696242797465732372656164427974657333323a20475245415445525f4f525f455155414c5f544f5f33325f4c454e4754485f5245515549524544a264697066735822122039e059ecd815c2b697045b3e0f92905acb675a37757aaa73e87a46a38c025d6f64736f6c63430007060033",
  "linkReferences": {},
  "deployedLinkReferences": {}
}