{
  "_format": "hh-sol-artifact-1",
  "contractName": "RequireFreshSigner",
  "sourceName": "contracts/modules/utils/libs/RequireFreshSigner.sol",
  "abi": [
    {
      "inputs": [
        {
          "internalType": "contract RequireUtils",
          "name": "_requireUtils",
          "type": "address"
        }
      ],
      "stateMutability": "nonpayable",
      "type": "constructor"
    },
    {
      "inputs": [],
      "name": "REQUIRE_UTILS",
      "outputs": [
        {
          "internalType": "contract RequireUtils",
          "name": "",
          "type": "address"
        }
      ],
      "stateMutability": "view",
      "type": "function"
    },
    {
      "inputs": [
        {
          "internalType": "address",
          "name": "_signer",
          "type": "address"
        }
      ],
      "name": "requireFreshSigner",
      "outputs": [],
      "stateMutability": "nonpayable",
      "type": "function"
    }
  ],
  "bytecode": "0x60a060405234801561001057600080fd5b5060405161030038038061030083398101604081905261002f91610040565b6001600160a01b0316608052610070565b60006020828403121561005257600080fd5b81516001600160a01b038116811461006957600080fd5b9392505050565b608051610270610090600039600081816055015260e501526102706000f3fe608060405234801561001057600080fd5b50600436106100365760003560e01c80630df0c4191461003b578063cfc63a4914610050575b600080fd5b61004e6100493660046101e4565b6100a0565b005b6100777f000000000000000000000000000000000000000000000000000000000000000081565b60405173ffffffffffffffffffffffffffffffffffffffff909116815260200160405180910390f35b6040517f1cd05dc400000000000000000000000000000000000000000000000000000000815273ffffffffffffffffffffffffffffffffffffffff82811660048301527f00000000000000000000000000000000000000000000000000000000000000001690631cd05dc490602401602060405180830381865afa15801561012c573d6000803e3d6000fd5b505050506040513d601f19601f820116820180604052508101906101509190610221565b156101e1576040517f08c379a000000000000000000000000000000000000000000000000000000000815260206004820152603860248201527f5265717569726546726573685369676e6572237265717569726546726573685360448201527f69676e65723a204455504c4943415445445f5349474e45520000000000000000606482015260840160405180910390fd5b50565b6000602082840312156101f657600080fd5b813573ffffffffffffffffffffffffffffffffffffffff8116811461021a57600080fd5b9392505050565b60006020828403121561023357600080fd5b505191905056fea26469706673582212202eb5769c92f714744563794e001d444a067519bfab08e0740aefa30808ebdf1864736f6c634300080e0033",
  "linkReferences": {},
  "deployedLinkReferences": {}
}