{
  "_format": "hh-sol-artifact-1",
  "contractName": "SessionUtils",
  "sourceName": "contracts/modules/utils/SessionUtils.sol",
  "abi": [
    {
      "anonymous": false,
      "inputs": [
        {
          "indexed": false,
          "internalType": "uint256",
          "name": "_space",
          "type": "uint256"
        },
        {
          "indexed": false,
          "internalType": "uint256",
          "name": "_oldNonce",
          "type": "uint256"
        },
        {
          "indexed": false,
          "internalType": "uint256",
          "name": "_newNonce",
          "type": "uint256"
        }
      ],
      "name": "GapNonceChange",
      "type": "event"
    },
    {
      "anonymous": false,
      "inputs": [
        {
          "indexed": false,
          "internalType": "uint256",
          "name": "_space",
          "type": "uint256"
        }
      ],
      "name": "ResetNonce",
      "type": "event"
    },
    {
      "inputs": [
        {
          "internalType": "uint256",
          "name": "_nonce",
          "type": "uint256"
        }
      ],
      "name": "requireSessionNonce",
      "outputs": [],
      "stateMutability": "nonpayable",
      "type": "function"
    }
  ],
  "bytecode": "0x608060405234801561001057600080fd5b506102cd806100206000396000f3fe608060405234801561001057600080fd5b506004361061002b5760003560e01c80638853baa014610030575b600080fd5b61004d6004803603602081101561004657600080fd5b503561004f565b005b6100797f96f7fef04d2478e2b011c3aca79dc5a83b5d37ef000000000000000000000000826100a5565b6100a27f96f7fef04d2478e2b011c3aca79dc5a83b5d37ef00000000000000000000000061016f565b50565b60006100b0836101b0565b905080821161012057604080517f08c379a000000000000000000000000000000000000000000000000000000000815260206004820152601f60248201527f4d61696e4d6f64756c65235f617574683a20494e56414c49445f4e4f4e434500604482015290519081900360640190fd5b61012a83836101e2565b604080518481526020810183905280820184905290517fd9aa9f0269d7ebe0e495362c56c21163d40a52f13ad524fb0e844ff41811f0529181900360600190a1505050565b61017a816000610211565b6040805182815290517f464865b330cd819e8c8704ad98a40b0c5049a03268c9946629fa5dcd6babf09f9181900360200190a150565b60006101dc7f2a37c7c3c3449f4795b05559a0f92a1730815bf20be16b02bbd6dbb8ae8532fe8361023c565b92915050565b61020d7f2a37c7c3c3449f4795b05559a0f92a1730815bf20be16b02bbd6dbb8ae8532fe8383610269565b5050565b61020d7f8d0bf1fd623d628c741362c1289948e57b3e2905218c676d3e69abee36d6ae2e8383610269565b60408051602080820194909452808201929092528051808303820181526060909201905280519101205490565b604080516020808201959095528082019390935280518084038201815260609093019052815191909201205556fea2646970667358221220049cf436c9aed265a0e24fdee29405930613702df361fad5a824de543fce362864736f6c63430007060033",
  "linkReferences": {},
  "deployedLinkReferences": {}
}