{
  "_format": "hh-sol-artifact-1",
  "contractName": "SessionUtils",
  "sourceName": "contracts/modules/utils/SessionUtils.sol",
  "abi": [
    {
      "anonymous": false,
      "inputs": [
        {
          "indexed": false,
          "internalType": "uint256",
          "name": "_space",
          "type": "uint256"
        },
        {
          "indexed": false,
          "internalType": "uint256",
          "name": "_oldNonce",
          "type": "uint256"
        },
        {
          "indexed": false,
          "internalType": "uint256",
          "name": "_newNonce",
          "type": "uint256"
        }
      ],
      "name": "GapNonceChange",
      "type": "event"
    },
    {
      "anonymous": false,
      "inputs": [
        {
          "indexed": false,
          "internalType": "uint256",
          "name": "_space",
          "type": "uint256"
        }
      ],
      "name": "ResetNonce",
      "type": "event"
    },
    {
      "inputs": [
        {
          "internalType": "uint256",
          "name": "_nonce",
          "type": "uint256"
        }
      ],
      "name": "requireSessionNonce",
      "outputs": [],
      "stateMutability": "nonpayable",
      "type": "function"
    }
  ],
  "bytecode": "0x608060405234801561001057600080fd5b506102b5806100206000396000f3fe608060405234801561001057600080fd5b506004361061002b5760003560e01c80638853baa014610030575b600080fd5b61004d6004803603602081101561004657600080fd5b503561004f565b005b61006d7396f7fef04d2478e2b011c3aca79dc5a83b5d37ef8261008d565b61008a7396f7fef04d2478e2b011c3aca79dc5a83b5d37ef610157565b50565b600061009883610198565b905080821161010857604080517f08c379a000000000000000000000000000000000000000000000000000000000815260206004820152601f60248201527f4d61696e4d6f64756c65235f617574683a20494e56414c49445f4e4f4e434500604482015290519081900360640190fd5b61011283836101ca565b604080518481526020810183905280820184905290517fd9aa9f0269d7ebe0e495362c56c21163d40a52f13ad524fb0e844ff41811f0529181900360600190a1505050565b6101628160006101f9565b6040805182815290517f464865b330cd819e8c8704ad98a40b0c5049a03268c9946629fa5dcd6babf09f9181900360200190a150565b60006101c47f2a37c7c3c3449f4795b05559a0f92a1730815bf20be16b02bbd6dbb8ae8532fe83610224565b92915050565b6101f57f2a37c7c3c3449f4795b05559a0f92a1730815bf20be16b02bbd6dbb8ae8532fe8383610251565b5050565b6101f57f8d0bf1fd623d628c741362c1289948e57b3e2905218c676d3e69abee36d6ae2e8383610251565b60408051602080820194909452808201929092528051808303820181526060909201905280519101205490565b604080516020808201959095528082019390935280518084038201815260609093019052815191909201205556fea2646970667358221220e9446496c93ac738dc68a35214343c25fae5321e23c231f15b1b9e74aaa4021664736f6c63430007060033",
  "linkReferences": {},
  "deployedLinkReferences": {}
}