{
  "_format": "hh-sol-artifact-1",
  "contractName": "SequenceUtils",
  "sourceName": "contracts/modules/utils/SequenceUtils.sol",
  "abi": [
    {
      "inputs": [
        {
          "internalType": "address",
          "name": "_factory",
          "type": "address"
        },
        {
          "internalType": "address",
          "name": "_mainModule",
          "type": "address"
        }
      ],
      "stateMutability": "nonpayable",
      "type": "constructor"
    },
    {
      "anonymous": false,
      "inputs": [
        {
          "indexed": true,
          "internalType": "address",
          "name": "_wallet",
          "type": "address"
        },
        {
          "indexed": true,
          "internalType": "bytes32",
          "name": "_imageHash",
          "type": "bytes32"
        },
        {
          "indexed": false,
          "internalType": "uint256",
          "name": "_threshold",
          "type": "uint256"
        },
        {
          "indexed": false,
          "internalType": "bytes",
          "name": "_signers",
          "type": "bytes"
        }
      ],
      "name": "RequiredConfig",
      "type": "event"
    },
    {
      "anonymous": false,
      "inputs": [
        {
          "indexed": true,
          "internalType": "address",
          "name": "_wallet",
          "type": "address"
        },
        {
          "indexed": true,
          "internalType": "address",
          "name": "_signer",
          "type": "address"
        }
      ],
      "name": "RequiredSigner",
      "type": "event"
    },
    {
      "inputs": [
        {
          "internalType": "address",
          "name": "_addr",
          "type": "address"
        }
      ],
      "name": "callBalanceOf",
      "outputs": [
        {
          "internalType": "uint256",
          "name": "",
          "type": "uint256"
        }
      ],
      "stateMutability": "view",
      "type": "function"
    },
    {
      "inputs": [],
      "name": "callBlockNumber",
      "outputs": [
        {
          "internalType": "uint256",
          "name": "",
          "type": "uint256"
        }
      ],
      "stateMutability": "view",
      "type": "function"
    },
    {
      "inputs": [
        {
          "internalType": "uint256",
          "name": "_i",
          "type": "uint256"
        }
      ],
      "name": "callBlockhash",
      "outputs": [
        {
          "internalType": "bytes32",
          "name": "",
          "type": "bytes32"
        }
      ],
      "stateMutability": "view",
      "type": "function"
    },
    {
      "inputs": [],
      "name": "callChainId",
      "outputs": [
        {
          "internalType": "uint256",
          "name": "id",
          "type": "uint256"
        }
      ],
      "stateMutability": "pure",
      "type": "function"
    },
    {
      "inputs": [
        {
          "internalType": "address",
          "name": "_addr",
          "type": "address"
        }
      ],
      "name": "callCode",
      "outputs": [
        {
          "internalType": "bytes",
          "name": "code",
          "type": "bytes"
        }
      ],
      "stateMutability": "view",
      "type": "function"
    },
    {
      "inputs": [
        {
          "internalType": "address",
          "name": "_addr",
          "type": "address"
        }
      ],
      "name": "callCodeHash",
      "outputs": [
        {
          "internalType": "bytes32",
          "name": "codeHash",
          "type": "bytes32"
        }
      ],
      "stateMutability": "view",
      "type": "function"
    },
    {
      "inputs": [
        {
          "internalType": "address",
          "name": "_addr",
          "type": "address"
        }
      ],
      "name": "callCodeSize",
      "outputs": [
        {
          "internalType": "uint256",
          "name": "size",
          "type": "uint256"
        }
      ],
      "stateMutability": "view",
      "type": "function"
    },
    {
      "inputs": [],
      "name": "callCoinbase",
      "outputs": [
        {
          "internalType": "address",
          "name": "",
          "type": "address"
        }
      ],
      "stateMutability": "view",
      "type": "function"
    },
    {
      "inputs": [],
      "name": "callDifficulty",
      "outputs": [
        {
          "internalType": "uint256",
          "name": "",
          "type": "uint256"
        }
      ],
      "stateMutability": "view",
      "type": "function"
    },
    {
      "inputs": [],
      "name": "callGasLeft",
      "outputs": [
        {
          "internalType": "uint256",
          "name": "",
          "type": "uint256"
        }
      ],
      "stateMutability": "view",
      "type": "function"
    },
    {
      "inputs": [],
      "name": "callGasLimit",
      "outputs": [
        {
          "internalType": "uint256",
          "name": "",
          "type": "uint256"
        }
      ],
      "stateMutability": "view",
      "type": "function"
    },
    {
      "inputs": [],
      "name": "callGasPrice",
      "outputs": [
        {
          "internalType": "uint256",
          "name": "",
          "type": "uint256"
        }
      ],
      "stateMutability": "view",
      "type": "function"
    },
    {
      "inputs": [],
      "name": "callOrigin",
      "outputs": [
        {
          "internalType": "address",
          "name": "",
          "type": "address"
        }
      ],
      "stateMutability": "view",
      "type": "function"
    },
    {
      "inputs": [],
      "name": "callTimestamp",
      "outputs": [
        {
          "internalType": "uint256",
          "name": "",
          "type": "uint256"
        }
      ],
      "stateMutability": "view",
      "type": "function"
    },
    {
      "inputs": [
        {
          "internalType": "address",
          "name": "",
          "type": "address"
        }
      ],
      "name": "knownImageHashes",
      "outputs": [
        {
          "internalType": "bytes32",
          "name": "",
          "type": "bytes32"
        }
      ],
      "stateMutability": "view",
      "type": "function"
    },
    {
      "inputs": [
        {
          "internalType": "bytes32",
          "name": "",
          "type": "bytes32"
        }
      ],
      "name": "lastImageHashUpdate",
      "outputs": [
        {
          "internalType": "uint256",
          "name": "",
          "type": "uint256"
        }
      ],
      "stateMutability": "view",
      "type": "function"
    },
    {
      "inputs": [
        {
          "internalType": "address",
          "name": "",
          "type": "address"
        }
      ],
      "name": "lastSignerUpdate",
      "outputs": [
        {
          "internalType": "uint256",
          "name": "",
          "type": "uint256"
        }
      ],
      "stateMutability": "view",
      "type": "function"
    },
    {
      "inputs": [
        {
          "internalType": "address",
          "name": "",
          "type": "address"
        }
      ],
      "name": "lastWalletUpdate",
      "outputs": [
        {
          "internalType": "uint256",
          "name": "",
          "type": "uint256"
        }
      ],
      "stateMutability": "view",
      "type": "function"
    },
    {
      "inputs": [
        {
          "components": [
            {
              "internalType": "bool",
              "name": "delegateCall",
              "type": "bool"
            },
            {
              "internalType": "bool",
              "name": "revertOnError",
              "type": "bool"
            },
            {
              "internalType": "uint256",
              "name": "gasLimit",
              "type": "uint256"
            },
            {
              "internalType": "address",
              "name": "target",
              "type": "address"
            },
            {
              "internalType": "uint256",
              "name": "value",
              "type": "uint256"
            },
            {
              "internalType": "bytes",
              "name": "data",
              "type": "bytes"
            }
          ],
          "internalType": "struct IModuleCalls.Transaction[]",
          "name": "_txs",
          "type": "tuple[]"
        }
      ],
      "name": "multiCall",
      "outputs": [
        {
          "internalType": "bool[]",
          "name": "_successes",
          "type": "bool[]"
        },
        {
          "internalType": "bytes[]",
          "name": "_results",
          "type": "bytes[]"
        }
      ],
      "stateMutability": "payable",
      "type": "function"
    },
    {
      "inputs": [
        {
          "internalType": "address",
          "name": "_wallet",
          "type": "address"
        },
        {
          "internalType": "uint256",
          "name": "_threshold",
          "type": "uint256"
        },
        {
          "components": [
            {
              "internalType": "uint256",
              "name": "weight",
              "type": "uint256"
            },
            {
              "internalType": "address",
              "name": "signer",
              "type": "address"
            }
          ],
          "internalType": "struct RequireUtils.Member[]",
          "name": "_members",
          "type": "tuple[]"
        },
        {
          "internalType": "bool",
          "name": "_index",
          "type": "bool"
        }
      ],
      "name": "publishConfig",
      "outputs": [],
      "stateMutability": "nonpayable",
      "type": "function"
    },
    {
      "inputs": [
        {
          "internalType": "address",
          "name": "_wallet",
          "type": "address"
        },
        {
          "internalType": "bytes32",
          "name": "_hash",
          "type": "bytes32"
        },
        {
          "internalType": "uint256",
          "name": "_sizeMembers",
          "type": "uint256"
        },
        {
          "internalType": "bytes",
          "name": "_signature",
          "type": "bytes"
        },
        {
          "internalType": "bool",
          "name": "_index",
          "type": "bool"
        }
      ],
      "name": "publishInitialSigners",
      "outputs": [],
      "stateMutability": "nonpayable",
      "type": "function"
    },
    {
      "inputs": [
        {
          "internalType": "address",
          "name": "_wallet",
          "type": "address"
        },
        {
          "internalType": "uint256",
          "name": "_nonce",
          "type": "uint256"
        }
      ],
      "name": "requireMinNonce",
      "outputs": [],
      "stateMutability": "view",
      "type": "function"
    },
    {
      "inputs": [
        {
          "internalType": "uint256",
          "name": "_expiration",
          "type": "uint256"
        }
      ],
      "name": "requireNonExpired",
      "outputs": [],
      "stateMutability": "view",
      "type": "function"
    }
  ],
  "bytecode": "0x60c06040523480156200001157600080fd5b5060405162002b7538038062002b758339810160408190526200003491620000cd565b8181816001600160a01b031660a0816001600160a01b031660601b8152505060405180606001604052806028815260200162002b4d60289139816001600160a01b03166040516020016200008a92919062000104565b60408051601f198184030181529190528051602090910120608052506200014692505050565b80516001600160a01b0381168114620000c857600080fd5b919050565b60008060408385031215620000e0578182fd5b620000eb83620000b0565b9150620000fb60208401620000b0565b90509250929050565b60008351815b818110156200012657602081870181015185830152016200010a565b81811115620001355782828501525b509190910191825250602001919050565b60805160a05160601c6129cc620001816000398061065152806107f85280610bba525080610675528061081c5280610bde52506129cc6000f3fe6080604052600436106101805760003560e01c806398f9fbc4116100d6578063d1db39071161007f578063e90f13e711610059578063e90f13e714610395578063f209883a146103ea578063ffd7d741146103ff57610180565b8063d1db390714610395578063d5b5337f146103aa578063e717aba9146103ca57610180565b8063c272d5c3116100b0578063c272d5c314610333578063c39f2d5c14610348578063c66764e11461036857610180565b806398f9fbc4146102e9578063aeea5fb5146102fe578063b472f0a21461031357610180565b806348acd29f116101385780637ae99638116101125780637ae99638146102875780637f29d538146102a7578063984395bc146102c757610180565b806348acd29f14610227578063543196eb146102475780637082503b1461026757610180565b80631cd05dc4116101695780631cd05dc4146101d057806343d9c935146101f057806344d466c21461020557610180565b80630fdecfac146101855780631551f0ab146101b0575b600080fd5b34801561019157600080fd5b5061019a610420565b6040516101a79190612225565b60405180910390f35b3480156101bc57600080fd5b5061019a6101cb366004611f0b565b610424565b3480156101dc57600080fd5b5061019a6101eb366004611c7f565b610436565b3480156101fc57600080fd5b5061019a610448565b34801561021157600080fd5b50610225610220366004611d39565b610450565b005b34801561023357600080fd5b5061019a610242366004611c7f565b6108a9565b34801561025357600080fd5b5061019a610262366004611c7f565b6108c7565b34801561027357600080fd5b50610225610282366004611ca0565b6108cb565b34801561029357600080fd5b5061019a6102a2366004611c7f565b610d45565b3480156102b357600080fd5b506102256102c2366004611f0b565b610d57565b3480156102d357600080fd5b506102dc610d93565b6040516101a79190612095565b3480156102f557600080fd5b506102dc610d97565b34801561030a57600080fd5b5061019a610d9b565b34801561031f57600080fd5b5061022561032e366004611d10565b610d9f565b34801561033f57600080fd5b5061019a610e7d565b34801561035457600080fd5b5061019a610363366004611c7f565b610e81565b34801561037457600080fd5b50610388610383366004611c7f565b610e85565b6040516101a7919061225a565b3480156103a157600080fd5b5061019a610eca565b3480156103b657600080fd5b5061019a6103c5366004611f0b565b610ece565b3480156103d657600080fd5b5061019a6103e5366004611c7f565b610ed2565b3480156103f657600080fd5b5061019a610ee4565b61041261040d366004611dc9565b610ee8565b6040516101a79291906120b6565b4690565b60036020526000908152604090205481565b60006020819052908152604090205481565b60005a905090565b8360005b838110156104e9578185858381811061046957fe5b9050604002016000013586868481811061047f57fe5b90506040020160200160208101906104979190611c7f565b6040516020016104a99392919061222e565b604080517fffffffffffffffffffffffffffffffffffffffffffffffffffffffffffffffe081840301815291905280516020909101209150600101610454565b506000808773ffffffffffffffffffffffffffffffffffffffff166351605d8060e01b60405160200161051c9190611fe9565b604080517fffffffffffffffffffffffffffffffffffffffffffffffffffffffffffffffe08184030181529082905261055491612016565b6000604051808303816000865af19150503d8060008114610591576040519150601f19603f3d011682016040523d82523d6000602084013e610596565b606091505b50915091508180156105a9575080516020145b1561060e576000818060200190518101906105c49190611f23565b9050838114610608576040517f08c379a00000000000000000000000000000000000000000000000000000000081526004016105ff906125d8565b60405180910390fd5b50610703565b60405173ffffffffffffffffffffffffffffffffffffffff89169061069d907fff00000000000000000000000000000000000000000000000000000000000000907f00000000000000000000000000000000000000000000000000000000000000009087907f000000000000000000000000000000000000000000000000000000000000000090602001611f85565b6040516020818303038152906040528051906020012060001c73ffffffffffffffffffffffffffffffffffffffff1614610703576040517f08c379a00000000000000000000000000000000000000000000000000000000081526004016105ff90612635565b828873ffffffffffffffffffffffffffffffffffffffff167fb502b7446ca079086188acf3abef47c2f464f2ee9a72fcdf05ffcb74dcc17cee89898960405160200161075092919061215c565b604080517fffffffffffffffffffffffffffffffffffffffffffffffffffffffffffffffe08184030181529082905261078992916126b8565b60405180910390a3831561089f5773ffffffffffffffffffffffffffffffffffffffff881660009081526001602090815260408083204390819055868452600383528184205551610842917fff00000000000000000000000000000000000000000000000000000000000000917f00000000000000000000000000000000000000000000000000000000000000009188917f00000000000000000000000000000000000000000000000000000000000000009101611f85565b604080517fffffffffffffffffffffffffffffffffffffffffffffffffffffffffffffffe0818403018152918152815160209283012073ffffffffffffffffffffffffffffffffffffffff16600090815260029092529020849055505b5050505050505050565b73ffffffffffffffffffffffffffffffffffffffff8116315b919050565b3f90565b6000806108d784611158565b915091506000804690508089896040516020016108f693929190612032565b604080517fffffffffffffffffffffffffffffffffffffffffffffffffffffffffffffffe0818403018152919052805160209091012091505061ffff831660008767ffffffffffffffff8111801561094d57600080fd5b5060405190808252806020026020018201604052801561098757816020015b610974611bb1565b81526020019060019003908161096c5790505b50905060005b8751851015610b3e57600080806109a48b896111c6565b995060ff918216945016915060018314156109cc576109c38b89611247565b98509050610abf565b826109fe5760606109dd8c8a6112bf565b995090506109eb8882611370565b91506109f88f838d6116fa565b50610abf565b6002831415610a8d57610a118b89611247565b985090506000610a218c8a611788565b995061ffff1690506060610a368d8b846117f9565b9a509050610a458984836118e8565b610a7b576040517f08c379a00000000000000000000000000000000000000000000000000000000081526004016105ff906124c1565b5050610a888e828c6116fa565b610abf565b6040517f08c379a00000000000000000000000000000000000000000000000000000000081526004016105ff9061226d565b60405180604001604052808381526020018273ffffffffffffffffffffffffffffffffffffffff16815250858581518110610af657fe5b60200260200101819052508380600101945050858282604051602001610b1e9392919061222e565b60405160208183030381529060405280519060200120955050505061098d565b888114610b77576040517f08c379a00000000000000000000000000000000000000000000000000000000081526004016105ff9061257b565b60405173ffffffffffffffffffffffffffffffffffffffff8c1690610c06907fff00000000000000000000000000000000000000000000000000000000000000907f00000000000000000000000000000000000000000000000000000000000000009087907f000000000000000000000000000000000000000000000000000000000000000090602001611f85565b6040516020818303038152906040528051906020012060001c73ffffffffffffffffffffffffffffffffffffffff1614610c6c576040517f08c379a00000000000000000000000000000000000000000000000000000000081526004016105ff9061243e565b828b73ffffffffffffffffffffffffffffffffffffffff167fb502b7446ca079086188acf3abef47c2f464f2ee9a72fcdf05ffcb74dcc17cee8885604051602001610cb791906121c0565b604080517fffffffffffffffffffffffffffffffffffffffffffffffffffffffffffffffe081840301815290829052610cf09291612693565b60405180910390a38615610d385773ffffffffffffffffffffffffffffffffffffffff8b16600090815260016020908152604080832043908190558684526003909252909120555b5050505050505050505050565b60026020526000908152604090205481565b804210610d90576040517f08c379a00000000000000000000000000000000000000000000000000000000081526004016105ff906123e1565b50565b3290565b4190565b4490565b600080610dab83611b30565b9150915060008473ffffffffffffffffffffffffffffffffffffffff16638c3f5563846040518263ffffffff1660e01b8152600401610dea9190612225565b60206040518083038186803b158015610e0257600080fd5b505afa158015610e16573d6000803e3d6000fd5b505050506040513d601f19601f82011682018060405250810190610e3a9190611f23565b905081811015610e76576040517f08c379a00000000000000000000000000000000000000000000000000000000081526004016105ff90612384565b5050505050565b3a90565b3b90565b60408051603f833b9081017fffffffffffffffffffffffffffffffffffffffffffffffffffffffffffffffe01682019092528181529080600060208401853c50919050565b4590565b4090565b60016020526000908152604090205481565b4290565b606080825167ffffffffffffffff81118015610f0357600080fd5b50604051908082528060200260200182016040528015610f2d578160200160208202803683370190505b509150825167ffffffffffffffff81118015610f4857600080fd5b50604051908082528060200260200182016040528015610f7c57816020015b6060815260200190600190039081610f675790505b50905060005b8351811015611152576000848281518110610f9957fe5b60200260200101519050806000015115610fdf576040517f08c379a00000000000000000000000000000000000000000000000000000000081526004016105ff9061251e565b80604001515a101561101d576040517f08c379a00000000000000000000000000000000000000000000000000000000081526004016105ff90612327565b806060015173ffffffffffffffffffffffffffffffffffffffff1681608001518260400151600014611053578260400151611055565b5a5b908360a001516040516110689190612016565b600060405180830381858888f193505050503d80600081146110a6576040519150601f19603f3d011682016040523d82523d6000602084013e6110ab565b606091505b508584815181106110b857fe5b602002602001018585815181106110cb57fe5b60200260200101829052821515151581525050508382815181106110eb57fe5b602002602001015180611113575084828151811061110557fe5b602002602001015160200151155b611149576040517f08c379a00000000000000000000000000000000000000000000000000000000081526004016105ff906122ca565b50600101610f82565b50915091565b6020810151815160f09190911c906002908111156111c1576040517f08c379a00000000000000000000000000000000000000000000000000000000081526004018080602001828103825260278152602001806127c06027913960400191505060405180910390fd5b915091565b8082016020015160f881901c9060f01c60ff16600283018381116111e657fe5b8451811115611240576040517f08c379a00000000000000000000000000000000000000000000000000000000081526004018080602001828103825260268152602001806128f26026913960400191505060405180910390fd5b9250925092565b8082016020015160601c6014820182811161125e57fe5b83518111156112b8576040517f08c379a000000000000000000000000000000000000000000000000000000000815260040180806020018281038252602381526020018061279d6023913960400191505060405180910390fd5b9250929050565b60408051604280825260808201909252606091600091906020820181803683370190505091508284016020018051602084015260208101516040840152602281015160428401525060428301905082811161131657fe5b83518111156112b8576040517f08c379a00000000000000000000000000000000000000000000000000000000081526004018080602001828103825260238152602001806128936023913960400191505060405180910390fd5b600081516042146113cc576040517f08c379a000000000000000000000000000000000000000000000000000000000815260040180806020018281038252603a815260200180612763603a913960400191505060405180910390fd5b6000826001845103815181106113de57fe5b602001015160f81c60f81b60f81c60ff16905060008360408151811061140057fe5b016020015160f81c905060006114168582611b49565b90506000611425866020611b49565b90507f7fffffffffffffffffffffffffffffff5d576e7357a4501ddfe92f46681b20a08111156114a0576040517f08c379a000000000000000000000000000000000000000000000000000000000815260040180806020018281038252603d815260200180612726603d913960400191505060405180910390fd5b8260ff16601b141580156114b857508260ff16601c14155b1561150e576040517f08c379a000000000000000000000000000000000000000000000000000000000815260040180806020018281038252603d8152602001806127e7603d913960400191505060405180910390fd5b60018414156115825760018784848460405160008152602001604052604051808581526020018460ff1681526020018381526020018281526020019450505050506020604051602081039080840390855afa158015611571573d6000803e3d6000fd5b505050602060405103519450611684565b60028414156116335760018760405160200180807f19457468657265756d205369676e6564204d6573736167653a0a333200000000815250601c018281526020019150506040516020818303038152906040528051906020012084848460405160008152602001604052604051808581526020018460ff1681526020018381526020018281526020019450505050506020604051602081039080840390855afa158015611571573d6000803e3d6000fd5b6040517f08c379a000000000000000000000000000000000000000000000000000000000815260040180806020018281038252603c8152602001806128b6603c913960400191505060405180910390fd5b73ffffffffffffffffffffffffffffffffffffffff85166116f0576040517f08c379a00000000000000000000000000000000000000000000000000000000081526004018080602001828103825260308152602001806128246030913960400191505060405180910390fd5b5050505092915050565b8173ffffffffffffffffffffffffffffffffffffffff168373ffffffffffffffffffffffffffffffffffffffff167f600ba597427f042bcd559a0d06fa1732cc104d6dd43cbe8845b5a0e804b2b39f60405160405180910390a380156117835773ffffffffffffffffffffffffffffffffffffffff821660009081526020819052604090204390555b505050565b8082016020015160f01c6002820182811161179f57fe5b83518111156112b8576040517f08c379a00000000000000000000000000000000000000000000000000000000081526004018080602001828103825260228152602001806129396022913960400191505060405180910390fd5b606060008267ffffffffffffffff8111801561181457600080fd5b506040519080825280601f01601f19166020018201604052801561183f576020820181803683370190505b509150838501602001600060205b858110156118665790820151848201526020810161184d565b848601602001805193909201519085015252508282018381101561188657fe5b84518111156118e0576040517f08c379a00000000000000000000000000000000000000000000000000000000081526004018080602001828103825260218152602001806129186021913960400191505060405180910390fd5b935093915050565b600080826001845103815181106118fb57fe5b016020015160f81c905060018114806119145750600281145b15611958578373ffffffffffffffffffffffffffffffffffffffff1661193a8685611370565b73ffffffffffffffffffffffffffffffffffffffff16149150611b28565b6003811415611ad75782517fffffffffffffffffffffffffffffffffffffffffffffffffffffffffffffffff81018452604080517f1626ba7e000000000000000000000000000000000000000000000000000000008152600481018881526024820192835286516044830152865173ffffffffffffffffffffffffffffffffffffffff891693631626ba7e938b938a9390929160640190602085019080838360005b83811015611a125781810151838201526020016119fa565b50505050905090810190601f168015611a3f5780820380516001836020036101000a031916815260200191505b50935050505060206040518083038186803b158015611a5d57600080fd5b505afa158015611a71573d6000803e3d6000fd5b505050506040513d6020811015611a8757600080fd5b50519084527fffffffff00000000000000000000000000000000000000000000000000000000167f1626ba7e00000000000000000000000000000000000000000000000000000000149150611b28565b6040517f08c379a000000000000000000000000000000000000000000000000000000000815260040180806020018281038252603f815260200180612854603f913960400191505060405180910390fd5b509392505050565b606081901c916bffffffffffffffffffffffff90911690565b60008160200183511015611ba8576040517f08c379a000000000000000000000000000000000000000000000000000000000815260040180806020018281038252603c81526020018061295b603c913960400191505060405180910390fd5b50016020015190565b604080518082019091526000808252602082015290565b803573ffffffffffffffffffffffffffffffffffffffff811681146108c257600080fd5b803580151581146108c257600080fd5b600082601f830112611c0c578081fd5b813567ffffffffffffffff811115611c2057fe5b611c5160207fffffffffffffffffffffffffffffffffffffffffffffffffffffffffffffffe0601f840116016126d1565b818152846020838601011115611c65578283fd5b816020850160208301379081016020019190915292915050565b600060208284031215611c90578081fd5b611c9982611bc8565b9392505050565b600080600080600060a08688031215611cb7578081fd5b611cc086611bc8565b94506020860135935060408601359250606086013567ffffffffffffffff811115611ce9578182fd5b611cf588828901611bfc565b925050611d0460808701611bec565b90509295509295909350565b60008060408385031215611d22578182fd5b611d2b83611bc8565b946020939093013593505050565b600080600080600060808688031215611d50578081fd5b611d5986611bc8565b945060208601359350604086013567ffffffffffffffff80821115611d7c578283fd5b818801915088601f830112611d8f578283fd5b813581811115611d9d578384fd5b896020604083028501011115611db1578384fd5b602083019550809450505050611d0460608701611bec565b60006020808385031215611ddb578182fd5b823567ffffffffffffffff80821115611df2578384fd5b818501915085601f830112611e05578384fd5b813581811115611e1157fe5b611e1e84858302016126d1565b81815284810190848601875b84811015611efc578135870160c0807fffffffffffffffffffffffffffffffffffffffffffffffffffffffffffffffe0838f03011215611e68578a8bfd5b604080518281018181108b82111715611e7d57fe5b8252611e8a848d01611bec565b8152611e97828501611bec565b8c82015260608085013583830152611eb160808601611bc8565b9082015260a08481013560808301529284013592915089831115611ed3578c8dfd5b611ee18f8d85870101611bfc565b91810191909152865250509287019290870190600101611e2a565b50909998505050505050505050565b600060208284031215611f1c578081fd5b5035919050565b600060208284031215611f34578081fd5b5051919050565b60008151808452611f538160208601602086016126f5565b601f017fffffffffffffffffffffffffffffffffffffffffffffffffffffffffffffffe0169290920160200192915050565b7fff0000000000000000000000000000000000000000000000000000000000000094909416845260609290921b7fffffffffffffffffffffffffffffffffffffffff0000000000000000000000001660018401526015830152603582015260550190565b7fffffffff0000000000000000000000000000000000000000000000000000000091909116815260040190565b600082516120288184602087016126f5565b9190910192915050565b7f19010000000000000000000000000000000000000000000000000000000000008152600281019390935260609190911b7fffffffffffffffffffffffffffffffffffffffff000000000000000000000000166022830152603682015260560190565b73ffffffffffffffffffffffffffffffffffffffff91909116815260200190565b604080825283519082018190526000906020906060840190828701845b828110156120f15781511515845292840192908401906001016120d3565b5050508381038285015284518082528282019080840283018401878501865b83811015611efc577fffffffffffffffffffffffffffffffffffffffffffffffffffffffffffffffe086840301855261214a838351611f3b565b94870194925090860190600101612110565b6020808252818101839052600090604080840186845b878110156121b3578135835273ffffffffffffffffffffffffffffffffffffffff61219e868401611bc8565b16838601529183019190830190600101612172565b5090979650505050505050565b602080825282518282018190526000919060409081850190868401855b828110156122185781518051855286015173ffffffffffffffffffffffffffffffffffffffff168685015292840192908501906001016121dd565b5091979650505050505050565b90815260200190565b928352602083019190915273ffffffffffffffffffffffffffffffffffffffff16604082015260600190565b600060208252611c996020830184611f3b565b6020808252603a908201527f526571756972655574696c73237075626c697368496e697469616c5369676e6560408201527f72733a20494e56414c49445f5349474e41545552455f464c4147000000000000606082015260800190565b60208082526027908201527f4d756c746943616c6c5574696c73236d756c746943616c6c3a2043414c4c5f5260408201527f4556455254454400000000000000000000000000000000000000000000000000606082015260800190565b60208082526028908201527f4d756c746943616c6c5574696c73236d756c746943616c6c3a204e4f545f454e60408201527f4f5547485f474153000000000000000000000000000000000000000000000000606082015260800190565b60208082526032908201527f526571756972655574696c7323726571756972654d696e4e6f6e63653a204e4f60408201527f4e43455f42454c4f575f52455155495245440000000000000000000000000000606082015260800190565b60208082526027908201527f526571756972655574696c7323726571756972654e6f6e457870697265643a2060408201527f4558504952454400000000000000000000000000000000000000000000000000606082015260800190565b60208082526048908201527f526571756972655574696c73237075626c697368496e697469616c5369676e6560408201527f72733a20554e45585045435445445f434f554e5445524641435455414c5f494d60608201527f4147455f48415348000000000000000000000000000000000000000000000000608082015260a00190565b60208082526032908201527f4d6f64756c6541757468235f7369676e617475726556616c69646174696f6e3a60408201527f20494e56414c49445f5349474e41545552450000000000000000000000000000606082015260800190565b60208082526032908201527f4d756c746943616c6c5574696c73236d756c746943616c6c3a2064656c65676160408201527f746543616c6c206e6f7420616c6c6f7765640000000000000000000000000000606082015260800190565b60208082526039908201527f526571756972655574696c73237075626c697368496e697469616c5369676e6560408201527f72733a20494e56414c49445f4d454d424552535f434f554e5400000000000000606082015260800190565b60208082526031908201527f526571756972655574696c73237075626c697368436f6e6669673a20554e455860408201527f5045435445445f494d4147455f48415348000000000000000000000000000000606082015260800190565b602080825260409082018190527f526571756972655574696c73237075626c697368436f6e6669673a20554e4558908201527f5045435445445f434f554e5445524641435455414c5f494d4147455f48415348606082015260800190565b600061ffff84168252604060208301526126b06040830184611f3b565b949350505050565b6000838252604060208301526126b06040830184611f3b565b60405181810167ffffffffffffffff811182821017156126ed57fe5b604052919050565b60005b838110156127105781810151838201526020016126f8565b8381111561271f576000848401525b5050505056fe5369676e617475726556616c696461746f72237265636f7665725369676e65723a20696e76616c6964207369676e6174757265202773272076616c75655369676e617475726556616c696461746f72237265636f7665725369676e65723a20696e76616c6964207369676e6174757265206c656e6774684c696242797465732372656164416464726573733a204f55545f4f465f424f554e44534c696242797465732372656164466972737455696e7431363a204f55545f4f465f424f554e44535369676e617475726556616c696461746f72237265636f7665725369676e65723a20696e76616c6964207369676e6174757265202776272076616c75655369676e617475726556616c696461746f72237265636f7665725369676e65723a20494e56414c49445f5349474e45525369676e617475726556616c696461746f7223697356616c69645369676e61747572653a20554e535550504f525445445f5349474e41545552455f545950454c696242797465732372656164427974657336363a204f55545f4f465f424f554e44535369676e617475726556616c696461746f72237265636f7665725369676e65723a20554e535550504f525445445f5349474e41545552455f545950454c69624279746573237265616455696e743855696e74383a204f55545f4f465f424f554e44534c69624279746573237265616442797465733a204f55545f4f465f424f554e44534c69624279746573237265616455696e7431363a204f55545f4f465f424f554e44534c696242797465732372656164427974657333323a20475245415445525f4f525f455155414c5f544f5f33325f4c454e4754485f5245515549524544a2646970667358221220251fc01fb6d4503bd3c0bf78363748c9a0b75a0bffc12f84b9d2b2523cdb089964736f6c63430007060033603a600e3d39601a805130553df3363d3d373d3d3d363d30545af43d82803e903d91601857fd5bf3",
  "linkReferences": {},
  "deployedLinkReferences": {}
}