{
  "_format": "hh-sol-artifact-1",
  "contractName": "HookMock",
  "sourceName": "contracts/mocks/HookMock.sol",
  "abi": [
    {
      "inputs": [
        {
          "internalType": "uint256",
          "name": "_num",
          "type": "uint256"
        }
      ],
      "name": "onHookMockCall",
      "outputs": [
        {
          "internalType": "uint256",
          "name": "",
          "type": "uint256"
        }
      ],
      "stateMutability": "pure",
      "type": "function"
    }
  ],
  "bytecode": "0x6080604052348015600f57600080fd5b5060958061001e6000396000f3fe6080604052348015600f57600080fd5b506004361060285760003560e01c8063b68fe6cf14602d575b600080fd5b604760048036036020811015604157600080fd5b50356059565b60408051918252519081900360200190f35b6002029056fea264697066735822122029a1e312dcefda1bc536e0d465373c6d97a053313911fb1a8d3e3c7806aeac1764736f6c63430007060033",
  "linkReferences": {},
  "deployedLinkReferences": {}
}