{
  "_format": "hh-sol-artifact-1",
  "contractName": "ContractDetector",
  "sourceName": "contracts/modules/utils/ContractDetector.sol",
  "abi": [
    {
      "inputs": [
        {
          "internalType": "address[]",
          "name": "addresses",
          "type": "address[]"
        }
      ],
      "name": "isContract",
      "outputs": [
        {
          "internalType": "bool[]",
          "name": "",
          "type": "bool[]"
        }
      ],
      "stateMutability": "view",
      "type": "function"
    }
  ],
  "bytecode": "0x608060405234801561001057600080fd5b50610256806100206000396000f3fe608060405234801561001057600080fd5b506004361061002b5760003560e01c8063056a5e9b14610030575b600080fd5b61004361003e36600461016b565b610059565b60405161005091906101da565b60405180910390f35b606060008267ffffffffffffffff8111801561007457600080fd5b5060405190808252806020026020018201604052801561009e578160200160208202803683370190505b50905060005b838110156101285760008585838181106100ba57fe5b90506020020160208101906100cf9190610130565b9050803f801580159061010257507fc5d2460186f7233c927e7db2dcc703c0e500b653ca82273b7bfad8045d85a4708114155b84848151811061010e57fe5b9115156020928302919091019091015250506001016100a4565b509392505050565b600060208284031215610141578081fd5b813573ffffffffffffffffffffffffffffffffffffffff81168114610164578182fd5b9392505050565b6000806020838503121561017d578081fd5b823567ffffffffffffffff80821115610194578283fd5b818501915085601f8301126101a7578283fd5b8135818111156101b5578384fd5b86602080830285010111156101c8578384fd5b60209290920196919550909350505050565b6020808252825182820181905260009190848201906040850190845b818110156102145783511515835292840192918401916001016101f6565b5090969550505050505056fea264697066735822122019ea3a12743d1c812c51a87595d7f3fa70390488ce51ee1003b2532b5a7fb7cb64736f6c63430007060033",
  "linkReferences": {},
  "deployedLinkReferences": {}
}