{
  "_format": "hh-sol-artifact-1",
  "contractName": "RequireUtils",
  "sourceName": "contracts/modules/utils/RequireUtils.sol",
  "abi": [
    {
      "inputs": [
        {
          "internalType": "address",
          "name": "_wallet",
          "type": "address"
        },
        {
          "internalType": "uint256",
          "name": "_nonce",
          "type": "uint256"
        }
      ],
      "name": "requireMinNonce",
      "outputs": [],
      "stateMutability": "view",
      "type": "function"
    },
    {
      "inputs": [
        {
          "internalType": "uint256",
          "name": "_expiration",
          "type": "uint256"
        }
      ],
      "name": "requireNonExpired",
      "outputs": [],
      "stateMutability": "view",
      "type": "function"
    }
  ],
  "bytecode": "0x608060405234801561001057600080fd5b5061034a806100206000396000f3fe608060405234801561001057600080fd5b50600436106100365760003560e01c80637f29d5381461003b578063b472f0a214610050575b600080fd5b61004e61004936600461025f565b610063565b005b61004e61005e366004610278565b6100fa565b8042106100f7576040517f08c379a000000000000000000000000000000000000000000000000000000000815260206004820152602760248201527f526571756972655574696c7323726571756972654e6f6e457870697265643a2060448201527f455850495245440000000000000000000000000000000000000000000000000060648201526084015b60405180910390fd5b50565b60008061010683610236565b6040517f8c3f556300000000000000000000000000000000000000000000000000000000815260048101839052919350915060009073ffffffffffffffffffffffffffffffffffffffff861690638c3f556390602401602060405180830381865afa158015610179573d6000803e3d6000fd5b505050506040513d601f19601f8201168201806040525081019061019d91906102bd565b90508181101561022f576040517f08c379a000000000000000000000000000000000000000000000000000000000815260206004820152603260248201527f526571756972655574696c7323726571756972654d696e4e6f6e63653a204e4f60448201527f4e43455f42454c4f575f5245515549524544000000000000000000000000000060648201526084016100ee565b5050505050565b60008061025160016c010000000000000000000000006102d6565b606084901c94931692915050565b60006020828403121561027157600080fd5b5035919050565b6000806040838503121561028b57600080fd5b823573ffffffffffffffffffffffffffffffffffffffff811681146102af57600080fd5b946020939093013593505050565b6000602082840312156102cf57600080fd5b5051919050565b60008282101561030f577f4e487b7100000000000000000000000000000000000000000000000000000000600052601160045260246000fd5b50039056fea264697066735822122026e7bc3dc4b35e4da064df8fd58663a74d60d3f658e3b75a8e222400c2a871ff64736f6c634300080e0033",
  "linkReferences": {},
  "deployedLinkReferences": {}
}