{
  "_format": "hh-sol-artifact-1",
  "contractName": "RequireUtils",
  "sourceName": "contracts/modules/utils/RequireUtils.sol",
  "abi": [
    {
      "inputs": [
        {
          "internalType": "address",
          "name": "_factory",
          "type": "address"
        },
        {
          "internalType": "address",
          "name": "_mainModule",
          "type": "address"
        }
      ],
      "stateMutability": "nonpayable",
      "type": "constructor"
    },
    {
      "anonymous": false,
      "inputs": [
        {
          "indexed": true,
          "internalType": "address",
          "name": "_wallet",
          "type": "address"
        },
        {
          "indexed": true,
          "internalType": "bytes32",
          "name": "_imageHash",
          "type": "bytes32"
        },
        {
          "indexed": false,
          "internalType": "uint256",
          "name": "_threshold",
          "type": "uint256"
        },
        {
          "indexed": false,
          "internalType": "bytes",
          "name": "_signers",
          "type": "bytes"
        }
      ],
      "name": "RequiredConfig",
      "type": "event"
    },
    {
      "anonymous": false,
      "inputs": [
        {
          "indexed": true,
          "internalType": "address",
          "name": "_wallet",
          "type": "address"
        },
        {
          "indexed": true,
          "internalType": "address",
          "name": "_signer",
          "type": "address"
        }
      ],
      "name": "RequiredSigner",
      "type": "event"
    },
    {
      "inputs": [
        {
          "internalType": "address",
          "name": "",
          "type": "address"
        }
      ],
      "name": "knownImageHashes",
      "outputs": [
        {
          "internalType": "bytes32",
          "name": "",
          "type": "bytes32"
        }
      ],
      "stateMutability": "view",
      "type": "function"
    },
    {
      "inputs": [
        {
          "internalType": "bytes32",
          "name": "",
          "type": "bytes32"
        }
      ],
      "name": "lastImageHashUpdate",
      "outputs": [
        {
          "internalType": "uint256",
          "name": "",
          "type": "uint256"
        }
      ],
      "stateMutability": "view",
      "type": "function"
    },
    {
      "inputs": [
        {
          "internalType": "address",
          "name": "",
          "type": "address"
        }
      ],
      "name": "lastSignerUpdate",
      "outputs": [
        {
          "internalType": "uint256",
          "name": "",
          "type": "uint256"
        }
      ],
      "stateMutability": "view",
      "type": "function"
    },
    {
      "inputs": [
        {
          "internalType": "address",
          "name": "",
          "type": "address"
        }
      ],
      "name": "lastWalletUpdate",
      "outputs": [
        {
          "internalType": "uint256",
          "name": "",
          "type": "uint256"
        }
      ],
      "stateMutability": "view",
      "type": "function"
    },
    {
      "inputs": [
        {
          "internalType": "address",
          "name": "_wallet",
          "type": "address"
        },
        {
          "internalType": "uint256",
          "name": "_threshold",
          "type": "uint256"
        },
        {
          "components": [
            {
              "internalType": "uint256",
              "name": "weight",
              "type": "uint256"
            },
            {
              "internalType": "address",
              "name": "signer",
              "type": "address"
            }
          ],
          "internalType": "struct RequireUtils.Member[]",
          "name": "_members",
          "type": "tuple[]"
        },
        {
          "internalType": "bool",
          "name": "_index",
          "type": "bool"
        }
      ],
      "name": "publishConfig",
      "outputs": [],
      "stateMutability": "nonpayable",
      "type": "function"
    },
    {
      "inputs": [
        {
          "internalType": "address",
          "name": "_wallet",
          "type": "address"
        },
        {
          "internalType": "bytes32",
          "name": "_hash",
          "type": "bytes32"
        },
        {
          "internalType": "uint256",
          "name": "_sizeMembers",
          "type": "uint256"
        },
        {
          "internalType": "bytes",
          "name": "_signature",
          "type": "bytes"
        },
        {
          "internalType": "bool",
          "name": "_index",
          "type": "bool"
        }
      ],
      "name": "publishInitialSigners",
      "outputs": [],
      "stateMutability": "nonpayable",
      "type": "function"
    },
    {
      "inputs": [
        {
          "internalType": "address",
          "name": "_wallet",
          "type": "address"
        },
        {
          "internalType": "uint256",
          "name": "_nonce",
          "type": "uint256"
        }
      ],
      "name": "requireMinNonce",
      "outputs": [],
      "stateMutability": "view",
      "type": "function"
    },
    {
      "inputs": [
        {
          "internalType": "uint256",
          "name": "_expiration",
          "type": "uint256"
        }
      ],
      "name": "requireNonExpired",
      "outputs": [],
      "stateMutability": "view",
      "type": "function"
    }
  ],
  "bytecode": "0x60c06040523480156200001157600080fd5b5060405162002183380380620021838339810160408190526200003491620000bb565b606082811b6001600160601b03191660a05260408051918201905260288082526200215b6020830139816001600160a01b03166040516020016200007a929190620000f2565b60408051601f19818403018152919052805160209091012060805250620001349050565b80516001600160a01b0381168114620000b657600080fd5b919050565b60008060408385031215620000ce578182fd5b620000d9836200009e565b9150620000e9602084016200009e565b90509250929050565b60008351815b81811015620001145760208187018101518583015201620000f8565b81811115620001235782828501525b509190910191825250602001919050565b60805160a05160601c611ff66200016560003980610362528061080a525080610386528061082e5250611ff66000f3fe608060405234801561001057600080fd5b50600436106100885760003560e01c80637ae996381161005b5780637ae99638146100f15780637f29d53814610104578063b472f0a214610117578063e717aba91461012a57610088565b80631551f0ab1461008d5780631cd05dc4146100b657806344d466c2146100c95780637082503b146100de575b600080fd5b6100a061009b36600461174a565b61013d565b6040516100ad919061199d565b60405180910390f35b6100a06100c4366004611586565b61014f565b6100dc6100d73660046116ba565b610161565b005b6100dc6100ec3660046115a7565b61051b565b6100a06100ff366004611586565b61099f565b6100dc61011236600461174a565b6109b1565b6100dc610125366004611691565b6109ed565b6100a0610138366004611586565b610acb565b60036020526000908152604090205481565b60006020819052908152604090205481565b8360005b838110156101fa578185858381811061017a57fe5b9050604002016000013586868481811061019057fe5b90506040020160200160208101906101a89190611586565b6040516020016101ba939291906119a6565b604080517fffffffffffffffffffffffffffffffffffffffffffffffffffffffffffffffe081840301815291905280516020909101209150600101610165565b506000808773ffffffffffffffffffffffffffffffffffffffff166351605d8060e01b60405160200161022d9190611828565b604080517fffffffffffffffffffffffffffffffffffffffffffffffffffffffffffffffe08184030181529082905261026591611855565b6000604051808303816000865af19150503d80600081146102a2576040519150601f19603f3d011682016040523d82523d6000602084013e6102a7565b606091505b50915091508180156102ba575080516020145b1561031f576000818060200190518101906102d59190611762565b9050838114610319576040517f08c379a000000000000000000000000000000000000000000000000000000000815260040161031090611c26565b60405180910390fd5b50610443565b60405173ffffffffffffffffffffffffffffffffffffffff8916906103ae907fff00000000000000000000000000000000000000000000000000000000000000907f00000000000000000000000000000000000000000000000000000000000000009087907f0000000000000000000000000000000000000000000000000000000000000000906020016117c4565b6040516020818303038152906040528051906020012060001c73ffffffffffffffffffffffffffffffffffffffff1614610414576040517f08c379a000000000000000000000000000000000000000000000000000000000815260040161031090611c83565b83156104435773ffffffffffffffffffffffffffffffffffffffff881660009081526002602052604090208390555b828873ffffffffffffffffffffffffffffffffffffffff167fb502b7446ca079086188acf3abef47c2f464f2ee9a72fcdf05ffcb74dcc17cee8989896040516020016104909291906118d4565b604080517fffffffffffffffffffffffffffffffffffffffffffffffffffffffffffffffe0818403018152908290526104c99291611d06565b60405180910390a383156105115773ffffffffffffffffffffffffffffffffffffffff8816600090815260016020908152604080832043908190558684526003909252909120555b5050505050505050565b60008061052784610add565b9150915060008046905080898960405160200161054693929190611871565b604080517fffffffffffffffffffffffffffffffffffffffffffffffffffffffffffffffe0818403018152919052805160209091012091505061ffff831660008767ffffffffffffffff8111801561059d57600080fd5b506040519080825280602002602001820160405280156105d757816020015b6105c4611536565b8152602001906001900390816105bc5790505b50905060005b875185101561078e57600080806105f48b89610b4b565b995060ff9182169450169150600183141561061c576106138b89610bcc565b9850905061070f565b8261064e57606061062d8c8a610c44565b9950905061063b8882610cf5565b91506106488f838d61107f565b5061070f565b60028314156106dd576106618b89610bcc565b9850905060006106718c8a61110d565b995061ffff16905060606106868d8b8461117e565b9a50905061069589848361126d565b6106cb576040517f08c379a000000000000000000000000000000000000000000000000000000000815260040161031090611b6c565b50506106d88e828c61107f565b61070f565b6040517f08c379a0000000000000000000000000000000000000000000000000000000008152600401610310906119d2565b60405180604001604052808381526020018273ffffffffffffffffffffffffffffffffffffffff1681525085858151811061074657fe5b6020026020010181905250838060010194505085828260405160200161076e939291906119a6565b6040516020818303038152906040528051906020012095505050506105dd565b8881146107c7576040517f08c379a000000000000000000000000000000000000000000000000000000000815260040161031090611bc9565b60405173ffffffffffffffffffffffffffffffffffffffff8c1690610856907fff00000000000000000000000000000000000000000000000000000000000000907f00000000000000000000000000000000000000000000000000000000000000009087907f0000000000000000000000000000000000000000000000000000000000000000906020016117c4565b6040516020818303038152906040528051906020012060001c73ffffffffffffffffffffffffffffffffffffffff16146108bc576040517f08c379a000000000000000000000000000000000000000000000000000000000815260040161031090611ae9565b828b73ffffffffffffffffffffffffffffffffffffffff167fb502b7446ca079086188acf3abef47c2f464f2ee9a72fcdf05ffcb74dcc17cee88856040516020016109079190611938565b604080517fffffffffffffffffffffffffffffffffffffffffffffffffffffffffffffffe0818403018152908290526109409291611ce1565b60405180910390a386156109925773ffffffffffffffffffffffffffffffffffffffff8b1660008181526001602090815260408083204390819055878452600383528184205592825260029052208390555b5050505050505050505050565b60026020526000908152604090205481565b8042106109ea576040517f08c379a000000000000000000000000000000000000000000000000000000000815260040161031090611a8c565b50565b6000806109f9836114b5565b9150915060008473ffffffffffffffffffffffffffffffffffffffff16638c3f5563846040518263ffffffff1660e01b8152600401610a38919061199d565b60206040518083038186803b158015610a5057600080fd5b505afa158015610a64573d6000803e3d6000fd5b505050506040513d601f19601f82011682018060405250810190610a889190611762565b905081811015610ac4576040517f08c379a000000000000000000000000000000000000000000000000000000000815260040161031090611a2f565b5050505050565b60016020526000908152604090205481565b6020810151815160f09190911c90600290811115610b46576040517f08c379a0000000000000000000000000000000000000000000000000000000008152600401808060200182810382526027815260200180611dea6027913960400191505060405180910390fd5b915091565b8082016020015160f881901c9060f01c60ff1660028301838111610b6b57fe5b8451811115610bc5576040517f08c379a0000000000000000000000000000000000000000000000000000000008152600401808060200182810382526026815260200180611f1c6026913960400191505060405180910390fd5b9250925092565b8082016020015160601c60148201828111610be357fe5b8351811115610c3d576040517f08c379a0000000000000000000000000000000000000000000000000000000008152600401808060200182810382526023815260200180611dc76023913960400191505060405180910390fd5b9250929050565b604080516042808252608082019092526060916000919060208201818036833701905050915082840160200180516020840152602081015160408401526022810151604284015250604283019050828111610c9b57fe5b8351811115610c3d576040517f08c379a0000000000000000000000000000000000000000000000000000000008152600401808060200182810382526023815260200180611ebd6023913960400191505060405180910390fd5b60008151604214610d51576040517f08c379a000000000000000000000000000000000000000000000000000000000815260040180806020018281038252603a815260200180611d8d603a913960400191505060405180910390fd5b600082600184510381518110610d6357fe5b602001015160f81c60f81b60f81c60ff169050600083604081518110610d8557fe5b016020015160f81c90506000610d9b85826114ce565b90506000610daa8660206114ce565b90507f7fffffffffffffffffffffffffffffff5d576e7357a4501ddfe92f46681b20a0811115610e25576040517f08c379a000000000000000000000000000000000000000000000000000000000815260040180806020018281038252603d815260200180611d50603d913960400191505060405180910390fd5b8260ff16601b14158015610e3d57508260ff16601c14155b15610e93576040517f08c379a000000000000000000000000000000000000000000000000000000000815260040180806020018281038252603d815260200180611e11603d913960400191505060405180910390fd5b6001841415610f075760018784848460405160008152602001604052604051808581526020018460ff1681526020018381526020018281526020019450505050506020604051602081039080840390855afa158015610ef6573d6000803e3d6000fd5b505050602060405103519450611009565b6002841415610fb85760018760405160200180807f19457468657265756d205369676e6564204d6573736167653a0a333200000000815250601c018281526020019150506040516020818303038152906040528051906020012084848460405160008152602001604052604051808581526020018460ff1681526020018381526020018281526020019450505050506020604051602081039080840390855afa158015610ef6573d6000803e3d6000fd5b6040517f08c379a000000000000000000000000000000000000000000000000000000000815260040180806020018281038252603c815260200180611ee0603c913960400191505060405180910390fd5b73ffffffffffffffffffffffffffffffffffffffff8516611075576040517f08c379a0000000000000000000000000000000000000000000000000000000008152600401808060200182810382526030815260200180611e4e6030913960400191505060405180910390fd5b5050505092915050565b8173ffffffffffffffffffffffffffffffffffffffff168373ffffffffffffffffffffffffffffffffffffffff167f600ba597427f042bcd559a0d06fa1732cc104d6dd43cbe8845b5a0e804b2b39f60405160405180910390a380156111085773ffffffffffffffffffffffffffffffffffffffff821660009081526020819052604090204390555b505050565b8082016020015160f01c6002820182811161112457fe5b8351811115610c3d576040517f08c379a0000000000000000000000000000000000000000000000000000000008152600401808060200182810382526022815260200180611f636022913960400191505060405180910390fd5b606060008267ffffffffffffffff8111801561119957600080fd5b506040519080825280601f01601f1916602001820160405280156111c4576020820181803683370190505b509150838501602001600060205b858110156111eb579082015184820152602081016111d2565b848601602001805193909201519085015252508282018381101561120b57fe5b8451811115611265576040517f08c379a0000000000000000000000000000000000000000000000000000000008152600401808060200182810382526021815260200180611f426021913960400191505060405180910390fd5b935093915050565b6000808260018451038151811061128057fe5b016020015160f81c905060018114806112995750600281145b156112dd578373ffffffffffffffffffffffffffffffffffffffff166112bf8685610cf5565b73ffffffffffffffffffffffffffffffffffffffff161491506114ad565b600381141561145c5782517fffffffffffffffffffffffffffffffffffffffffffffffffffffffffffffffff81018452604080517f1626ba7e000000000000000000000000000000000000000000000000000000008152600481018881526024820192835286516044830152865173ffffffffffffffffffffffffffffffffffffffff891693631626ba7e938b938a9390929160640190602085019080838360005b8381101561139757818101518382015260200161137f565b50505050905090810190601f1680156113c45780820380516001836020036101000a031916815260200191505b50935050505060206040518083038186803b1580156113e257600080fd5b505afa1580156113f6573d6000803e3d6000fd5b505050506040513d602081101561140c57600080fd5b50519084527fffffffff00000000000000000000000000000000000000000000000000000000167f1626ba7e000000000000000000000000000000000000000000000000000000001491506114ad565b6040517f08c379a000000000000000000000000000000000000000000000000000000000815260040180806020018281038252603f815260200180611e7e603f913960400191505060405180910390fd5b509392505050565b606081901c916bffffffffffffffffffffffff90911690565b6000816020018351101561152d576040517f08c379a000000000000000000000000000000000000000000000000000000000815260040180806020018281038252603c815260200180611f85603c913960400191505060405180910390fd5b50016020015190565b604080518082019091526000808252602082015290565b803573ffffffffffffffffffffffffffffffffffffffff8116811461157157600080fd5b919050565b8035801515811461157157600080fd5b600060208284031215611597578081fd5b6115a08261154d565b9392505050565b600080600080600060a086880312156115be578081fd5b6115c78661154d565b9450602080870135945060408701359350606087013567ffffffffffffffff808211156115f2578384fd5b818901915089601f830112611605578384fd5b81358181111561161157fe5b604051847fffffffffffffffffffffffffffffffffffffffffffffffffffffffffffffffe0601f840116820101818110848211171561164c57fe5b60405281815283820185018c1015611662578586fd5b818585018683013785858383010152809650505050505061168560808701611576565b90509295509295909350565b600080604083850312156116a3578182fd5b6116ac8361154d565b946020939093013593505050565b6000806000806000608086880312156116d1578081fd5b6116da8661154d565b945060208601359350604086013567ffffffffffffffff808211156116fd578283fd5b818801915088601f830112611710578283fd5b81358181111561171e578384fd5b896020604083028501011115611732578384fd5b60208301955080945050505061168560608701611576565b60006020828403121561175b578081fd5b5035919050565b600060208284031215611773578081fd5b5051919050565b60008151808452611792816020860160208601611d1f565b601f017fffffffffffffffffffffffffffffffffffffffffffffffffffffffffffffffe0169290920160200192915050565b7fff0000000000000000000000000000000000000000000000000000000000000094909416845260609290921b7fffffffffffffffffffffffffffffffffffffffff0000000000000000000000001660018401526015830152603582015260550190565b7fffffffff0000000000000000000000000000000000000000000000000000000091909116815260040190565b60008251611867818460208701611d1f565b9190910192915050565b7f19010000000000000000000000000000000000000000000000000000000000008152600281019390935260609190911b7fffffffffffffffffffffffffffffffffffffffff000000000000000000000000166022830152603682015260560190565b6020808252818101839052600090604080840186845b8781101561192b578135835273ffffffffffffffffffffffffffffffffffffffff61191686840161154d565b168386015291830191908301906001016118ea565b5090979650505050505050565b602080825282518282018190526000919060409081850190868401855b828110156119905781518051855286015173ffffffffffffffffffffffffffffffffffffffff16868501529284019290850190600101611955565b5091979650505050505050565b90815260200190565b928352602083019190915273ffffffffffffffffffffffffffffffffffffffff16604082015260600190565b6020808252603a908201527f526571756972655574696c73237075626c697368496e697469616c5369676e6560408201527f72733a20494e56414c49445f5349474e41545552455f464c4147000000000000606082015260800190565b60208082526032908201527f526571756972655574696c7323726571756972654d696e4e6f6e63653a204e4f60408201527f4e43455f42454c4f575f52455155495245440000000000000000000000000000606082015260800190565b60208082526027908201527f526571756972655574696c7323726571756972654e6f6e457870697265643a2060408201527f4558504952454400000000000000000000000000000000000000000000000000606082015260800190565b60208082526048908201527f526571756972655574696c73237075626c697368496e697469616c5369676e6560408201527f72733a20554e45585045435445445f434f554e5445524641435455414c5f494d60608201527f4147455f48415348000000000000000000000000000000000000000000000000608082015260a00190565b60208082526032908201527f4d6f64756c6541757468235f7369676e617475726556616c69646174696f6e3a60408201527f20494e56414c49445f5349474e41545552450000000000000000000000000000606082015260800190565b60208082526039908201527f526571756972655574696c73237075626c697368496e697469616c5369676e6560408201527f72733a20494e56414c49445f4d454d424552535f434f554e5400000000000000606082015260800190565b60208082526031908201527f526571756972655574696c73237075626c697368436f6e6669673a20554e455860408201527f5045435445445f494d4147455f48415348000000000000000000000000000000606082015260800190565b602080825260409082018190527f526571756972655574696c73237075626c697368436f6e6669673a20554e4558908201527f5045435445445f434f554e5445524641435455414c5f494d4147455f48415348606082015260800190565b600061ffff8416825260406020830152611cfe604083018461177a565b949350505050565b600083825260406020830152611cfe604083018461177a565b60005b83811015611d3a578181015183820152602001611d22565b83811115611d49576000848401525b5050505056fe5369676e617475726556616c696461746f72237265636f7665725369676e65723a20696e76616c6964207369676e6174757265202773272076616c75655369676e617475726556616c696461746f72237265636f7665725369676e65723a20696e76616c6964207369676e6174757265206c656e6774684c696242797465732372656164416464726573733a204f55545f4f465f424f554e44534c696242797465732372656164466972737455696e7431363a204f55545f4f465f424f554e44535369676e617475726556616c696461746f72237265636f7665725369676e65723a20696e76616c6964207369676e6174757265202776272076616c75655369676e617475726556616c696461746f72237265636f7665725369676e65723a20494e56414c49445f5349474e45525369676e617475726556616c696461746f7223697356616c69645369676e61747572653a20554e535550504f525445445f5349474e41545552455f545950454c696242797465732372656164427974657336363a204f55545f4f465f424f554e44535369676e617475726556616c696461746f72237265636f7665725369676e65723a20554e535550504f525445445f5349474e41545552455f545950454c69624279746573237265616455696e743855696e74383a204f55545f4f465f424f554e44534c69624279746573237265616442797465733a204f55545f4f465f424f554e44534c69624279746573237265616455696e7431363a204f55545f4f465f424f554e44534c696242797465732372656164427974657333323a20475245415445525f4f525f455155414c5f544f5f33325f4c454e4754485f5245515549524544a2646970667358221220d5668bd52704a70648c2816078f9518f517983d8e974c2ff3425e71d0b4ff84864736f6c63430007060033603a600e3d39601a805130553df3363d3d373d3d3d363d30545af43d82803e903d91601857fd5bf3",
  "linkReferences": {},
  "deployedLinkReferences": {}
}