{
  "_format": "hh-sol-artifact-1",
  "contractName": "RequireUtils",
  "sourceName": "contracts/modules/utils/RequireUtils.sol",
  "abi": [
    {
      "inputs": [
        {
          "internalType": "address",
          "name": "_factory",
          "type": "address"
        },
        {
          "internalType": "address",
          "name": "_mainModule",
          "type": "address"
        }
      ],
      "stateMutability": "nonpayable",
      "type": "constructor"
    },
    {
      "inputs": [
        {
          "internalType": "bytes",
          "name": "_signature",
          "type": "bytes"
        },
        {
          "internalType": "bytes32",
          "name": "_s",
          "type": "bytes32"
        }
      ],
      "name": "InvalidSValue",
      "type": "error"
    },
    {
      "inputs": [
        {
          "internalType": "bytes",
          "name": "_signature",
          "type": "bytes"
        }
      ],
      "name": "InvalidSignatureLength",
      "type": "error"
    },
    {
      "inputs": [
        {
          "internalType": "bytes",
          "name": "_signature",
          "type": "bytes"
        },
        {
          "internalType": "uint256",
          "name": "_v",
          "type": "uint256"
        }
      ],
      "name": "InvalidVValue",
      "type": "error"
    },
    {
      "inputs": [
        {
          "internalType": "bytes",
          "name": "_data",
          "type": "bytes"
        }
      ],
      "name": "ReadFirstUint16OutOfBounds",
      "type": "error"
    },
    {
      "inputs": [
        {
          "internalType": "bytes",
          "name": "_signature",
          "type": "bytes"
        }
      ],
      "name": "SignerIsAddress0",
      "type": "error"
    },
    {
      "inputs": [
        {
          "internalType": "bytes",
          "name": "_signature",
          "type": "bytes"
        },
        {
          "internalType": "uint256",
          "name": "_type",
          "type": "uint256"
        },
        {
          "internalType": "bool",
          "name": "_recoverMode",
          "type": "bool"
        }
      ],
      "name": "UnsupportedSignatureType",
      "type": "error"
    },
    {
      "anonymous": false,
      "inputs": [
        {
          "indexed": true,
          "internalType": "address",
          "name": "_wallet",
          "type": "address"
        },
        {
          "indexed": true,
          "internalType": "bytes32",
          "name": "_imageHash",
          "type": "bytes32"
        },
        {
          "indexed": false,
          "internalType": "uint256",
          "name": "_threshold",
          "type": "uint256"
        },
        {
          "indexed": false,
          "internalType": "bytes",
          "name": "_signers",
          "type": "bytes"
        }
      ],
      "name": "RequiredConfig",
      "type": "event"
    },
    {
      "anonymous": false,
      "inputs": [
        {
          "indexed": true,
          "internalType": "address",
          "name": "_wallet",
          "type": "address"
        },
        {
          "indexed": true,
          "internalType": "address",
          "name": "_signer",
          "type": "address"
        }
      ],
      "name": "RequiredSigner",
      "type": "event"
    },
    {
      "inputs": [
        {
          "internalType": "address",
          "name": "",
          "type": "address"
        }
      ],
      "name": "knownImageHashes",
      "outputs": [
        {
          "internalType": "bytes32",
          "name": "",
          "type": "bytes32"
        }
      ],
      "stateMutability": "view",
      "type": "function"
    },
    {
      "inputs": [
        {
          "internalType": "bytes32",
          "name": "",
          "type": "bytes32"
        }
      ],
      "name": "lastImageHashUpdate",
      "outputs": [
        {
          "internalType": "uint256",
          "name": "",
          "type": "uint256"
        }
      ],
      "stateMutability": "view",
      "type": "function"
    },
    {
      "inputs": [
        {
          "internalType": "address",
          "name": "",
          "type": "address"
        }
      ],
      "name": "lastSignerUpdate",
      "outputs": [
        {
          "internalType": "uint256",
          "name": "",
          "type": "uint256"
        }
      ],
      "stateMutability": "view",
      "type": "function"
    },
    {
      "inputs": [
        {
          "internalType": "address",
          "name": "",
          "type": "address"
        }
      ],
      "name": "lastWalletUpdate",
      "outputs": [
        {
          "internalType": "uint256",
          "name": "",
          "type": "uint256"
        }
      ],
      "stateMutability": "view",
      "type": "function"
    },
    {
      "inputs": [
        {
          "internalType": "address",
          "name": "_wallet",
          "type": "address"
        },
        {
          "internalType": "uint256",
          "name": "_threshold",
          "type": "uint256"
        },
        {
          "components": [
            {
              "internalType": "uint256",
              "name": "weight",
              "type": "uint256"
            },
            {
              "internalType": "address",
              "name": "signer",
              "type": "address"
            }
          ],
          "internalType": "struct RequireUtils.Member[]",
          "name": "_members",
          "type": "tuple[]"
        },
        {
          "internalType": "bool",
          "name": "_index",
          "type": "bool"
        }
      ],
      "name": "publishConfig",
      "outputs": [],
      "stateMutability": "nonpayable",
      "type": "function"
    },
    {
      "inputs": [
        {
          "internalType": "address",
          "name": "_wallet",
          "type": "address"
        },
        {
          "internalType": "bytes32",
          "name": "_hash",
          "type": "bytes32"
        },
        {
          "internalType": "uint256",
          "name": "_sizeMembers",
          "type": "uint256"
        },
        {
          "internalType": "bytes",
          "name": "_signature",
          "type": "bytes"
        },
        {
          "internalType": "bool",
          "name": "_index",
          "type": "bool"
        }
      ],
      "name": "publishInitialSigners",
      "outputs": [],
      "stateMutability": "nonpayable",
      "type": "function"
    },
    {
      "inputs": [
        {
          "internalType": "address",
          "name": "_wallet",
          "type": "address"
        },
        {
          "internalType": "uint256",
          "name": "_nonce",
          "type": "uint256"
        }
      ],
      "name": "requireMinNonce",
      "outputs": [],
      "stateMutability": "view",
      "type": "function"
    },
    {
      "inputs": [
        {
          "internalType": "uint256",
          "name": "_expiration",
          "type": "uint256"
        }
      ],
      "name": "requireNonExpired",
      "outputs": [],
      "stateMutability": "view",
      "type": "function"
    }
  ],
  "bytecode": "0x60c06040523480156200001157600080fd5b5060405162001bff38038062001bff8339810160408190526200003491620000b8565b6001600160a01b03821660a0526040805160608101909152602880825262001bd76020830139816001600160a01b031660405160200162000077929190620000f0565b60408051601f19818403018152919052805160209091012060805250620001349050565b80516001600160a01b0381168114620000b357600080fd5b919050565b60008060408385031215620000cc57600080fd5b620000d7836200009b565b9150620000e7602084016200009b565b90509250929050565b6000835160005b81811015620001135760208187018101518583015201620000f7565b8181111562000123576000828501525b509190910191825250602001919050565b60805160a051611a6f62000168600039600081816103f50152610acd0152600081816104260152610afe0152611a6f6000f3fe608060405234801561001057600080fd5b50600436106100885760003560e01c80637ae996381161005b5780637ae99638146101075780637f29d53814610127578063b472f0a21461013a578063e717aba91461014d57600080fd5b80631551f0ab1461008d5780631cd05dc4146100bf57806344d466c2146100df5780637082503b146100f4575b600080fd5b6100ad61009b366004611447565b60036020526000908152604090205481565b60405190815260200160405180910390f35b6100ad6100cd366004611489565b60006020819052908152604090205481565b6100f26100ed3660046114bb565b61016d565b005b6100f261010236600461155c565b61062a565b6100ad610115366004611489565b60026020526000908152604090205481565b6100f2610135366004611447565b610d03565b6100f2610148366004611602565b610d95565b6100ad61015b366004611489565b60016020526000908152604090205481565b8360005b8381101561021b578185858381811061018c5761018c61162c565b905060400201600001358686848181106101a8576101a861162c565b90506040020160200160208101906101c09190611489565b60408051602081019490945283019190915273ffffffffffffffffffffffffffffffffffffffff16606082015260800160405160208183030381529060405280519060200120915080806102139061168a565b915050610171565b506040517f51605d80000000000000000000000000000000000000000000000000000000006020820152600090819073ffffffffffffffffffffffffffffffffffffffff891690602401604080517fffffffffffffffffffffffffffffffffffffffffffffffffffffffffffffffe08184030181529082905261029d916116f2565b6000604051808303816000865af19150503d80600081146102da576040519150601f19603f3d011682016040523d82523d6000602084013e6102df565b606091505b50915091508180156102f2575080516020145b156103a95760008180602001905181019061030d919061170e565b90508381146103a3576040517f08c379a000000000000000000000000000000000000000000000000000000000815260206004820152603160248201527f526571756972655574696c73237075626c697368436f6e6669673a20554e455860448201527f5045435445445f494d4147455f4841534800000000000000000000000000000060648201526084015b60405180910390fd5b50610552565b6040517fff0000000000000000000000000000000000000000000000000000000000000060208201527fffffffffffffffffffffffffffffffffffffffff0000000000000000000000007f000000000000000000000000000000000000000000000000000000000000000060601b166021820152603581018490527f0000000000000000000000000000000000000000000000000000000000000000605582015273ffffffffffffffffffffffffffffffffffffffff8916906075016040516020818303038152906040528051906020012060001c73ffffffffffffffffffffffffffffffffffffffff161461052357604080517f08c379a00000000000000000000000000000000000000000000000000000000081526020600482015260248101919091527f526571756972655574696c73237075626c697368436f6e6669673a20554e455860448201527f5045435445445f434f554e5445524641435455414c5f494d4147455f48415348606482015260840161039a565b83156105525773ffffffffffffffffffffffffffffffffffffffff881660009081526002602052604090208390555b828873ffffffffffffffffffffffffffffffffffffffff167fb502b7446ca079086188acf3abef47c2f464f2ee9a72fcdf05ffcb74dcc17cee89898960405160200161059f929190611727565b604080517fffffffffffffffffffffffffffffffffffffffffffffffffffffffffffffffe0818403018152908290526105d892916117d5565b60405180910390a383156106205773ffffffffffffffffffffffffffffffffffffffff8816600090815260016020908152604080832043908190558684526003909252909120555b5050505050505050565b6000806106378585610ed1565b604080517f190100000000000000000000000000000000000000000000000000000000000060208083019190915246602283015260608d901b7fffffffffffffffffffffffffffffffffffffffff00000000000000000000000016604283015260568083018d90528351808403909101815260769092019092528051910120919350915061ffff831660008867ffffffffffffffff8111156106db576106db6117f6565b60405190808252806020026020018201604052801561072057816020015b60408051808201909152600080825260208201528152602001906001900390816106f95790505b50905060005b878510156109f257600285019489013560f881901c9060f01c60ff1660007fffffffffffffffffffffffffffffffffffffffffffffffffffffffffffffffff830161077c575060148701968b013560601c61094a565b826107c4576107a5878d8a8e610793826042611825565b926107a09392919061183d565b610f20565b90506107b2604289611825565b97506107bf8f828c6111e3565b61094a565b600283036108c257878c013560601c601489019850905060008c89013560f01c60028a018161ffff169150809a50819250505061081e88838f8f8d90868f61080c9190611825565b926108199392919061183d565b611271565b6108aa576040517f08c379a000000000000000000000000000000000000000000000000000000000815260206004820152603260248201527f4d6f64756c6541757468235f7369676e617475726556616c69646174696f6e3a60448201527f20494e56414c49445f5349474e41545552450000000000000000000000000000606482015260840161039a565b6108b4818a611825565b9850506107bf8f828c6111e3565b6040517f08c379a000000000000000000000000000000000000000000000000000000000815260206004820152603a60248201527f526571756972655574696c73237075626c697368496e697469616c5369676e6560448201527f72733a20494e56414c49445f5349474e41545552455f464c4147000000000000606482015260840161039a565b60405180604001604052808381526020018273ffffffffffffffffffffffffffffffffffffffff168152508585815181106109875761098761162c565b6020026020010181905250838061099d9061168a565b60408051602081018a905290810185905273ffffffffffffffffffffffffffffffffffffffff841660608201529095506080019050604051602081830303815290604052805190602001209550505050610726565b898114610a81576040517f08c379a000000000000000000000000000000000000000000000000000000000815260206004820152603960248201527f526571756972655574696c73237075626c697368496e697469616c5369676e6560448201527f72733a20494e56414c49445f4d454d424552535f434f554e5400000000000000606482015260840161039a565b6040517fff0000000000000000000000000000000000000000000000000000000000000060208201527fffffffffffffffffffffffffffffffffffffffff0000000000000000000000007f000000000000000000000000000000000000000000000000000000000000000060601b166021820152603581018490527f0000000000000000000000000000000000000000000000000000000000000000605582015273ffffffffffffffffffffffffffffffffffffffff8d16906075016040516020818303038152906040528051906020012060001c73ffffffffffffffffffffffffffffffffffffffff1614610c1f576040517f08c379a000000000000000000000000000000000000000000000000000000000815260206004820152604860248201527f526571756972655574696c73237075626c697368496e697469616c5369676e6560448201527f72733a20554e45585045435445445f434f554e5445524641435455414c5f494d60648201527f4147455f48415348000000000000000000000000000000000000000000000000608482015260a40161039a565b828c73ffffffffffffffffffffffffffffffffffffffff167fb502b7446ca079086188acf3abef47c2f464f2ee9a72fcdf05ffcb74dcc17cee8885604051602001610c6a9190611867565b604080517fffffffffffffffffffffffffffffffffffffffffffffffffffffffffffffffe081840301815290829052610ca392916118cc565b60405180910390a38615610cf55773ffffffffffffffffffffffffffffffffffffffff8c1660008181526001602090815260408083204390819055878452600383528184205592825260029052208390555b505050505050505050505050565b804210610d92576040517f08c379a000000000000000000000000000000000000000000000000000000000815260206004820152602760248201527f526571756972655574696c7323726571756972654e6f6e457870697265643a2060448201527f4558504952454400000000000000000000000000000000000000000000000000606482015260840161039a565b50565b600080610da18361141e565b6040517f8c3f556300000000000000000000000000000000000000000000000000000000815260048101839052919350915060009073ffffffffffffffffffffffffffffffffffffffff861690638c3f556390602401602060405180830381865afa158015610e14573d6000803e3d6000fd5b505050506040513d601f19601f82011682018060405250810190610e38919061170e565b905081811015610eca576040517f08c379a000000000000000000000000000000000000000000000000000000000815260206004820152603260248201527f526571756972655574696c7323726571756972654d696e4e6f6e63653a204e4f60448201527f4e43455f42454c4f575f52455155495245440000000000000000000000000000606482015260840161039a565b5050505050565b6000806002831015610f135783836040517f857f2c1a00000000000000000000000000000000000000000000000000000000815260040161039a929190611932565b5050503560f01c90600290565b600060428214610f605782826040517f2ee17a3d00000000000000000000000000000000000000000000000000000000815260040161039a929190611932565b6000610f79610f70600185611946565b85013560f81c90565b60ff169050604084013560f81c843560208601357f7fffffffffffffffffffffffffffffff5d576e7357a4501ddfe92f46681b20a0811115610fed578686826040517fad4aac7600000000000000000000000000000000000000000000000000000000815260040161039a9392919061195d565b8260ff16601b1415801561100557508260ff16601c14155b15611042578686846040517fe578897e00000000000000000000000000000000000000000000000000000000815260040161039a93929190611981565b600184036110af576040805160008152602081018083528a905260ff851691810191909152606081018390526080810182905260019060a0015b6020604051602081039080840390855afa15801561109e573d6000803e3d6000fd5b505050602060405103519450611187565b6002840361114c576040517f19457468657265756d205369676e6564204d6573736167653a0a3332000000006020820152603c8101899052600190605c01604080517fffffffffffffffffffffffffffffffffffffffffffffffffffffffffffffffe08184030181528282528051602091820120600084529083018083525260ff861690820152606081018490526080810183905260a00161107c565b86868560016040517f9dfba85200000000000000000000000000000000000000000000000000000000815260040161039a94939291906119a8565b73ffffffffffffffffffffffffffffffffffffffff85166111d85786866040517f6c1719d200000000000000000000000000000000000000000000000000000000815260040161039a929190611932565b505050509392505050565b8173ffffffffffffffffffffffffffffffffffffffff168373ffffffffffffffffffffffffffffffffffffffff167f600ba597427f042bcd559a0d06fa1732cc104d6dd43cbe8845b5a0e804b2b39f60405160405180910390a3801561126c5773ffffffffffffffffffffffffffffffffffffffff821660009081526020819052604090204390555b505050565b6000808383611281600182611946565b8181106112905761129061162c565b919091013560f81c91505060018114806112aa5750600281145b156112ef578473ffffffffffffffffffffffffffffffffffffffff166112d1878686610f20565b73ffffffffffffffffffffffffffffffffffffffff16149150611415565b600381036113da5773ffffffffffffffffffffffffffffffffffffffff8516631626ba7e8786600087611323600182611946565b926113309392919061183d565b6040518463ffffffff1660e01b815260040161134e939291906119d4565b602060405180830381865afa15801561136b573d6000803e3d6000fd5b505050506040513d601f19601f8201168201806040525081019061138f91906119f7565b7fffffffff00000000000000000000000000000000000000000000000000000000167f1626ba7e00000000000000000000000000000000000000000000000000000000149150611415565b83838260006040517f9dfba85200000000000000000000000000000000000000000000000000000000815260040161039a94939291906119a8565b50949350505050565b60008061143960016c01000000000000000000000000611946565b606084901c94931692915050565b60006020828403121561145957600080fd5b5035919050565b803573ffffffffffffffffffffffffffffffffffffffff8116811461148457600080fd5b919050565b60006020828403121561149b57600080fd5b6114a482611460565b9392505050565b8035801515811461148457600080fd5b6000806000806000608086880312156114d357600080fd5b6114dc86611460565b945060208601359350604086013567ffffffffffffffff8082111561150057600080fd5b818801915088601f83011261151457600080fd5b81358181111561152357600080fd5b8960208260061b850101111561153857600080fd5b602083019550809450505050611550606087016114ab565b90509295509295909350565b60008060008060008060a0878903121561157557600080fd5b61157e87611460565b95506020870135945060408701359350606087013567ffffffffffffffff808211156115a957600080fd5b818901915089601f8301126115bd57600080fd5b8135818111156115cc57600080fd5b8a60208285010111156115de57600080fd5b6020830195508094505050506115f6608088016114ab565b90509295509295509295565b6000806040838503121561161557600080fd5b61161e83611460565b946020939093013593505050565b7f4e487b7100000000000000000000000000000000000000000000000000000000600052603260045260246000fd5b7f4e487b7100000000000000000000000000000000000000000000000000000000600052601160045260246000fd5b60007fffffffffffffffffffffffffffffffffffffffffffffffffffffffffffffffff82036116bb576116bb61165b565b5060010190565b60005b838110156116dd5781810151838201526020016116c5565b838111156116ec576000848401525b50505050565b600082516117048184602087016116c2565b9190910192915050565b60006020828403121561172057600080fd5b5051919050565b6020808252818101839052600090604080840186845b8781101561177e578135835273ffffffffffffffffffffffffffffffffffffffff611769868401611460565b1683860152918301919083019060010161173d565b5090979650505050505050565b600081518084526117a38160208601602086016116c2565b601f017fffffffffffffffffffffffffffffffffffffffffffffffffffffffffffffffe0169290920160200192915050565b8281526040602082015260006117ee604083018461178b565b949350505050565b7f4e487b7100000000000000000000000000000000000000000000000000000000600052604160045260246000fd5b600082198211156118385761183861165b565b500190565b6000808585111561184d57600080fd5b8386111561185a57600080fd5b5050820193919092039150565b602080825282518282018190526000919060409081850190868401855b828110156118bf5781518051855286015173ffffffffffffffffffffffffffffffffffffffff16868501529284019290850190600101611884565b5091979650505050505050565b61ffff831681526040602082015260006117ee604083018461178b565b8183528181602085013750600060208284010152600060207fffffffffffffffffffffffffffffffffffffffffffffffffffffffffffffffe0601f840116840101905092915050565b6020815260006117ee6020830184866118e9565b6000828210156119585761195861165b565b500390565b6040815260006119716040830185876118e9565b9050826020830152949350505050565b6040815260006119956040830185876118e9565b905060ff83166020830152949350505050565b6060815260006119bc6060830186886118e9565b60208301949094525090151560409091015292915050565b8381526040602082015260006119ee6040830184866118e9565b95945050505050565b600060208284031215611a0957600080fd5b81517fffffffff00000000000000000000000000000000000000000000000000000000811681146114a457600080fdfea26469706673582212202c019032ee99ca675bb3fa4513bdaa98c5f4e84baff80ac2a12e9e55ba5a7dbd64736f6c634300080e0033603a600e3d39601a805130553df3363d3d373d3d3d363d30545af43d82803e903d91601857fd5bf3",
  "linkReferences": {},
  "deployedLinkReferences": {}
}