{
  "_format": "hh-sol-artifact-1",
  "contractName": "MainModuleUpgradable",
  "sourceName": "contracts/modules/MainModuleUpgradable.sol",
  "abi": [
    {
      "inputs": [
        {
          "internalType": "uint256",
          "name": "_space",
          "type": "uint256"
        },
        {
          "internalType": "uint256",
          "name": "_provided",
          "type": "uint256"
        },
        {
          "internalType": "uint256",
          "name": "_current",
          "type": "uint256"
        }
      ],
      "name": "BadGapNonce",
      "type": "error"
    },
    {
      "inputs": [
        {
          "internalType": "uint256",
          "name": "_space",
          "type": "uint256"
        },
        {
          "internalType": "uint256",
          "name": "_provided",
          "type": "uint256"
        },
        {
          "internalType": "uint256",
          "name": "_current",
          "type": "uint256"
        }
      ],
      "name": "BadNonce",
      "type": "error"
    },
    {
      "inputs": [
        {
          "internalType": "uint256",
          "name": "_space",
          "type": "uint256"
        },
        {
          "internalType": "uint256",
          "name": "_nonce",
          "type": "uint256"
        }
      ],
      "name": "ExpectedEmptyNonce",
      "type": "error"
    },
    {
      "inputs": [
        {
          "internalType": "bytes4",
          "name": "_signature",
          "type": "bytes4"
        }
      ],
      "name": "HookAlreadyExists",
      "type": "error"
    },
    {
      "inputs": [
        {
          "internalType": "bytes4",
          "name": "_signature",
          "type": "bytes4"
        }
      ],
      "name": "HookDoesNotExist",
      "type": "error"
    },
    {
      "inputs": [],
      "name": "ImageHashIsZero",
      "type": "error"
    },
    {
      "inputs": [
        {
          "internalType": "address",
          "name": "_implementation",
          "type": "address"
        }
      ],
      "name": "InvalidImplementation",
      "type": "error"
    },
    {
      "inputs": [
        {
          "internalType": "bytes32",
          "name": "_hash",
          "type": "bytes32"
        },
        {
          "internalType": "address",
          "name": "_addr",
          "type": "address"
        },
        {
          "internalType": "bytes",
          "name": "_signature",
          "type": "bytes"
        }
      ],
      "name": "InvalidNestedSignature",
      "type": "error"
    },
    {
      "inputs": [
        {
          "internalType": "uint256",
          "name": "_space",
          "type": "uint256"
        }
      ],
      "name": "InvalidNonceSpace",
      "type": "error"
    },
    {
      "inputs": [
        {
          "internalType": "uint256",
          "name": "_type",
          "type": "uint256"
        }
      ],
      "name": "InvalidNonceType",
      "type": "error"
    },
    {
      "inputs": [
        {
          "internalType": "uint256",
          "name": "_type",
          "type": "uint256"
        }
      ],
      "name": "InvalidNonceType",
      "type": "error"
    },
    {
      "inputs": [
        {
          "internalType": "bytes",
          "name": "_signature",
          "type": "bytes"
        },
        {
          "internalType": "bytes32",
          "name": "_s",
          "type": "bytes32"
        }
      ],
      "name": "InvalidSValue",
      "type": "error"
    },
    {
      "inputs": [
        {
          "internalType": "bytes32",
          "name": "_hash",
          "type": "bytes32"
        },
        {
          "internalType": "bytes",
          "name": "_signature",
          "type": "bytes"
        }
      ],
      "name": "InvalidSignature",
      "type": "error"
    },
    {
      "inputs": [
        {
          "internalType": "uint256",
          "name": "_flag",
          "type": "uint256"
        }
      ],
      "name": "InvalidSignatureFlag",
      "type": "error"
    },
    {
      "inputs": [
        {
          "internalType": "bytes",
          "name": "_signature",
          "type": "bytes"
        }
      ],
      "name": "InvalidSignatureLength",
      "type": "error"
    },
    {
      "inputs": [
        {
          "internalType": "uint256",
          "name": "_type",
          "type": "uint256"
        }
      ],
      "name": "InvalidSignatureType",
      "type": "error"
    },
    {
      "inputs": [
        {
          "components": [
            {
              "internalType": "bool",
              "name": "delegateCall",
              "type": "bool"
            },
            {
              "internalType": "bool",
              "name": "revertOnError",
              "type": "bool"
            },
            {
              "internalType": "uint256",
              "name": "gasLimit",
              "type": "uint256"
            },
            {
              "internalType": "address",
              "name": "target",
              "type": "address"
            },
            {
              "internalType": "uint256",
              "name": "value",
              "type": "uint256"
            },
            {
              "internalType": "bytes",
              "name": "data",
              "type": "bytes"
            }
          ],
          "internalType": "struct IModuleCalls.Transaction",
          "name": "_tx",
          "type": "tuple"
        }
      ],
      "name": "InvalidTransaction",
      "type": "error"
    },
    {
      "inputs": [
        {
          "internalType": "bytes",
          "name": "_signature",
          "type": "bytes"
        },
        {
          "internalType": "uint256",
          "name": "_v",
          "type": "uint256"
        }
      ],
      "name": "InvalidVValue",
      "type": "error"
    },
    {
      "inputs": [
        {
          "internalType": "uint256",
          "name": "_requested",
          "type": "uint256"
        },
        {
          "internalType": "uint256",
          "name": "_available",
          "type": "uint256"
        }
      ],
      "name": "NotEnoughGas",
      "type": "error"
    },
    {
      "inputs": [
        {
          "internalType": "address",
          "name": "_sender",
          "type": "address"
        },
        {
          "internalType": "address",
          "name": "_self",
          "type": "address"
        }
      ],
      "name": "OnlySelfAuth",
      "type": "error"
    },
    {
      "inputs": [
        {
          "internalType": "bytes",
          "name": "_datam",
          "type": "bytes"
        },
        {
          "internalType": "uint256",
          "name": "_index",
          "type": "uint256"
        },
        {
          "internalType": "uint256",
          "name": "_length",
          "type": "uint256"
        }
      ],
      "name": "ReadBytesOutOfBounds",
      "type": "error"
    },
    {
      "inputs": [
        {
          "internalType": "bytes",
          "name": "_data",
          "type": "bytes"
        }
      ],
      "name": "ReadFirstUint8OutOfBounds",
      "type": "error"
    },
    {
      "inputs": [
        {
          "internalType": "bytes",
          "name": "_signature",
          "type": "bytes"
        }
      ],
      "name": "SignerIsAddress0",
      "type": "error"
    },
    {
      "inputs": [
        {
          "internalType": "bytes",
          "name": "_signature",
          "type": "bytes"
        },
        {
          "internalType": "uint256",
          "name": "_type",
          "type": "uint256"
        },
        {
          "internalType": "bool",
          "name": "_recoverMode",
          "type": "bool"
        }
      ],
      "name": "UnsupportedSignatureType",
      "type": "error"
    },
    {
      "anonymous": false,
      "inputs": [
        {
          "indexed": false,
          "internalType": "address",
          "name": "_contract",
          "type": "address"
        }
      ],
      "name": "CreatedContract",
      "type": "event"
    },
    {
      "anonymous": false,
      "inputs": [
        {
          "indexed": false,
          "internalType": "uint256",
          "name": "_space",
          "type": "uint256"
        },
        {
          "indexed": false,
          "internalType": "uint256",
          "name": "_oldNonce",
          "type": "uint256"
        },
        {
          "indexed": false,
          "internalType": "uint256",
          "name": "_newNonce",
          "type": "uint256"
        }
      ],
      "name": "GapNonceChange",
      "type": "event"
    },
    {
      "anonymous": false,
      "inputs": [
        {
          "indexed": false,
          "internalType": "bytes32",
          "name": "newImageHash",
          "type": "bytes32"
        }
      ],
      "name": "ImageHashUpdated",
      "type": "event"
    },
    {
      "anonymous": false,
      "inputs": [
        {
          "indexed": false,
          "internalType": "address",
          "name": "newImplementation",
          "type": "address"
        }
      ],
      "name": "ImplementationUpdated",
      "type": "event"
    },
    {
      "anonymous": false,
      "inputs": [],
      "name": "NoNonceUsed",
      "type": "event"
    },
    {
      "anonymous": false,
      "inputs": [
        {
          "indexed": false,
          "internalType": "uint256",
          "name": "_space",
          "type": "uint256"
        },
        {
          "indexed": false,
          "internalType": "uint256",
          "name": "_newNonce",
          "type": "uint256"
        }
      ],
      "name": "NonceChange",
      "type": "event"
    },
    {
      "anonymous": true,
      "inputs": [
        {
          "indexed": false,
          "internalType": "bytes32",
          "name": "_tx",
          "type": "bytes32"
        }
      ],
      "name": "TxExecuted",
      "type": "event"
    },
    {
      "anonymous": false,
      "inputs": [
        {
          "indexed": false,
          "internalType": "bytes32",
          "name": "_tx",
          "type": "bytes32"
        },
        {
          "indexed": false,
          "internalType": "bytes",
          "name": "_reason",
          "type": "bytes"
        }
      ],
      "name": "TxFailed",
      "type": "event"
    },
    {
      "stateMutability": "payable",
      "type": "fallback"
    },
    {
      "inputs": [
        {
          "internalType": "bytes32",
          "name": "_msgSubDigest",
          "type": "bytes32"
        },
        {
          "internalType": "bytes",
          "name": "_signature",
          "type": "bytes"
        },
        {
          "internalType": "uint256",
          "name": "_rindex",
          "type": "uint256"
        }
      ],
      "name": "_recoverSignature",
      "outputs": [
        {
          "internalType": "bytes32",
          "name": "_imageHash",
          "type": "bytes32"
        },
        {
          "internalType": "uint256",
          "name": "_weight",
          "type": "uint256"
        },
        {
          "internalType": "uint256",
          "name": "_thershold",
          "type": "uint256"
        }
      ],
      "stateMutability": "view",
      "type": "function"
    },
    {
      "inputs": [
        {
          "internalType": "bytes4",
          "name": "_signature",
          "type": "bytes4"
        },
        {
          "internalType": "address",
          "name": "_implementation",
          "type": "address"
        }
      ],
      "name": "addHook",
      "outputs": [],
      "stateMutability": "nonpayable",
      "type": "function"
    },
    {
      "inputs": [
        {
          "internalType": "bytes",
          "name": "_code",
          "type": "bytes"
        }
      ],
      "name": "createContract",
      "outputs": [
        {
          "internalType": "address",
          "name": "addr",
          "type": "address"
        }
      ],
      "stateMutability": "payable",
      "type": "function"
    },
    {
      "inputs": [
        {
          "components": [
            {
              "internalType": "bool",
              "name": "delegateCall",
              "type": "bool"
            },
            {
              "internalType": "bool",
              "name": "revertOnError",
              "type": "bool"
            },
            {
              "internalType": "uint256",
              "name": "gasLimit",
              "type": "uint256"
            },
            {
              "internalType": "address",
              "name": "target",
              "type": "address"
            },
            {
              "internalType": "uint256",
              "name": "value",
              "type": "uint256"
            },
            {
              "internalType": "bytes",
              "name": "data",
              "type": "bytes"
            }
          ],
          "internalType": "struct IModuleCalls.Transaction[]",
          "name": "_txs",
          "type": "tuple[]"
        },
        {
          "internalType": "uint256",
          "name": "_nonce",
          "type": "uint256"
        },
        {
          "internalType": "bytes",
          "name": "_signature",
          "type": "bytes"
        }
      ],
      "name": "execute",
      "outputs": [],
      "stateMutability": "nonpayable",
      "type": "function"
    },
    {
      "inputs": [],
      "name": "imageHash",
      "outputs": [
        {
          "internalType": "bytes32",
          "name": "",
          "type": "bytes32"
        }
      ],
      "stateMutability": "view",
      "type": "function"
    },
    {
      "inputs": [
        {
          "internalType": "bytes32",
          "name": "_hash",
          "type": "bytes32"
        },
        {
          "internalType": "bytes",
          "name": "_signatures",
          "type": "bytes"
        }
      ],
      "name": "isValidSignature",
      "outputs": [
        {
          "internalType": "bytes4",
          "name": "",
          "type": "bytes4"
        }
      ],
      "stateMutability": "view",
      "type": "function"
    },
    {
      "inputs": [
        {
          "internalType": "bytes",
          "name": "_data",
          "type": "bytes"
        },
        {
          "internalType": "bytes",
          "name": "_signatures",
          "type": "bytes"
        }
      ],
      "name": "isValidSignature",
      "outputs": [
        {
          "internalType": "bytes4",
          "name": "",
          "type": "bytes4"
        }
      ],
      "stateMutability": "view",
      "type": "function"
    },
    {
      "inputs": [],
      "name": "nonce",
      "outputs": [
        {
          "internalType": "uint256",
          "name": "",
          "type": "uint256"
        }
      ],
      "stateMutability": "view",
      "type": "function"
    },
    {
      "inputs": [
        {
          "internalType": "address",
          "name": "",
          "type": "address"
        },
        {
          "internalType": "address",
          "name": "",
          "type": "address"
        },
        {
          "internalType": "uint256[]",
          "name": "",
          "type": "uint256[]"
        },
        {
          "internalType": "uint256[]",
          "name": "",
          "type": "uint256[]"
        },
        {
          "internalType": "bytes",
          "name": "",
          "type": "bytes"
        }
      ],
      "name": "onERC1155BatchReceived",
      "outputs": [
        {
          "internalType": "bytes4",
          "name": "",
          "type": "bytes4"
        }
      ],
      "stateMutability": "nonpayable",
      "type": "function"
    },
    {
      "inputs": [
        {
          "internalType": "address",
          "name": "",
          "type": "address"
        },
        {
          "internalType": "address",
          "name": "",
          "type": "address"
        },
        {
          "internalType": "uint256",
          "name": "",
          "type": "uint256"
        },
        {
          "internalType": "uint256",
          "name": "",
          "type": "uint256"
        },
        {
          "internalType": "bytes",
          "name": "",
          "type": "bytes"
        }
      ],
      "name": "onERC1155Received",
      "outputs": [
        {
          "internalType": "bytes4",
          "name": "",
          "type": "bytes4"
        }
      ],
      "stateMutability": "nonpayable",
      "type": "function"
    },
    {
      "inputs": [
        {
          "internalType": "address",
          "name": "",
          "type": "address"
        },
        {
          "internalType": "address",
          "name": "",
          "type": "address"
        },
        {
          "internalType": "uint256",
          "name": "",
          "type": "uint256"
        },
        {
          "internalType": "bytes",
          "name": "",
          "type": "bytes"
        }
      ],
      "name": "onERC721Received",
      "outputs": [
        {
          "internalType": "bytes4",
          "name": "",
          "type": "bytes4"
        }
      ],
      "stateMutability": "nonpayable",
      "type": "function"
    },
    {
      "inputs": [
        {
          "internalType": "uint256",
          "name": "_space",
          "type": "uint256"
        }
      ],
      "name": "readGapNonce",
      "outputs": [
        {
          "internalType": "uint256",
          "name": "",
          "type": "uint256"
        }
      ],
      "stateMutability": "view",
      "type": "function"
    },
    {
      "inputs": [
        {
          "internalType": "bytes4",
          "name": "_signature",
          "type": "bytes4"
        }
      ],
      "name": "readHook",
      "outputs": [
        {
          "internalType": "address",
          "name": "",
          "type": "address"
        }
      ],
      "stateMutability": "view",
      "type": "function"
    },
    {
      "inputs": [
        {
          "internalType": "uint256",
          "name": "_space",
          "type": "uint256"
        }
      ],
      "name": "readNonce",
      "outputs": [
        {
          "internalType": "uint256",
          "name": "",
          "type": "uint256"
        }
      ],
      "stateMutability": "view",
      "type": "function"
    },
    {
      "inputs": [
        {
          "internalType": "bytes4",
          "name": "_signature",
          "type": "bytes4"
        }
      ],
      "name": "removeHook",
      "outputs": [],
      "stateMutability": "nonpayable",
      "type": "function"
    },
    {
      "inputs": [
        {
          "components": [
            {
              "internalType": "bool",
              "name": "delegateCall",
              "type": "bool"
            },
            {
              "internalType": "bool",
              "name": "revertOnError",
              "type": "bool"
            },
            {
              "internalType": "uint256",
              "name": "gasLimit",
              "type": "uint256"
            },
            {
              "internalType": "address",
              "name": "target",
              "type": "address"
            },
            {
              "internalType": "uint256",
              "name": "value",
              "type": "uint256"
            },
            {
              "internalType": "bytes",
              "name": "data",
              "type": "bytes"
            }
          ],
          "internalType": "struct IModuleCalls.Transaction[]",
          "name": "_txs",
          "type": "tuple[]"
        }
      ],
      "name": "selfExecute",
      "outputs": [],
      "stateMutability": "nonpayable",
      "type": "function"
    },
    {
      "inputs": [
        {
          "internalType": "bytes4",
          "name": "_interfaceID",
          "type": "bytes4"
        }
      ],
      "name": "supportsInterface",
      "outputs": [
        {
          "internalType": "bool",
          "name": "",
          "type": "bool"
        }
      ],
      "stateMutability": "pure",
      "type": "function"
    },
    {
      "inputs": [
        {
          "internalType": "bytes32",
          "name": "_imageHash",
          "type": "bytes32"
        }
      ],
      "name": "updateImageHash",
      "outputs": [],
      "stateMutability": "nonpayable",
      "type": "function"
    },
    {
      "inputs": [
        {
          "internalType": "address",
          "name": "_implementation",
          "type": "address"
        }
      ],
      "name": "updateImplementation",
      "outputs": [],
      "stateMutability": "nonpayable",
      "type": "function"
    },
    {
      "stateMutability": "payable",
      "type": "receive"
    }
  ],
  "bytecode": "0x608060405234801561001057600080fd5b50613525806100206000396000f3fe6080604052600436106101485760003560e01c806361c2926c116100c0578063b90be0f811610074578063bc197c8111610059578063bc197c81146104b9578063cc63f2e214610501578063f23a6e61146105215761014f565b8063b90be0f81461045e578063b93ea7ad146104995761014f565b80638c3f5563116100a55780638c3f55631461041657806390042baf14610436578063affed0e0146104495761014f565b806361c2926c146103d65780637a9a1628146103f65761014f565b80631a9b23371161011757806329561426116100fc57806329561426146103735780634fcf3eca1461039357806351605d80146103b35761014f565b80631a9b23371461030e57806320c13b0b146103535761014f565b806301ffc9a714610223578063025b22bc14610258578063150b7a02146102785780631626ba7e146102ee5761014f565b3661014f57005b600061017e6000357fffffffff0000000000000000000000000000000000000000000000000000000016610567565b905073ffffffffffffffffffffffffffffffffffffffff811615610221576000808273ffffffffffffffffffffffffffffffffffffffff166000366040516101c7929190612725565b600060405180830381855af49150503d8060008114610202576040519150601f19603f3d011682016040523d82523d6000602084013e610207565b606091505b50915091508161021957805160208201fd5b805160208201f35b005b34801561022f57600080fd5b5061024361023e366004612763565b6105bb565b60405190151581526020015b60405180910390f35b34801561026457600080fd5b506102216102733660046127a9565b6105c6565b34801561028457600080fd5b506102bd61029336600461280d565b7f150b7a020000000000000000000000000000000000000000000000000000000095945050505050565b6040517fffffffff00000000000000000000000000000000000000000000000000000000909116815260200161024f565b3480156102fa57600080fd5b506102bd61030936600461287c565b610618565b34801561031a57600080fd5b5061032e610329366004612763565b610661565b60405173ffffffffffffffffffffffffffffffffffffffff909116815260200161024f565b34801561035f57600080fd5b506102bd61036e3660046128c8565b61066c565b34801561037f57600080fd5b5061022161038e366004612934565b6106cd565b34801561039f57600080fd5b506102216103ae366004612763565b6107a5565b3480156103bf57600080fd5b506103c86108d4565b60405190815260200161024f565b3480156103e257600080fd5b506102216103f1366004612bf2565b610903565b34801561040257600080fd5b50610221610411366004612c27565b610a19565b34801561042257600080fd5b506103c8610431366004612934565b610aab565b61032e610444366004612c7e565b610ad7565b34801561045557600080fd5b506103c8610b73565b34801561046a57600080fd5b5061047e610479366004612cb3565b610b7f565b6040805193845260208401929092529082015260600161024f565b3480156104a557600080fd5b506102216104b4366004612d06565b610d5b565b3480156104c557600080fd5b506102bd6104d4366004612d80565b7fbc197c810000000000000000000000000000000000000000000000000000000098975050505050505050565b34801561050d57600080fd5b506103c861051c366004612934565b610ea0565b34801561052d57600080fd5b506102bd61053c366004612e3b565b7ff23a6e61000000000000000000000000000000000000000000000000000000009695505050505050565b60006105b57fbe27a319efc8734e89e26ba4bc95f5c788584163b959f03fa04e2d7ab4b9a1207fffffffff000000000000000000000000000000000000000000000000000000008416610ec8565b92915050565b60006105b582610f26565b33301461060c576040517fe12588940000000000000000000000000000000000000000000000000000000081523360048201523060248201526044015b60405180910390fd5b61061581610f82565b50565b600080610626858585611036565b509050801561065857507f1626ba7e00000000000000000000000000000000000000000000000000000000905061065a565b505b9392505050565b60006105b582610567565b6000806106918686604051610682929190612725565b60405180910390208585611036565b50905080156106c357507f20c13b0b0000000000000000000000000000000000000000000000000000000090506106c5565b505b949350505050565b33301461070e576040517fe1258894000000000000000000000000000000000000000000000000000000008152336004820152306024820152604401610603565b80610745576040517f4294d12700000000000000000000000000000000000000000000000000000000815260040160405180910390fd5b61076e7fea7157fa25e3aa17d0ae2d5280fa4e24d421c61842aa85e45194e1145aa72bf8829055565b6040518181527f307ed6bd941ee9fc80f369c94af5fa11e25bab5102a6140191756c5474a30bfa906020015b60405180910390a150565b3330146107e6576040517fe1258894000000000000000000000000000000000000000000000000000000008152336004820152306024820152604401610603565b60006107f182610567565b73ffffffffffffffffffffffffffffffffffffffff1603610862576040517f1c3812cc0000000000000000000000000000000000000000000000000000000081527fffffffff0000000000000000000000000000000000000000000000000000000082166004820152602401610603565b604080517fbe27a319efc8734e89e26ba4bc95f5c788584163b959f03fa04e2d7ab4b9a1206020808301919091527fffffffff00000000000000000000000000000000000000000000000000000000841682840152825180830384018152606090920190925280519101206000905550565b60006108fe7fea7157fa25e3aa17d0ae2d5280fa4e24d421c61842aa85e45194e1145aa72bf85490565b905090565b333014610944576040517fe1258894000000000000000000000000000000000000000000000000000000008152336004820152306024820152604401610603565b6000610a098260405160200161095a9190612fdf565b604080517fffffffffffffffffffffffffffffffffffffffffffffffffffffffffffffffe081840301815282825280516020918201207f1901000000000000000000000000000000000000000000000000000000000000848301524660228501523060601b7fffffffffffffffffffffffffffffffffffffffff000000000000000000000000166042850152605680850191909152825180850390910181526076909301909152815191012090565b9050610a1581836110ee565b5050565b610a22836112cd565b600080610a588587604051602001610a3b929190613026565b604051602081830303815290604052805190602001208585611036565b9150915081610a99578084846040517f8f4a234f00000000000000000000000000000000000000000000000000000000815260040161060393929190613088565b610aa381876110ee565b505050505050565b60006105b57f8d0bf1fd623d628c741362c1289948e57b3e2905218c676d3e69abee36d6ae2e83610ec8565b6000333014610b1a576040517fe1258894000000000000000000000000000000000000000000000000000000008152336004820152306024820152604401610603565b81516020830134f060405173ffffffffffffffffffffffffffffffffffffffff821681529091507fa506ad4e7f05eceba62a023c3219e5bd98a615f4fa87e2afb08a2da5cf62bf0c9060200160405180910390a1919050565b60006108fe6000610aab565b8281013560f01c600081600284015b85811015610d5057600281019087013560f881901c9060f01c60ff1660007fffffffffffffffffffffffffffffffffffffffffffffffffffffffffffffffff8301610be45750601483019289013560601c610d00565b82610c1a576000846042019050610c0c8c8c8c88908592610c07939291906130ab565b611555565b968301969094509050610d00565b60028303610ccb57838a013560601c601485019450905060008a85013560f01c600286018161ffff169150809650819250505060008186019050610c708d848e8e8a908692610c6b939291906130ab565b611818565b610cbe578c838d8d89908592610c88939291906130ab565b6040517f9a94623200000000000000000000000000000000000000000000000000000000815260040161060394939291906130d5565b968301969450610d009050565b6040517fb2505f7c00000000000000000000000000000000000000000000000000000000815260048101849052602401610603565b604080516020810189905290810183905273ffffffffffffffffffffffffffffffffffffffff82166060820152608001604051602081830303815290604052805190602001209650505050610b8e565b509450945094915050565b333014610d9c576040517fe1258894000000000000000000000000000000000000000000000000000000008152336004820152306024820152604401610603565b6000610da783610567565b73ffffffffffffffffffffffffffffffffffffffff1614610e18576040517f5b4d6d6a0000000000000000000000000000000000000000000000000000000081527fffffffff0000000000000000000000000000000000000000000000000000000083166004820152602401610603565b604080517fbe27a319efc8734e89e26ba4bc95f5c788584163b959f03fa04e2d7ab4b9a1206020808301919091527fffffffff000000000000000000000000000000000000000000000000000000008516828401528251808303840181526060909201909252805191012073ffffffffffffffffffffffffffffffffffffffff821690555050565b60006105b57f2a37c7c3c3449f4795b05559a0f92a1730815bf20be16b02bbd6dbb8ae8532fe835b6000808383604051602001610ee7929190918252602082015260400190565b604080517fffffffffffffffffffffffffffffffffffffffffffffffffffffffffffffffe0818403018152919052805160209091012054949350505050565b60007f6ffbd451000000000000000000000000000000000000000000000000000000007fffffffff00000000000000000000000000000000000000000000000000000000831601610f7957506001919050565b6105b5826119bc565b73ffffffffffffffffffffffffffffffffffffffff81163b610fe8576040517f0c76093700000000000000000000000000000000000000000000000000000000815273ffffffffffffffffffffffffffffffffffffffff82166004820152602401610603565b610ff0813055565b60405173ffffffffffffffffffffffffffffffffffffffff821681527f310ba5f1d2ed074b51e2eccd052a47ae9ab7c6b800d1fca3db3999d6a592ca039060200161079a565b6000806000806110468686611afd565b909250905060ff821661106a5761105f86868984611b4a565b9350935050506110e6565b60018260ff16036110815761105f86868984611c05565b60028260ff16036110985761105f86868984611c9c565b60038260ff16036110af5761105f86868984611d24565b6040517fbff01fa700000000000000000000000000000000000000000000000000000000815260ff83166004820152602401610603565b935093915050565b60005b81518110156112c857600082828151811061110e5761110e613115565b602002602001015190506000606082604001515a10156111695782604001515a6040517f9fa7298200000000000000000000000000000000000000000000000000000000815260048101929092526024820152604401610603565b82511561120157826060015173ffffffffffffffffffffffffffffffffffffffff1683604001516000146111a15783604001516111a3565b5a5b8460a001516040516111b59190613144565b6000604051808303818686f4925050503d80600081146111f1576040519150601f19603f3d011682016040523d82523d6000602084013e6111f6565b606091505b509092509050611296565b826060015173ffffffffffffffffffffffffffffffffffffffff1683608001518460400151600014611237578460400151611239565b5a5b908560a0015160405161124c9190613144565b600060405180830381858888f193505050503d806000811461128a576040519150601f19603f3d011682016040523d82523d6000602084013e61128f565b606091505b5090925090505b81156112b25760405186815260200160405180910390a06112bd565b6112bd838783612131565b5050506001016110f1565b505050565b60008060006112db84612181565b91945092509050816113d15760006112f284610aab565b905081811461133e576040517f9b6514f4000000000000000000000000000000000000000000000000000000008152600481018590526024810183905260448101829052606401610603565b604080517f8d0bf1fd623d628c741362c1289948e57b3e2905218c676d3e69abee36d6ae2e60208083019190915281830187905282518083038401815260609092019092528051910120600183019081905560408051868152602081018390527f1f180c27086c7a39ea2a7b25239d1ab92348f07ca7bb59d1438fcf527568f881910160405180910390a1505050505050565b600182036114c25760006113e484610ea0565b9050808211611430576040517fcf9c69b8000000000000000000000000000000000000000000000000000000008152600481018590526024810183905260448101829052606401610603565b604080517f2a37c7c3c3449f4795b05559a0f92a1730815bf20be16b02bbd6dbb8ae8532fe60208083019190915281830187905282518083038401815260608301808552815191909201208590558690526080810183905260a0810184905290517fd9aa9f0269d7ebe0e495362c56c21163d40a52f13ad524fb0e844ff41811f0529181900360c00190a15050505050565b6002820361154757821515806114d757508015155b15611518576040517f333fc1020000000000000000000000000000000000000000000000000000000081526004810184905260248101829052604401610603565b6040517fffcdc510cc982d77c612ebe049ca925f66c6effb232c431c01fd0e79f6dad4f590600090a150505050565b61154f613160565b50505050565b6000604282146115955782826040517f2ee17a3d00000000000000000000000000000000000000000000000000000000815260040161060392919061318f565b60006115ae6115a56001856131d2565b85013560f81c90565b60ff169050604084013560f81c843560208601357f7fffffffffffffffffffffffffffffff5d576e7357a4501ddfe92f46681b20a0811115611622578686826040517fad4aac76000000000000000000000000000000000000000000000000000000008152600401610603939291906131e9565b8260ff16601b1415801561163a57508260ff16601c14155b15611677578686846040517fe578897e0000000000000000000000000000000000000000000000000000000081526004016106039392919061320d565b600184036116e4576040805160008152602081018083528a905260ff851691810191909152606081018390526080810182905260019060a0015b6020604051602081039080840390855afa1580156116d3573d6000803e3d6000fd5b5050506020604051035194506117bc565b60028403611781576040517f19457468657265756d205369676e6564204d6573736167653a0a3332000000006020820152603c8101899052600190605c01604080517fffffffffffffffffffffffffffffffffffffffffffffffffffffffffffffffe08184030181528282528051602091820120600084529083018083525260ff861690820152606081018490526080810183905260a0016116b1565b86868560016040517f9dfba8520000000000000000000000000000000000000000000000000000000081526004016106039493929190613234565b73ffffffffffffffffffffffffffffffffffffffff851661180d5786866040517f6c1719d200000000000000000000000000000000000000000000000000000000815260040161060392919061318f565b505050509392505050565b60008083836118286001826131d2565b81811061183757611837613115565b919091013560f81c91505060018114806118515750600281145b15611896578473ffffffffffffffffffffffffffffffffffffffff16611878878686611555565b73ffffffffffffffffffffffffffffffffffffffff161491506106c3565b600381036119815773ffffffffffffffffffffffffffffffffffffffff8516631626ba7e87866000876118ca6001826131d2565b926118d7939291906130ab565b6040518463ffffffff1660e01b81526004016118f593929190613088565b602060405180830381865afa158015611912573d6000803e3d6000fd5b505050506040513d601f19601f820116820180604052508101906119369190613260565b7fffffffff00000000000000000000000000000000000000000000000000000000167f1626ba7e000000000000000000000000000000000000000000000000000000001491506106c3565b83838260006040517f9dfba8520000000000000000000000000000000000000000000000000000000081526004016106039493929190613234565b60007fffffffff0000000000000000000000000000000000000000000000000000000082167fec6aba50000000000000000000000000000000000000000000000000000000001480611a4f57507fffffffff0000000000000000000000000000000000000000000000000000000082167f4e2312e000000000000000000000000000000000000000000000000000000000145b80611a9b57507fffffffff0000000000000000000000000000000000000000000000000000000082167f150b7a0200000000000000000000000000000000000000000000000000000000145b80611ae757507fffffffff0000000000000000000000000000000000000000000000000000000082167fc0ee0b8a00000000000000000000000000000000000000000000000000000000145b15611af457506001919050565b6105b5826121e1565b600080828103611b3d5783836040517f322952a300000000000000000000000000000000000000000000000000000000815260040161060392919061318f565b5050503560f81c90600190565b604080517f19010000000000000000000000000000000000000000000000000000000000006020808301919091524660228301523060601b7fffffffffffffffffffffffffffffffffffffffff000000000000000000000000166042830152605680830186905283518084039091018152607690920190925280519101206000906000806000611bdd848a8a6000610b7f565b925092509250808210158015611bf75750611bf78361223d565b945050505094509492505050565b604080517f19010000000000000000000000000000000000000000000000000000000000006020808301919091524660228301523060601b7fffffffffffffffffffffffffffffffffffffffff0000000000000000000000001660428301526056808301869052835180840390910181526076909201909252805191012060009081905b90506000806000611bdd848a8a89610b7f565b604080517f19010000000000000000000000000000000000000000000000000000000000006020808301919091526000602283018190523060601b7fffffffffffffffffffffffffffffffffffffffff000000000000000000000000166042840152605680840187905284518085039091018152607690930190935281519101208190611c89565b6000808080611d36876001818b6130ab565b810190611d43919061327d565b6040517fcc63f2e20000000000000000000000000000000000000000000000000000000081527396f7fef04d2478e2b011c3aca79dc5a83b5d37ef60048201529193509150600090309063cc63f2e290602401602060405180830381865afa158015611db3573d6000803e3d6000fd5b505050506040513d601f19601f82011682018060405250810190611dd791906133d4565b90506000805b845181101561206157600080611e2e878481518110611dfe57611dfe613115565b602002602001015160000151888581518110611e1c57611e1c613115565b60200260200101516020015130612270565b91509150848111611e595783611e4557505061204f565b506000975087965061212895505050505050565b6000878481518110611e6d57611e6d613115565b602002602001015160000151888581518110611e8b57611e8b613115565b602002602001015160200151604051602001611ea89291906133ed565b6040516020818303038152906040528051906020012090506000611f4e8260006040517f19010000000000000000000000000000000000000000000000000000000000006020820152602281018290527fffffffffffffffffffffffffffffffffffffffff0000000000000000000000003060601b1660428201526056810183905260009060760160405160208183030381529060405280519060200120905092915050565b905060008060003073ffffffffffffffffffffffffffffffffffffffff1663b90be0f8858e8b81518110611f8457611f84613115565b60200260200101516040015160006040518463ffffffff1660e01b8152600401611fb09392919061340f565b606060405180830381865afa158015611fcd573d6000803e3d6000fd5b505050506040513d601f19601f82011682018060405250810190611ff19190613438565b92509250925088831461204357881561201d575060009c508c9b506121289a5050505050505050505050565b6120268361223d565b612043575060009c508c9b506121289a5050505050505050505050565b50939750939550505050505b8061205981613466565b915050611ddd565b50604080517f19010000000000000000000000000000000000000000000000000000000000006020808301919091524660228301523060601b7fffffffffffffffffffffffffffffffffffffffff00000000000000000000000016604283015260568083018c90528351808403909101815260769092019092528051910120945060008060006120f3888e8e8d610b7f565b92509250925080821015801561210857508315155b61211a576121158361223d565b61211e565b8383145b9850505050505050505b94509492505050565b82602001511561214357805160208201fd5b7f3dbd1590ea96dd3253a91f24e64e3a502e1225d602a5731357bc12643070ccd7828260405161217492919061349e565b60405180910390a1505050565b606081901c605882901c60ff166affffffffffffffffffffff831660028211156121da576040517ff558743900000000000000000000000000000000000000000000000000000000815260048101839052602401610603565b9193909250565b60007ffda4dd44000000000000000000000000000000000000000000000000000000007fffffffff0000000000000000000000000000000000000000000000000000000083160161223457506001919050565b6105b58261247c565b600081158015906105b55750507fea7157fa25e3aa17d0ae2d5280fa4e24d421c61842aa85e45194e1145aa72bf8541490565b6000808460000151806122865750608085015115155b80612292575084602001515b806122a05750604085015115155b806122b157508460a0015151602414155b806122ec57508273ffffffffffffffffffffffffffffffffffffffff16856060015173ffffffffffffffffffffffffffffffffffffffff1614155b1561232557846040517f7c6db09e00000000000000000000000000000000000000000000000000000000815260040161060391906134b7565b600080600061233387612181565b92509250925060018214612376576040517ff558743900000000000000000000000000000000000000000000000000000000815260048101839052602401610603565b7396f7fef04d2478e2b011c3aca79dc5a83b5d37ef83146123c6576040517f2edc0ac400000000000000000000000000000000000000000000000000000000815260048101849052602401610603565b6000806123d68a60a001516124d8565b90925090507fffffffff0000000000000000000000000000000000000000000000000000000082167f29561426000000000000000000000000000000000000000000000000000000001461245857896040517f7c6db09e00000000000000000000000000000000000000000000000000000000815260040161060391906134b7565b8080602001905181019061246c91906133d4565b9a92995091975050505050505050565b60007f0b050cdb000000000000000000000000000000000000000000000000000000007fffffffff000000000000000000000000000000000000000000000000000000008316016124cf57506001919050565b6105b58261250a565b60006060602083015163ffffffff1691506125018360048086516124fc91906131d2565b612566565b50919391925050565b60007fae9fa280000000000000000000000000000000000000000000000000000000007fffffffff0000000000000000000000000000000000000000000000000000000083160161255d57506001919050565b6105b58261263b565b606060008267ffffffffffffffff8111156125835761258361294d565b6040519080825280601f01601f1916602001820160405280156125ad576020820181803683370190505b509150838501602001600060205b858110156125d4579082015184820152602081016125bb565b84860160200180519390920151908501525250828201838110156125fa576125fa613160565b84518111156110e6578484846040517f10a999ce000000000000000000000000000000000000000000000000000000008152600401610603939291906134ca565b60007fffffffff0000000000000000000000000000000000000000000000000000000082167f295614260000000000000000000000000000000000000000000000000000000014806126ce57507fffffffff0000000000000000000000000000000000000000000000000000000082167f36e7817500000000000000000000000000000000000000000000000000000000145b156126db57506001919050565b7f01ffc9a7000000000000000000000000000000000000000000000000000000007fffffffff000000000000000000000000000000000000000000000000000000008316146105b5565b8183823760009101908152919050565b7fffffffff000000000000000000000000000000000000000000000000000000008116811461061557600080fd5b60006020828403121561277557600080fd5b813561065a81612735565b803573ffffffffffffffffffffffffffffffffffffffff811681146127a457600080fd5b919050565b6000602082840312156127bb57600080fd5b61065a82612780565b60008083601f8401126127d657600080fd5b50813567ffffffffffffffff8111156127ee57600080fd5b60208301915083602082850101111561280657600080fd5b9250929050565b60008060008060006080868803121561282557600080fd5b61282e86612780565b945061283c60208701612780565b935060408601359250606086013567ffffffffffffffff81111561285f57600080fd5b61286b888289016127c4565b969995985093965092949392505050565b60008060006040848603121561289157600080fd5b83359250602084013567ffffffffffffffff8111156128af57600080fd5b6128bb868287016127c4565b9497909650939450505050565b600080600080604085870312156128de57600080fd5b843567ffffffffffffffff808211156128f657600080fd5b612902888389016127c4565b9096509450602087013591508082111561291b57600080fd5b50612928878288016127c4565b95989497509550505050565b60006020828403121561294657600080fd5b5035919050565b7f4e487b7100000000000000000000000000000000000000000000000000000000600052604160045260246000fd5b6040516060810167ffffffffffffffff8111828210171561299f5761299f61294d565b60405290565b604051601f82017fffffffffffffffffffffffffffffffffffffffffffffffffffffffffffffffe016810167ffffffffffffffff811182821017156129ec576129ec61294d565b604052919050565b600067ffffffffffffffff821115612a0e57612a0e61294d565b5060051b60200190565b803580151581146127a457600080fd5b600082601f830112612a3957600080fd5b813567ffffffffffffffff811115612a5357612a5361294d565b612a8460207fffffffffffffffffffffffffffffffffffffffffffffffffffffffffffffffe0601f840116016129a5565b818152846020838601011115612a9957600080fd5b816020850160208301376000918101602001919091529392505050565b600060c08284031215612ac857600080fd5b60405160c0810167ffffffffffffffff8282108183111715612aec57612aec61294d565b81604052829350612afc85612a18565b8352612b0a60208601612a18565b602084015260408501356040840152612b2560608601612780565b60608401526080850135608084015260a0850135915080821115612b4857600080fd5b50612b5585828601612a28565b60a0830152505092915050565b600082601f830112612b7357600080fd5b81356020612b88612b83836129f4565b6129a5565b82815260059290921b84018101918181019086841115612ba757600080fd5b8286015b84811015612be757803567ffffffffffffffff811115612bcb5760008081fd5b612bd98986838b0101612ab6565b845250918301918301612bab565b509695505050505050565b600060208284031215612c0457600080fd5b813567ffffffffffffffff811115612c1b57600080fd5b6106c584828501612b62565b60008060008060608587031215612c3d57600080fd5b843567ffffffffffffffff80821115612c5557600080fd5b612c6188838901612b62565b955060208701359450604087013591508082111561291b57600080fd5b600060208284031215612c9057600080fd5b813567ffffffffffffffff811115612ca757600080fd5b6106c584828501612a28565b60008060008060608587031215612cc957600080fd5b84359350602085013567ffffffffffffffff811115612ce757600080fd5b612cf3878288016127c4565b9598909750949560400135949350505050565b60008060408385031215612d1957600080fd5b8235612d2481612735565b9150612d3260208401612780565b90509250929050565b60008083601f840112612d4d57600080fd5b50813567ffffffffffffffff811115612d6557600080fd5b6020830191508360208260051b850101111561280657600080fd5b60008060008060008060008060a0898b031215612d9c57600080fd5b612da589612780565b9750612db360208a01612780565b9650604089013567ffffffffffffffff80821115612dd057600080fd5b612ddc8c838d01612d3b565b909850965060608b0135915080821115612df557600080fd5b612e018c838d01612d3b565b909650945060808b0135915080821115612e1a57600080fd5b50612e278b828c016127c4565b999c989b5096995094979396929594505050565b60008060008060008060a08789031215612e5457600080fd5b612e5d87612780565b9550612e6b60208801612780565b94506040870135935060608701359250608087013567ffffffffffffffff811115612e9557600080fd5b612ea189828a016127c4565b979a9699509497509295939492505050565b60005b83811015612ece578181015183820152602001612eb6565b8381111561154f5750506000910152565b60008151808452612ef7816020860160208601612eb3565b601f017fffffffffffffffffffffffffffffffffffffffffffffffffffffffffffffffe0169290920160200192915050565b8051151582526020810151151560208301526040810151604083015273ffffffffffffffffffffffffffffffffffffffff606082015116606083015260808101516080830152600060a082015160c060a08501526106c560c0850182612edf565b600081518084526020808501808196508360051b8101915082860160005b85811015612fd2578284038952612fc0848351612f29565b98850198935090840190600101612fa8565b5091979650505050505050565b60408152600560408201527f73656c663a000000000000000000000000000000000000000000000000000000606082015260806020820152600061065a6080830184612f8a565b8281526040602082015260006106c56040830184612f8a565b8183528181602085013750600060208284010152600060207fffffffffffffffffffffffffffffffffffffffffffffffffffffffffffffffe0601f840116840101905092915050565b8381526040602082015260006130a260408301848661303f565b95945050505050565b600080858511156130bb57600080fd5b838611156130c857600080fd5b5050820193919092039150565b84815273ffffffffffffffffffffffffffffffffffffffff8416602082015260606040820152600061310b60608301848661303f565b9695505050505050565b7f4e487b7100000000000000000000000000000000000000000000000000000000600052603260045260246000fd5b60008251613156818460208701612eb3565b9190910192915050565b7f4e487b7100000000000000000000000000000000000000000000000000000000600052600160045260246000fd5b6020815260006106c560208301848661303f565b7f4e487b7100000000000000000000000000000000000000000000000000000000600052601160045260246000fd5b6000828210156131e4576131e46131a3565b500390565b6040815260006131fd60408301858761303f565b9050826020830152949350505050565b60408152600061322160408301858761303f565b905060ff83166020830152949350505050565b60608152600061324860608301868861303f565b60208301949094525090151560409091015292915050565b60006020828403121561327257600080fd5b815161065a81612735565b6000806040838503121561329057600080fd5b823567ffffffffffffffff808211156132a857600080fd5b818501915085601f8301126132bc57600080fd5b813560206132cc612b83836129f4565b82815260059290921b840181019181810190898411156132eb57600080fd5b8286015b848110156133a6578035868111156133075760008081fd5b87016060818d037fffffffffffffffffffffffffffffffffffffffffffffffffffffffffffffffe00181131561333d5760008081fd5b61334561297c565b86830135898111156133575760008081fd5b6133658f8983870101612ab6565b8252506040830135878201529082013590888211156133845760008081fd5b6133928e8884860101612a28565b6040820152855250509183019183016132ef565b50965050860135925050808211156133bd57600080fd5b506133ca85828601612a28565b9150509250929050565b6000602082840312156133e657600080fd5b5051919050565b6040815260006134006040830185612f29565b90508260208301529392505050565b8381526060602082015260006134286060830185612edf565b9050826040830152949350505050565b60008060006060848603121561344d57600080fd5b8351925060208401519150604084015190509250925092565b60007fffffffffffffffffffffffffffffffffffffffffffffffffffffffffffffffff8203613497576134976131a3565b5060010190565b8281526040602082015260006106c56040830184612edf565b60208152600061065a6020830184612f29565b6060815260006134dd6060830186612edf565b6020830194909452506040015291905056fea26469706673582212201078454ab02a1c72b5e1a58982266fcf94740dbe3e7973bc47602fff84a3013c64736f6c634300080e0033",
  "linkReferences": {},
  "deployedLinkReferences": {}
}