{
  "_format": "hh-sol-artifact-1",
  "contractName": "MainModuleUpgradable",
  "sourceName": "contracts/modules/MainModuleUpgradable.sol",
  "abi": [
    {
      "inputs": [
        {
          "internalType": "uint256",
          "name": "_space",
          "type": "uint256"
        },
        {
          "internalType": "uint256",
          "name": "_provided",
          "type": "uint256"
        },
        {
          "internalType": "uint256",
          "name": "_current",
          "type": "uint256"
        }
      ],
      "name": "BadGapNonce",
      "type": "error"
    },
    {
      "inputs": [
        {
          "internalType": "uint256",
          "name": "_space",
          "type": "uint256"
        },
        {
          "internalType": "uint256",
          "name": "_provided",
          "type": "uint256"
        },
        {
          "internalType": "uint256",
          "name": "_current",
          "type": "uint256"
        }
      ],
      "name": "BadNonce",
      "type": "error"
    },
    {
      "inputs": [
        {
          "internalType": "uint256",
          "name": "_space",
          "type": "uint256"
        },
        {
          "internalType": "uint256",
          "name": "_nonce",
          "type": "uint256"
        }
      ],
      "name": "ExpectedEmptyNonce",
      "type": "error"
    },
    {
      "inputs": [
        {
          "internalType": "bytes4",
          "name": "_signature",
          "type": "bytes4"
        }
      ],
      "name": "HookAlreadyExists",
      "type": "error"
    },
    {
      "inputs": [
        {
          "internalType": "bytes4",
          "name": "_signature",
          "type": "bytes4"
        }
      ],
      "name": "HookDoesNotExist",
      "type": "error"
    },
    {
      "inputs": [],
      "name": "ImageHashIsZero",
      "type": "error"
    },
    {
      "inputs": [
        {
          "internalType": "address",
          "name": "_implementation",
          "type": "address"
        }
      ],
      "name": "InvalidImplementation",
      "type": "error"
    },
    {
      "inputs": [
        {
          "internalType": "bytes32",
          "name": "_hash",
          "type": "bytes32"
        },
        {
          "internalType": "address",
          "name": "_addr",
          "type": "address"
        },
        {
          "internalType": "bytes",
          "name": "_signature",
          "type": "bytes"
        }
      ],
      "name": "InvalidNestedSignature",
      "type": "error"
    },
    {
      "inputs": [
        {
          "internalType": "uint256",
          "name": "_type",
          "type": "uint256"
        }
      ],
      "name": "InvalidNonceType",
      "type": "error"
    },
    {
      "inputs": [
        {
          "internalType": "bytes",
          "name": "_signature",
          "type": "bytes"
        },
        {
          "internalType": "bytes32",
          "name": "_s",
          "type": "bytes32"
        }
      ],
      "name": "InvalidSValue",
      "type": "error"
    },
    {
      "inputs": [
        {
          "internalType": "bytes32",
          "name": "_hash",
          "type": "bytes32"
        },
        {
          "internalType": "bytes",
          "name": "_signature",
          "type": "bytes"
        }
      ],
      "name": "InvalidSignature",
      "type": "error"
    },
    {
      "inputs": [
        {
          "internalType": "uint256",
          "name": "_flag",
          "type": "uint256"
        }
      ],
      "name": "InvalidSignatureFlag",
      "type": "error"
    },
    {
      "inputs": [
        {
          "internalType": "bytes",
          "name": "_signature",
          "type": "bytes"
        }
      ],
      "name": "InvalidSignatureLength",
      "type": "error"
    },
    {
      "inputs": [
        {
          "internalType": "uint256",
          "name": "_type",
          "type": "uint256"
        }
      ],
      "name": "InvalidSignatureType",
      "type": "error"
    },
    {
      "inputs": [
        {
          "internalType": "bytes",
          "name": "_signature",
          "type": "bytes"
        },
        {
          "internalType": "uint256",
          "name": "_v",
          "type": "uint256"
        }
      ],
      "name": "InvalidVValue",
      "type": "error"
    },
    {
      "inputs": [
        {
          "internalType": "uint256",
          "name": "_requested",
          "type": "uint256"
        },
        {
          "internalType": "uint256",
          "name": "_available",
          "type": "uint256"
        }
      ],
      "name": "NotEnoughGas",
      "type": "error"
    },
    {
      "inputs": [
        {
          "internalType": "address",
          "name": "_sender",
          "type": "address"
        },
        {
          "internalType": "address",
          "name": "_self",
          "type": "address"
        }
      ],
      "name": "OnlySelfAuth",
      "type": "error"
    },
    {
      "inputs": [
        {
          "internalType": "bytes",
          "name": "_data",
          "type": "bytes"
        }
      ],
      "name": "ReadFirstUint8OutOfBounds",
      "type": "error"
    },
    {
      "inputs": [
        {
          "internalType": "bytes",
          "name": "_signature",
          "type": "bytes"
        }
      ],
      "name": "SignerIsAddress0",
      "type": "error"
    },
    {
      "inputs": [
        {
          "internalType": "bytes",
          "name": "_signature",
          "type": "bytes"
        },
        {
          "internalType": "uint256",
          "name": "_type",
          "type": "uint256"
        },
        {
          "internalType": "bool",
          "name": "_recoverMode",
          "type": "bool"
        }
      ],
      "name": "UnsupportedSignatureType",
      "type": "error"
    },
    {
      "anonymous": false,
      "inputs": [
        {
          "indexed": false,
          "internalType": "address",
          "name": "_contract",
          "type": "address"
        }
      ],
      "name": "CreatedContract",
      "type": "event"
    },
    {
      "anonymous": false,
      "inputs": [
        {
          "indexed": false,
          "internalType": "uint256",
          "name": "_space",
          "type": "uint256"
        },
        {
          "indexed": false,
          "internalType": "uint256",
          "name": "_oldNonce",
          "type": "uint256"
        },
        {
          "indexed": false,
          "internalType": "uint256",
          "name": "_newNonce",
          "type": "uint256"
        }
      ],
      "name": "GapNonceChange",
      "type": "event"
    },
    {
      "anonymous": false,
      "inputs": [
        {
          "indexed": false,
          "internalType": "bytes32",
          "name": "newImageHash",
          "type": "bytes32"
        }
      ],
      "name": "ImageHashUpdated",
      "type": "event"
    },
    {
      "anonymous": false,
      "inputs": [
        {
          "indexed": false,
          "internalType": "address",
          "name": "newImplementation",
          "type": "address"
        }
      ],
      "name": "ImplementationUpdated",
      "type": "event"
    },
    {
      "anonymous": false,
      "inputs": [],
      "name": "NoNonceUsed",
      "type": "event"
    },
    {
      "anonymous": false,
      "inputs": [
        {
          "indexed": false,
          "internalType": "uint256",
          "name": "_space",
          "type": "uint256"
        },
        {
          "indexed": false,
          "internalType": "uint256",
          "name": "_newNonce",
          "type": "uint256"
        }
      ],
      "name": "NonceChange",
      "type": "event"
    },
    {
      "anonymous": true,
      "inputs": [
        {
          "indexed": false,
          "internalType": "bytes32",
          "name": "_tx",
          "type": "bytes32"
        }
      ],
      "name": "TxExecuted",
      "type": "event"
    },
    {
      "anonymous": false,
      "inputs": [
        {
          "indexed": false,
          "internalType": "bytes32",
          "name": "_tx",
          "type": "bytes32"
        },
        {
          "indexed": false,
          "internalType": "bytes",
          "name": "_reason",
          "type": "bytes"
        }
      ],
      "name": "TxFailed",
      "type": "event"
    },
    {
      "stateMutability": "payable",
      "type": "fallback"
    },
    {
      "inputs": [
        {
          "internalType": "bytes4",
          "name": "_signature",
          "type": "bytes4"
        },
        {
          "internalType": "address",
          "name": "_implementation",
          "type": "address"
        }
      ],
      "name": "addHook",
      "outputs": [],
      "stateMutability": "nonpayable",
      "type": "function"
    },
    {
      "inputs": [
        {
          "internalType": "bytes",
          "name": "_code",
          "type": "bytes"
        }
      ],
      "name": "createContract",
      "outputs": [
        {
          "internalType": "address",
          "name": "addr",
          "type": "address"
        }
      ],
      "stateMutability": "payable",
      "type": "function"
    },
    {
      "inputs": [
        {
          "components": [
            {
              "internalType": "bool",
              "name": "delegateCall",
              "type": "bool"
            },
            {
              "internalType": "bool",
              "name": "revertOnError",
              "type": "bool"
            },
            {
              "internalType": "uint256",
              "name": "gasLimit",
              "type": "uint256"
            },
            {
              "internalType": "address",
              "name": "target",
              "type": "address"
            },
            {
              "internalType": "uint256",
              "name": "value",
              "type": "uint256"
            },
            {
              "internalType": "bytes",
              "name": "data",
              "type": "bytes"
            }
          ],
          "internalType": "struct IModuleCalls.Transaction[]",
          "name": "_txs",
          "type": "tuple[]"
        },
        {
          "internalType": "uint256",
          "name": "_nonce",
          "type": "uint256"
        },
        {
          "internalType": "bytes",
          "name": "_signature",
          "type": "bytes"
        }
      ],
      "name": "execute",
      "outputs": [],
      "stateMutability": "nonpayable",
      "type": "function"
    },
    {
      "inputs": [],
      "name": "imageHash",
      "outputs": [
        {
          "internalType": "bytes32",
          "name": "",
          "type": "bytes32"
        }
      ],
      "stateMutability": "view",
      "type": "function"
    },
    {
      "inputs": [
        {
          "internalType": "bytes32",
          "name": "_hash",
          "type": "bytes32"
        },
        {
          "internalType": "bytes",
          "name": "_signatures",
          "type": "bytes"
        }
      ],
      "name": "isValidSignature",
      "outputs": [
        {
          "internalType": "bytes4",
          "name": "",
          "type": "bytes4"
        }
      ],
      "stateMutability": "view",
      "type": "function"
    },
    {
      "inputs": [
        {
          "internalType": "bytes",
          "name": "_data",
          "type": "bytes"
        },
        {
          "internalType": "bytes",
          "name": "_signatures",
          "type": "bytes"
        }
      ],
      "name": "isValidSignature",
      "outputs": [
        {
          "internalType": "bytes4",
          "name": "",
          "type": "bytes4"
        }
      ],
      "stateMutability": "view",
      "type": "function"
    },
    {
      "inputs": [],
      "name": "nonce",
      "outputs": [
        {
          "internalType": "uint256",
          "name": "",
          "type": "uint256"
        }
      ],
      "stateMutability": "view",
      "type": "function"
    },
    {
      "inputs": [
        {
          "internalType": "address",
          "name": "",
          "type": "address"
        },
        {
          "internalType": "address",
          "name": "",
          "type": "address"
        },
        {
          "internalType": "uint256[]",
          "name": "",
          "type": "uint256[]"
        },
        {
          "internalType": "uint256[]",
          "name": "",
          "type": "uint256[]"
        },
        {
          "internalType": "bytes",
          "name": "",
          "type": "bytes"
        }
      ],
      "name": "onERC1155BatchReceived",
      "outputs": [
        {
          "internalType": "bytes4",
          "name": "",
          "type": "bytes4"
        }
      ],
      "stateMutability": "nonpayable",
      "type": "function"
    },
    {
      "inputs": [
        {
          "internalType": "address",
          "name": "",
          "type": "address"
        },
        {
          "internalType": "address",
          "name": "",
          "type": "address"
        },
        {
          "internalType": "uint256",
          "name": "",
          "type": "uint256"
        },
        {
          "internalType": "uint256",
          "name": "",
          "type": "uint256"
        },
        {
          "internalType": "bytes",
          "name": "",
          "type": "bytes"
        }
      ],
      "name": "onERC1155Received",
      "outputs": [
        {
          "internalType": "bytes4",
          "name": "",
          "type": "bytes4"
        }
      ],
      "stateMutability": "nonpayable",
      "type": "function"
    },
    {
      "inputs": [
        {
          "internalType": "address",
          "name": "",
          "type": "address"
        },
        {
          "internalType": "address",
          "name": "",
          "type": "address"
        },
        {
          "internalType": "uint256",
          "name": "",
          "type": "uint256"
        },
        {
          "internalType": "bytes",
          "name": "",
          "type": "bytes"
        }
      ],
      "name": "onERC721Received",
      "outputs": [
        {
          "internalType": "bytes4",
          "name": "",
          "type": "bytes4"
        }
      ],
      "stateMutability": "nonpayable",
      "type": "function"
    },
    {
      "inputs": [
        {
          "internalType": "uint256",
          "name": "_space",
          "type": "uint256"
        }
      ],
      "name": "readGapNonce",
      "outputs": [
        {
          "internalType": "uint256",
          "name": "",
          "type": "uint256"
        }
      ],
      "stateMutability": "view",
      "type": "function"
    },
    {
      "inputs": [
        {
          "internalType": "bytes4",
          "name": "_signature",
          "type": "bytes4"
        }
      ],
      "name": "readHook",
      "outputs": [
        {
          "internalType": "address",
          "name": "",
          "type": "address"
        }
      ],
      "stateMutability": "view",
      "type": "function"
    },
    {
      "inputs": [
        {
          "internalType": "uint256",
          "name": "_space",
          "type": "uint256"
        }
      ],
      "name": "readNonce",
      "outputs": [
        {
          "internalType": "uint256",
          "name": "",
          "type": "uint256"
        }
      ],
      "stateMutability": "view",
      "type": "function"
    },
    {
      "inputs": [
        {
          "internalType": "bytes4",
          "name": "_signature",
          "type": "bytes4"
        }
      ],
      "name": "removeHook",
      "outputs": [],
      "stateMutability": "nonpayable",
      "type": "function"
    },
    {
      "inputs": [
        {
          "components": [
            {
              "internalType": "bool",
              "name": "delegateCall",
              "type": "bool"
            },
            {
              "internalType": "bool",
              "name": "revertOnError",
              "type": "bool"
            },
            {
              "internalType": "uint256",
              "name": "gasLimit",
              "type": "uint256"
            },
            {
              "internalType": "address",
              "name": "target",
              "type": "address"
            },
            {
              "internalType": "uint256",
              "name": "value",
              "type": "uint256"
            },
            {
              "internalType": "bytes",
              "name": "data",
              "type": "bytes"
            }
          ],
          "internalType": "struct IModuleCalls.Transaction[]",
          "name": "_txs",
          "type": "tuple[]"
        }
      ],
      "name": "selfExecute",
      "outputs": [],
      "stateMutability": "nonpayable",
      "type": "function"
    },
    {
      "inputs": [
        {
          "internalType": "bytes4",
          "name": "_interfaceID",
          "type": "bytes4"
        }
      ],
      "name": "supportsInterface",
      "outputs": [
        {
          "internalType": "bool",
          "name": "",
          "type": "bool"
        }
      ],
      "stateMutability": "pure",
      "type": "function"
    },
    {
      "inputs": [
        {
          "internalType": "bytes32",
          "name": "_imageHash",
          "type": "bytes32"
        }
      ],
      "name": "updateImageHash",
      "outputs": [],
      "stateMutability": "nonpayable",
      "type": "function"
    },
    {
      "inputs": [
        {
          "internalType": "address",
          "name": "_implementation",
          "type": "address"
        }
      ],
      "name": "updateImplementation",
      "outputs": [],
      "stateMutability": "nonpayable",
      "type": "function"
    },
    {
      "stateMutability": "payable",
      "type": "receive"
    }
  ],
  "bytecode": "0x608060405234801561001057600080fd5b50612942806100206000396000f3fe60806040526004361061012d5760003560e01c806361c2926c116100a5578063affed0e011610074578063bc197c8111610059578063bc197c8114610463578063cc63f2e2146104ab578063f23a6e61146104cb57610134565b8063affed0e01461042e578063b93ea7ad1461044357610134565b806361c2926c146103bb5780637a9a1628146103db5780638c3f5563146103fb57806390042baf1461041b57610134565b80631a9b2337116100fc57806329561426116100e157806329561426146103585780634fcf3eca1461037857806351605d801461039857610134565b80631a9b2337146102f357806320c13b0b1461033857610134565b806301ffc9a714610208578063025b22bc1461023d578063150b7a021461025d5780631626ba7e146102d357610134565b3661013457005b60006101636000357fffffffff0000000000000000000000000000000000000000000000000000000016610511565b905073ffffffffffffffffffffffffffffffffffffffff811615610206576000808273ffffffffffffffffffffffffffffffffffffffff166000366040516101ac929190611e22565b600060405180830381855af49150503d80600081146101e7576040519150601f19603f3d011682016040523d82523d6000602084013e6101ec565b606091505b5091509150816101fe57805160208201fd5b805160208201f35b005b34801561021457600080fd5b50610228610223366004611e60565b610565565b60405190151581526020015b60405180910390f35b34801561024957600080fd5b50610206610258366004611ea6565b610570565b34801561026957600080fd5b506102a2610278366004611f0a565b7f150b7a020000000000000000000000000000000000000000000000000000000095945050505050565b6040517fffffffff000000000000000000000000000000000000000000000000000000009091168152602001610234565b3480156102df57600080fd5b506102a26102ee366004611f79565b610671565b3480156102ff57600080fd5b5061031361030e366004611e60565b6106ba565b60405173ffffffffffffffffffffffffffffffffffffffff9091168152602001610234565b34801561034457600080fd5b506102a2610353366004611fc5565b6106c5565b34801561036457600080fd5b50610206610373366004612031565b610726565b34801561038457600080fd5b50610206610393366004611e60565b6107f7565b3480156103a457600080fd5b506103ad610929565b604051908152602001610234565b3480156103c757600080fd5b506102066103d63660046122cc565b610958565b3480156103e757600080fd5b506102066103f6366004612301565b610a6e565b34801561040757600080fd5b506103ad610416366004612031565b610b00565b610313610429366004612358565b610b2c565b34801561043a57600080fd5b506103ad610bc8565b34801561044f57600080fd5b5061020661045e36600461238d565b610bd4565b34801561046f57600080fd5b506102a261047e366004612407565b7fbc197c810000000000000000000000000000000000000000000000000000000098975050505050505050565b3480156104b757600080fd5b506103ad6104c6366004612031565b610d19565b3480156104d757600080fd5b506102a26104e63660046124c2565b7ff23a6e61000000000000000000000000000000000000000000000000000000009695505050505050565b600061055f7fbe27a319efc8734e89e26ba4bc95f5c788584163b959f03fa04e2d7ab4b9a1207fffffffff000000000000000000000000000000000000000000000000000000008416610d41565b92915050565b600061055f82610d9f565b3330146105b6576040517fe12588940000000000000000000000000000000000000000000000000000000081523360048201523060248201526044015b60405180910390fd5b73ffffffffffffffffffffffffffffffffffffffff81163b61061c576040517f0c76093700000000000000000000000000000000000000000000000000000000815273ffffffffffffffffffffffffffffffffffffffff821660048201526024016105ad565b610624813055565b60405173ffffffffffffffffffffffffffffffffffffffff821681527f310ba5f1d2ed074b51e2eccd052a47ae9ab7c6b800d1fca3db3999d6a592ca03906020015b60405180910390a150565b60008061067f858585610dfb565b50905080156106b157507f1626ba7e0000000000000000000000000000000000000000000000000000000090506106b3565b505b9392505050565b600061055f82610511565b6000806106ea86866040516106db929190611e22565b60405180910390208585610dfb565b509050801561071c57507f20c13b0b00000000000000000000000000000000000000000000000000000000905061071e565b505b949350505050565b333014610767576040517fe12588940000000000000000000000000000000000000000000000000000000081523360048201523060248201526044016105ad565b8061079e576040517f4294d12700000000000000000000000000000000000000000000000000000000815260040160405180910390fd5b6107c77fea7157fa25e3aa17d0ae2d5280fa4e24d421c61842aa85e45194e1145aa72bf8829055565b6040518181527f307ed6bd941ee9fc80f369c94af5fa11e25bab5102a6140191756c5474a30bfa90602001610666565b333014610838576040517fe12588940000000000000000000000000000000000000000000000000000000081523360048201523060248201526044016105ad565b600061084382610511565b73ffffffffffffffffffffffffffffffffffffffff16036108b4576040517f1c3812cc0000000000000000000000000000000000000000000000000000000081527fffffffff00000000000000000000000000000000000000000000000000000000821660048201526024016105ad565b604080517fbe27a319efc8734e89e26ba4bc95f5c788584163b959f03fa04e2d7ab4b9a1206020808301919091527fffffffff00000000000000000000000000000000000000000000000000000000841682840152825180830384018152606090920190925280519101206000905550565b50565b60006109537fea7157fa25e3aa17d0ae2d5280fa4e24d421c61842aa85e45194e1145aa72bf85490565b905090565b333014610999576040517fe12588940000000000000000000000000000000000000000000000000000000081523360048201523060248201526044016105ad565b6000610a5e826040516020016109af919061265d565b604080517fffffffffffffffffffffffffffffffffffffffffffffffffffffffffffffffe081840301815282825280516020918201207f1901000000000000000000000000000000000000000000000000000000000000848301524660228501523060601b7fffffffffffffffffffffffffffffffffffffffff000000000000000000000000166042850152605680850191909152825180850390910181526076909301909152815191012090565b9050610a6a8183610f34565b5050565b610a7783611113565b600080610aad8587604051602001610a909291906126a4565b604051602081830303815290604052805190602001208585610dfb565b9150915081610aee578084846040517f8f4a234f0000000000000000000000000000000000000000000000000000000081526004016105ad93929190612706565b610af88187610f34565b505050505050565b600061055f7f8d0bf1fd623d628c741362c1289948e57b3e2905218c676d3e69abee36d6ae2e83610d41565b6000333014610b6f576040517fe12588940000000000000000000000000000000000000000000000000000000081523360048201523060248201526044016105ad565b81516020830134f060405173ffffffffffffffffffffffffffffffffffffffff821681529091507fa506ad4e7f05eceba62a023c3219e5bd98a615f4fa87e2afb08a2da5cf62bf0c9060200160405180910390a1919050565b60006109536000610b00565b333014610c15576040517fe12588940000000000000000000000000000000000000000000000000000000081523360048201523060248201526044016105ad565b6000610c2083610511565b73ffffffffffffffffffffffffffffffffffffffff1614610c91576040517f5b4d6d6a0000000000000000000000000000000000000000000000000000000081527fffffffff00000000000000000000000000000000000000000000000000000000831660048201526024016105ad565b604080517fbe27a319efc8734e89e26ba4bc95f5c788584163b959f03fa04e2d7ab4b9a1206020808301919091527fffffffff000000000000000000000000000000000000000000000000000000008516828401528251808303840181526060909201909252805191012073ffffffffffffffffffffffffffffffffffffffff821690555050565b600061055f7f2a37c7c3c3449f4795b05559a0f92a1730815bf20be16b02bbd6dbb8ae8532fe835b6000808383604051602001610d60929190918252602082015260400190565b604080517fffffffffffffffffffffffffffffffffffffffffffffffffffffffffffffffe0818403018152919052805160209091012054949350505050565b60007f6ffbd451000000000000000000000000000000000000000000000000000000007fffffffff00000000000000000000000000000000000000000000000000000000831601610df257506001919050565b61055f8261139b565b600080600080610e0b86866114dc565b90925090504660ff8316610e225760009150610e78565b60018360ff160315610e785760028360ff1603610e4157506000610e78565b6040517fbff01fa700000000000000000000000000000000000000000000000000000000815260ff841660048201526024016105ad565b604080517f1901000000000000000000000000000000000000000000000000000000000000602080830191909152602282018490523060601b7fffffffffffffffffffffffffffffffffffffffff00000000000000000000000016604283015260568083018c905283518084039091018152607690920190925280519101209350506000806000610f0b868a8a87611529565b925092509250808210158015610f255750610f2583611705565b96505050505050935093915050565b60005b815181101561110e576000828281518110610f5457610f54612729565b602002602001015190506000606082604001515a1015610faf5782604001515a6040517f9fa72982000000000000000000000000000000000000000000000000000000008152600481019290925260248201526044016105ad565b82511561104757826060015173ffffffffffffffffffffffffffffffffffffffff168360400151600014610fe7578360400151610fe9565b5a5b8460a00151604051610ffb9190612758565b6000604051808303818686f4925050503d8060008114611037576040519150601f19603f3d011682016040523d82523d6000602084013e61103c565b606091505b5090925090506110dc565b826060015173ffffffffffffffffffffffffffffffffffffffff168360800151846040015160001461107d57846040015161107f565b5a5b908560a001516040516110929190612758565b600060405180830381858888f193505050503d80600081146110d0576040519150601f19603f3d011682016040523d82523d6000602084013e6110d5565b606091505b5090925090505b81156110f85760405186815260200160405180910390a0611103565b611103838783611738565b505050600101610f37565b505050565b600080600061112184611788565b919450925090508161121757600061113884610b00565b9050818114611184576040517f9b6514f40000000000000000000000000000000000000000000000000000000081526004810185905260248101839052604481018290526064016105ad565b604080517f8d0bf1fd623d628c741362c1289948e57b3e2905218c676d3e69abee36d6ae2e60208083019190915281830187905282518083038401815260609092019092528051910120600183019081905560408051868152602081018390527f1f180c27086c7a39ea2a7b25239d1ab92348f07ca7bb59d1438fcf527568f881910160405180910390a1505050505050565b6001820361130857600061122a84610d19565b9050808211611276576040517fcf9c69b80000000000000000000000000000000000000000000000000000000081526004810185905260248101839052604481018290526064016105ad565b604080517f2a37c7c3c3449f4795b05559a0f92a1730815bf20be16b02bbd6dbb8ae8532fe60208083019190915281830187905282518083038401815260608301808552815191909201208590558690526080810183905260a0810184905290517fd9aa9f0269d7ebe0e495362c56c21163d40a52f13ad524fb0e844ff41811f0529181900360c00190a15050505050565b6002820361138d578215158061131d57508015155b1561135e576040517f333fc10200000000000000000000000000000000000000000000000000000000815260048101849052602481018290526044016105ad565b6040517fffcdc510cc982d77c612ebe049ca925f66c6effb232c431c01fd0e79f6dad4f590600090a150505050565b611395612774565b50505050565b60007fffffffff0000000000000000000000000000000000000000000000000000000082167fec6aba5000000000000000000000000000000000000000000000000000000000148061142e57507fffffffff0000000000000000000000000000000000000000000000000000000082167f4e2312e000000000000000000000000000000000000000000000000000000000145b8061147a57507fffffffff0000000000000000000000000000000000000000000000000000000082167f150b7a0200000000000000000000000000000000000000000000000000000000145b806114c657507fffffffff0000000000000000000000000000000000000000000000000000000082167fc0ee0b8a00000000000000000000000000000000000000000000000000000000145b156114d357506001919050565b61055f826117e8565b60008082810361151c5783836040517f322952a30000000000000000000000000000000000000000000000000000000081526004016105ad9291906127a3565b5050503560f81c90600190565b8281013560f01c600081600284015b858110156116fa57600281019087013560f881901c9060f01c60ff1660007fffffffffffffffffffffffffffffffffffffffffffffffffffffffffffffffff830161158e5750601483019289013560601c6116aa565b826115c45760008460420190506115b68c8c8c889085926115b1939291906127b7565b611844565b9683019690945090506116aa565b6002830361167557838a013560601c601485019450905060008a85013560f01c600286018161ffff16915080965081925050506000818601905061161a8d848e8e8a908692611615939291906127b7565b611b07565b611668578c838d8d89908592611632939291906127b7565b6040517f9a9462320000000000000000000000000000000000000000000000000000000081526004016105ad94939291906127e1565b9683019694506116aa9050565b6040517fb2505f7c000000000000000000000000000000000000000000000000000000008152600481018490526024016105ad565b604080516020810189905290810183905273ffffffffffffffffffffffffffffffffffffffff82166060820152608001604051602081830303815290604052805190602001209650505050611538565b509450945094915050565b6000811580159061055f5750507fea7157fa25e3aa17d0ae2d5280fa4e24d421c61842aa85e45194e1145aa72bf8541490565b82602001511561174a57805160208201fd5b7f3dbd1590ea96dd3253a91f24e64e3a502e1225d602a5731357bc12643070ccd7828260405161177b929190612821565b60405180910390a1505050565b606081901c605882901c60ff166affffffffffffffffffffff831660028211156117e1576040517ff5587439000000000000000000000000000000000000000000000000000000008152600481018390526024016105ad565b9193909250565b60007ffda4dd44000000000000000000000000000000000000000000000000000000007fffffffff0000000000000000000000000000000000000000000000000000000083160161183b57506001919050565b61055f82611cab565b6000604282146118845782826040517f2ee17a3d0000000000000000000000000000000000000000000000000000000081526004016105ad9291906127a3565b600061189d61189460018561283a565b85013560f81c90565b60ff169050604084013560f81c843560208601357f7fffffffffffffffffffffffffffffff5d576e7357a4501ddfe92f46681b20a0811115611911578686826040517fad4aac760000000000000000000000000000000000000000000000000000000081526004016105ad93929190612878565b8260ff16601b1415801561192957508260ff16601c14155b15611966578686846040517fe578897e0000000000000000000000000000000000000000000000000000000081526004016105ad9392919061289c565b600184036119d3576040805160008152602081018083528a905260ff851691810191909152606081018390526080810182905260019060a0015b6020604051602081039080840390855afa1580156119c2573d6000803e3d6000fd5b505050602060405103519450611aab565b60028403611a70576040517f19457468657265756d205369676e6564204d6573736167653a0a3332000000006020820152603c8101899052600190605c01604080517fffffffffffffffffffffffffffffffffffffffffffffffffffffffffffffffe08184030181528282528051602091820120600084529083018083525260ff861690820152606081018490526080810183905260a0016119a0565b86868560016040517f9dfba8520000000000000000000000000000000000000000000000000000000081526004016105ad94939291906128c3565b73ffffffffffffffffffffffffffffffffffffffff8516611afc5786866040517f6c1719d20000000000000000000000000000000000000000000000000000000081526004016105ad9291906127a3565b505050509392505050565b6000808383611b1760018261283a565b818110611b2657611b26612729565b919091013560f81c9150506001811480611b405750600281145b15611b85578473ffffffffffffffffffffffffffffffffffffffff16611b67878686611844565b73ffffffffffffffffffffffffffffffffffffffff1614915061071c565b60038103611c705773ffffffffffffffffffffffffffffffffffffffff8516631626ba7e8786600087611bb960018261283a565b92611bc6939291906127b7565b6040518463ffffffff1660e01b8152600401611be493929190612706565b602060405180830381865afa158015611c01573d6000803e3d6000fd5b505050506040513d601f19601f82011682018060405250810190611c2591906128ef565b7fffffffff00000000000000000000000000000000000000000000000000000000167f1626ba7e0000000000000000000000000000000000000000000000000000000014915061071c565b83838260006040517f9dfba8520000000000000000000000000000000000000000000000000000000081526004016105ad94939291906128c3565b60007f0b050cdb000000000000000000000000000000000000000000000000000000007fffffffff00000000000000000000000000000000000000000000000000000000831601611cfe57506001919050565b61055f8260007f87c9b65a000000000000000000000000000000000000000000000000000000007fffffffff00000000000000000000000000000000000000000000000000000000831601611d5557506001919050565b61055f8260007fffffffff0000000000000000000000000000000000000000000000000000000082161580611dcb57507fffffffff0000000000000000000000000000000000000000000000000000000082167f36e7817500000000000000000000000000000000000000000000000000000000145b15611dd857506001919050565b7f01ffc9a7000000000000000000000000000000000000000000000000000000007fffffffff0000000000000000000000000000000000000000000000000000000083161461055f565b8183823760009101908152919050565b7fffffffff000000000000000000000000000000000000000000000000000000008116811461092657600080fd5b600060208284031215611e7257600080fd5b81356106b381611e32565b803573ffffffffffffffffffffffffffffffffffffffff81168114611ea157600080fd5b919050565b600060208284031215611eb857600080fd5b6106b382611e7d565b60008083601f840112611ed357600080fd5b50813567ffffffffffffffff811115611eeb57600080fd5b602083019150836020828501011115611f0357600080fd5b9250929050565b600080600080600060808688031215611f2257600080fd5b611f2b86611e7d565b9450611f3960208701611e7d565b935060408601359250606086013567ffffffffffffffff811115611f5c57600080fd5b611f6888828901611ec1565b969995985093965092949392505050565b600080600060408486031215611f8e57600080fd5b83359250602084013567ffffffffffffffff811115611fac57600080fd5b611fb886828701611ec1565b9497909650939450505050565b60008060008060408587031215611fdb57600080fd5b843567ffffffffffffffff80821115611ff357600080fd5b611fff88838901611ec1565b9096509450602087013591508082111561201857600080fd5b5061202587828801611ec1565b95989497509550505050565b60006020828403121561204357600080fd5b5035919050565b7f4e487b7100000000000000000000000000000000000000000000000000000000600052604160045260246000fd5b60405160c0810167ffffffffffffffff8111828210171561209c5761209c61204a565b60405290565b604051601f82017fffffffffffffffffffffffffffffffffffffffffffffffffffffffffffffffe016810167ffffffffffffffff811182821017156120e9576120e961204a565b604052919050565b80358015158114611ea157600080fd5b600082601f83011261211257600080fd5b813567ffffffffffffffff81111561212c5761212c61204a565b61215d60207fffffffffffffffffffffffffffffffffffffffffffffffffffffffffffffffe0601f840116016120a2565b81815284602083860101111561217257600080fd5b816020850160208301376000918101602001919091529392505050565b600082601f8301126121a057600080fd5b8135602067ffffffffffffffff808311156121bd576121bd61204a565b8260051b6121cc8382016120a2565b93845285810183019383810190888611156121e657600080fd5b84880192505b858310156122c0578235848111156122045760008081fd5b880160c0818b037fffffffffffffffffffffffffffffffffffffffffffffffffffffffffffffffe00181131561223a5760008081fd5b612242612079565b61224d8884016120f1565b8152604061225c8185016120f1565b898301526060808501358284015260809150612279828601611e7d565b9083015260a0848101358284015292840135928884111561229c57600091508182fd5b6122aa8e8b86880101612101565b90830152508452505091840191908401906121ec565b98975050505050505050565b6000602082840312156122de57600080fd5b813567ffffffffffffffff8111156122f557600080fd5b61071e8482850161218f565b6000806000806060858703121561231757600080fd5b843567ffffffffffffffff8082111561232f57600080fd5b61233b8883890161218f565b955060208701359450604087013591508082111561201857600080fd5b60006020828403121561236a57600080fd5b813567ffffffffffffffff81111561238157600080fd5b61071e84828501612101565b600080604083850312156123a057600080fd5b82356123ab81611e32565b91506123b960208401611e7d565b90509250929050565b60008083601f8401126123d457600080fd5b50813567ffffffffffffffff8111156123ec57600080fd5b6020830191508360208260051b8501011115611f0357600080fd5b60008060008060008060008060a0898b03121561242357600080fd5b61242c89611e7d565b975061243a60208a01611e7d565b9650604089013567ffffffffffffffff8082111561245757600080fd5b6124638c838d016123c2565b909850965060608b013591508082111561247c57600080fd5b6124888c838d016123c2565b909650945060808b01359150808211156124a157600080fd5b506124ae8b828c01611ec1565b999c989b5096995094979396929594505050565b60008060008060008060a087890312156124db57600080fd5b6124e487611e7d565b95506124f260208801611e7d565b94506040870135935060608701359250608087013567ffffffffffffffff81111561251c57600080fd5b61252889828a01611ec1565b979a9699509497509295939492505050565b60005b8381101561255557818101518382015260200161253d565b838111156113955750506000910152565b6000815180845261257e81602086016020860161253a565b601f017fffffffffffffffffffffffffffffffffffffffffffffffffffffffffffffffe0169290920160200192915050565b600081518084526020808501808196508360051b8101915082860160005b858110156126505782840389528151805115158552858101511515868601526040808201519086015260608082015173ffffffffffffffffffffffffffffffffffffffff16908601526080808201519086015260a09081015160c09186018290529061263c81870183612566565b9a87019a95505050908401906001016125ce565b5091979650505050505050565b60408152600560408201527f73656c663a00000000000000000000000000000000000000000000000000000060608201526080602082015260006106b360808301846125b0565b82815260406020820152600061071e60408301846125b0565b8183528181602085013750600060208284010152600060207fffffffffffffffffffffffffffffffffffffffffffffffffffffffffffffffe0601f840116840101905092915050565b8381526040602082015260006127206040830184866126bd565b95945050505050565b7f4e487b7100000000000000000000000000000000000000000000000000000000600052603260045260246000fd5b6000825161276a81846020870161253a565b9190910192915050565b7f4e487b7100000000000000000000000000000000000000000000000000000000600052600160045260246000fd5b60208152600061071e6020830184866126bd565b600080858511156127c757600080fd5b838611156127d457600080fd5b5050820193919092039150565b84815273ffffffffffffffffffffffffffffffffffffffff841660208201526060604082015260006128176060830184866126bd565b9695505050505050565b82815260406020820152600061071e6040830184612566565b600082821015612873577f4e487b7100000000000000000000000000000000000000000000000000000000600052601160045260246000fd5b500390565b60408152600061288c6040830185876126bd565b9050826020830152949350505050565b6040815260006128b06040830185876126bd565b905060ff83166020830152949350505050565b6060815260006128d76060830186886126bd565b60208301949094525090151560409091015292915050565b60006020828403121561290157600080fd5b81516106b381611e3256fea264697066735822122028b5d6268f28ec7908db2e6097337f70b33e79ce773ca4bb46ca6d177327b33664736f6c634300080e0033",
  "linkReferences": {},
  "deployedLinkReferences": {}
}