{
  "_format": "hh-sol-artifact-1",
  "contractName": "MainModuleUpgradable",
  "sourceName": "contracts/modules/MainModuleUpgradable.sol",
  "abi": [
    {
      "anonymous": false,
      "inputs": [
        {
          "indexed": false,
          "internalType": "address",
          "name": "_contract",
          "type": "address"
        }
      ],
      "name": "CreatedContract",
      "type": "event"
    },
    {
      "anonymous": false,
      "inputs": [
        {
          "indexed": false,
          "internalType": "bytes32",
          "name": "newImageHash",
          "type": "bytes32"
        }
      ],
      "name": "ImageHashUpdated",
      "type": "event"
    },
    {
      "anonymous": false,
      "inputs": [
        {
          "indexed": false,
          "internalType": "address",
          "name": "newImplementation",
          "type": "address"
        }
      ],
      "name": "ImplementationUpdated",
      "type": "event"
    },
    {
      "anonymous": false,
      "inputs": [
        {
          "indexed": false,
          "internalType": "uint256",
          "name": "_space",
          "type": "uint256"
        },
        {
          "indexed": false,
          "internalType": "uint256",
          "name": "_newNonce",
          "type": "uint256"
        }
      ],
      "name": "NonceChange",
      "type": "event"
    },
    {
      "anonymous": true,
      "inputs": [
        {
          "indexed": false,
          "internalType": "bytes32",
          "name": "_tx",
          "type": "bytes32"
        }
      ],
      "name": "TxExecuted",
      "type": "event"
    },
    {
      "anonymous": false,
      "inputs": [
        {
          "indexed": false,
          "internalType": "bytes32",
          "name": "_tx",
          "type": "bytes32"
        },
        {
          "indexed": false,
          "internalType": "bytes",
          "name": "_reason",
          "type": "bytes"
        }
      ],
      "name": "TxFailed",
      "type": "event"
    },
    {
      "stateMutability": "payable",
      "type": "fallback"
    },
    {
      "inputs": [
        {
          "internalType": "bytes4",
          "name": "_signature",
          "type": "bytes4"
        },
        {
          "internalType": "address",
          "name": "_implementation",
          "type": "address"
        }
      ],
      "name": "addHook",
      "outputs": [],
      "stateMutability": "nonpayable",
      "type": "function"
    },
    {
      "inputs": [
        {
          "internalType": "bytes",
          "name": "_code",
          "type": "bytes"
        }
      ],
      "name": "createContract",
      "outputs": [
        {
          "internalType": "address",
          "name": "addr",
          "type": "address"
        }
      ],
      "stateMutability": "payable",
      "type": "function"
    },
    {
      "inputs": [
        {
          "components": [
            {
              "internalType": "bool",
              "name": "delegateCall",
              "type": "bool"
            },
            {
              "internalType": "bool",
              "name": "revertOnError",
              "type": "bool"
            },
            {
              "internalType": "uint256",
              "name": "gasLimit",
              "type": "uint256"
            },
            {
              "internalType": "address",
              "name": "target",
              "type": "address"
            },
            {
              "internalType": "uint256",
              "name": "value",
              "type": "uint256"
            },
            {
              "internalType": "bytes",
              "name": "data",
              "type": "bytes"
            }
          ],
          "internalType": "struct IModuleCalls.Transaction[]",
          "name": "_txs",
          "type": "tuple[]"
        },
        {
          "internalType": "uint256",
          "name": "_nonce",
          "type": "uint256"
        },
        {
          "internalType": "bytes",
          "name": "_signature",
          "type": "bytes"
        }
      ],
      "name": "execute",
      "outputs": [],
      "stateMutability": "nonpayable",
      "type": "function"
    },
    {
      "inputs": [],
      "name": "imageHash",
      "outputs": [
        {
          "internalType": "bytes32",
          "name": "",
          "type": "bytes32"
        }
      ],
      "stateMutability": "view",
      "type": "function"
    },
    {
      "inputs": [
        {
          "internalType": "bytes32",
          "name": "_hash",
          "type": "bytes32"
        },
        {
          "internalType": "bytes",
          "name": "_signatures",
          "type": "bytes"
        }
      ],
      "name": "isValidSignature",
      "outputs": [
        {
          "internalType": "bytes4",
          "name": "",
          "type": "bytes4"
        }
      ],
      "stateMutability": "view",
      "type": "function"
    },
    {
      "inputs": [
        {
          "internalType": "bytes",
          "name": "_data",
          "type": "bytes"
        },
        {
          "internalType": "bytes",
          "name": "_signatures",
          "type": "bytes"
        }
      ],
      "name": "isValidSignature",
      "outputs": [
        {
          "internalType": "bytes4",
          "name": "",
          "type": "bytes4"
        }
      ],
      "stateMutability": "view",
      "type": "function"
    },
    {
      "inputs": [],
      "name": "nonce",
      "outputs": [
        {
          "internalType": "uint256",
          "name": "",
          "type": "uint256"
        }
      ],
      "stateMutability": "view",
      "type": "function"
    },
    {
      "inputs": [
        {
          "internalType": "address",
          "name": "",
          "type": "address"
        },
        {
          "internalType": "address",
          "name": "",
          "type": "address"
        },
        {
          "internalType": "uint256[]",
          "name": "",
          "type": "uint256[]"
        },
        {
          "internalType": "uint256[]",
          "name": "",
          "type": "uint256[]"
        },
        {
          "internalType": "bytes",
          "name": "",
          "type": "bytes"
        }
      ],
      "name": "onERC1155BatchReceived",
      "outputs": [
        {
          "internalType": "bytes4",
          "name": "",
          "type": "bytes4"
        }
      ],
      "stateMutability": "nonpayable",
      "type": "function"
    },
    {
      "inputs": [
        {
          "internalType": "address",
          "name": "",
          "type": "address"
        },
        {
          "internalType": "address",
          "name": "",
          "type": "address"
        },
        {
          "internalType": "uint256",
          "name": "",
          "type": "uint256"
        },
        {
          "internalType": "uint256",
          "name": "",
          "type": "uint256"
        },
        {
          "internalType": "bytes",
          "name": "",
          "type": "bytes"
        }
      ],
      "name": "onERC1155Received",
      "outputs": [
        {
          "internalType": "bytes4",
          "name": "",
          "type": "bytes4"
        }
      ],
      "stateMutability": "nonpayable",
      "type": "function"
    },
    {
      "inputs": [
        {
          "internalType": "address",
          "name": "",
          "type": "address"
        },
        {
          "internalType": "address",
          "name": "",
          "type": "address"
        },
        {
          "internalType": "uint256",
          "name": "",
          "type": "uint256"
        },
        {
          "internalType": "bytes",
          "name": "",
          "type": "bytes"
        }
      ],
      "name": "onERC721Received",
      "outputs": [
        {
          "internalType": "bytes4",
          "name": "",
          "type": "bytes4"
        }
      ],
      "stateMutability": "nonpayable",
      "type": "function"
    },
    {
      "inputs": [
        {
          "internalType": "bytes4",
          "name": "_signature",
          "type": "bytes4"
        }
      ],
      "name": "readHook",
      "outputs": [
        {
          "internalType": "address",
          "name": "",
          "type": "address"
        }
      ],
      "stateMutability": "view",
      "type": "function"
    },
    {
      "inputs": [
        {
          "internalType": "uint256",
          "name": "_space",
          "type": "uint256"
        }
      ],
      "name": "readNonce",
      "outputs": [
        {
          "internalType": "uint256",
          "name": "",
          "type": "uint256"
        }
      ],
      "stateMutability": "view",
      "type": "function"
    },
    {
      "inputs": [
        {
          "internalType": "bytes4",
          "name": "_signature",
          "type": "bytes4"
        }
      ],
      "name": "removeHook",
      "outputs": [],
      "stateMutability": "nonpayable",
      "type": "function"
    },
    {
      "inputs": [
        {
          "components": [
            {
              "internalType": "bool",
              "name": "delegateCall",
              "type": "bool"
            },
            {
              "internalType": "bool",
              "name": "revertOnError",
              "type": "bool"
            },
            {
              "internalType": "uint256",
              "name": "gasLimit",
              "type": "uint256"
            },
            {
              "internalType": "address",
              "name": "target",
              "type": "address"
            },
            {
              "internalType": "uint256",
              "name": "value",
              "type": "uint256"
            },
            {
              "internalType": "bytes",
              "name": "data",
              "type": "bytes"
            }
          ],
          "internalType": "struct IModuleCalls.Transaction[]",
          "name": "_txs",
          "type": "tuple[]"
        }
      ],
      "name": "selfExecute",
      "outputs": [],
      "stateMutability": "nonpayable",
      "type": "function"
    },
    {
      "inputs": [
        {
          "internalType": "bytes4",
          "name": "_interfaceID",
          "type": "bytes4"
        }
      ],
      "name": "supportsInterface",
      "outputs": [
        {
          "internalType": "bool",
          "name": "",
          "type": "bool"
        }
      ],
      "stateMutability": "pure",
      "type": "function"
    },
    {
      "inputs": [
        {
          "internalType": "bytes32",
          "name": "_imageHash",
          "type": "bytes32"
        }
      ],
      "name": "updateImageHash",
      "outputs": [],
      "stateMutability": "nonpayable",
      "type": "function"
    },
    {
      "inputs": [
        {
          "internalType": "address",
          "name": "_implementation",
          "type": "address"
        }
      ],
      "name": "updateImplementation",
      "outputs": [],
      "stateMutability": "nonpayable",
      "type": "function"
    },
    {
      "stateMutability": "payable",
      "type": "receive"
    }
  ],
  "bytecode": "0x608060405234801561001057600080fd5b50612782806100206000396000f3fe6080604052600436106101125760003560e01c806351605d80116100a557806390042baf11610074578063b93ea7ad11610059578063b93ea7ad146103d0578063bc197c81146103f0578063f23a6e611461041057610119565b806390042baf146103a8578063affed0e0146103bb57610119565b806351605d801461032657806361c2926c146103485780637a9a1628146103685780638c3f55631461038857610119565b80631a9b2337116100e15780631a9b23371461029957806320c13b0b146102c657806329561426146102e65780634fcf3eca1461030657610119565b806301ffc9a7146101f4578063025b22bc1461022a578063150b7a021461024c5780631626ba7e1461027957610119565b3661011957005b60006101486000357fffffffff0000000000000000000000000000000000000000000000000000000016610430565b905073ffffffffffffffffffffffffffffffffffffffff8116156101f1576000808273ffffffffffffffffffffffffffffffffffffffff166000366040518083838082843760405192019450600093509091505080830381855af49150503d80600081146101d2576040519150601f19603f3d011682016040523d82523d6000602084013e6101d7565b606091505b5091509150816101e957805160208201fd5b805160208201f35b50005b34801561020057600080fd5b5061021461020f36600461205d565b610486565b6040516102219190612274565b60405180910390f35b34801561023657600080fd5b5061024a610245366004611daa565b610491565b005b34801561025857600080fd5b5061026c610267366004611e7b565b6105b2565b60405161022191906122a1565b34801561028557600080fd5b5061026c610294366004612013565b6105dc565b3480156102a557600080fd5b506102b96102b436600461205d565b61064d565b6040516102219190612253565b3480156102d257600080fd5b5061026c6102e13660046120a9565b610658565b3480156102f257600080fd5b5061024a610301366004611ffb565b610708565b34801561031257600080fd5b5061024a61032136600461205d565b610816565b34801561033257600080fd5b5061033b6108f4565b604051610221919061227f565b34801561035457600080fd5b5061024a610363366004611f5e565b610924565b34801561037457600080fd5b5061024a610383366004611f91565b6109b6565b34801561039457600080fd5b5061033b6103a3366004611ffb565b610a32565b6102b96103b6366004612112565b610a5e565b3480156103c757600080fd5b5061033b610b12565b3480156103dc57600080fd5b5061024a6103eb366004612077565b610b1e565b3480156103fc57600080fd5b5061026c61040b366004611dc4565b610bf7565b34801561041c57600080fd5b5061026c61042b366004611ee8565b610c24565b600061047e7fbe27a319efc8734e89e26ba4bc95f5c788584163b959f03fa04e2d7ab4b9a1207fffffffff000000000000000000000000000000000000000000000000000000008416610c4f565b90505b919050565b600061047e82610c7c565b3330146104e9576040517f08c379a00000000000000000000000000000000000000000000000000000000081526004018080602001828103825260278152602001806127266027913960400191505060405180910390fd5b6105088173ffffffffffffffffffffffffffffffffffffffff16610cd9565b61055d576040517f08c379a000000000000000000000000000000000000000000000000000000000815260040180806020018281038252603981526020018061264f6039913960400191505060405180910390fd5b61056681610cdf565b6040805173ffffffffffffffffffffffffffffffffffffffff8316815290517f310ba5f1d2ed074b51e2eccd052a47ae9ab7c6b800d1fca3db3999d6a592ca039181900360200190a150565b7f150b7a020000000000000000000000000000000000000000000000000000000095945050505050565b600061061e8484848080601f016020809104026020016040519081016040528093929190818152602001838380828437600092019190915250610ce392505050565b1561064657507f1626ba7e000000000000000000000000000000000000000000000000000000005b9392505050565b600061047e82610430565b60006106d861069c86868080601f016020809104026020016040519081016040528093929190818152602001838380828437600092019190915250610e3492505050565b84848080601f016020809104026020016040519081016040528093929190818152602001838380828437600092019190915250610ce392505050565b1561070057507f20c13b0b000000000000000000000000000000000000000000000000000000005b949350505050565b333014610760576040517f08c379a00000000000000000000000000000000000000000000000000000000081526004018080602001828103825260278152602001806127266027913960400191505060405180910390fd5b806107b6576040517f08c379a00000000000000000000000000000000000000000000000000000000081526004018080602001828103825260378152602001806124e76037913960400191505060405180910390fd5b6107e07fea7157fa25e3aa17d0ae2d5280fa4e24d421c61842aa85e45194e1145aa72bf882610e94565b6040805182815290517f307ed6bd941ee9fc80f369c94af5fa11e25bab5102a6140191756c5474a30bfa9181900360200190a150565b33301461086e576040517f08c379a00000000000000000000000000000000000000000000000000000000081526004018080602001828103825260278152602001806127266027913960400191505060405180910390fd5b600061087982610430565b73ffffffffffffffffffffffffffffffffffffffff1614156108e6576040517f08c379a000000000000000000000000000000000000000000000000000000000815260040180806020018281038252602b81526020018061251e602b913960400191505060405180910390fd5b6108f1816000610e98565b50565b600061091f7fea7157fa25e3aa17d0ae2d5280fa4e24d421c61842aa85e45194e1145aa72bf8610efb565b905090565b33301461097c576040517f08c379a00000000000000000000000000000000000000000000000000000000081526004018080602001828103825260278152602001806127266027913960400191505060405180910390fd5b60006109a68260405160200161099291906123bf565b604051602081830303815290604052610e34565b90506109b28183610eff565b5050565b6109bf826110ce565b60006109d78385604051602001610992929190612406565b90506109e38183610ce3565b610a22576040517f08c379a0000000000000000000000000000000000000000000000000000000008152600401610a1990612362565b60405180910390fd5b610a2c8185610eff565b50505050565b600061047e7f8d0bf1fd623d628c741362c1289948e57b3e2905218c676d3e69abee36d6ae2e83610c4f565b6000333014610ab8576040517f08c379a00000000000000000000000000000000000000000000000000000000081526004018080602001828103825260278152602001806127266027913960400191505060405180910390fd5b81516020830134f06040805173ffffffffffffffffffffffffffffffffffffffff8316815290519192507fa506ad4e7f05eceba62a023c3219e5bd98a615f4fa87e2afb08a2da5cf62bf0c919081900360200190a1919050565b600061091f6000610a32565b333014610b76576040517f08c379a00000000000000000000000000000000000000000000000000000000081526004018080602001828103825260278152602001806127266027913960400191505060405180910390fd5b6000610b8183610430565b73ffffffffffffffffffffffffffffffffffffffff1614610bed576040517f08c379a000000000000000000000000000000000000000000000000000000000815260040180806020018281038252602c815260200180612600602c913960400191505060405180910390fd5b6109b28282610e98565b7fbc197c810000000000000000000000000000000000000000000000000000000098975050505050505050565b7ff23a6e61000000000000000000000000000000000000000000000000000000009695505050505050565b60408051602080820194909452808201929092528051808303820181526060909201905280519101205490565b60007fffffffff0000000000000000000000000000000000000000000000000000000082167f90042baf000000000000000000000000000000000000000000000000000000001415610cd057506001610481565b61047e82611172565b3b151590565b3055565b6000806000610cf1846112b3565b909250905061ffff821660005b8551831015610e115760008080610d158987611321565b975060ff91821694501691506001831415610d3d57610d34898761139b565b96509050610dba565b82610d69576060610d4e8a8861140f565b97509050610d5c8b826114b7565b9150828501945050610dba565b6040517f08c379a000000000000000000000000000000000000000000000000000000000815260040180806020018281038252602c8152602001806124bb602c913960400191505060405180910390fd5b848282604051602001808481526020018381526020018273ffffffffffffffffffffffffffffffffffffffff1681526020019350505050604051602081830303815290604052805190602001209450505050610cfe565b8361ffff168110158015610e295750610e29826117e6565b979650505050505050565b8051602091820120604080517f1901000000000000000000000000000000000000000000000000000000000000818501524660228201523060601b6042820152605680820193909352815180820390930183526076019052805191012090565b9055565b6109b27fbe27a319efc8734e89e26ba4bc95f5c788584163b959f03fa04e2d7ab4b9a1207fffffffff00000000000000000000000000000000000000000000000000000000841673ffffffffffffffffffffffffffffffffffffffff8416611823565b5490565b60005b81518110156110c9576000828281518110610f1957fe5b602002602001015190506000606082604001515a1015610f65576040517f08c379a0000000000000000000000000000000000000000000000000000000008152600401610a1990612305565b825115610ffd57826060015173ffffffffffffffffffffffffffffffffffffffff168360400151600014610f9d578360400151610f9f565b5a5b8460a00151604051610fb19190612237565b6000604051808303818686f4925050503d8060008114610fed576040519150601f19603f3d011682016040523d82523d6000602084013e610ff2565b606091505b509092509050611092565b826060015173ffffffffffffffffffffffffffffffffffffffff1683608001518460400151600014611033578460400151611035565b5a5b908560a001516040516110489190612237565b600060405180830381858888f193505050503d8060008114611086576040519150601f19603f3d011682016040523d82523d6000602084013e61108b565b606091505b5090925090505b81156110b357856040516110a6919061227f565b60405180910390a06110be565b6110be838783611851565b505050600101610f02565b505050565b6000806110da836118a1565b9150915060006110e983610a32565b9050808214611124576040517f08c379a0000000000000000000000000000000000000000000000000000000008152600401610a19906122ce565b6001820161113284826118ba565b7f1f180c27086c7a39ea2a7b25239d1ab92348f07ca7bb59d1438fcf527568f881848260405161116392919061241f565b60405180910390a15050505050565b60007fffffffff0000000000000000000000000000000000000000000000000000000082167fec6aba5000000000000000000000000000000000000000000000000000000000148061120557507fffffffff0000000000000000000000000000000000000000000000000000000082167f4e2312e000000000000000000000000000000000000000000000000000000000145b8061125157507fffffffff0000000000000000000000000000000000000000000000000000000082167f150b7a0200000000000000000000000000000000000000000000000000000000145b8061129d57507fffffffff0000000000000000000000000000000000000000000000000000000082167fc0ee0b8a00000000000000000000000000000000000000000000000000000000145b156112aa57506001610481565b61047e826118e5565b6020810151815160f09190911c9060029081111561131c576040517f08c379a000000000000000000000000000000000000000000000000000000000815260040180806020018281038252602781526020018061256c6027913960400191505060405180910390fd5b915091565b80820160200151825160f882901c9160f01c60ff16906002840190811115611394576040517f08c379a00000000000000000000000000000000000000000000000000000000081526004018080602001828103825260268152602001806126c46026913960400191505060405180910390fd5b9250925092565b80820160200151825160609190911c906014830190811115611408576040517f08c379a00000000000000000000000000000000000000000000000000000000081526004018080602001828103825260238152602001806125496023913960400191505060405180910390fd5b9250929050565b6040805160428082526080820190925260609160009190602082018180368337019050509150828401602001805160208401526020810151604084015260228101516042840152506042830190508351811115611408576040517f08c379a000000000000000000000000000000000000000000000000000000000815260040180806020018281038252602381526020018061262c6023913960400191505060405180910390fd5b600080826001845103815181106114ca57fe5b602001015160f81c60f81b60f81c60ff1690506000836040815181106114ec57fe5b016020015160f81c905060006115028582611942565b90506000611511866020611942565b90507f7fffffffffffffffffffffffffffffff5d576e7357a4501ddfe92f46681b20a081111561158c576040517f08c379a000000000000000000000000000000000000000000000000000000000815260040180806020018281038252603d81526020018061247e603d913960400191505060405180910390fd5b8260ff16601b141580156115a457508260ff16601c14155b156115fa576040517f08c379a000000000000000000000000000000000000000000000000000000000815260040180806020018281038252603d815260200180612593603d913960400191505060405180910390fd5b600184141561166e5760018784848460405160008152602001604052604051808581526020018460ff1681526020018381526020018281526020019450505050506020604051602081039080840390855afa15801561165d573d6000803e3d6000fd5b505050602060405103519450611770565b600284141561171f5760018760405160200180807f19457468657265756d205369676e6564204d6573736167653a0a333200000000815250601c018281526020019150506040516020818303038152906040528051906020012084848460405160008152602001604052604051808581526020018460ff1681526020018381526020018281526020019450505050506020604051602081039080840390855afa15801561165d573d6000803e3d6000fd5b6040517f08c379a000000000000000000000000000000000000000000000000000000000815260040180806020018281038252603c815260200180612688603c913960400191505060405180910390fd5b73ffffffffffffffffffffffffffffffffffffffff85166117dc576040517f08c379a00000000000000000000000000000000000000000000000000000000081526004018080602001828103825260308152602001806125d06030913960400191505060405180910390fd5b5050505092915050565b6000811580159061047e575061181b7fea7157fa25e3aa17d0ae2d5280fa4e24d421c61842aa85e45194e1145aa72bf8610efb565b909114919050565b6040805160208082019590955280820193909352805180840382018152606090930190528151919092012055565b82602001511561186357805160208201fd5b7f3dbd1590ea96dd3253a91f24e64e3a502e1225d602a5731357bc12643070ccd78282604051611894929190612288565b60405180910390a1505050565b606081901c916bffffffffffffffffffffffff90911690565b6109b27f8d0bf1fd623d628c741362c1289948e57b3e2905218c676d3e69abee36d6ae2e8383611823565b60007fffffffff0000000000000000000000000000000000000000000000000000000082167f025b22bc00000000000000000000000000000000000000000000000000000000141561193957506001610481565b61047e826119aa565b600081602001835110156119a1576040517f08c379a000000000000000000000000000000000000000000000000000000000815260040180806020018281038252603c8152602001806126ea603c913960400191505060405180910390fd5b50016020015190565b60007fffffffff0000000000000000000000000000000000000000000000000000000082167f389901c70000000000000000000000000000000000000000000000000000000014156119fe57506001610481565b61047e8260007fffffffff0000000000000000000000000000000000000000000000000000000082167f783649a6000000000000000000000000000000000000000000000000000000001415611a5657506001610481565b61047e8260007fffffffff0000000000000000000000000000000000000000000000000000000082161580611acc57507fffffffff0000000000000000000000000000000000000000000000000000000082167f36e7817500000000000000000000000000000000000000000000000000000000145b15611ad957506001610481565b7f01ffc9a7000000000000000000000000000000000000000000000000000000007fffffffff0000000000000000000000000000000000000000000000000000000083161461047e565b803573ffffffffffffffffffffffffffffffffffffffff8116811461048157600080fd5b600082601f830112611b57578081fd5b8135602067ffffffffffffffff80831115611b6e57fe5b611b7b828385020161242d565b83815282810190868401865b86811015611c57578135890160c0807fffffffffffffffffffffffffffffffffffffffffffffffffffffffffffffffe0838e03011215611bc557898afd5b604080518281018181108a82111715611bda57fe5b8252611be7848b01611ca7565b8152611bf4828501611ca7565b8a8201526060808501358383015260809250611c11838601611b23565b9082015260a08481013583830152928401359289841115611c30578c8dfd5b611c3e8f8c86880101611d27565b9082015287525050509285019290850190600101611b87565b509098975050505050505050565b60008083601f840112611c76578182fd5b50813567ffffffffffffffff811115611c8d578182fd5b602083019150836020808302850101111561140857600080fd5b8035801515811461048157600080fd5b80357fffffffff000000000000000000000000000000000000000000000000000000008116811461048157600080fd5b60008083601f840112611cf8578182fd5b50813567ffffffffffffffff811115611d0f578182fd5b60208301915083602082850101111561140857600080fd5b600082601f830112611d37578081fd5b813567ffffffffffffffff811115611d4b57fe5b611d7c60207fffffffffffffffffffffffffffffffffffffffffffffffffffffffffffffffe0601f8401160161242d565b818152846020838601011115611d90578283fd5b816020850160208301379081016020019190915292915050565b600060208284031215611dbb578081fd5b61064682611b23565b60008060008060008060008060a0898b031215611ddf578384fd5b611de889611b23565b9750611df660208a01611b23565b9650604089013567ffffffffffffffff80821115611e12578586fd5b611e1e8c838d01611c65565b909850965060608b0135915080821115611e36578586fd5b611e428c838d01611c65565b909650945060808b0135915080821115611e5a578384fd5b50611e678b828c01611ce7565b999c989b5096995094979396929594505050565b600080600080600060808688031215611e92578081fd5b611e9b86611b23565b9450611ea960208701611b23565b935060408601359250606086013567ffffffffffffffff811115611ecb578182fd5b611ed788828901611ce7565b969995985093965092949392505050565b60008060008060008060a08789031215611f00578182fd5b611f0987611b23565b9550611f1760208801611b23565b94506040870135935060608701359250608087013567ffffffffffffffff811115611f40578283fd5b611f4c89828a01611ce7565b979a9699509497509295939492505050565b600060208284031215611f6f578081fd5b813567ffffffffffffffff811115611f85578182fd5b61070084828501611b47565b600080600060608486031215611fa5578283fd5b833567ffffffffffffffff80821115611fbc578485fd5b611fc887838801611b47565b9450602086013593506040860135915080821115611fe4578283fd5b50611ff186828701611d27565b9150509250925092565b60006020828403121561200c578081fd5b5035919050565b600080600060408486031215612027578283fd5b83359250602084013567ffffffffffffffff811115612044578283fd5b61205086828701611ce7565b9497909650939450505050565b60006020828403121561206e578081fd5b61064682611cb7565b60008060408385031215612089578182fd5b61209283611cb7565b91506120a060208401611b23565b90509250929050565b600080600080604085870312156120be578182fd5b843567ffffffffffffffff808211156120d5578384fd5b6120e188838901611ce7565b909650945060208701359150808211156120f9578384fd5b5061210687828801611ce7565b95989497509550505050565b600060208284031215612123578081fd5b813567ffffffffffffffff811115612139578182fd5b61070084828501611d27565b6000815180845260208085019450848183028601828601855b858110156121e05783830389528151805115158452858101511515868501526040808201519085015260608082015173ffffffffffffffffffffffffffffffffffffffff16908501526080808201519085015260a09081015160c0918501829052906121cc818601836121ed565b9a87019a945050509084019060010161215e565b5090979650505050505050565b60008151808452612205816020860160208601612451565b601f017fffffffffffffffffffffffffffffffffffffffffffffffffffffffffffffffe0169290920160200192915050565b60008251612249818460208701612451565b9190910192915050565b73ffffffffffffffffffffffffffffffffffffffff91909116815260200190565b901515815260200190565b90815260200190565b60008382526040602083015261070060408301846121ed565b7fffffffff0000000000000000000000000000000000000000000000000000000091909116815260200190565b6020808252601f908201527f4d61696e4d6f64756c65235f617574683a20494e56414c49445f4e4f4e434500604082015260600190565b60208082526024908201527f4d6f64756c6543616c6c73235f657865637574653a204e4f545f454e4f55474860408201527f5f47415300000000000000000000000000000000000000000000000000000000606082015260800190565b60208082526026908201527f4d6f64756c6543616c6c7323657865637574653a20494e56414c49445f53494760408201527f4e41545552450000000000000000000000000000000000000000000000000000606082015260800190565b600060408252600560408301527f73656c663a0000000000000000000000000000000000000000000000000000006060830152608060208301526106466080830184612145565b6000838252604060208301526107006040830184612145565b918252602082015260400190565b60405181810167ffffffffffffffff8111828210171561244957fe5b604052919050565b60005b8381101561246c578181015183820152602001612454565b83811115610a2c575050600091015256fe5369676e617475726556616c696461746f72237265636f7665725369676e65723a20696e76616c6964207369676e6174757265202773272076616c75654d6f64756c6541757468235f7369676e617475726556616c69646174696f6e20494e56414c49445f464c41474d6f64756c654175746855706772616461626c6523757064617465496d6167654861736820494e56414c49445f494d4147455f484153484d6f64756c65486f6f6b732372656d6f7665486f6f6b3a20484f4f4b5f4e4f545f524547495354455245444c696242797465732372656164416464726573733a204f55545f4f465f424f554e44534c696242797465732372656164466972737455696e7431363a204f55545f4f465f424f554e44535369676e617475726556616c696461746f72237265636f7665725369676e65723a20696e76616c6964207369676e6174757265202776272076616c75655369676e617475726556616c696461746f72237265636f7665725369676e65723a20494e56414c49445f5349474e45524d6f64756c65486f6f6b7323616464486f6f6b3a20484f4f4b5f414c52454144595f524547495354455245444c696242797465732372656164427974657336363a204f55545f4f465f424f554e44534d6f64756c6555706461746523757064617465496d706c656d656e746174696f6e3a20494e56414c49445f494d504c454d454e544154494f4e5369676e617475726556616c696461746f72237265636f7665725369676e65723a20554e535550504f525445445f5349474e41545552455f545950454c69624279746573237265616455696e743855696e74383a204f55545f4f465f424f554e44534c696242797465732372656164427974657333323a20475245415445525f4f525f455155414c5f544f5f33325f4c454e4754485f52455155495245444d6f64756c6553656c6641757468236f6e6c7953656c663a204e4f545f415554484f52495a4544a26469706673582212209141d91cbe4b78f84afbfe0f2382470e8a133c37686be70b18a42459f187354564736f6c63430007060033",
  "linkReferences": {},
  "deployedLinkReferences": {}
}