{
  "_format": "hh-sol-artifact-1",
  "contractName": "ReadGapNonceHook",
  "sourceName": "contracts/mocks/ReadGapNonceHook.sol",
  "abi": [
    {
      "anonymous": false,
      "inputs": [
        {
          "indexed": false,
          "internalType": "uint256",
          "name": "_space",
          "type": "uint256"
        },
        {
          "indexed": false,
          "internalType": "uint256",
          "name": "_oldNonce",
          "type": "uint256"
        },
        {
          "indexed": false,
          "internalType": "uint256",
          "name": "_newNonce",
          "type": "uint256"
        }
      ],
      "name": "GapNonceChange",
      "type": "event"
    },
    {
      "inputs": [
        {
          "internalType": "uint256",
          "name": "_space",
          "type": "uint256"
        }
      ],
      "name": "readGapNonce",
      "outputs": [
        {
          "internalType": "uint256",
          "name": "",
          "type": "uint256"
        }
      ],
      "stateMutability": "view",
      "type": "function"
    }
  ],
  "bytecode": "0x6080604052348015600f57600080fd5b5060f08061001e6000396000f3fe6080604052348015600f57600080fd5b506004361060285760003560e01c8063cc63f2e214602d575b600080fd5b604760048036036020811015604157600080fd5b50356059565b60408051918252519081900360200190f35b60006062826068565b92915050565b604080517f2a37c7c3c3449f4795b05559a0f92a1730815bf20be16b02bbd6dbb8ae8532fe6020808301919091528183018490528251808303840181526060909201909252805191012054600090606256fea264697066735822122006da06cc3b46b46b1da6c62a31a1a1a363de6dfd4921769fae48454830ba190864736f6c63430007060033",
  "linkReferences": {},
  "deployedLinkReferences": {}
}