{
  "_format": "hh-sol-artifact-1",
  "contractName": "MainModule",
  "sourceName": "contracts/modules/MainModule.sol",
  "abi": [
    {
      "inputs": [
        {
          "internalType": "address",
          "name": "_factory",
          "type": "address"
        }
      ],
      "stateMutability": "nonpayable",
      "type": "constructor"
    },
    {
      "anonymous": false,
      "inputs": [
        {
          "indexed": false,
          "internalType": "address",
          "name": "_contract",
          "type": "address"
        }
      ],
      "name": "CreatedContract",
      "type": "event"
    },
    {
      "anonymous": false,
      "inputs": [
        {
          "indexed": false,
          "internalType": "address",
          "name": "newImplementation",
          "type": "address"
        }
      ],
      "name": "ImplementationUpdated",
      "type": "event"
    },
    {
      "anonymous": false,
      "inputs": [
        {
          "indexed": false,
          "internalType": "uint256",
          "name": "_space",
          "type": "uint256"
        },
        {
          "indexed": false,
          "internalType": "uint256",
          "name": "_newNonce",
          "type": "uint256"
        }
      ],
      "name": "NonceChange",
      "type": "event"
    },
    {
      "anonymous": true,
      "inputs": [
        {
          "indexed": false,
          "internalType": "bytes32",
          "name": "_tx",
          "type": "bytes32"
        }
      ],
      "name": "TxExecuted",
      "type": "event"
    },
    {
      "anonymous": false,
      "inputs": [
        {
          "indexed": false,
          "internalType": "bytes32",
          "name": "_tx",
          "type": "bytes32"
        },
        {
          "indexed": false,
          "internalType": "bytes",
          "name": "_reason",
          "type": "bytes"
        }
      ],
      "name": "TxFailed",
      "type": "event"
    },
    {
      "stateMutability": "payable",
      "type": "fallback"
    },
    {
      "inputs": [],
      "name": "FACTORY",
      "outputs": [
        {
          "internalType": "address",
          "name": "",
          "type": "address"
        }
      ],
      "stateMutability": "view",
      "type": "function"
    },
    {
      "inputs": [],
      "name": "INIT_CODE_HASH",
      "outputs": [
        {
          "internalType": "bytes32",
          "name": "",
          "type": "bytes32"
        }
      ],
      "stateMutability": "view",
      "type": "function"
    },
    {
      "inputs": [
        {
          "internalType": "bytes4",
          "name": "_signature",
          "type": "bytes4"
        },
        {
          "internalType": "address",
          "name": "_implementation",
          "type": "address"
        }
      ],
      "name": "addHook",
      "outputs": [],
      "stateMutability": "nonpayable",
      "type": "function"
    },
    {
      "inputs": [
        {
          "internalType": "bytes",
          "name": "_code",
          "type": "bytes"
        }
      ],
      "name": "createContract",
      "outputs": [
        {
          "internalType": "address",
          "name": "addr",
          "type": "address"
        }
      ],
      "stateMutability": "payable",
      "type": "function"
    },
    {
      "inputs": [
        {
          "components": [
            {
              "internalType": "bool",
              "name": "delegateCall",
              "type": "bool"
            },
            {
              "internalType": "bool",
              "name": "revertOnError",
              "type": "bool"
            },
            {
              "internalType": "uint256",
              "name": "gasLimit",
              "type": "uint256"
            },
            {
              "internalType": "address",
              "name": "target",
              "type": "address"
            },
            {
              "internalType": "uint256",
              "name": "value",
              "type": "uint256"
            },
            {
              "internalType": "bytes",
              "name": "data",
              "type": "bytes"
            }
          ],
          "internalType": "struct IModuleCalls.Transaction[]",
          "name": "_txs",
          "type": "tuple[]"
        },
        {
          "internalType": "uint256",
          "name": "_nonce",
          "type": "uint256"
        },
        {
          "internalType": "bytes",
          "name": "_signature",
          "type": "bytes"
        }
      ],
      "name": "execute",
      "outputs": [],
      "stateMutability": "nonpayable",
      "type": "function"
    },
    {
      "inputs": [
        {
          "internalType": "bytes32",
          "name": "_hash",
          "type": "bytes32"
        },
        {
          "internalType": "bytes",
          "name": "_signatures",
          "type": "bytes"
        }
      ],
      "name": "isValidSignature",
      "outputs": [
        {
          "internalType": "bytes4",
          "name": "",
          "type": "bytes4"
        }
      ],
      "stateMutability": "view",
      "type": "function"
    },
    {
      "inputs": [
        {
          "internalType": "bytes",
          "name": "_data",
          "type": "bytes"
        },
        {
          "internalType": "bytes",
          "name": "_signatures",
          "type": "bytes"
        }
      ],
      "name": "isValidSignature",
      "outputs": [
        {
          "internalType": "bytes4",
          "name": "",
          "type": "bytes4"
        }
      ],
      "stateMutability": "view",
      "type": "function"
    },
    {
      "inputs": [],
      "name": "nonce",
      "outputs": [
        {
          "internalType": "uint256",
          "name": "",
          "type": "uint256"
        }
      ],
      "stateMutability": "view",
      "type": "function"
    },
    {
      "inputs": [
        {
          "internalType": "address",
          "name": "",
          "type": "address"
        },
        {
          "internalType": "address",
          "name": "",
          "type": "address"
        },
        {
          "internalType": "uint256[]",
          "name": "",
          "type": "uint256[]"
        },
        {
          "internalType": "uint256[]",
          "name": "",
          "type": "uint256[]"
        },
        {
          "internalType": "bytes",
          "name": "",
          "type": "bytes"
        }
      ],
      "name": "onERC1155BatchReceived",
      "outputs": [
        {
          "internalType": "bytes4",
          "name": "",
          "type": "bytes4"
        }
      ],
      "stateMutability": "nonpayable",
      "type": "function"
    },
    {
      "inputs": [
        {
          "internalType": "address",
          "name": "",
          "type": "address"
        },
        {
          "internalType": "address",
          "name": "",
          "type": "address"
        },
        {
          "internalType": "uint256",
          "name": "",
          "type": "uint256"
        },
        {
          "internalType": "uint256",
          "name": "",
          "type": "uint256"
        },
        {
          "internalType": "bytes",
          "name": "",
          "type": "bytes"
        }
      ],
      "name": "onERC1155Received",
      "outputs": [
        {
          "internalType": "bytes4",
          "name": "",
          "type": "bytes4"
        }
      ],
      "stateMutability": "nonpayable",
      "type": "function"
    },
    {
      "inputs": [
        {
          "internalType": "address",
          "name": "",
          "type": "address"
        },
        {
          "internalType": "address",
          "name": "",
          "type": "address"
        },
        {
          "internalType": "uint256",
          "name": "",
          "type": "uint256"
        },
        {
          "internalType": "bytes",
          "name": "",
          "type": "bytes"
        }
      ],
      "name": "onERC721Received",
      "outputs": [
        {
          "internalType": "bytes4",
          "name": "",
          "type": "bytes4"
        }
      ],
      "stateMutability": "nonpayable",
      "type": "function"
    },
    {
      "inputs": [
        {
          "internalType": "bytes4",
          "name": "_signature",
          "type": "bytes4"
        }
      ],
      "name": "readHook",
      "outputs": [
        {
          "internalType": "address",
          "name": "",
          "type": "address"
        }
      ],
      "stateMutability": "view",
      "type": "function"
    },
    {
      "inputs": [
        {
          "internalType": "uint256",
          "name": "_space",
          "type": "uint256"
        }
      ],
      "name": "readNonce",
      "outputs": [
        {
          "internalType": "uint256",
          "name": "",
          "type": "uint256"
        }
      ],
      "stateMutability": "view",
      "type": "function"
    },
    {
      "inputs": [
        {
          "internalType": "bytes4",
          "name": "_signature",
          "type": "bytes4"
        }
      ],
      "name": "removeHook",
      "outputs": [],
      "stateMutability": "nonpayable",
      "type": "function"
    },
    {
      "inputs": [
        {
          "components": [
            {
              "internalType": "bool",
              "name": "delegateCall",
              "type": "bool"
            },
            {
              "internalType": "bool",
              "name": "revertOnError",
              "type": "bool"
            },
            {
              "internalType": "uint256",
              "name": "gasLimit",
              "type": "uint256"
            },
            {
              "internalType": "address",
              "name": "target",
              "type": "address"
            },
            {
              "internalType": "uint256",
              "name": "value",
              "type": "uint256"
            },
            {
              "internalType": "bytes",
              "name": "data",
              "type": "bytes"
            }
          ],
          "internalType": "struct IModuleCalls.Transaction[]",
          "name": "_txs",
          "type": "tuple[]"
        }
      ],
      "name": "selfExecute",
      "outputs": [],
      "stateMutability": "nonpayable",
      "type": "function"
    },
    {
      "inputs": [
        {
          "internalType": "bytes4",
          "name": "_interfaceID",
          "type": "bytes4"
        }
      ],
      "name": "supportsInterface",
      "outputs": [
        {
          "internalType": "bool",
          "name": "",
          "type": "bool"
        }
      ],
      "stateMutability": "pure",
      "type": "function"
    },
    {
      "inputs": [
        {
          "internalType": "address",
          "name": "_implementation",
          "type": "address"
        }
      ],
      "name": "updateImplementation",
      "outputs": [],
      "stateMutability": "nonpayable",
      "type": "function"
    },
    {
      "stateMutability": "payable",
      "type": "receive"
    }
  ],
  "bytecode": "0x60c06040523480156200001157600080fd5b506040516200322938038062003229833981016040819052620000349162000094565b80600060405180606001604052806028815260200162003201602891396040516200006591903090602001620000c6565b60408051601f198184030181529190528051602090910120608052506001600160a01b031660a052506200010a565b600060208284031215620000a757600080fd5b81516001600160a01b0381168114620000bf57600080fd5b9392505050565b6000835160005b81811015620000e95760208187018101518583015201620000cd565b81811115620000f9576000828501525b509190910191825250602001919050565b60805160a0516130c36200013e60003960008181610391015261130c01526000818161034f015261133d01526130c36000f3fe6080604052600436106101125760003560e01c80634fcf3eca116100a557806390042baf11610074578063b93ea7ad11610059578063b93ea7ad1461045b578063bc197c811461047b578063f23a6e61146104c357610119565b806390042baf14610433578063affed0e01461044657610119565b80634fcf3eca146103b357806361c2926c146103d35780637a9a1628146103f35780638c3f55631461041357610119565b80631a9b2337116100e15780631a9b2337146102d857806320c13b0b1461031d578063257671f51461033d5780632dd310001461037f57610119565b806301ffc9a7146101ed578063025b22bc14610222578063150b7a02146102425780631626ba7e146102b857610119565b3661011957005b60006101486000357fffffffff0000000000000000000000000000000000000000000000000000000016610509565b905073ffffffffffffffffffffffffffffffffffffffff8116156101eb576000808273ffffffffffffffffffffffffffffffffffffffff1660003660405161019192919061269d565b600060405180830381855af49150503d80600081146101cc576040519150601f19603f3d011682016040523d82523d6000602084013e6101d1565b606091505b5091509150816101e357805160208201fd5b805160208201f35b005b3480156101f957600080fd5b5061020d6102083660046126db565b61055d565b60405190151581526020015b60405180910390f35b34801561022e57600080fd5b506101eb61023d366004612721565b610568565b34801561024e57600080fd5b5061028761025d36600461277e565b7f150b7a020000000000000000000000000000000000000000000000000000000095945050505050565b6040517fffffffff000000000000000000000000000000000000000000000000000000009091168152602001610219565b3480156102c457600080fd5b506102876102d33660046127ed565b6106f4565b3480156102e457600080fd5b506102f86102f33660046126db565b6107e5565b60405173ffffffffffffffffffffffffffffffffffffffff9091168152602001610219565b34801561032957600080fd5b50610287610338366004612839565b6107f0565b34801561034957600080fd5b506103717f000000000000000000000000000000000000000000000000000000000000000081565b604051908152602001610219565b34801561038b57600080fd5b506102f87f000000000000000000000000000000000000000000000000000000000000000081565b3480156103bf57600080fd5b506101eb6103ce3660046126db565b6108c0565b3480156103df57600080fd5b506101eb6103ee366004612b27565b610a72565b3480156103ff57600080fd5b506101eb61040e366004612b5c565b610bd6565b34801561041f57600080fd5b5061037161042e366004612bc9565b610c9f565b6102f8610441366004612be2565b610ccb565b34801561045257600080fd5b50610371610db5565b34801561046757600080fd5b506101eb610476366004612c17565b610dc6565b34801561048757600080fd5b50610287610496366004612c91565b7fbc197c810000000000000000000000000000000000000000000000000000000098975050505050505050565b3480156104cf57600080fd5b506102876104de366004612d4c565b7ff23a6e61000000000000000000000000000000000000000000000000000000009695505050505050565b60006105577fbe27a319efc8734e89e26ba4bc95f5c788584163b959f03fa04e2d7ab4b9a1207fffffffff000000000000000000000000000000000000000000000000000000008416610f8b565b92915050565b600061055782610fe9565b3330146105fc576040517f08c379a000000000000000000000000000000000000000000000000000000000815260206004820152602760248201527f4d6f64756c6553656c6641757468236f6e6c7953656c663a204e4f545f41555460448201527f484f52495a45440000000000000000000000000000000000000000000000000060648201526084015b60405180910390fd5b73ffffffffffffffffffffffffffffffffffffffff81163b6106a0576040517f08c379a000000000000000000000000000000000000000000000000000000000815260206004820152603960248201527f4d6f64756c6555706461746523757064617465496d706c656d656e746174696f60448201527f6e3a20494e56414c49445f494d504c454d454e544154494f4e0000000000000060648201526084016105f3565b6106a8813055565b60405173ffffffffffffffffffffffffffffffffffffffff821681527f310ba5f1d2ed074b51e2eccd052a47ae9ab7c6b800d1fca3db3999d6a592ca039060200160405180910390a150565b604080517f19010000000000000000000000000000000000000000000000000000000000006020808301919091524660228301523060601b7fffffffffffffffffffffffffffffffffffffffff000000000000000000000000166042830152605680830187905283518084039091018152607690920190925280519101206000906107b6905b84848080601f01602080910402602001604051908101604052809392919081815260200183838082843760009201919091525061104592505050565b156107de57507f1626ba7e000000000000000000000000000000000000000000000000000000005b9392505050565b600061055782610509565b600061089061077a868660405161080892919061269d565b604080519182900382207f19010000000000000000000000000000000000000000000000000000000000006020808501919091524660228501523060601b7fffffffffffffffffffffffffffffffffffffffff000000000000000000000000166042850152605680850192909252825180850390920182526076909301909152805191012090565b156108b857507f20c13b0b000000000000000000000000000000000000000000000000000000005b949350505050565b33301461094f576040517f08c379a000000000000000000000000000000000000000000000000000000000815260206004820152602760248201527f4d6f64756c6553656c6641757468236f6e6c7953656c663a204e4f545f41555460448201527f484f52495a45440000000000000000000000000000000000000000000000000060648201526084016105f3565b600061095a82610509565b73ffffffffffffffffffffffffffffffffffffffff16036109fd576040517f08c379a000000000000000000000000000000000000000000000000000000000815260206004820152602b60248201527f4d6f64756c65486f6f6b732372656d6f7665486f6f6b3a20484f4f4b5f4e4f5460448201527f5f5245474953544552454400000000000000000000000000000000000000000060648201526084016105f3565b604080517fbe27a319efc8734e89e26ba4bc95f5c788584163b959f03fa04e2d7ab4b9a1206020808301919091527fffffffff00000000000000000000000000000000000000000000000000000000841682840152825180830384018152606090920190925280519101206000905550565b50565b333014610b01576040517f08c379a000000000000000000000000000000000000000000000000000000000815260206004820152602760248201527f4d6f64756c6553656c6641757468236f6e6c7953656c663a204e4f545f41555460448201527f484f52495a45440000000000000000000000000000000000000000000000000060648201526084016105f3565b6000610bc682604051602001610b179190612ee7565b604080517fffffffffffffffffffffffffffffffffffffffffffffffffffffffffffffffe081840301815282825280516020918201207f1901000000000000000000000000000000000000000000000000000000000000848301524660228501523060601b7fffffffffffffffffffffffffffffffffffffffff000000000000000000000000166042850152605680850191909152825180850390910181526076909301909152815191012090565b9050610bd281836113c7565b5050565b610bdf826115f7565b6000610bf78385604051602001610b17929190612f2e565b9050610c038183611045565b610c8f576040517f08c379a000000000000000000000000000000000000000000000000000000000815260206004820152602660248201527f4d6f64756c6543616c6c7323657865637574653a20494e56414c49445f53494760448201527f4e4154555245000000000000000000000000000000000000000000000000000060648201526084016105f3565b610c9981856113c7565b50505050565b60006105577f8d0bf1fd623d628c741362c1289948e57b3e2905218c676d3e69abee36d6ae2e83610f8b565b6000333014610d5c576040517f08c379a000000000000000000000000000000000000000000000000000000000815260206004820152602760248201527f4d6f64756c6553656c6641757468236f6e6c7953656c663a204e4f545f41555460448201527f484f52495a45440000000000000000000000000000000000000000000000000060648201526084016105f3565b81516020830134f060405173ffffffffffffffffffffffffffffffffffffffff821681529091507fa506ad4e7f05eceba62a023c3219e5bd98a615f4fa87e2afb08a2da5cf62bf0c9060200160405180910390a1919050565b6000610dc16000610c9f565b905090565b333014610e55576040517f08c379a000000000000000000000000000000000000000000000000000000000815260206004820152602760248201527f4d6f64756c6553656c6641757468236f6e6c7953656c663a204e4f545f41555460448201527f484f52495a45440000000000000000000000000000000000000000000000000060648201526084016105f3565b6000610e6083610509565b73ffffffffffffffffffffffffffffffffffffffff1614610f03576040517f08c379a000000000000000000000000000000000000000000000000000000000815260206004820152602c60248201527f4d6f64756c65486f6f6b7323616464486f6f6b3a20484f4f4b5f414c5245414460448201527f595f52454749535445524544000000000000000000000000000000000000000060648201526084016105f3565b604080517fbe27a319efc8734e89e26ba4bc95f5c788584163b959f03fa04e2d7ab4b9a1206020808301919091527fffffffff000000000000000000000000000000000000000000000000000000008516828401528251808303840181526060909201909252805191012073ffffffffffffffffffffffffffffffffffffffff821690555050565b6000808383604051602001610faa929190918252602082015260400190565b604080517fffffffffffffffffffffffffffffffffffffffffffffffffffffffffffffffe0818403018152919052805160209091012054949350505050565b60007f6ffbd451000000000000000000000000000000000000000000000000000000007fffffffff0000000000000000000000000000000000000000000000000000000083160161103c57506001919050565b61055782611719565b60008060006110538461185a565b909250905061ffff821660005b85518310156112ad576000808061107789876118ff565b975060ff91821694501691507fffffffffffffffffffffffffffffffffffffffffffffffffffffffffffffffff83016110bd576110b489876119bd565b9650905061125d565b826110f05760606110ce8a88611a72565b975090506110dc8b82611b60565b91506110e88386612f76565b94505061125d565b600283036111d55761110289876119bd565b9650905060006111128a88611ff7565b975061ffff16905060606111278b89846120a5565b985090506111368c84836121d2565b6111c2576040517f08c379a000000000000000000000000000000000000000000000000000000000815260206004820152603260248201527f4d6f64756c6541757468235f7369676e617475726556616c69646174696f6e3a60448201527f20494e56414c49445f5349474e4154555245000000000000000000000000000060648201526084016105f3565b6111cc8487612f76565b9550505061125d565b6040517f08c379a000000000000000000000000000000000000000000000000000000000815260206004820152602c60248201527f4d6f64756c6541757468235f7369676e617475726556616c69646174696f6e2060448201527f494e56414c49445f464c4147000000000000000000000000000000000000000060648201526084016105f3565b604080516020810187905290810183905273ffffffffffffffffffffffffffffffffffffffff82166060820152608001604051602081830303815290604052805190602001209450505050611060565b8361ffff1681101580156113bc57506113bc826040517fff0000000000000000000000000000000000000000000000000000000000000060208201527fffffffffffffffffffffffffffffffffffffffff0000000000000000000000007f000000000000000000000000000000000000000000000000000000000000000060601b166021820152603581018290527f000000000000000000000000000000000000000000000000000000000000000060558201526000903090607501604080517fffffffffffffffffffffffffffffffffffffffffffffffffffffffffffffffe0818403018152919052805160209091012073ffffffffffffffffffffffffffffffffffffffff161492915050565b979650505050505050565b60005b81518110156115f25760008282815181106113e7576113e7612f8e565b602002602001015190506000606082604001515a1015611488576040517f08c379a0000000000000000000000000000000000000000000000000000000008152602060048201526024808201527f4d6f64756c6543616c6c73235f657865637574653a204e4f545f454e4f55474860448201527f5f4741530000000000000000000000000000000000000000000000000000000060648201526084016105f3565b82511561152057826060015173ffffffffffffffffffffffffffffffffffffffff1683604001516000146114c05783604001516114c2565b5a5b8460a001516040516114d49190612fbd565b6000604051808303818686f4925050503d8060008114611510576040519150601f19603f3d011682016040523d82523d6000602084013e611515565b606091505b5090925090506115b5565b826060015173ffffffffffffffffffffffffffffffffffffffff1683608001518460400151600014611556578460400151611558565b5a5b908560a0015160405161156b9190612fbd565b600060405180830381858888f193505050503d80600081146115a9576040519150601f19603f3d011682016040523d82523d6000602084013e6115ae565b606091505b5090925090505b81156115d15760405186815260200160405180910390a06115dc565b6115dc8387836123f3565b50505080806115ea90612fd9565b9150506113ca565b505050565b60008061160383612443565b91509150600061161283610c9f565b905080821461167d576040517f08c379a000000000000000000000000000000000000000000000000000000000815260206004820152601f60248201527f4d61696e4d6f64756c65235f617574683a20494e56414c49445f4e4f4e43450060448201526064016105f3565b600061168a836001612f76565b604080517f8d0bf1fd623d628c741362c1289948e57b3e2905218c676d3e69abee36d6ae2e60208083019190915281830188905282518083038401815260609092019092528051910120819055905060408051858152602081018390527f1f180c27086c7a39ea2a7b25239d1ab92348f07ca7bb59d1438fcf527568f881910160405180910390a15050505050565b60007fffffffff0000000000000000000000000000000000000000000000000000000082167fec6aba500000000000000000000000000000000000000000000000000000000014806117ac57507fffffffff0000000000000000000000000000000000000000000000000000000082167f4e2312e000000000000000000000000000000000000000000000000000000000145b806117f857507fffffffff0000000000000000000000000000000000000000000000000000000082167f150b7a0200000000000000000000000000000000000000000000000000000000145b8061184457507fffffffff0000000000000000000000000000000000000000000000000000000082167fc0ee0b8a00000000000000000000000000000000000000000000000000000000145b1561185157506001919050565b6105578261246c565b6020810151815160f09190911c906002908111156118fa576040517f08c379a000000000000000000000000000000000000000000000000000000000815260206004820152602760248201527f4c696242797465732372656164466972737455696e7431363a204f55545f4f4660448201527f5f424f554e44530000000000000000000000000000000000000000000000000060648201526084016105f3565b915091565b8082016020015160f881901c9060f01c60ff166002830183811161192557611925613011565b84518111156119b6576040517f08c379a000000000000000000000000000000000000000000000000000000000815260206004820152602660248201527f4c69624279746573237265616455696e743855696e74383a204f55545f4f465f60448201527f424f554e4453000000000000000000000000000000000000000000000000000060648201526084016105f3565b9250925092565b8082016020015160601c601482018281116119da576119da613011565b8351811115611a6b576040517f08c379a000000000000000000000000000000000000000000000000000000000815260206004820152602360248201527f4c696242797465732372656164416464726573733a204f55545f4f465f424f5560448201527f4e4453000000000000000000000000000000000000000000000000000000000060648201526084016105f3565b9250929050565b604080516042808252608082019092526060916000919060208201818036833701905050915082840160200180516020840152602081015160408401526022810151604284015250604283019050828111611acf57611acf613011565b8351811115611a6b576040517f08c379a000000000000000000000000000000000000000000000000000000000815260206004820152602360248201527f4c696242797465732372656164427974657336363a204f55545f4f465f424f5560448201527f4e4453000000000000000000000000000000000000000000000000000000000060648201526084016105f3565b60008151604214611bf3576040517f08c379a000000000000000000000000000000000000000000000000000000000815260206004820152603a60248201527f5369676e617475726556616c696461746f72237265636f7665725369676e657260448201527f3a20696e76616c6964207369676e6174757265206c656e67746800000000000060648201526084016105f3565b60008260018451611c049190613040565b81518110611c1457611c14612f8e565b602001015160f81c60f81b60f81c60ff169050600083604081518110611c3c57611c3c612f8e565b016020015160f81c90506000611c5285826124c8565b90506000611c618660206124c8565b90507f7fffffffffffffffffffffffffffffff5d576e7357a4501ddfe92f46681b20a0811115611d13576040517f08c379a000000000000000000000000000000000000000000000000000000000815260206004820152603d60248201527f5369676e617475726556616c696461746f72237265636f7665725369676e657260448201527f3a20696e76616c6964207369676e6174757265202773272076616c756500000060648201526084016105f3565b8260ff16601b14158015611d2b57508260ff16601c14155b15611db8576040517f08c379a000000000000000000000000000000000000000000000000000000000815260206004820152603d60248201527f5369676e617475726556616c696461746f72237265636f7665725369676e657260448201527f3a20696e76616c6964207369676e6174757265202776272076616c756500000060648201526084016105f3565b60018403611e255760408051600081526020810180835289905260ff851691810191909152606081018390526080810182905260019060a0015b6020604051602081039080840390855afa158015611e14573d6000803e3d6000fd5b505050602060405103519450611f4a565b60028403611ec2576040517f19457468657265756d205369676e6564204d6573736167653a0a3332000000006020820152603c8101889052600190605c01604080517fffffffffffffffffffffffffffffffffffffffffffffffffffffffffffffffe08184030181528282528051602091820120600084529083018083525260ff861690820152606081018490526080810183905260a001611df2565b6040517f08c379a000000000000000000000000000000000000000000000000000000000815260206004820152603c60248201527f5369676e617475726556616c696461746f72237265636f7665725369676e657260448201527f3a20554e535550504f525445445f5349474e41545552455f545950450000000060648201526084016105f3565b73ffffffffffffffffffffffffffffffffffffffff8516611fed576040517f08c379a000000000000000000000000000000000000000000000000000000000815260206004820152603060248201527f5369676e617475726556616c696461746f72237265636f7665725369676e657260448201527f3a20494e56414c49445f5349474e45520000000000000000000000000000000060648201526084016105f3565b5050505092915050565b8082016020015160f01c6002820182811161201457612014613011565b8351811115611a6b576040517f08c379a000000000000000000000000000000000000000000000000000000000815260206004820152602260248201527f4c69624279746573237265616455696e7431363a204f55545f4f465f424f554e60448201527f445300000000000000000000000000000000000000000000000000000000000060648201526084016105f3565b606060008267ffffffffffffffff8111156120c2576120c26128a5565b6040519080825280601f01601f1916602001820160405280156120ec576020820181803683370190505b509150838501602001600060205b85811015612113579082015184820152602081016120fa565b848601602001805193909201519085015252508282018381101561213957612139613011565b84518111156121ca576040517f08c379a000000000000000000000000000000000000000000000000000000000815260206004820152602160248201527f4c69624279746573237265616442797465733a204f55545f4f465f424f554e4460448201527f530000000000000000000000000000000000000000000000000000000000000060648201526084016105f3565b935093915050565b60008082600184516121e49190613040565b815181106121f4576121f4612f8e565b016020015160f81c9050600181148061220d5750600281145b15612251578373ffffffffffffffffffffffffffffffffffffffff166122338685611b60565b73ffffffffffffffffffffffffffffffffffffffff161491506123eb565b600381036123635782517fffffffffffffffffffffffffffffffffffffffffffffffffffffffffffffffff810184526040517f1626ba7e00000000000000000000000000000000000000000000000000000000815273ffffffffffffffffffffffffffffffffffffffff861690631626ba7e906122d49089908890600401613057565b602060405180830381865afa1580156122f1573d6000803e3d6000fd5b505050506040513d601f19601f820116820180604052508101906123159190613070565b9084527fffffffff00000000000000000000000000000000000000000000000000000000167f1626ba7e000000000000000000000000000000000000000000000000000000001491506123eb565b6040517f08c379a000000000000000000000000000000000000000000000000000000000815260206004820152603f60248201527f5369676e617475726556616c696461746f7223697356616c69645369676e617460448201527f7572653a20554e535550504f525445445f5349474e41545552455f545950450060648201526084016105f3565b509392505050565b82602001511561240557805160208201fd5b7f3dbd1590ea96dd3253a91f24e64e3a502e1225d602a5731357bc12643070ccd78282604051612436929190613057565b60405180910390a1505050565b60008061245e60016c01000000000000000000000000613040565b606084901c94931692915050565b60007ffda4dd44000000000000000000000000000000000000000000000000000000007fffffffff000000000000000000000000000000000000000000000000000000008316016124bf57506001919050565b6105578261257d565b60006124d5826020612f76565b83511015612565576040517f08c379a000000000000000000000000000000000000000000000000000000000815260206004820152603c60248201527f4c696242797465732372656164427974657333323a20475245415445525f4f5260448201527f5f455155414c5f544f5f33325f4c454e4754485f52455155495245440000000060648201526084016105f3565b6000612572836020612f76565b909301519392505050565b60007fc766fe39000000000000000000000000000000000000000000000000000000007fffffffff000000000000000000000000000000000000000000000000000000008316016125d057506001919050565b6105578260007fffffffff000000000000000000000000000000000000000000000000000000008216158061264657507fffffffff0000000000000000000000000000000000000000000000000000000082167f36e7817500000000000000000000000000000000000000000000000000000000145b1561265357506001919050565b7f01ffc9a7000000000000000000000000000000000000000000000000000000007fffffffff00000000000000000000000000000000000000000000000000000000831614610557565b8183823760009101908152919050565b7fffffffff0000000000000000000000000000000000000000000000000000000081168114610a6f57600080fd5b6000602082840312156126ed57600080fd5b81356107de816126ad565b803573ffffffffffffffffffffffffffffffffffffffff8116811461271c57600080fd5b919050565b60006020828403121561273357600080fd5b6107de826126f8565b60008083601f84011261274e57600080fd5b50813567ffffffffffffffff81111561276657600080fd5b602083019150836020828501011115611a6b57600080fd5b60008060008060006080868803121561279657600080fd5b61279f866126f8565b94506127ad602087016126f8565b935060408601359250606086013567ffffffffffffffff8111156127d057600080fd5b6127dc8882890161273c565b969995985093965092949392505050565b60008060006040848603121561280257600080fd5b83359250602084013567ffffffffffffffff81111561282057600080fd5b61282c8682870161273c565b9497909650939450505050565b6000806000806040858703121561284f57600080fd5b843567ffffffffffffffff8082111561286757600080fd5b6128738883890161273c565b9096509450602087013591508082111561288c57600080fd5b506128998782880161273c565b95989497509550505050565b7f4e487b7100000000000000000000000000000000000000000000000000000000600052604160045260246000fd5b60405160c0810167ffffffffffffffff811182821017156128f7576128f76128a5565b60405290565b604051601f82017fffffffffffffffffffffffffffffffffffffffffffffffffffffffffffffffe016810167ffffffffffffffff81118282101715612944576129446128a5565b604052919050565b8035801515811461271c57600080fd5b600082601f83011261296d57600080fd5b813567ffffffffffffffff811115612987576129876128a5565b6129b860207fffffffffffffffffffffffffffffffffffffffffffffffffffffffffffffffe0601f840116016128fd565b8181528460208386010111156129cd57600080fd5b816020850160208301376000918101602001919091529392505050565b600082601f8301126129fb57600080fd5b8135602067ffffffffffffffff80831115612a1857612a186128a5565b8260051b612a278382016128fd565b9384528581018301938381019088861115612a4157600080fd5b84880192505b85831015612b1b57823584811115612a5f5760008081fd5b880160c0818b037fffffffffffffffffffffffffffffffffffffffffffffffffffffffffffffffe001811315612a955760008081fd5b612a9d6128d4565b612aa888840161294c565b81526040612ab781850161294c565b898301526060808501358284015260809150612ad48286016126f8565b9083015260a08481013582840152928401359288841115612af757600091508182fd5b612b058e8b8688010161295c565b9083015250845250509184019190840190612a47565b98975050505050505050565b600060208284031215612b3957600080fd5b813567ffffffffffffffff811115612b5057600080fd5b6108b8848285016129ea565b600080600060608486031215612b7157600080fd5b833567ffffffffffffffff80821115612b8957600080fd5b612b95878388016129ea565b9450602086013593506040860135915080821115612bb257600080fd5b50612bbf8682870161295c565b9150509250925092565b600060208284031215612bdb57600080fd5b5035919050565b600060208284031215612bf457600080fd5b813567ffffffffffffffff811115612c0b57600080fd5b6108b88482850161295c565b60008060408385031215612c2a57600080fd5b8235612c35816126ad565b9150612c43602084016126f8565b90509250929050565b60008083601f840112612c5e57600080fd5b50813567ffffffffffffffff811115612c7657600080fd5b6020830191508360208260051b8501011115611a6b57600080fd5b60008060008060008060008060a0898b031215612cad57600080fd5b612cb6896126f8565b9750612cc460208a016126f8565b9650604089013567ffffffffffffffff80821115612ce157600080fd5b612ced8c838d01612c4c565b909850965060608b0135915080821115612d0657600080fd5b612d128c838d01612c4c565b909650945060808b0135915080821115612d2b57600080fd5b50612d388b828c0161273c565b999c989b5096995094979396929594505050565b60008060008060008060a08789031215612d6557600080fd5b612d6e876126f8565b9550612d7c602088016126f8565b94506040870135935060608701359250608087013567ffffffffffffffff811115612da657600080fd5b612db289828a0161273c565b979a9699509497509295939492505050565b60005b83811015612ddf578181015183820152602001612dc7565b83811115610c995750506000910152565b60008151808452612e08816020860160208601612dc4565b601f017fffffffffffffffffffffffffffffffffffffffffffffffffffffffffffffffe0169290920160200192915050565b600081518084526020808501808196508360051b8101915082860160005b85811015612eda5782840389528151805115158552858101511515868601526040808201519086015260608082015173ffffffffffffffffffffffffffffffffffffffff16908601526080808201519086015260a09081015160c091860182905290612ec681870183612df0565b9a87019a9550505090840190600101612e58565b5091979650505050505050565b60408152600560408201527f73656c663a00000000000000000000000000000000000000000000000000000060608201526080602082015260006107de6080830184612e3a565b8281526040602082015260006108b86040830184612e3a565b7f4e487b7100000000000000000000000000000000000000000000000000000000600052601160045260246000fd5b60008219821115612f8957612f89612f47565b500190565b7f4e487b7100000000000000000000000000000000000000000000000000000000600052603260045260246000fd5b60008251612fcf818460208701612dc4565b9190910192915050565b60007fffffffffffffffffffffffffffffffffffffffffffffffffffffffffffffffff820361300a5761300a612f47565b5060010190565b7f4e487b7100000000000000000000000000000000000000000000000000000000600052600160045260246000fd5b60008282101561305257613052612f47565b500390565b8281526040602082015260006108b86040830184612df0565b60006020828403121561308257600080fd5b81516107de816126ad56fea2646970667358221220b0cc6e79546001da296f138ec893d987e6400441236e67385193ea2a7a0d961d64736f6c634300080e0033603a600e3d39601a805130553df3363d3d373d3d3d363d30545af43d82803e903d91601857fd5bf3",
  "linkReferences": {},
  "deployedLinkReferences": {}
}