{
  "_format": "hh-sol-artifact-1",
  "contractName": "MainModule",
  "sourceName": "contracts/modules/MainModule.sol",
  "abi": [
    {
      "inputs": [
        {
          "internalType": "address",
          "name": "_factory",
          "type": "address"
        }
      ],
      "stateMutability": "nonpayable",
      "type": "constructor"
    },
    {
      "inputs": [
        {
          "internalType": "uint256",
          "name": "_space",
          "type": "uint256"
        },
        {
          "internalType": "uint256",
          "name": "_provided",
          "type": "uint256"
        },
        {
          "internalType": "uint256",
          "name": "_current",
          "type": "uint256"
        }
      ],
      "name": "BadGapNonce",
      "type": "error"
    },
    {
      "inputs": [
        {
          "internalType": "uint256",
          "name": "_space",
          "type": "uint256"
        },
        {
          "internalType": "uint256",
          "name": "_provided",
          "type": "uint256"
        },
        {
          "internalType": "uint256",
          "name": "_current",
          "type": "uint256"
        }
      ],
      "name": "BadNonce",
      "type": "error"
    },
    {
      "inputs": [
        {
          "internalType": "uint256",
          "name": "_space",
          "type": "uint256"
        },
        {
          "internalType": "uint256",
          "name": "_nonce",
          "type": "uint256"
        }
      ],
      "name": "ExpectedEmptyNonce",
      "type": "error"
    },
    {
      "inputs": [
        {
          "internalType": "bytes4",
          "name": "_signature",
          "type": "bytes4"
        }
      ],
      "name": "HookAlreadyExists",
      "type": "error"
    },
    {
      "inputs": [
        {
          "internalType": "bytes4",
          "name": "_signature",
          "type": "bytes4"
        }
      ],
      "name": "HookDoesNotExist",
      "type": "error"
    },
    {
      "inputs": [
        {
          "internalType": "address",
          "name": "_implementation",
          "type": "address"
        }
      ],
      "name": "InvalidImplementation",
      "type": "error"
    },
    {
      "inputs": [
        {
          "internalType": "bytes32",
          "name": "_hash",
          "type": "bytes32"
        },
        {
          "internalType": "address",
          "name": "_addr",
          "type": "address"
        },
        {
          "internalType": "bytes",
          "name": "_signature",
          "type": "bytes"
        }
      ],
      "name": "InvalidNestedSignature",
      "type": "error"
    },
    {
      "inputs": [
        {
          "internalType": "uint256",
          "name": "_type",
          "type": "uint256"
        }
      ],
      "name": "InvalidNonceType",
      "type": "error"
    },
    {
      "inputs": [
        {
          "internalType": "bytes",
          "name": "_signature",
          "type": "bytes"
        },
        {
          "internalType": "bytes32",
          "name": "_s",
          "type": "bytes32"
        }
      ],
      "name": "InvalidSValue",
      "type": "error"
    },
    {
      "inputs": [
        {
          "internalType": "bytes32",
          "name": "_hash",
          "type": "bytes32"
        },
        {
          "internalType": "bytes",
          "name": "_signature",
          "type": "bytes"
        }
      ],
      "name": "InvalidSignature",
      "type": "error"
    },
    {
      "inputs": [
        {
          "internalType": "uint256",
          "name": "_flag",
          "type": "uint256"
        }
      ],
      "name": "InvalidSignatureFlag",
      "type": "error"
    },
    {
      "inputs": [
        {
          "internalType": "bytes",
          "name": "_signature",
          "type": "bytes"
        }
      ],
      "name": "InvalidSignatureLength",
      "type": "error"
    },
    {
      "inputs": [
        {
          "internalType": "bytes",
          "name": "_signature",
          "type": "bytes"
        },
        {
          "internalType": "uint256",
          "name": "_v",
          "type": "uint256"
        }
      ],
      "name": "InvalidVValue",
      "type": "error"
    },
    {
      "inputs": [
        {
          "internalType": "uint256",
          "name": "_requested",
          "type": "uint256"
        },
        {
          "internalType": "uint256",
          "name": "_available",
          "type": "uint256"
        }
      ],
      "name": "NotEnoughGas",
      "type": "error"
    },
    {
      "inputs": [
        {
          "internalType": "address",
          "name": "_sender",
          "type": "address"
        },
        {
          "internalType": "address",
          "name": "_self",
          "type": "address"
        }
      ],
      "name": "OnlySelfAuth",
      "type": "error"
    },
    {
      "inputs": [
        {
          "internalType": "bytes",
          "name": "_data",
          "type": "bytes"
        },
        {
          "internalType": "uint256",
          "name": "_index",
          "type": "uint256"
        }
      ],
      "name": "ReadAddressOutOfBounds",
      "type": "error"
    },
    {
      "inputs": [
        {
          "internalType": "bytes",
          "name": "_data",
          "type": "bytes"
        },
        {
          "internalType": "uint256",
          "name": "_index",
          "type": "uint256"
        }
      ],
      "name": "ReadBytes32OutOfBounds",
      "type": "error"
    },
    {
      "inputs": [
        {
          "internalType": "bytes",
          "name": "_data",
          "type": "bytes"
        },
        {
          "internalType": "uint256",
          "name": "_index",
          "type": "uint256"
        }
      ],
      "name": "ReadBytes66OutOfBounds",
      "type": "error"
    },
    {
      "inputs": [
        {
          "internalType": "bytes",
          "name": "_datam",
          "type": "bytes"
        },
        {
          "internalType": "uint256",
          "name": "_index",
          "type": "uint256"
        },
        {
          "internalType": "uint256",
          "name": "_length",
          "type": "uint256"
        }
      ],
      "name": "ReadBytesOutOfBounds",
      "type": "error"
    },
    {
      "inputs": [
        {
          "internalType": "bytes",
          "name": "_data",
          "type": "bytes"
        }
      ],
      "name": "ReadFirstUint16OutOfBounds",
      "type": "error"
    },
    {
      "inputs": [
        {
          "internalType": "bytes",
          "name": "_data",
          "type": "bytes"
        },
        {
          "internalType": "uint256",
          "name": "_index",
          "type": "uint256"
        }
      ],
      "name": "ReadUint16OutOfBounds",
      "type": "error"
    },
    {
      "inputs": [
        {
          "internalType": "bytes",
          "name": "_data",
          "type": "bytes"
        },
        {
          "internalType": "uint256",
          "name": "_index",
          "type": "uint256"
        }
      ],
      "name": "ReadUint8Uint8OutOfBounds",
      "type": "error"
    },
    {
      "inputs": [
        {
          "internalType": "bytes",
          "name": "_signature",
          "type": "bytes"
        }
      ],
      "name": "SignerIsAddress0",
      "type": "error"
    },
    {
      "inputs": [
        {
          "internalType": "bytes",
          "name": "_signature",
          "type": "bytes"
        },
        {
          "internalType": "uint256",
          "name": "_type",
          "type": "uint256"
        },
        {
          "internalType": "bool",
          "name": "_recoverMode",
          "type": "bool"
        }
      ],
      "name": "UnsupportedSignatureType",
      "type": "error"
    },
    {
      "anonymous": false,
      "inputs": [
        {
          "indexed": false,
          "internalType": "address",
          "name": "_contract",
          "type": "address"
        }
      ],
      "name": "CreatedContract",
      "type": "event"
    },
    {
      "anonymous": false,
      "inputs": [
        {
          "indexed": false,
          "internalType": "uint256",
          "name": "_space",
          "type": "uint256"
        },
        {
          "indexed": false,
          "internalType": "uint256",
          "name": "_oldNonce",
          "type": "uint256"
        },
        {
          "indexed": false,
          "internalType": "uint256",
          "name": "_newNonce",
          "type": "uint256"
        }
      ],
      "name": "GapNonceChange",
      "type": "event"
    },
    {
      "anonymous": false,
      "inputs": [
        {
          "indexed": false,
          "internalType": "address",
          "name": "newImplementation",
          "type": "address"
        }
      ],
      "name": "ImplementationUpdated",
      "type": "event"
    },
    {
      "anonymous": false,
      "inputs": [],
      "name": "NoNonceUsed",
      "type": "event"
    },
    {
      "anonymous": false,
      "inputs": [
        {
          "indexed": false,
          "internalType": "uint256",
          "name": "_space",
          "type": "uint256"
        },
        {
          "indexed": false,
          "internalType": "uint256",
          "name": "_newNonce",
          "type": "uint256"
        }
      ],
      "name": "NonceChange",
      "type": "event"
    },
    {
      "anonymous": true,
      "inputs": [
        {
          "indexed": false,
          "internalType": "bytes32",
          "name": "_tx",
          "type": "bytes32"
        }
      ],
      "name": "TxExecuted",
      "type": "event"
    },
    {
      "anonymous": false,
      "inputs": [
        {
          "indexed": false,
          "internalType": "bytes32",
          "name": "_tx",
          "type": "bytes32"
        },
        {
          "indexed": false,
          "internalType": "bytes",
          "name": "_reason",
          "type": "bytes"
        }
      ],
      "name": "TxFailed",
      "type": "event"
    },
    {
      "stateMutability": "payable",
      "type": "fallback"
    },
    {
      "inputs": [],
      "name": "FACTORY",
      "outputs": [
        {
          "internalType": "address",
          "name": "",
          "type": "address"
        }
      ],
      "stateMutability": "view",
      "type": "function"
    },
    {
      "inputs": [],
      "name": "INIT_CODE_HASH",
      "outputs": [
        {
          "internalType": "bytes32",
          "name": "",
          "type": "bytes32"
        }
      ],
      "stateMutability": "view",
      "type": "function"
    },
    {
      "inputs": [
        {
          "internalType": "bytes4",
          "name": "_signature",
          "type": "bytes4"
        },
        {
          "internalType": "address",
          "name": "_implementation",
          "type": "address"
        }
      ],
      "name": "addHook",
      "outputs": [],
      "stateMutability": "nonpayable",
      "type": "function"
    },
    {
      "inputs": [
        {
          "internalType": "bytes",
          "name": "_code",
          "type": "bytes"
        }
      ],
      "name": "createContract",
      "outputs": [
        {
          "internalType": "address",
          "name": "addr",
          "type": "address"
        }
      ],
      "stateMutability": "payable",
      "type": "function"
    },
    {
      "inputs": [
        {
          "components": [
            {
              "internalType": "bool",
              "name": "delegateCall",
              "type": "bool"
            },
            {
              "internalType": "bool",
              "name": "revertOnError",
              "type": "bool"
            },
            {
              "internalType": "uint256",
              "name": "gasLimit",
              "type": "uint256"
            },
            {
              "internalType": "address",
              "name": "target",
              "type": "address"
            },
            {
              "internalType": "uint256",
              "name": "value",
              "type": "uint256"
            },
            {
              "internalType": "bytes",
              "name": "data",
              "type": "bytes"
            }
          ],
          "internalType": "struct IModuleCalls.Transaction[]",
          "name": "_txs",
          "type": "tuple[]"
        },
        {
          "internalType": "uint256",
          "name": "_nonce",
          "type": "uint256"
        },
        {
          "internalType": "bytes",
          "name": "_signature",
          "type": "bytes"
        }
      ],
      "name": "execute",
      "outputs": [],
      "stateMutability": "nonpayable",
      "type": "function"
    },
    {
      "inputs": [
        {
          "internalType": "bytes32",
          "name": "_hash",
          "type": "bytes32"
        },
        {
          "internalType": "bytes",
          "name": "_signatures",
          "type": "bytes"
        }
      ],
      "name": "isValidSignature",
      "outputs": [
        {
          "internalType": "bytes4",
          "name": "",
          "type": "bytes4"
        }
      ],
      "stateMutability": "view",
      "type": "function"
    },
    {
      "inputs": [
        {
          "internalType": "bytes",
          "name": "_data",
          "type": "bytes"
        },
        {
          "internalType": "bytes",
          "name": "_signatures",
          "type": "bytes"
        }
      ],
      "name": "isValidSignature",
      "outputs": [
        {
          "internalType": "bytes4",
          "name": "",
          "type": "bytes4"
        }
      ],
      "stateMutability": "view",
      "type": "function"
    },
    {
      "inputs": [],
      "name": "nonce",
      "outputs": [
        {
          "internalType": "uint256",
          "name": "",
          "type": "uint256"
        }
      ],
      "stateMutability": "view",
      "type": "function"
    },
    {
      "inputs": [
        {
          "internalType": "address",
          "name": "",
          "type": "address"
        },
        {
          "internalType": "address",
          "name": "",
          "type": "address"
        },
        {
          "internalType": "uint256[]",
          "name": "",
          "type": "uint256[]"
        },
        {
          "internalType": "uint256[]",
          "name": "",
          "type": "uint256[]"
        },
        {
          "internalType": "bytes",
          "name": "",
          "type": "bytes"
        }
      ],
      "name": "onERC1155BatchReceived",
      "outputs": [
        {
          "internalType": "bytes4",
          "name": "",
          "type": "bytes4"
        }
      ],
      "stateMutability": "nonpayable",
      "type": "function"
    },
    {
      "inputs": [
        {
          "internalType": "address",
          "name": "",
          "type": "address"
        },
        {
          "internalType": "address",
          "name": "",
          "type": "address"
        },
        {
          "internalType": "uint256",
          "name": "",
          "type": "uint256"
        },
        {
          "internalType": "uint256",
          "name": "",
          "type": "uint256"
        },
        {
          "internalType": "bytes",
          "name": "",
          "type": "bytes"
        }
      ],
      "name": "onERC1155Received",
      "outputs": [
        {
          "internalType": "bytes4",
          "name": "",
          "type": "bytes4"
        }
      ],
      "stateMutability": "nonpayable",
      "type": "function"
    },
    {
      "inputs": [
        {
          "internalType": "address",
          "name": "",
          "type": "address"
        },
        {
          "internalType": "address",
          "name": "",
          "type": "address"
        },
        {
          "internalType": "uint256",
          "name": "",
          "type": "uint256"
        },
        {
          "internalType": "bytes",
          "name": "",
          "type": "bytes"
        }
      ],
      "name": "onERC721Received",
      "outputs": [
        {
          "internalType": "bytes4",
          "name": "",
          "type": "bytes4"
        }
      ],
      "stateMutability": "nonpayable",
      "type": "function"
    },
    {
      "inputs": [
        {
          "internalType": "uint256",
          "name": "_space",
          "type": "uint256"
        }
      ],
      "name": "readGapNonce",
      "outputs": [
        {
          "internalType": "uint256",
          "name": "",
          "type": "uint256"
        }
      ],
      "stateMutability": "view",
      "type": "function"
    },
    {
      "inputs": [
        {
          "internalType": "bytes4",
          "name": "_signature",
          "type": "bytes4"
        }
      ],
      "name": "readHook",
      "outputs": [
        {
          "internalType": "address",
          "name": "",
          "type": "address"
        }
      ],
      "stateMutability": "view",
      "type": "function"
    },
    {
      "inputs": [
        {
          "internalType": "uint256",
          "name": "_space",
          "type": "uint256"
        }
      ],
      "name": "readNonce",
      "outputs": [
        {
          "internalType": "uint256",
          "name": "",
          "type": "uint256"
        }
      ],
      "stateMutability": "view",
      "type": "function"
    },
    {
      "inputs": [
        {
          "internalType": "bytes4",
          "name": "_signature",
          "type": "bytes4"
        }
      ],
      "name": "removeHook",
      "outputs": [],
      "stateMutability": "nonpayable",
      "type": "function"
    },
    {
      "inputs": [
        {
          "components": [
            {
              "internalType": "bool",
              "name": "delegateCall",
              "type": "bool"
            },
            {
              "internalType": "bool",
              "name": "revertOnError",
              "type": "bool"
            },
            {
              "internalType": "uint256",
              "name": "gasLimit",
              "type": "uint256"
            },
            {
              "internalType": "address",
              "name": "target",
              "type": "address"
            },
            {
              "internalType": "uint256",
              "name": "value",
              "type": "uint256"
            },
            {
              "internalType": "bytes",
              "name": "data",
              "type": "bytes"
            }
          ],
          "internalType": "struct IModuleCalls.Transaction[]",
          "name": "_txs",
          "type": "tuple[]"
        }
      ],
      "name": "selfExecute",
      "outputs": [],
      "stateMutability": "nonpayable",
      "type": "function"
    },
    {
      "inputs": [
        {
          "internalType": "bytes4",
          "name": "_interfaceID",
          "type": "bytes4"
        }
      ],
      "name": "supportsInterface",
      "outputs": [
        {
          "internalType": "bool",
          "name": "",
          "type": "bool"
        }
      ],
      "stateMutability": "pure",
      "type": "function"
    },
    {
      "inputs": [
        {
          "internalType": "address",
          "name": "_implementation",
          "type": "address"
        }
      ],
      "name": "updateImplementation",
      "outputs": [],
      "stateMutability": "nonpayable",
      "type": "function"
    },
    {
      "stateMutability": "payable",
      "type": "receive"
    }
  ],
  "bytecode": "0x60c06040523480156200001157600080fd5b5060405162002cdb38038062002cdb833981016040819052620000349162000094565b80600060405180606001604052806028815260200162002cb3602891396040516200006591903090602001620000c6565b60408051601f198184030181529190528051602090910120608052506001600160a01b031660a052506200010a565b600060208284031215620000a757600080fd5b81516001600160a01b0381168114620000bf57600080fd5b9392505050565b6000835160005b81811015620000e95760208187018101518583015201620000cd565b81811115620000f9576000828501525b509190910191825250602001919050565b60805160a051612b756200013e600039600081816103ac015261102c01526000818161036a015261105d0152612b756000f3fe60806040526004361061012d5760003560e01c806361c2926c116100a5578063affed0e011610074578063bc197c8111610059578063bc197c8114610496578063cc63f2e2146104de578063f23a6e61146104fe57610134565b8063affed0e014610461578063b93ea7ad1461047657610134565b806361c2926c146103ee5780637a9a16281461040e5780638c3f55631461042e57806390042baf1461044e57610134565b80631a9b2337116100fc578063257671f5116100e1578063257671f5146103585780632dd310001461039a5780634fcf3eca146103ce57610134565b80631a9b2337146102f357806320c13b0b1461033857610134565b806301ffc9a714610208578063025b22bc1461023d578063150b7a021461025d5780631626ba7e146102d357610134565b3661013457005b60006101636000357fffffffff0000000000000000000000000000000000000000000000000000000016610544565b905073ffffffffffffffffffffffffffffffffffffffff811615610206576000808273ffffffffffffffffffffffffffffffffffffffff166000366040516101ac9291906120a0565b600060405180830381855af49150503d80600081146101e7576040519150601f19603f3d011682016040523d82523d6000602084013e6101ec565b606091505b5091509150816101fe57805160208201fd5b805160208201f35b005b34801561021457600080fd5b506102286102233660046120de565b610598565b60405190151581526020015b60405180910390f35b34801561024957600080fd5b50610206610258366004612124565b6105a3565b34801561026957600080fd5b506102a2610278366004612181565b7f150b7a020000000000000000000000000000000000000000000000000000000095945050505050565b6040517fffffffff000000000000000000000000000000000000000000000000000000009091168152602001610234565b3480156102df57600080fd5b506102a26102ee3660046121f0565b6106a3565b3480156102ff57600080fd5b5061031361030e3660046120de565b610721565b60405173ffffffffffffffffffffffffffffffffffffffff9091168152602001610234565b34801561034457600080fd5b506102a261035336600461223c565b61072c565b34801561036457600080fd5b5061038c7f000000000000000000000000000000000000000000000000000000000000000081565b604051908152602001610234565b3480156103a657600080fd5b506103137f000000000000000000000000000000000000000000000000000000000000000081565b3480156103da57600080fd5b506102066103e93660046120de565b6107c2565b3480156103fa57600080fd5b5061020661040936600461252a565b6108f4565b34801561041a57600080fd5b5061020661042936600461255f565b610a0a565b34801561043a57600080fd5b5061038c6104493660046125cc565b610a98565b61031361045c3660046125e5565b610ac4565b34801561046d57600080fd5b5061038c610b60565b34801561048257600080fd5b5061020661049136600461261a565b610b71565b3480156104a257600080fd5b506102a26104b1366004612694565b7fbc197c810000000000000000000000000000000000000000000000000000000098975050505050505050565b3480156104ea57600080fd5b5061038c6104f93660046125cc565b610cb6565b34801561050a57600080fd5b506102a261051936600461274f565b7ff23a6e61000000000000000000000000000000000000000000000000000000009695505050505050565b60006105927fbe27a319efc8734e89e26ba4bc95f5c788584163b959f03fa04e2d7ab4b9a1207fffffffff000000000000000000000000000000000000000000000000000000008416610cde565b92915050565b600061059282610d3c565b3330146105e9576040517fe12588940000000000000000000000000000000000000000000000000000000081523360048201523060248201526044015b60405180910390fd5b73ffffffffffffffffffffffffffffffffffffffff81163b61064f576040517f0c76093700000000000000000000000000000000000000000000000000000000815273ffffffffffffffffffffffffffffffffffffffff821660048201526024016105e0565b610657813055565b60405173ffffffffffffffffffffffffffffffffffffffff821681527f310ba5f1d2ed074b51e2eccd052a47ae9ab7c6b800d1fca3db3999d6a592ca039060200160405180910390a150565b6000806106e68585858080601f016020809104026020016040519081016040528093929190818152602001838380828437600092019190915250610d9892505050565b509050801561071857507f1626ba7e00000000000000000000000000000000000000000000000000000000905061071a565b505b9392505050565b600061059282610544565b60008061078686866040516107429291906120a0565b604051809103902085858080601f016020809104026020016040519081016040528093929190818152602001838380828437600092019190915250610d9892505050565b50905080156107b857507f20c13b0b0000000000000000000000000000000000000000000000000000000090506107ba565b505b949350505050565b333014610803576040517fe12588940000000000000000000000000000000000000000000000000000000081523360048201523060248201526044016105e0565b600061080e82610544565b73ffffffffffffffffffffffffffffffffffffffff160361087f576040517f1c3812cc0000000000000000000000000000000000000000000000000000000081527fffffffff00000000000000000000000000000000000000000000000000000000821660048201526024016105e0565b604080517fbe27a319efc8734e89e26ba4bc95f5c788584163b959f03fa04e2d7ab4b9a1206020808301919091527fffffffff00000000000000000000000000000000000000000000000000000000841682840152825180830384018152606090920190925280519101206000905550565b50565b333014610935576040517fe12588940000000000000000000000000000000000000000000000000000000081523360048201523060248201526044016105e0565b60006109fa8260405160200161094b91906128ea565b604080517fffffffffffffffffffffffffffffffffffffffffffffffffffffffffffffffe081840301815282825280516020918201207f1901000000000000000000000000000000000000000000000000000000000000848301524660228501523060601b7fffffffffffffffffffffffffffffffffffffffff000000000000000000000000166042850152605680850191909152825180850390910181526076909301909152815191012090565b9050610a0681836110e9565b5050565b610a13826112c8565b600080610a488486604051602001610a2c929190612931565b6040516020818303038152906040528051906020012084610d98565b9150915081610a875780836040517f8f4a234f0000000000000000000000000000000000000000000000000000000081526004016105e092919061294a565b610a9181866110e9565b5050505050565b60006105927f8d0bf1fd623d628c741362c1289948e57b3e2905218c676d3e69abee36d6ae2e83610cde565b6000333014610b07576040517fe12588940000000000000000000000000000000000000000000000000000000081523360048201523060248201526044016105e0565b81516020830134f060405173ffffffffffffffffffffffffffffffffffffffff821681529091507fa506ad4e7f05eceba62a023c3219e5bd98a615f4fa87e2afb08a2da5cf62bf0c9060200160405180910390a1919050565b6000610b6c6000610a98565b905090565b333014610bb2576040517fe12588940000000000000000000000000000000000000000000000000000000081523360048201523060248201526044016105e0565b6000610bbd83610544565b73ffffffffffffffffffffffffffffffffffffffff1614610c2e576040517f5b4d6d6a0000000000000000000000000000000000000000000000000000000081527fffffffff00000000000000000000000000000000000000000000000000000000831660048201526024016105e0565b604080517fbe27a319efc8734e89e26ba4bc95f5c788584163b959f03fa04e2d7ab4b9a1206020808301919091527fffffffff000000000000000000000000000000000000000000000000000000008516828401528251808303840181526060909201909252805191012073ffffffffffffffffffffffffffffffffffffffff821690555050565b60006105927f2a37c7c3c3449f4795b05559a0f92a1730815bf20be16b02bbd6dbb8ae8532fe835b6000808383604051602001610cfd929190918252602082015260400190565b604080517fffffffffffffffffffffffffffffffffffffffffffffffffffffffffffffffe0818403018152919052805160209091012054949350505050565b60007f6ffbd451000000000000000000000000000000000000000000000000000000007fffffffff00000000000000000000000000000000000000000000000000000000831601610d8f57506001919050565b61059282611550565b604080517f19010000000000000000000000000000000000000000000000000000000000006020808301919091524660228301523060601b7fffffffffffffffffffffffffffffffffffffffff00000000000000000000000016604283015260568083018690528351808403909101815260769092019092528051910120600090600080610e2585611691565b909250905061ffff821660005b8651831015610fcd5760008080610e498a876116e1565b975060ff91821694501691507fffffffffffffffffffffffffffffffffffffffffffffffffffffffffffffffff8301610e8f57610e868a87611740565b96509050610f7d565b82610ebb576060610ea08b88611799565b97509050610eae8982611826565b9150828501945050610f7d565b60028303610f4857610ecd8a87611740565b965090506000610edd8b88611b22565b975061ffff1690506060610ef28c8984611b74565b98509050610f018a8483611c51565b610f3d578983826040517f9a9462320000000000000000000000000000000000000000000000000000000081526004016105e093929190612963565b505092810192610f7d565b6040517fb2505f7c000000000000000000000000000000000000000000000000000000008152600481018490526024016105e0565b604080516020810187905290810183905273ffffffffffffffffffffffffffffffffffffffff82166060820152608001604051602081830303815290604052805190602001209450505050610e32565b8361ffff1681101580156110dc57506110dc826040517fff0000000000000000000000000000000000000000000000000000000000000060208201527fffffffffffffffffffffffffffffffffffffffff0000000000000000000000007f000000000000000000000000000000000000000000000000000000000000000060601b166021820152603581018290527f000000000000000000000000000000000000000000000000000000000000000060558201526000903090607501604080517fffffffffffffffffffffffffffffffffffffffffffffffffffffffffffffffe0818403018152919052805160209091012073ffffffffffffffffffffffffffffffffffffffff161492915050565b9550505050509250929050565b60005b81518110156112c3576000828281518110611109576111096129a1565b602002602001015190506000606082604001515a10156111645782604001515a6040517f9fa72982000000000000000000000000000000000000000000000000000000008152600481019290925260248201526044016105e0565b8251156111fc57826060015173ffffffffffffffffffffffffffffffffffffffff16836040015160001461119c57836040015161119e565b5a5b8460a001516040516111b091906129d0565b6000604051808303818686f4925050503d80600081146111ec576040519150601f19603f3d011682016040523d82523d6000602084013e6111f1565b606091505b509092509050611291565b826060015173ffffffffffffffffffffffffffffffffffffffff1683608001518460400151600014611232578460400151611234565b5a5b908560a0015160405161124791906129d0565b600060405180830381858888f193505050503d8060008114611285576040519150601f19603f3d011682016040523d82523d6000602084013e61128a565b606091505b5090925090505b81156112ad5760405186815260200160405180910390a06112b8565b6112b8838783611e1b565b5050506001016110ec565b505050565b60008060006112d684611e6b565b91945092509050816113cc5760006112ed84610a98565b9050818114611339576040517f9b6514f40000000000000000000000000000000000000000000000000000000081526004810185905260248101839052604481018290526064016105e0565b604080517f8d0bf1fd623d628c741362c1289948e57b3e2905218c676d3e69abee36d6ae2e60208083019190915281830187905282518083038401815260609092019092528051910120600183019081905560408051868152602081018390527f1f180c27086c7a39ea2a7b25239d1ab92348f07ca7bb59d1438fcf527568f881910160405180910390a1505050505050565b600182036114bd5760006113df84610cb6565b905080821161142b576040517fcf9c69b80000000000000000000000000000000000000000000000000000000081526004810185905260248101839052604481018290526064016105e0565b604080517f2a37c7c3c3449f4795b05559a0f92a1730815bf20be16b02bbd6dbb8ae8532fe60208083019190915281830187905282518083038401815260608301808552815191909201208590558690526080810183905260a0810184905290517fd9aa9f0269d7ebe0e495362c56c21163d40a52f13ad524fb0e844ff41811f0529181900360c00190a15050505050565b6002820361154257821515806114d257508015155b15611513576040517f333fc10200000000000000000000000000000000000000000000000000000000815260048101849052602481018290526044016105e0565b6040517fffcdc510cc982d77c612ebe049ca925f66c6effb232c431c01fd0e79f6dad4f590600090a150505050565b61154a6129ec565b50505050565b60007fffffffff0000000000000000000000000000000000000000000000000000000082167fec6aba500000000000000000000000000000000000000000000000000000000014806115e357507fffffffff0000000000000000000000000000000000000000000000000000000082167f4e2312e000000000000000000000000000000000000000000000000000000000145b8061162f57507fffffffff0000000000000000000000000000000000000000000000000000000082167f150b7a0200000000000000000000000000000000000000000000000000000000145b8061167b57507fffffffff0000000000000000000000000000000000000000000000000000000082167fc0ee0b8a00000000000000000000000000000000000000000000000000000000145b1561168857506001919050565b61059282611ecb565b6000806002835110156116d257826040517f857f2c1a0000000000000000000000000000000000000000000000000000000081526004016105e09190612a1b565b50506020015160f01c90600290565b80820160200151825160f882901c9160f01c60ff169060028401908111156117395784846040517fa19c8fdd0000000000000000000000000000000000000000000000000000000081526004016105e0929190612a2e565b9250925092565b80820160200151825160609190911c9060148301908111156117925783836040517fe36e8a170000000000000000000000000000000000000000000000000000000081526004016105e0929190612a2e565b9250929050565b60408051604280825260808201909252606091600091906020820181803683370190505091508284016020018051602084015260208101516040840152602281015160428401525060428301905083518111156117925783836040517f2d24eaea0000000000000000000000000000000000000000000000000000000081526004016105e0929190612a2e565b6000815160421461186557816040517f2ee17a3d0000000000000000000000000000000000000000000000000000000081526004016105e09190612a1b565b600082600184516118769190612a7f565b81518110611886576118866129a1565b602001015160f81c60f81b60f81c60ff1690506000836040815181106118ae576118ae6129a1565b016020015160f81c905060006118c48582611f27565b905060006118d3866020611f27565b90507f7fffffffffffffffffffffffffffffff5d576e7357a4501ddfe92f46681b20a08111156119335785816040517fad4aac760000000000000000000000000000000000000000000000000000000081526004016105e0929190612a2e565b8260ff16601b1415801561194b57508260ff16601c14155b156119865785836040517fe578897e0000000000000000000000000000000000000000000000000000000081526004016105e0929190612a96565b600184036119f35760408051600081526020810180835289905260ff851691810191909152606081018390526080810182905260019060a0015b6020604051602081039080840390855afa1580156119e2573d6000803e3d6000fd5b505050602060405103519450611ac9565b60028403611a90576040517f19457468657265756d205369676e6564204d6573736167653a0a3332000000006020820152603c8101889052600190605c01604080517fffffffffffffffffffffffffffffffffffffffffffffffffffffffffffffffe08184030181528282528051602091820120600084529083018083525260ff861690820152606081018490526080810183905260a0016119c0565b858460016040517f9dfba8520000000000000000000000000000000000000000000000000000000081526004016105e093929190612abb565b73ffffffffffffffffffffffffffffffffffffffff8516611b1857856040517f6c1719d20000000000000000000000000000000000000000000000000000000081526004016105e09190612a1b565b5050505092915050565b80820160200151825160f09190911c9060028301908111156117925783836040517f80d95e5f0000000000000000000000000000000000000000000000000000000081526004016105e0929190612a2e565b606060008267ffffffffffffffff811115611b9157611b916122a8565b6040519080825280601f01601f191660200182016040528015611bbb576020820181803683370190505b509150838501602001600060205b85811015611be257908201518482015260208101611bc9565b8486016020018051939092015190850152525082820183811015611c0857611c086129ec565b8451811115611c49578484846040517f10a999ce0000000000000000000000000000000000000000000000000000000081526004016105e093929190612ae5565b935093915050565b6000808260018451611c639190612a7f565b81518110611c7357611c736129a1565b016020015160f81c90506001811480611c8c5750600281145b15611cd0578373ffffffffffffffffffffffffffffffffffffffff16611cb28685611826565b73ffffffffffffffffffffffffffffffffffffffff16149150610718565b60038103611de25782517fffffffffffffffffffffffffffffffffffffffffffffffffffffffffffffffff810184526040517f1626ba7e00000000000000000000000000000000000000000000000000000000815273ffffffffffffffffffffffffffffffffffffffff861690631626ba7e90611d53908990889060040161294a565b602060405180830381865afa158015611d70573d6000803e3d6000fd5b505050506040513d601f19601f82011682018060405250810190611d949190612b0a565b9084527fffffffff00000000000000000000000000000000000000000000000000000000167f1626ba7e00000000000000000000000000000000000000000000000000000000149150610718565b828160006040517f9dfba8520000000000000000000000000000000000000000000000000000000081526004016105e093929190612abb565b826020015115611e2d57805160208201fd5b7f3dbd1590ea96dd3253a91f24e64e3a502e1225d602a5731357bc12643070ccd78282604051611e5e92919061294a565b60405180910390a1505050565b606081901c605882901c60ff166affffffffffffffffffffff83166002821115611ec4576040517ff5587439000000000000000000000000000000000000000000000000000000008152600481018390526024016105e0565b9193909250565b60007ffda4dd44000000000000000000000000000000000000000000000000000000007fffffffff00000000000000000000000000000000000000000000000000000000831601611f1e57506001919050565b61059282611f80565b600080611f35836020612b27565b90508084511015611f765783836040517fde59ba130000000000000000000000000000000000000000000000000000000081526004016105e0929190612a2e565b9092015192915050565b60007f0b050cdb000000000000000000000000000000000000000000000000000000007fffffffff00000000000000000000000000000000000000000000000000000000831601611fd357506001919050565b6105928260007fffffffff000000000000000000000000000000000000000000000000000000008216158061204957507fffffffff0000000000000000000000000000000000000000000000000000000082167f36e7817500000000000000000000000000000000000000000000000000000000145b1561205657506001919050565b7f01ffc9a7000000000000000000000000000000000000000000000000000000007fffffffff00000000000000000000000000000000000000000000000000000000831614610592565b8183823760009101908152919050565b7fffffffff00000000000000000000000000000000000000000000000000000000811681146108f157600080fd5b6000602082840312156120f057600080fd5b813561071a816120b0565b803573ffffffffffffffffffffffffffffffffffffffff8116811461211f57600080fd5b919050565b60006020828403121561213657600080fd5b61071a826120fb565b60008083601f84011261215157600080fd5b50813567ffffffffffffffff81111561216957600080fd5b60208301915083602082850101111561179257600080fd5b60008060008060006080868803121561219957600080fd5b6121a2866120fb565b94506121b0602087016120fb565b935060408601359250606086013567ffffffffffffffff8111156121d357600080fd5b6121df8882890161213f565b969995985093965092949392505050565b60008060006040848603121561220557600080fd5b83359250602084013567ffffffffffffffff81111561222357600080fd5b61222f8682870161213f565b9497909650939450505050565b6000806000806040858703121561225257600080fd5b843567ffffffffffffffff8082111561226a57600080fd5b6122768883890161213f565b9096509450602087013591508082111561228f57600080fd5b5061229c8782880161213f565b95989497509550505050565b7f4e487b7100000000000000000000000000000000000000000000000000000000600052604160045260246000fd5b60405160c0810167ffffffffffffffff811182821017156122fa576122fa6122a8565b60405290565b604051601f82017fffffffffffffffffffffffffffffffffffffffffffffffffffffffffffffffe016810167ffffffffffffffff81118282101715612347576123476122a8565b604052919050565b8035801515811461211f57600080fd5b600082601f83011261237057600080fd5b813567ffffffffffffffff81111561238a5761238a6122a8565b6123bb60207fffffffffffffffffffffffffffffffffffffffffffffffffffffffffffffffe0601f84011601612300565b8181528460208386010111156123d057600080fd5b816020850160208301376000918101602001919091529392505050565b600082601f8301126123fe57600080fd5b8135602067ffffffffffffffff8083111561241b5761241b6122a8565b8260051b61242a838201612300565b938452858101830193838101908886111561244457600080fd5b84880192505b8583101561251e578235848111156124625760008081fd5b880160c0818b037fffffffffffffffffffffffffffffffffffffffffffffffffffffffffffffffe0018113156124985760008081fd5b6124a06122d7565b6124ab88840161234f565b815260406124ba81850161234f565b8983015260608085013582840152608091506124d78286016120fb565b9083015260a084810135828401529284013592888411156124fa57600091508182fd5b6125088e8b8688010161235f565b908301525084525050918401919084019061244a565b98975050505050505050565b60006020828403121561253c57600080fd5b813567ffffffffffffffff81111561255357600080fd5b6107ba848285016123ed565b60008060006060848603121561257457600080fd5b833567ffffffffffffffff8082111561258c57600080fd5b612598878388016123ed565b94506020860135935060408601359150808211156125b557600080fd5b506125c28682870161235f565b9150509250925092565b6000602082840312156125de57600080fd5b5035919050565b6000602082840312156125f757600080fd5b813567ffffffffffffffff81111561260e57600080fd5b6107ba8482850161235f565b6000806040838503121561262d57600080fd5b8235612638816120b0565b9150612646602084016120fb565b90509250929050565b60008083601f84011261266157600080fd5b50813567ffffffffffffffff81111561267957600080fd5b6020830191508360208260051b850101111561179257600080fd5b60008060008060008060008060a0898b0312156126b057600080fd5b6126b9896120fb565b97506126c760208a016120fb565b9650604089013567ffffffffffffffff808211156126e457600080fd5b6126f08c838d0161264f565b909850965060608b013591508082111561270957600080fd5b6127158c838d0161264f565b909650945060808b013591508082111561272e57600080fd5b5061273b8b828c0161213f565b999c989b5096995094979396929594505050565b60008060008060008060a0878903121561276857600080fd5b612771876120fb565b955061277f602088016120fb565b94506040870135935060608701359250608087013567ffffffffffffffff8111156127a957600080fd5b6127b589828a0161213f565b979a9699509497509295939492505050565b60005b838110156127e25781810151838201526020016127ca565b8381111561154a5750506000910152565b6000815180845261280b8160208601602086016127c7565b601f017fffffffffffffffffffffffffffffffffffffffffffffffffffffffffffffffe0169290920160200192915050565b600081518084526020808501808196508360051b8101915082860160005b858110156128dd5782840389528151805115158552858101511515868601526040808201519086015260608082015173ffffffffffffffffffffffffffffffffffffffff16908601526080808201519086015260a09081015160c0918601829052906128c9818701836127f3565b9a87019a955050509084019060010161285b565b5091979650505050505050565b60408152600560408201527f73656c663a000000000000000000000000000000000000000000000000000000606082015260806020820152600061071a608083018461283d565b8281526040602082015260006107ba604083018461283d565b8281526040602082015260006107ba60408301846127f3565b83815273ffffffffffffffffffffffffffffffffffffffff8316602082015260606040820152600061299860608301846127f3565b95945050505050565b7f4e487b7100000000000000000000000000000000000000000000000000000000600052603260045260246000fd5b600082516129e28184602087016127c7565b9190910192915050565b7f4e487b7100000000000000000000000000000000000000000000000000000000600052600160045260246000fd5b60208152600061071a60208301846127f3565b604081526000612a4160408301856127f3565b90508260208301529392505050565b7f4e487b7100000000000000000000000000000000000000000000000000000000600052601160045260246000fd5b600082821015612a9157612a91612a50565b500390565b604081526000612aa960408301856127f3565b905060ff831660208301529392505050565b606081526000612ace60608301866127f3565b602083019490945250901515604090910152919050565b606081526000612af860608301866127f3565b60208301949094525060400152919050565b600060208284031215612b1c57600080fd5b815161071a816120b0565b60008219821115612b3a57612b3a612a50565b50019056fea264697066735822122033f64bb36f5236c6a0337a4d0532054b5c88212fbcd88042ba30060c481206ae64736f6c634300080e0033603a600e3d39601a805130553df3363d3d373d3d3d363d30545af43d82803e903d91601857fd5bf3",
  "linkReferences": {},
  "deployedLinkReferences": {}
}