{
  "_format": "hh-sol-artifact-1",
  "contractName": "MainModule",
  "sourceName": "contracts/modules/MainModule.sol",
  "abi": [
    {
      "inputs": [
        {
          "internalType": "address",
          "name": "_factory",
          "type": "address"
        },
        {
          "internalType": "address",
          "name": "_mainModuleUpgradable",
          "type": "address"
        }
      ],
      "stateMutability": "nonpayable",
      "type": "constructor"
    },
    {
      "inputs": [
        {
          "internalType": "uint256",
          "name": "_space",
          "type": "uint256"
        },
        {
          "internalType": "uint256",
          "name": "_provided",
          "type": "uint256"
        },
        {
          "internalType": "uint256",
          "name": "_current",
          "type": "uint256"
        }
      ],
      "name": "BadGapNonce",
      "type": "error"
    },
    {
      "inputs": [
        {
          "internalType": "uint256",
          "name": "_space",
          "type": "uint256"
        },
        {
          "internalType": "uint256",
          "name": "_provided",
          "type": "uint256"
        },
        {
          "internalType": "uint256",
          "name": "_current",
          "type": "uint256"
        }
      ],
      "name": "BadNonce",
      "type": "error"
    },
    {
      "inputs": [
        {
          "internalType": "uint256",
          "name": "_space",
          "type": "uint256"
        },
        {
          "internalType": "uint256",
          "name": "_nonce",
          "type": "uint256"
        }
      ],
      "name": "ExpectedEmptyNonce",
      "type": "error"
    },
    {
      "inputs": [
        {
          "internalType": "bytes4",
          "name": "_signature",
          "type": "bytes4"
        }
      ],
      "name": "HookAlreadyExists",
      "type": "error"
    },
    {
      "inputs": [
        {
          "internalType": "bytes4",
          "name": "_signature",
          "type": "bytes4"
        }
      ],
      "name": "HookDoesNotExist",
      "type": "error"
    },
    {
      "inputs": [],
      "name": "ImageHashIsZero",
      "type": "error"
    },
    {
      "inputs": [
        {
          "internalType": "address",
          "name": "_implementation",
          "type": "address"
        }
      ],
      "name": "InvalidImplementation",
      "type": "error"
    },
    {
      "inputs": [
        {
          "internalType": "bytes32",
          "name": "_hash",
          "type": "bytes32"
        },
        {
          "internalType": "address",
          "name": "_addr",
          "type": "address"
        },
        {
          "internalType": "bytes",
          "name": "_signature",
          "type": "bytes"
        }
      ],
      "name": "InvalidNestedSignature",
      "type": "error"
    },
    {
      "inputs": [
        {
          "internalType": "uint256",
          "name": "_space",
          "type": "uint256"
        }
      ],
      "name": "InvalidNonceSpace",
      "type": "error"
    },
    {
      "inputs": [
        {
          "internalType": "uint256",
          "name": "_type",
          "type": "uint256"
        }
      ],
      "name": "InvalidNonceType",
      "type": "error"
    },
    {
      "inputs": [
        {
          "internalType": "uint256",
          "name": "_type",
          "type": "uint256"
        }
      ],
      "name": "InvalidNonceType",
      "type": "error"
    },
    {
      "inputs": [
        {
          "internalType": "bytes",
          "name": "_signature",
          "type": "bytes"
        },
        {
          "internalType": "bytes32",
          "name": "_s",
          "type": "bytes32"
        }
      ],
      "name": "InvalidSValue",
      "type": "error"
    },
    {
      "inputs": [
        {
          "internalType": "bytes32",
          "name": "_hash",
          "type": "bytes32"
        },
        {
          "internalType": "bytes",
          "name": "_signature",
          "type": "bytes"
        }
      ],
      "name": "InvalidSignature",
      "type": "error"
    },
    {
      "inputs": [
        {
          "internalType": "uint256",
          "name": "_flag",
          "type": "uint256"
        }
      ],
      "name": "InvalidSignatureFlag",
      "type": "error"
    },
    {
      "inputs": [
        {
          "internalType": "bytes",
          "name": "_signature",
          "type": "bytes"
        }
      ],
      "name": "InvalidSignatureLength",
      "type": "error"
    },
    {
      "inputs": [
        {
          "internalType": "uint256",
          "name": "_type",
          "type": "uint256"
        }
      ],
      "name": "InvalidSignatureType",
      "type": "error"
    },
    {
      "inputs": [
        {
          "components": [
            {
              "internalType": "bool",
              "name": "delegateCall",
              "type": "bool"
            },
            {
              "internalType": "bool",
              "name": "revertOnError",
              "type": "bool"
            },
            {
              "internalType": "uint256",
              "name": "gasLimit",
              "type": "uint256"
            },
            {
              "internalType": "address",
              "name": "target",
              "type": "address"
            },
            {
              "internalType": "uint256",
              "name": "value",
              "type": "uint256"
            },
            {
              "internalType": "bytes",
              "name": "data",
              "type": "bytes"
            }
          ],
          "internalType": "struct IModuleCalls.Transaction",
          "name": "_tx",
          "type": "tuple"
        }
      ],
      "name": "InvalidTransaction",
      "type": "error"
    },
    {
      "inputs": [
        {
          "internalType": "bytes",
          "name": "_signature",
          "type": "bytes"
        },
        {
          "internalType": "uint256",
          "name": "_v",
          "type": "uint256"
        }
      ],
      "name": "InvalidVValue",
      "type": "error"
    },
    {
      "inputs": [
        {
          "internalType": "uint256",
          "name": "_requested",
          "type": "uint256"
        },
        {
          "internalType": "uint256",
          "name": "_available",
          "type": "uint256"
        }
      ],
      "name": "NotEnoughGas",
      "type": "error"
    },
    {
      "inputs": [
        {
          "internalType": "address",
          "name": "_sender",
          "type": "address"
        },
        {
          "internalType": "address",
          "name": "_self",
          "type": "address"
        }
      ],
      "name": "OnlySelfAuth",
      "type": "error"
    },
    {
      "inputs": [
        {
          "internalType": "bytes",
          "name": "_datam",
          "type": "bytes"
        },
        {
          "internalType": "uint256",
          "name": "_index",
          "type": "uint256"
        },
        {
          "internalType": "uint256",
          "name": "_length",
          "type": "uint256"
        }
      ],
      "name": "ReadBytesOutOfBounds",
      "type": "error"
    },
    {
      "inputs": [
        {
          "internalType": "bytes",
          "name": "_data",
          "type": "bytes"
        }
      ],
      "name": "ReadFirstUint8OutOfBounds",
      "type": "error"
    },
    {
      "inputs": [
        {
          "internalType": "bytes",
          "name": "_signature",
          "type": "bytes"
        }
      ],
      "name": "SignerIsAddress0",
      "type": "error"
    },
    {
      "inputs": [
        {
          "internalType": "bytes",
          "name": "_signature",
          "type": "bytes"
        },
        {
          "internalType": "uint256",
          "name": "_type",
          "type": "uint256"
        },
        {
          "internalType": "bool",
          "name": "_recoverMode",
          "type": "bool"
        }
      ],
      "name": "UnsupportedSignatureType",
      "type": "error"
    },
    {
      "anonymous": false,
      "inputs": [
        {
          "indexed": false,
          "internalType": "address",
          "name": "_contract",
          "type": "address"
        }
      ],
      "name": "CreatedContract",
      "type": "event"
    },
    {
      "anonymous": false,
      "inputs": [
        {
          "indexed": false,
          "internalType": "uint256",
          "name": "_space",
          "type": "uint256"
        },
        {
          "indexed": false,
          "internalType": "uint256",
          "name": "_oldNonce",
          "type": "uint256"
        },
        {
          "indexed": false,
          "internalType": "uint256",
          "name": "_newNonce",
          "type": "uint256"
        }
      ],
      "name": "GapNonceChange",
      "type": "event"
    },
    {
      "anonymous": false,
      "inputs": [
        {
          "indexed": false,
          "internalType": "bytes32",
          "name": "newImageHash",
          "type": "bytes32"
        }
      ],
      "name": "ImageHashUpdated",
      "type": "event"
    },
    {
      "anonymous": false,
      "inputs": [
        {
          "indexed": false,
          "internalType": "address",
          "name": "newImplementation",
          "type": "address"
        }
      ],
      "name": "ImplementationUpdated",
      "type": "event"
    },
    {
      "anonymous": false,
      "inputs": [],
      "name": "NoNonceUsed",
      "type": "event"
    },
    {
      "anonymous": false,
      "inputs": [
        {
          "indexed": false,
          "internalType": "uint256",
          "name": "_space",
          "type": "uint256"
        },
        {
          "indexed": false,
          "internalType": "uint256",
          "name": "_newNonce",
          "type": "uint256"
        }
      ],
      "name": "NonceChange",
      "type": "event"
    },
    {
      "anonymous": true,
      "inputs": [
        {
          "indexed": false,
          "internalType": "bytes32",
          "name": "_tx",
          "type": "bytes32"
        }
      ],
      "name": "TxExecuted",
      "type": "event"
    },
    {
      "anonymous": false,
      "inputs": [
        {
          "indexed": false,
          "internalType": "bytes32",
          "name": "_tx",
          "type": "bytes32"
        },
        {
          "indexed": false,
          "internalType": "bytes",
          "name": "_reason",
          "type": "bytes"
        }
      ],
      "name": "TxFailed",
      "type": "event"
    },
    {
      "stateMutability": "payable",
      "type": "fallback"
    },
    {
      "inputs": [],
      "name": "FACTORY",
      "outputs": [
        {
          "internalType": "address",
          "name": "",
          "type": "address"
        }
      ],
      "stateMutability": "view",
      "type": "function"
    },
    {
      "inputs": [],
      "name": "INIT_CODE_HASH",
      "outputs": [
        {
          "internalType": "bytes32",
          "name": "",
          "type": "bytes32"
        }
      ],
      "stateMutability": "view",
      "type": "function"
    },
    {
      "inputs": [],
      "name": "UPGRADEABLE_IMPLEMENTATION",
      "outputs": [
        {
          "internalType": "address",
          "name": "",
          "type": "address"
        }
      ],
      "stateMutability": "view",
      "type": "function"
    },
    {
      "inputs": [
        {
          "internalType": "bytes32",
          "name": "_msgSubDigest",
          "type": "bytes32"
        },
        {
          "internalType": "bytes",
          "name": "_signature",
          "type": "bytes"
        },
        {
          "internalType": "uint256",
          "name": "_rindex",
          "type": "uint256"
        }
      ],
      "name": "_recoverSignature",
      "outputs": [
        {
          "internalType": "bytes32",
          "name": "_imageHash",
          "type": "bytes32"
        },
        {
          "internalType": "uint256",
          "name": "_weight",
          "type": "uint256"
        },
        {
          "internalType": "uint256",
          "name": "_thershold",
          "type": "uint256"
        }
      ],
      "stateMutability": "view",
      "type": "function"
    },
    {
      "inputs": [
        {
          "internalType": "bytes4",
          "name": "_signature",
          "type": "bytes4"
        },
        {
          "internalType": "address",
          "name": "_implementation",
          "type": "address"
        }
      ],
      "name": "addHook",
      "outputs": [],
      "stateMutability": "nonpayable",
      "type": "function"
    },
    {
      "inputs": [
        {
          "internalType": "bytes",
          "name": "_code",
          "type": "bytes"
        }
      ],
      "name": "createContract",
      "outputs": [
        {
          "internalType": "address",
          "name": "addr",
          "type": "address"
        }
      ],
      "stateMutability": "payable",
      "type": "function"
    },
    {
      "inputs": [
        {
          "components": [
            {
              "internalType": "bool",
              "name": "delegateCall",
              "type": "bool"
            },
            {
              "internalType": "bool",
              "name": "revertOnError",
              "type": "bool"
            },
            {
              "internalType": "uint256",
              "name": "gasLimit",
              "type": "uint256"
            },
            {
              "internalType": "address",
              "name": "target",
              "type": "address"
            },
            {
              "internalType": "uint256",
              "name": "value",
              "type": "uint256"
            },
            {
              "internalType": "bytes",
              "name": "data",
              "type": "bytes"
            }
          ],
          "internalType": "struct IModuleCalls.Transaction[]",
          "name": "_txs",
          "type": "tuple[]"
        },
        {
          "internalType": "uint256",
          "name": "_nonce",
          "type": "uint256"
        },
        {
          "internalType": "bytes",
          "name": "_signature",
          "type": "bytes"
        }
      ],
      "name": "execute",
      "outputs": [],
      "stateMutability": "nonpayable",
      "type": "function"
    },
    {
      "inputs": [
        {
          "internalType": "bytes32",
          "name": "_hash",
          "type": "bytes32"
        },
        {
          "internalType": "bytes",
          "name": "_signatures",
          "type": "bytes"
        }
      ],
      "name": "isValidSignature",
      "outputs": [
        {
          "internalType": "bytes4",
          "name": "",
          "type": "bytes4"
        }
      ],
      "stateMutability": "view",
      "type": "function"
    },
    {
      "inputs": [
        {
          "internalType": "bytes",
          "name": "_data",
          "type": "bytes"
        },
        {
          "internalType": "bytes",
          "name": "_signatures",
          "type": "bytes"
        }
      ],
      "name": "isValidSignature",
      "outputs": [
        {
          "internalType": "bytes4",
          "name": "",
          "type": "bytes4"
        }
      ],
      "stateMutability": "view",
      "type": "function"
    },
    {
      "inputs": [],
      "name": "nonce",
      "outputs": [
        {
          "internalType": "uint256",
          "name": "",
          "type": "uint256"
        }
      ],
      "stateMutability": "view",
      "type": "function"
    },
    {
      "inputs": [
        {
          "internalType": "address",
          "name": "",
          "type": "address"
        },
        {
          "internalType": "address",
          "name": "",
          "type": "address"
        },
        {
          "internalType": "uint256[]",
          "name": "",
          "type": "uint256[]"
        },
        {
          "internalType": "uint256[]",
          "name": "",
          "type": "uint256[]"
        },
        {
          "internalType": "bytes",
          "name": "",
          "type": "bytes"
        }
      ],
      "name": "onERC1155BatchReceived",
      "outputs": [
        {
          "internalType": "bytes4",
          "name": "",
          "type": "bytes4"
        }
      ],
      "stateMutability": "nonpayable",
      "type": "function"
    },
    {
      "inputs": [
        {
          "internalType": "address",
          "name": "",
          "type": "address"
        },
        {
          "internalType": "address",
          "name": "",
          "type": "address"
        },
        {
          "internalType": "uint256",
          "name": "",
          "type": "uint256"
        },
        {
          "internalType": "uint256",
          "name": "",
          "type": "uint256"
        },
        {
          "internalType": "bytes",
          "name": "",
          "type": "bytes"
        }
      ],
      "name": "onERC1155Received",
      "outputs": [
        {
          "internalType": "bytes4",
          "name": "",
          "type": "bytes4"
        }
      ],
      "stateMutability": "nonpayable",
      "type": "function"
    },
    {
      "inputs": [
        {
          "internalType": "address",
          "name": "",
          "type": "address"
        },
        {
          "internalType": "address",
          "name": "",
          "type": "address"
        },
        {
          "internalType": "uint256",
          "name": "",
          "type": "uint256"
        },
        {
          "internalType": "bytes",
          "name": "",
          "type": "bytes"
        }
      ],
      "name": "onERC721Received",
      "outputs": [
        {
          "internalType": "bytes4",
          "name": "",
          "type": "bytes4"
        }
      ],
      "stateMutability": "nonpayable",
      "type": "function"
    },
    {
      "inputs": [
        {
          "internalType": "uint256",
          "name": "_space",
          "type": "uint256"
        }
      ],
      "name": "readGapNonce",
      "outputs": [
        {
          "internalType": "uint256",
          "name": "",
          "type": "uint256"
        }
      ],
      "stateMutability": "view",
      "type": "function"
    },
    {
      "inputs": [
        {
          "internalType": "bytes4",
          "name": "_signature",
          "type": "bytes4"
        }
      ],
      "name": "readHook",
      "outputs": [
        {
          "internalType": "address",
          "name": "",
          "type": "address"
        }
      ],
      "stateMutability": "view",
      "type": "function"
    },
    {
      "inputs": [
        {
          "internalType": "uint256",
          "name": "_space",
          "type": "uint256"
        }
      ],
      "name": "readNonce",
      "outputs": [
        {
          "internalType": "uint256",
          "name": "",
          "type": "uint256"
        }
      ],
      "stateMutability": "view",
      "type": "function"
    },
    {
      "inputs": [
        {
          "internalType": "bytes4",
          "name": "_signature",
          "type": "bytes4"
        }
      ],
      "name": "removeHook",
      "outputs": [],
      "stateMutability": "nonpayable",
      "type": "function"
    },
    {
      "inputs": [
        {
          "components": [
            {
              "internalType": "bool",
              "name": "delegateCall",
              "type": "bool"
            },
            {
              "internalType": "bool",
              "name": "revertOnError",
              "type": "bool"
            },
            {
              "internalType": "uint256",
              "name": "gasLimit",
              "type": "uint256"
            },
            {
              "internalType": "address",
              "name": "target",
              "type": "address"
            },
            {
              "internalType": "uint256",
              "name": "value",
              "type": "uint256"
            },
            {
              "internalType": "bytes",
              "name": "data",
              "type": "bytes"
            }
          ],
          "internalType": "struct IModuleCalls.Transaction[]",
          "name": "_txs",
          "type": "tuple[]"
        }
      ],
      "name": "selfExecute",
      "outputs": [],
      "stateMutability": "nonpayable",
      "type": "function"
    },
    {
      "inputs": [
        {
          "internalType": "bytes4",
          "name": "_interfaceID",
          "type": "bytes4"
        }
      ],
      "name": "supportsInterface",
      "outputs": [
        {
          "internalType": "bool",
          "name": "",
          "type": "bool"
        }
      ],
      "stateMutability": "pure",
      "type": "function"
    },
    {
      "inputs": [
        {
          "internalType": "bytes32",
          "name": "_imageHash",
          "type": "bytes32"
        }
      ],
      "name": "updateImageHash",
      "outputs": [],
      "stateMutability": "nonpayable",
      "type": "function"
    },
    {
      "inputs": [
        {
          "internalType": "address",
          "name": "_implementation",
          "type": "address"
        }
      ],
      "name": "updateImplementation",
      "outputs": [],
      "stateMutability": "nonpayable",
      "type": "function"
    },
    {
      "stateMutability": "payable",
      "type": "receive"
    }
  ],
  "bytecode": "0x60e06040523480156200001157600080fd5b506040516200395e3803806200395e8339810160408190526200003491620000ba565b8181600060405180606001604052806028815260200162003936602891396040516200006691903090602001620000f2565b60408051601f198184030181529190528051602090910120608052506001600160a01b0391821660a0521660c05250620001369050565b80516001600160a01b0381168114620000b557600080fd5b919050565b60008060408385031215620000ce57600080fd5b620000d9836200009d565b9150620000e9602084016200009d565b90509250929050565b6000835160005b81811015620001155760208187018101518583015201620000f9565b8181111562000125576000828501525b509190910191825250602001919050565b60805160a05160c05161379f62000197600039600081816104a1015261085301526000818161040d01528181611cec0152818161217f01526123630152600081816103ab01528181611d1d015281816121b00152612394015261379f6000f3fe60806040526004361061016e5760003560e01c806361c2926c116100cb578063affed0e01161007f578063bc197c8111610059578063bc197c8114610566578063cc63f2e2146105ae578063f23a6e61146105ce57610175565b8063affed0e0146104f6578063b90be0f81461050b578063b93ea7ad1461054657610175565b8063888eeec6116100b0578063888eeec61461048f5780638c3f5563146104c357806390042baf146104e357610175565b806361c2926c1461044f5780637a9a16281461046f57610175565b806320c13b0b11610122578063295614261161010757806329561426146103db5780632dd31000146103fb5780634fcf3eca1461042f57610175565b806320c13b0b14610379578063257671f51461039957610175565b8063150b7a0211610153578063150b7a021461029e5780631626ba7e146103145780631a9b23371461033457610175565b806301ffc9a714610249578063025b22bc1461027e57610175565b3661017557005b60006101a46000357fffffffff0000000000000000000000000000000000000000000000000000000016610614565b905073ffffffffffffffffffffffffffffffffffffffff811615610247576000808273ffffffffffffffffffffffffffffffffffffffff166000366040516101ed92919061299f565b600060405180830381855af49150503d8060008114610228576040519150601f19603f3d011682016040523d82523d6000602084013e61022d565b606091505b50915091508161023f57805160208201fd5b805160208201f35b005b34801561025557600080fd5b506102696102643660046129dd565b610668565b60405190151581526020015b60405180910390f35b34801561028a57600080fd5b50610247610299366004612a23565b610673565b3480156102aa57600080fd5b506102e36102b9366004612a87565b7f150b7a020000000000000000000000000000000000000000000000000000000095945050505050565b6040517fffffffff000000000000000000000000000000000000000000000000000000009091168152602001610275565b34801561032057600080fd5b506102e361032f366004612af6565b6106c5565b34801561034057600080fd5b5061035461034f3660046129dd565b61070e565b60405173ffffffffffffffffffffffffffffffffffffffff9091168152602001610275565b34801561038557600080fd5b506102e3610394366004612b42565b610719565b3480156103a557600080fd5b506103cd7f000000000000000000000000000000000000000000000000000000000000000081565b604051908152602001610275565b3480156103e757600080fd5b506102476103f6366004612bae565b61077a565b34801561040757600080fd5b506103547f000000000000000000000000000000000000000000000000000000000000000081565b34801561043b57600080fd5b5061024761044a3660046129dd565b610877565b34801561045b57600080fd5b5061024761046a366004612e6c565b6109a6565b34801561047b57600080fd5b5061024761048a366004612ea1565b610abc565b34801561049b57600080fd5b506103547f000000000000000000000000000000000000000000000000000000000000000081565b3480156104cf57600080fd5b506103cd6104de366004612bae565b610b4e565b6103546104f1366004612ef8565b610b7a565b34801561050257600080fd5b506103cd610c16565b34801561051757600080fd5b5061052b610526366004612f2d565b610c27565b60408051938452602084019290925290820152606001610275565b34801561055257600080fd5b50610247610561366004612f80565b610e03565b34801561057257600080fd5b506102e3610581366004612ffa565b7fbc197c810000000000000000000000000000000000000000000000000000000098975050505050505050565b3480156105ba57600080fd5b506103cd6105c9366004612bae565b610f48565b3480156105da57600080fd5b506102e36105e93660046130b5565b7ff23a6e61000000000000000000000000000000000000000000000000000000009695505050505050565b60006106627fbe27a319efc8734e89e26ba4bc95f5c788584163b959f03fa04e2d7ab4b9a1207fffffffff000000000000000000000000000000000000000000000000000000008416610f70565b92915050565b600061066282610fce565b3330146106b9576040517fe12588940000000000000000000000000000000000000000000000000000000081523360048201523060248201526044015b60405180910390fd5b6106c28161102a565b50565b6000806106d38585856110e4565b509050801561070557507f1626ba7e000000000000000000000000000000000000000000000000000000009050610707565b505b9392505050565b600061066282610614565b60008061073e868660405161072f92919061299f565b604051809103902085856110e4565b509050801561077057507f20c13b0b000000000000000000000000000000000000000000000000000000009050610772565b505b949350505050565b3330146107bb576040517fe12588940000000000000000000000000000000000000000000000000000000081523360048201523060248201526044016106b0565b806107f2576040517f4294d12700000000000000000000000000000000000000000000000000000000815260040160405180910390fd5b61081b7fea7157fa25e3aa17d0ae2d5280fa4e24d421c61842aa85e45194e1145aa72bf8829055565b6040518181527f307ed6bd941ee9fc80f369c94af5fa11e25bab5102a6140191756c5474a30bfa9060200160405180910390a16106c27f000000000000000000000000000000000000000000000000000000000000000061102a565b3330146108b8576040517fe12588940000000000000000000000000000000000000000000000000000000081523360048201523060248201526044016106b0565b60006108c382610614565b73ffffffffffffffffffffffffffffffffffffffff1603610934576040517f1c3812cc0000000000000000000000000000000000000000000000000000000081527fffffffff00000000000000000000000000000000000000000000000000000000821660048201526024016106b0565b604080517fbe27a319efc8734e89e26ba4bc95f5c788584163b959f03fa04e2d7ab4b9a1206020808301919091527fffffffff00000000000000000000000000000000000000000000000000000000841682840152825180830384018152606090920190925280519101206000905550565b3330146109e7576040517fe12588940000000000000000000000000000000000000000000000000000000081523360048201523060248201526044016106b0565b6000610aac826040516020016109fd9190613259565b604080517fffffffffffffffffffffffffffffffffffffffffffffffffffffffffffffffe081840301815282825280516020918201207f1901000000000000000000000000000000000000000000000000000000000000848301524660228501523060601b7fffffffffffffffffffffffffffffffffffffffff000000000000000000000000166042850152605680850191909152825180850390910181526076909301909152815191012090565b9050610ab8818361119c565b5050565b610ac58361137b565b600080610afb8587604051602001610ade9291906132a0565b6040516020818303038152906040528051906020012085856110e4565b9150915081610b3c578084846040517f8f4a234f0000000000000000000000000000000000000000000000000000000081526004016106b093929190613302565b610b46818761119c565b505050505050565b60006106627f8d0bf1fd623d628c741362c1289948e57b3e2905218c676d3e69abee36d6ae2e83610f70565b6000333014610bbd576040517fe12588940000000000000000000000000000000000000000000000000000000081523360048201523060248201526044016106b0565b81516020830134f060405173ffffffffffffffffffffffffffffffffffffffff821681529091507fa506ad4e7f05eceba62a023c3219e5bd98a615f4fa87e2afb08a2da5cf62bf0c9060200160405180910390a1919050565b6000610c226000610b4e565b905090565b8281013560f01c600081600284015b85811015610df857600281019087013560f881901c9060f01c60ff1660007fffffffffffffffffffffffffffffffffffffffffffffffffffffffffffffffff8301610c8c5750601483019289013560601c610da8565b82610cc2576000846042019050610cb48c8c8c88908592610caf93929190613325565b611603565b968301969094509050610da8565b60028303610d7357838a013560601c601485019450905060008a85013560f01c600286018161ffff169150809650819250505060008186019050610d188d848e8e8a908692610d1393929190613325565b6118c6565b610d66578c838d8d89908592610d3093929190613325565b6040517f9a9462320000000000000000000000000000000000000000000000000000000081526004016106b0949392919061334f565b968301969450610da89050565b6040517fb2505f7c000000000000000000000000000000000000000000000000000000008152600481018490526024016106b0565b604080516020810189905290810183905273ffffffffffffffffffffffffffffffffffffffff82166060820152608001604051602081830303815290604052805190602001209650505050610c36565b509450945094915050565b333014610e44576040517fe12588940000000000000000000000000000000000000000000000000000000081523360048201523060248201526044016106b0565b6000610e4f83610614565b73ffffffffffffffffffffffffffffffffffffffff1614610ec0576040517f5b4d6d6a0000000000000000000000000000000000000000000000000000000081527fffffffff00000000000000000000000000000000000000000000000000000000831660048201526024016106b0565b604080517fbe27a319efc8734e89e26ba4bc95f5c788584163b959f03fa04e2d7ab4b9a1206020808301919091527fffffffff000000000000000000000000000000000000000000000000000000008516828401528251808303840181526060909201909252805191012073ffffffffffffffffffffffffffffffffffffffff821690555050565b60006106627f2a37c7c3c3449f4795b05559a0f92a1730815bf20be16b02bbd6dbb8ae8532fe835b6000808383604051602001610f8f929190918252602082015260400190565b604080517fffffffffffffffffffffffffffffffffffffffffffffffffffffffffffffffe0818403018152919052805160209091012054949350505050565b60007f6ffbd451000000000000000000000000000000000000000000000000000000007fffffffff0000000000000000000000000000000000000000000000000000000083160161102157506001919050565b61066282611a6a565b73ffffffffffffffffffffffffffffffffffffffff81163b611090576040517f0c76093700000000000000000000000000000000000000000000000000000000815273ffffffffffffffffffffffffffffffffffffffff821660048201526024016106b0565b611098813055565b60405173ffffffffffffffffffffffffffffffffffffffff821681527f310ba5f1d2ed074b51e2eccd052a47ae9ab7c6b800d1fca3db3999d6a592ca039060200160405180910390a150565b6000806000806110f48686611bab565b909250905060ff82166111185761110d86868984611bf8565b935093505050611194565b60018260ff160361112f5761110d86868984611daa565b60028260ff16036111465761110d86868984611e41565b60038260ff160361115d5761110d86868984611ec9565b6040517fbff01fa700000000000000000000000000000000000000000000000000000000815260ff831660048201526024016106b0565b935093915050565b60005b81518110156113765760008282815181106111bc576111bc61338f565b602002602001015190506000606082604001515a10156112175782604001515a6040517f9fa72982000000000000000000000000000000000000000000000000000000008152600481019290925260248201526044016106b0565b8251156112af57826060015173ffffffffffffffffffffffffffffffffffffffff16836040015160001461124f578360400151611251565b5a5b8460a0015160405161126391906133be565b6000604051808303818686f4925050503d806000811461129f576040519150601f19603f3d011682016040523d82523d6000602084013e6112a4565b606091505b509092509050611344565b826060015173ffffffffffffffffffffffffffffffffffffffff16836080015184604001516000146112e55784604001516112e7565b5a5b908560a001516040516112fa91906133be565b600060405180830381858888f193505050503d8060008114611338576040519150601f19603f3d011682016040523d82523d6000602084013e61133d565b606091505b5090925090505b81156113605760405186815260200160405180910390a061136b565b61136b83878361242f565b50505060010161119f565b505050565b60008060006113898461247f565b919450925090508161147f5760006113a084610b4e565b90508181146113ec576040517f9b6514f40000000000000000000000000000000000000000000000000000000081526004810185905260248101839052604481018290526064016106b0565b604080517f8d0bf1fd623d628c741362c1289948e57b3e2905218c676d3e69abee36d6ae2e60208083019190915281830187905282518083038401815260609092019092528051910120600183019081905560408051868152602081018390527f1f180c27086c7a39ea2a7b25239d1ab92348f07ca7bb59d1438fcf527568f881910160405180910390a1505050505050565b6001820361157057600061149284610f48565b90508082116114de576040517fcf9c69b80000000000000000000000000000000000000000000000000000000081526004810185905260248101839052604481018290526064016106b0565b604080517f2a37c7c3c3449f4795b05559a0f92a1730815bf20be16b02bbd6dbb8ae8532fe60208083019190915281830187905282518083038401815260608301808552815191909201208590558690526080810183905260a0810184905290517fd9aa9f0269d7ebe0e495362c56c21163d40a52f13ad524fb0e844ff41811f0529181900360c00190a15050505050565b600282036115f5578215158061158557508015155b156115c6576040517f333fc10200000000000000000000000000000000000000000000000000000000815260048101849052602481018290526044016106b0565b6040517fffcdc510cc982d77c612ebe049ca925f66c6effb232c431c01fd0e79f6dad4f590600090a150505050565b6115fd6133da565b50505050565b6000604282146116435782826040517f2ee17a3d0000000000000000000000000000000000000000000000000000000081526004016106b0929190613409565b600061165c61165360018561344c565b85013560f81c90565b60ff169050604084013560f81c843560208601357f7fffffffffffffffffffffffffffffff5d576e7357a4501ddfe92f46681b20a08111156116d0578686826040517fad4aac760000000000000000000000000000000000000000000000000000000081526004016106b093929190613463565b8260ff16601b141580156116e857508260ff16601c14155b15611725578686846040517fe578897e0000000000000000000000000000000000000000000000000000000081526004016106b093929190613487565b60018403611792576040805160008152602081018083528a905260ff851691810191909152606081018390526080810182905260019060a0015b6020604051602081039080840390855afa158015611781573d6000803e3d6000fd5b50505060206040510351945061186a565b6002840361182f576040517f19457468657265756d205369676e6564204d6573736167653a0a3332000000006020820152603c8101899052600190605c01604080517fffffffffffffffffffffffffffffffffffffffffffffffffffffffffffffffe08184030181528282528051602091820120600084529083018083525260ff861690820152606081018490526080810183905260a00161175f565b86868560016040517f9dfba8520000000000000000000000000000000000000000000000000000000081526004016106b094939291906134ae565b73ffffffffffffffffffffffffffffffffffffffff85166118bb5786866040517f6c1719d20000000000000000000000000000000000000000000000000000000081526004016106b0929190613409565b505050509392505050565b60008083836118d660018261344c565b8181106118e5576118e561338f565b919091013560f81c91505060018114806118ff5750600281145b15611944578473ffffffffffffffffffffffffffffffffffffffff16611926878686611603565b73ffffffffffffffffffffffffffffffffffffffff16149150610770565b60038103611a2f5773ffffffffffffffffffffffffffffffffffffffff8516631626ba7e878660008761197860018261344c565b9261198593929190613325565b6040518463ffffffff1660e01b81526004016119a393929190613302565b602060405180830381865afa1580156119c0573d6000803e3d6000fd5b505050506040513d601f19601f820116820180604052508101906119e491906134da565b7fffffffff00000000000000000000000000000000000000000000000000000000167f1626ba7e00000000000000000000000000000000000000000000000000000000149150610770565b83838260006040517f9dfba8520000000000000000000000000000000000000000000000000000000081526004016106b094939291906134ae565b60007fffffffff0000000000000000000000000000000000000000000000000000000082167fec6aba50000000000000000000000000000000000000000000000000000000001480611afd57507fffffffff0000000000000000000000000000000000000000000000000000000082167f4e2312e000000000000000000000000000000000000000000000000000000000145b80611b4957507fffffffff0000000000000000000000000000000000000000000000000000000082167f150b7a0200000000000000000000000000000000000000000000000000000000145b80611b9557507fffffffff0000000000000000000000000000000000000000000000000000000082167fc0ee0b8a00000000000000000000000000000000000000000000000000000000145b15611ba257506001919050565b610662826124df565b600080828103611beb5783836040517f322952a30000000000000000000000000000000000000000000000000000000081526004016106b0929190613409565b5050503560f81c90600190565b604080517f19010000000000000000000000000000000000000000000000000000000000006020808301919091524660228301523060601b7fffffffffffffffffffffffffffffffffffffffff000000000000000000000000166042830152605680830186905283518084039091018152607690920190925280519101206000906000806000611c8b848a8a6000610c27565b925092509250808210158015611d9c5750611d9c836040517fff0000000000000000000000000000000000000000000000000000000000000060208201527fffffffffffffffffffffffffffffffffffffffff0000000000000000000000007f000000000000000000000000000000000000000000000000000000000000000060601b166021820152603581018290527f000000000000000000000000000000000000000000000000000000000000000060558201526000903090607501604080517fffffffffffffffffffffffffffffffffffffffffffffffffffffffffffffffe0818403018152919052805160209091012073ffffffffffffffffffffffffffffffffffffffff161492915050565b945050505094509492505050565b604080517f19010000000000000000000000000000000000000000000000000000000000006020808301919091524660228301523060601b7fffffffffffffffffffffffffffffffffffffffff0000000000000000000000001660428301526056808301869052835180840390910181526076909201909252805191012060009081905b90506000806000611c8b848a8a89610c27565b604080517f19010000000000000000000000000000000000000000000000000000000000006020808301919091526000602283018190523060601b7fffffffffffffffffffffffffffffffffffffffff000000000000000000000000166042840152605680840187905284518085039091018152607690930190935281519101208190611e2e565b6000808080611edb876001818b613325565b810190611ee891906134f7565b6040517fcc63f2e20000000000000000000000000000000000000000000000000000000081527396f7fef04d2478e2b011c3aca79dc5a83b5d37ef60048201529193509150600090309063cc63f2e290602401602060405180830381865afa158015611f58573d6000803e3d6000fd5b505050506040513d601f19601f82011682018060405250810190611f7c919061364e565b90506000805b845181101561226857600080611fd3878481518110611fa357611fa361338f565b602002602001015160000151888581518110611fc157611fc161338f565b6020026020010151602001513061253b565b915091506000878481518110611feb57611feb61338f565b60200260200101516040015190506000801b8514801561200a57508582105b1561201e5785821161201e57505050612256565b60008060003073ffffffffffffffffffffffffffffffffffffffff1663b90be0f88c89815181106120515761205161338f565b6020026020010151600001518d8a8151811061206f5761206f61338f565b60200260200101516020015160405160200161208c929190613667565b604051602081830303815290604052805190602001208660006040518463ffffffff1660e01b81526004016120c393929190613689565b606060405180830381865afa1580156120e0573d6000803e3d6000fd5b505050506040513d601f19601f8201168201806040525081019061210491906136b2565b92509250925087831461224b57871561212f575060009b508b9a506124269950505050505050505050565b61222f866040517fff0000000000000000000000000000000000000000000000000000000000000060208201527fffffffffffffffffffffffffffffffffffffffff0000000000000000000000007f000000000000000000000000000000000000000000000000000000000000000060601b166021820152603581018290527f000000000000000000000000000000000000000000000000000000000000000060558201526000903090607501604080517fffffffffffffffffffffffffffffffffffffffffffffffffffffffffffffffe0818403018152919052805160209091012073ffffffffffffffffffffffffffffffffffffffff161492915050565b61224b575060009b508b9a506124269950505050505050505050565b509296509294505050505b80612260816136e0565b915050611f82565b50604080517f19010000000000000000000000000000000000000000000000000000000000006020808301919091524660228301523060601b7fffffffffffffffffffffffffffffffffffffffff00000000000000000000000016604283015260568083018c90528351808403909101815260769092019092528051910120945060008060006122fa888e8e8d610c27565b92509250925080821015801561230f57508315155b61241857612413836040517fff0000000000000000000000000000000000000000000000000000000000000060208201527fffffffffffffffffffffffffffffffffffffffff0000000000000000000000007f000000000000000000000000000000000000000000000000000000000000000060601b166021820152603581018290527f000000000000000000000000000000000000000000000000000000000000000060558201526000903090607501604080517fffffffffffffffffffffffffffffffffffffffffffffffffffffffffffffffe0818403018152919052805160209091012073ffffffffffffffffffffffffffffffffffffffff161492915050565b61241c565b8383145b9850505050505050505b94509492505050565b82602001511561244157805160208201fd5b7f3dbd1590ea96dd3253a91f24e64e3a502e1225d602a5731357bc12643070ccd78282604051612472929190613718565b60405180910390a1505050565b606081901c605882901c60ff166affffffffffffffffffffff831660028211156124d8576040517ff5587439000000000000000000000000000000000000000000000000000000008152600481018390526024016106b0565b9193909250565b60007f0b050cdb000000000000000000000000000000000000000000000000000000007fffffffff0000000000000000000000000000000000000000000000000000000083160161253257506001919050565b61066282612747565b6000808460000151806125515750608085015115155b8061255d575084602001515b8061256b5750604085015115155b8061257c57508460a0015151602414155b806125b757508273ffffffffffffffffffffffffffffffffffffffff16856060015173ffffffffffffffffffffffffffffffffffffffff1614155b156125f057846040517f7c6db09e0000000000000000000000000000000000000000000000000000000081526004016106b09190613731565b60008060006125fe8761247f565b92509250925060018214612641576040517ff5587439000000000000000000000000000000000000000000000000000000008152600481018390526024016106b0565b7396f7fef04d2478e2b011c3aca79dc5a83b5d37ef8314612691576040517f2edc0ac4000000000000000000000000000000000000000000000000000000008152600481018490526024016106b0565b6000806126a18a60a00151612752565b90925090507fffffffff0000000000000000000000000000000000000000000000000000000082167f29561426000000000000000000000000000000000000000000000000000000001461272357896040517f7c6db09e0000000000000000000000000000000000000000000000000000000081526004016106b09190613731565b80806020019051810190612737919061364e565b9a92995091975050505050505050565b600061066282612784565b60006060602083015163ffffffff16915061277b836004808651612776919061344c565b6127e0565b50919391925050565b60007ffda4dd44000000000000000000000000000000000000000000000000000000007fffffffff000000000000000000000000000000000000000000000000000000008316016127d757506001919050565b610662826128b5565b606060008267ffffffffffffffff8111156127fd576127fd612bc7565b6040519080825280601f01601f191660200182016040528015612827576020820181803683370190505b509150838501602001600060205b8581101561284e57908201518482015260208101612835565b8486016020018051939092015190850152525082820183811015612874576128746133da565b8451811115611194578484846040517f10a999ce0000000000000000000000000000000000000000000000000000000081526004016106b093929190613744565b60007fffffffff0000000000000000000000000000000000000000000000000000000082167f2956142600000000000000000000000000000000000000000000000000000000148061294857507fffffffff0000000000000000000000000000000000000000000000000000000082167f36e7817500000000000000000000000000000000000000000000000000000000145b1561295557506001919050565b7f01ffc9a7000000000000000000000000000000000000000000000000000000007fffffffff00000000000000000000000000000000000000000000000000000000831614610662565b8183823760009101908152919050565b7fffffffff00000000000000000000000000000000000000000000000000000000811681146106c257600080fd5b6000602082840312156129ef57600080fd5b8135610707816129af565b803573ffffffffffffffffffffffffffffffffffffffff81168114612a1e57600080fd5b919050565b600060208284031215612a3557600080fd5b610707826129fa565b60008083601f840112612a5057600080fd5b50813567ffffffffffffffff811115612a6857600080fd5b602083019150836020828501011115612a8057600080fd5b9250929050565b600080600080600060808688031215612a9f57600080fd5b612aa8866129fa565b9450612ab6602087016129fa565b935060408601359250606086013567ffffffffffffffff811115612ad957600080fd5b612ae588828901612a3e565b969995985093965092949392505050565b600080600060408486031215612b0b57600080fd5b83359250602084013567ffffffffffffffff811115612b2957600080fd5b612b3586828701612a3e565b9497909650939450505050565b60008060008060408587031215612b5857600080fd5b843567ffffffffffffffff80821115612b7057600080fd5b612b7c88838901612a3e565b90965094506020870135915080821115612b9557600080fd5b50612ba287828801612a3e565b95989497509550505050565b600060208284031215612bc057600080fd5b5035919050565b7f4e487b7100000000000000000000000000000000000000000000000000000000600052604160045260246000fd5b6040516060810167ffffffffffffffff81118282101715612c1957612c19612bc7565b60405290565b604051601f82017fffffffffffffffffffffffffffffffffffffffffffffffffffffffffffffffe016810167ffffffffffffffff81118282101715612c6657612c66612bc7565b604052919050565b600067ffffffffffffffff821115612c8857612c88612bc7565b5060051b60200190565b80358015158114612a1e57600080fd5b600082601f830112612cb357600080fd5b813567ffffffffffffffff811115612ccd57612ccd612bc7565b612cfe60207fffffffffffffffffffffffffffffffffffffffffffffffffffffffffffffffe0601f84011601612c1f565b818152846020838601011115612d1357600080fd5b816020850160208301376000918101602001919091529392505050565b600060c08284031215612d4257600080fd5b60405160c0810167ffffffffffffffff8282108183111715612d6657612d66612bc7565b81604052829350612d7685612c92565b8352612d8460208601612c92565b602084015260408501356040840152612d9f606086016129fa565b60608401526080850135608084015260a0850135915080821115612dc257600080fd5b50612dcf85828601612ca2565b60a0830152505092915050565b600082601f830112612ded57600080fd5b81356020612e02612dfd83612c6e565b612c1f565b82815260059290921b84018101918181019086841115612e2157600080fd5b8286015b84811015612e6157803567ffffffffffffffff811115612e455760008081fd5b612e538986838b0101612d30565b845250918301918301612e25565b509695505050505050565b600060208284031215612e7e57600080fd5b813567ffffffffffffffff811115612e9557600080fd5b61077284828501612ddc565b60008060008060608587031215612eb757600080fd5b843567ffffffffffffffff80821115612ecf57600080fd5b612edb88838901612ddc565b9550602087013594506040870135915080821115612b9557600080fd5b600060208284031215612f0a57600080fd5b813567ffffffffffffffff811115612f2157600080fd5b61077284828501612ca2565b60008060008060608587031215612f4357600080fd5b84359350602085013567ffffffffffffffff811115612f6157600080fd5b612f6d87828801612a3e565b9598909750949560400135949350505050565b60008060408385031215612f9357600080fd5b8235612f9e816129af565b9150612fac602084016129fa565b90509250929050565b60008083601f840112612fc757600080fd5b50813567ffffffffffffffff811115612fdf57600080fd5b6020830191508360208260051b8501011115612a8057600080fd5b60008060008060008060008060a0898b03121561301657600080fd5b61301f896129fa565b975061302d60208a016129fa565b9650604089013567ffffffffffffffff8082111561304a57600080fd5b6130568c838d01612fb5565b909850965060608b013591508082111561306f57600080fd5b61307b8c838d01612fb5565b909650945060808b013591508082111561309457600080fd5b506130a18b828c01612a3e565b999c989b5096995094979396929594505050565b60008060008060008060a087890312156130ce57600080fd5b6130d7876129fa565b95506130e5602088016129fa565b94506040870135935060608701359250608087013567ffffffffffffffff81111561310f57600080fd5b61311b89828a01612a3e565b979a9699509497509295939492505050565b60005b83811015613148578181015183820152602001613130565b838111156115fd5750506000910152565b6000815180845261317181602086016020860161312d565b601f017fffffffffffffffffffffffffffffffffffffffffffffffffffffffffffffffe0169290920160200192915050565b8051151582526020810151151560208301526040810151604083015273ffffffffffffffffffffffffffffffffffffffff606082015116606083015260808101516080830152600060a082015160c060a085015261077260c0850182613159565b600081518084526020808501808196508360051b8101915082860160005b8581101561324c57828403895261323a8483516131a3565b98850198935090840190600101613222565b5091979650505050505050565b60408152600560408201527f73656c663a00000000000000000000000000000000000000000000000000000060608201526080602082015260006107076080830184613204565b8281526040602082015260006107726040830184613204565b8183528181602085013750600060208284010152600060207fffffffffffffffffffffffffffffffffffffffffffffffffffffffffffffffe0601f840116840101905092915050565b83815260406020820152600061331c6040830184866132b9565b95945050505050565b6000808585111561333557600080fd5b8386111561334257600080fd5b5050820193919092039150565b84815273ffffffffffffffffffffffffffffffffffffffff841660208201526060604082015260006133856060830184866132b9565b9695505050505050565b7f4e487b7100000000000000000000000000000000000000000000000000000000600052603260045260246000fd5b600082516133d081846020870161312d565b9190910192915050565b7f4e487b7100000000000000000000000000000000000000000000000000000000600052600160045260246000fd5b6020815260006107726020830184866132b9565b7f4e487b7100000000000000000000000000000000000000000000000000000000600052601160045260246000fd5b60008282101561345e5761345e61341d565b500390565b6040815260006134776040830185876132b9565b9050826020830152949350505050565b60408152600061349b6040830185876132b9565b905060ff83166020830152949350505050565b6060815260006134c26060830186886132b9565b60208301949094525090151560409091015292915050565b6000602082840312156134ec57600080fd5b8151610707816129af565b6000806040838503121561350a57600080fd5b823567ffffffffffffffff8082111561352257600080fd5b818501915085601f83011261353657600080fd5b81356020613546612dfd83612c6e565b82815260059290921b8401810191818101908984111561356557600080fd5b8286015b84811015613620578035868111156135815760008081fd5b87016060818d037fffffffffffffffffffffffffffffffffffffffffffffffffffffffffffffffe0018113156135b75760008081fd5b6135bf612bf6565b86830135898111156135d15760008081fd5b6135df8f8983870101612d30565b8252506040830135878201529082013590888211156135fe5760008081fd5b61360c8e8884860101612ca2565b604082015285525050918301918301613569565b509650508601359250508082111561363757600080fd5b5061364485828601612ca2565b9150509250929050565b60006020828403121561366057600080fd5b5051919050565b60408152600061367a60408301856131a3565b90508260208301529392505050565b8381526060602082015260006136a26060830185613159565b9050826040830152949350505050565b6000806000606084860312156136c757600080fd5b8351925060208401519150604084015190509250925092565b60007fffffffffffffffffffffffffffffffffffffffffffffffffffffffffffffffff82036137115761371161341d565b5060010190565b8281526040602082015260006107726040830184613159565b60208152600061070760208301846131a3565b6060815260006137576060830186613159565b6020830194909452506040015291905056fea2646970667358221220b1a6af65f00e581f4a1a937320752477ddba29fb522d82a3cf32fcd8595120e264736f6c634300080e0033603a600e3d39601a805130553df3363d3d373d3d3d363d30545af43d82803e903d91601857fd5bf3",
  "linkReferences": {},
  "deployedLinkReferences": {}
}