{
  "_format": "hh-sol-artifact-1",
  "contractName": "SequenceUtils",
  "sourceName": "contracts/modules/utils/SequenceUtils.sol",
  "abi": [
    {
      "inputs": [
        {
          "internalType": "address",
          "name": "_factory",
          "type": "address"
        },
        {
          "internalType": "address",
          "name": "_mainModule",
          "type": "address"
        }
      ],
      "stateMutability": "nonpayable",
      "type": "constructor"
    },
    {
      "anonymous": false,
      "inputs": [
        {
          "indexed": true,
          "internalType": "address",
          "name": "_wallet",
          "type": "address"
        },
        {
          "indexed": true,
          "internalType": "bytes32",
          "name": "_imageHash",
          "type": "bytes32"
        },
        {
          "indexed": false,
          "internalType": "uint256",
          "name": "_threshold",
          "type": "uint256"
        },
        {
          "indexed": false,
          "internalType": "bytes",
          "name": "_signers",
          "type": "bytes"
        }
      ],
      "name": "RequiredConfig",
      "type": "event"
    },
    {
      "anonymous": false,
      "inputs": [
        {
          "indexed": true,
          "internalType": "address",
          "name": "_wallet",
          "type": "address"
        },
        {
          "indexed": true,
          "internalType": "address",
          "name": "_signer",
          "type": "address"
        }
      ],
      "name": "RequiredSigner",
      "type": "event"
    },
    {
      "inputs": [
        {
          "internalType": "address",
          "name": "_addr",
          "type": "address"
        }
      ],
      "name": "callBalanceOf",
      "outputs": [
        {
          "internalType": "uint256",
          "name": "",
          "type": "uint256"
        }
      ],
      "stateMutability": "view",
      "type": "function"
    },
    {
      "inputs": [],
      "name": "callBlockNumber",
      "outputs": [
        {
          "internalType": "uint256",
          "name": "",
          "type": "uint256"
        }
      ],
      "stateMutability": "view",
      "type": "function"
    },
    {
      "inputs": [
        {
          "internalType": "uint256",
          "name": "_i",
          "type": "uint256"
        }
      ],
      "name": "callBlockhash",
      "outputs": [
        {
          "internalType": "bytes32",
          "name": "",
          "type": "bytes32"
        }
      ],
      "stateMutability": "view",
      "type": "function"
    },
    {
      "inputs": [],
      "name": "callChainId",
      "outputs": [
        {
          "internalType": "uint256",
          "name": "id",
          "type": "uint256"
        }
      ],
      "stateMutability": "pure",
      "type": "function"
    },
    {
      "inputs": [
        {
          "internalType": "address",
          "name": "_addr",
          "type": "address"
        }
      ],
      "name": "callCode",
      "outputs": [
        {
          "internalType": "bytes",
          "name": "code",
          "type": "bytes"
        }
      ],
      "stateMutability": "view",
      "type": "function"
    },
    {
      "inputs": [
        {
          "internalType": "address",
          "name": "_addr",
          "type": "address"
        }
      ],
      "name": "callCodeHash",
      "outputs": [
        {
          "internalType": "bytes32",
          "name": "codeHash",
          "type": "bytes32"
        }
      ],
      "stateMutability": "view",
      "type": "function"
    },
    {
      "inputs": [
        {
          "internalType": "address",
          "name": "_addr",
          "type": "address"
        }
      ],
      "name": "callCodeSize",
      "outputs": [
        {
          "internalType": "uint256",
          "name": "size",
          "type": "uint256"
        }
      ],
      "stateMutability": "view",
      "type": "function"
    },
    {
      "inputs": [],
      "name": "callCoinbase",
      "outputs": [
        {
          "internalType": "address",
          "name": "",
          "type": "address"
        }
      ],
      "stateMutability": "view",
      "type": "function"
    },
    {
      "inputs": [],
      "name": "callDifficulty",
      "outputs": [
        {
          "internalType": "uint256",
          "name": "",
          "type": "uint256"
        }
      ],
      "stateMutability": "view",
      "type": "function"
    },
    {
      "inputs": [],
      "name": "callGasLeft",
      "outputs": [
        {
          "internalType": "uint256",
          "name": "",
          "type": "uint256"
        }
      ],
      "stateMutability": "view",
      "type": "function"
    },
    {
      "inputs": [],
      "name": "callGasLimit",
      "outputs": [
        {
          "internalType": "uint256",
          "name": "",
          "type": "uint256"
        }
      ],
      "stateMutability": "view",
      "type": "function"
    },
    {
      "inputs": [],
      "name": "callGasPrice",
      "outputs": [
        {
          "internalType": "uint256",
          "name": "",
          "type": "uint256"
        }
      ],
      "stateMutability": "view",
      "type": "function"
    },
    {
      "inputs": [],
      "name": "callOrigin",
      "outputs": [
        {
          "internalType": "address",
          "name": "",
          "type": "address"
        }
      ],
      "stateMutability": "view",
      "type": "function"
    },
    {
      "inputs": [],
      "name": "callTimestamp",
      "outputs": [
        {
          "internalType": "uint256",
          "name": "",
          "type": "uint256"
        }
      ],
      "stateMutability": "view",
      "type": "function"
    },
    {
      "inputs": [
        {
          "internalType": "address",
          "name": "",
          "type": "address"
        }
      ],
      "name": "lastSignerUpdate",
      "outputs": [
        {
          "internalType": "uint256",
          "name": "",
          "type": "uint256"
        }
      ],
      "stateMutability": "view",
      "type": "function"
    },
    {
      "inputs": [
        {
          "internalType": "address",
          "name": "",
          "type": "address"
        }
      ],
      "name": "lastWalletUpdate",
      "outputs": [
        {
          "internalType": "uint256",
          "name": "",
          "type": "uint256"
        }
      ],
      "stateMutability": "view",
      "type": "function"
    },
    {
      "inputs": [
        {
          "components": [
            {
              "internalType": "bool",
              "name": "delegateCall",
              "type": "bool"
            },
            {
              "internalType": "bool",
              "name": "revertOnError",
              "type": "bool"
            },
            {
              "internalType": "uint256",
              "name": "gasLimit",
              "type": "uint256"
            },
            {
              "internalType": "address",
              "name": "target",
              "type": "address"
            },
            {
              "internalType": "uint256",
              "name": "value",
              "type": "uint256"
            },
            {
              "internalType": "bytes",
              "name": "data",
              "type": "bytes"
            }
          ],
          "internalType": "struct IModuleCalls.Transaction[]",
          "name": "_txs",
          "type": "tuple[]"
        }
      ],
      "name": "multiCall",
      "outputs": [
        {
          "internalType": "bool[]",
          "name": "_successes",
          "type": "bool[]"
        },
        {
          "internalType": "bytes[]",
          "name": "_results",
          "type": "bytes[]"
        }
      ],
      "stateMutability": "payable",
      "type": "function"
    },
    {
      "inputs": [
        {
          "internalType": "address",
          "name": "_wallet",
          "type": "address"
        },
        {
          "internalType": "uint256",
          "name": "_threshold",
          "type": "uint256"
        },
        {
          "components": [
            {
              "internalType": "uint256",
              "name": "weight",
              "type": "uint256"
            },
            {
              "internalType": "address",
              "name": "signer",
              "type": "address"
            }
          ],
          "internalType": "struct RequireUtils.Member[]",
          "name": "_members",
          "type": "tuple[]"
        },
        {
          "internalType": "bool",
          "name": "_index",
          "type": "bool"
        }
      ],
      "name": "publishConfig",
      "outputs": [],
      "stateMutability": "nonpayable",
      "type": "function"
    },
    {
      "inputs": [
        {
          "internalType": "address",
          "name": "_wallet",
          "type": "address"
        },
        {
          "internalType": "bytes32",
          "name": "_hash",
          "type": "bytes32"
        },
        {
          "internalType": "uint256",
          "name": "_sizeMembers",
          "type": "uint256"
        },
        {
          "internalType": "bytes",
          "name": "_signature",
          "type": "bytes"
        },
        {
          "internalType": "bool",
          "name": "_index",
          "type": "bool"
        }
      ],
      "name": "publishInitialSigners",
      "outputs": [],
      "stateMutability": "nonpayable",
      "type": "function"
    },
    {
      "inputs": [
        {
          "internalType": "address",
          "name": "_wallet",
          "type": "address"
        },
        {
          "internalType": "uint256",
          "name": "_nonce",
          "type": "uint256"
        }
      ],
      "name": "requireMinNonce",
      "outputs": [],
      "stateMutability": "view",
      "type": "function"
    },
    {
      "inputs": [
        {
          "internalType": "uint256",
          "name": "_expiration",
          "type": "uint256"
        }
      ],
      "name": "requireNonExpired",
      "outputs": [],
      "stateMutability": "view",
      "type": "function"
    }
  ],
  "bytecode": "0x60c06040523480156200001157600080fd5b5060405162002949380380620029498339810160408190526200003491620000cd565b8181816001600160a01b031660a0816001600160a01b031660601b815250506040518060600160405280602881526020016200292160289139816001600160a01b03166040516020016200008a92919062000104565b60408051601f198184030181529190528051602090910120608052506200014692505050565b80516001600160a01b0381168114620000c857600080fd5b919050565b60008060408385031215620000e0578182fd5b620000eb83620000b0565b9150620000fb60208401620000b0565b90509250929050565b60008351815b818110156200012657602081870181015185830152016200010a565b81811115620001355782828501525b509190910191825250602001919050565b60805160a05160601c6127aa62000177600039806105e95280610a7352508061060d5280610a9752506127aa6000f3fe60806040526004361061016a5760003560e01c8063aeea5fb5116100cb578063d1db39071161007f578063e90f13e711610059578063e90f13e71461033f578063f209883a14610394578063ffd7d741146103a95761016a565b8063d1db39071461033f578063d5b5337f14610354578063e717aba9146103745761016a565b8063c272d5c3116100b0578063c272d5c3146102dd578063c39f2d5c146102f2578063c66764e1146103125761016a565b8063aeea5fb5146102a8578063b472f0a2146102bd5761016a565b8063543196eb116101225780637f29d538116101075780637f29d53814610251578063984395bc1461027157806398f9fbc4146102935761016a565b8063543196eb146102115780637082503b146102315761016a565b806343d9c9351161015357806343d9c935146101ba57806344d466c2146101cf57806348acd29f146101f15761016a565b80630fdecfac1461016f5780631cd05dc41461019a575b600080fd5b34801561017b57600080fd5b506101846103ca565b604051610191919061203d565b60405180910390f35b3480156101a657600080fd5b506101846101b5366004611a99565b6103ce565b3480156101c657600080fd5b506101846103e0565b3480156101db57600080fd5b506101ef6101ea366004611b53565b6103e8565b005b3480156101fd57600080fd5b5061018461020c366004611a99565b610762565b34801561021d57600080fd5b5061018461022c366004611a99565b610780565b34801561023d57600080fd5b506101ef61024c366004611aba565b610784565b34801561025d57600080fd5b506101ef61026c366004611d3b565b610bed565b34801561027d57600080fd5b50610286610c29565b6040516101919190611ead565b34801561029f57600080fd5b50610286610c2d565b3480156102b457600080fd5b50610184610c31565b3480156102c957600080fd5b506101ef6102d8366004611b2a565b610c35565b3480156102e957600080fd5b50610184610d13565b3480156102fe57600080fd5b5061018461030d366004611a99565b610d17565b34801561031e57600080fd5b5061033261032d366004611a99565b610d1b565b6040516101919190612072565b34801561034b57600080fd5b50610184610d60565b34801561036057600080fd5b5061018461036f366004611d3b565b610d64565b34801561038057600080fd5b5061018461038f366004611a99565b610d68565b3480156103a057600080fd5b50610184610d7a565b6103bc6103b7366004611be3565b610d7e565b604051610191929190611ece565b4690565b60006020819052908152604090205481565b60005a905090565b8360005b83811015610481578185858381811061040157fe5b9050604002016000013586868481811061041757fe5b905060400201602001602081019061042f9190611a99565b60405160200161044193929190612046565b604080517fffffffffffffffffffffffffffffffffffffffffffffffffffffffffffffffe0818403018152919052805160209091012091506001016103ec565b506000808773ffffffffffffffffffffffffffffffffffffffff166351605d8060e01b6040516020016104b49190611e01565b604080517fffffffffffffffffffffffffffffffffffffffffffffffffffffffffffffffe0818403018152908290526104ec91611e2e565b6000604051808303816000865af19150503d8060008114610529576040519150601f19603f3d011682016040523d82523d6000602084013e61052e565b606091505b5091509150818015610541575080516020145b156105a65760008180602001905181019061055c9190611d23565b90508381146105a0576040517f08c379a0000000000000000000000000000000000000000000000000000000008152600401610597906123f0565b60405180910390fd5b5061069b565b60405173ffffffffffffffffffffffffffffffffffffffff891690610635907fff00000000000000000000000000000000000000000000000000000000000000907f00000000000000000000000000000000000000000000000000000000000000009087907f000000000000000000000000000000000000000000000000000000000000000090602001611d9d565b6040516020818303038152906040528051906020012060001c73ffffffffffffffffffffffffffffffffffffffff161461069b576040517f08c379a00000000000000000000000000000000000000000000000000000000081526004016105979061244d565b828873ffffffffffffffffffffffffffffffffffffffff167fb502b7446ca079086188acf3abef47c2f464f2ee9a72fcdf05ffcb74dcc17cee8989896040516020016106e8929190611f74565b604080517fffffffffffffffffffffffffffffffffffffffffffffffffffffffffffffffe08184030181529082905261072192916124d0565b60405180910390a383156107585773ffffffffffffffffffffffffffffffffffffffff881660009081526001602052604090204390555b5050505050505050565b73ffffffffffffffffffffffffffffffffffffffff8116315b919050565b3f90565b60008061079084610fee565b915091506000804690508089896040516020016107af93929190611e4a565b604080517fffffffffffffffffffffffffffffffffffffffffffffffffffffffffffffffe0818403018152919052805160209091012091505061ffff831660008767ffffffffffffffff8111801561080657600080fd5b5060405190808252806020026020018201604052801561084057816020015b61082d6119cb565b8152602001906001900390816108255790505b50905060005b87518510156109f7576000808061085d8b8961105c565b995060ff918216945016915060018314156108855761087c8b896110d6565b98509050610978565b826108b75760606108968c8a61114a565b995090506108a488826111f2565b91506108b18f838d611521565b50610978565b6002831415610946576108ca8b896110d6565b9850905060006108da8c8a6115af565b995061ffff16905060606108ef8d8b8461161c565b9a5090506108fe898483611702565b610934576040517f08c379a0000000000000000000000000000000000000000000000000000000008152600401610597906122d9565b50506109418e828c611521565b610978565b6040517f08c379a000000000000000000000000000000000000000000000000000000000815260040161059790612085565b60405180604001604052808381526020018273ffffffffffffffffffffffffffffffffffffffff168152508585815181106109af57fe5b602002602001018190525083806001019450508582826040516020016109d793929190612046565b604051602081830303815290604052805190602001209550505050610846565b888114610a30576040517f08c379a000000000000000000000000000000000000000000000000000000000815260040161059790612393565b60405173ffffffffffffffffffffffffffffffffffffffff8c1690610abf907fff00000000000000000000000000000000000000000000000000000000000000907f00000000000000000000000000000000000000000000000000000000000000009087907f000000000000000000000000000000000000000000000000000000000000000090602001611d9d565b6040516020818303038152906040528051906020012060001c73ffffffffffffffffffffffffffffffffffffffff1614610b25576040517f08c379a000000000000000000000000000000000000000000000000000000000815260040161059790612256565b828b73ffffffffffffffffffffffffffffffffffffffff167fb502b7446ca079086188acf3abef47c2f464f2ee9a72fcdf05ffcb74dcc17cee8885604051602001610b709190611fd8565b604080517fffffffffffffffffffffffffffffffffffffffffffffffffffffffffffffffe081840301815290829052610ba992916124ab565b60405180910390a38615610be05773ffffffffffffffffffffffffffffffffffffffff8b1660009081526001602052604090204390555b5050505050505050505050565b804210610c26576040517f08c379a0000000000000000000000000000000000000000000000000000000008152600401610597906121f9565b50565b3290565b4190565b4490565b600080610c418361194a565b9150915060008473ffffffffffffffffffffffffffffffffffffffff16638c3f5563846040518263ffffffff1660e01b8152600401610c80919061203d565b60206040518083038186803b158015610c9857600080fd5b505afa158015610cac573d6000803e3d6000fd5b505050506040513d601f19601f82011682018060405250810190610cd09190611d23565b905081811015610d0c576040517f08c379a00000000000000000000000000000000000000000000000000000000081526004016105979061219c565b5050505050565b3a90565b3b90565b60408051603f833b9081017fffffffffffffffffffffffffffffffffffffffffffffffffffffffffffffffe01682019092528181529080600060208401853c50919050565b4590565b4090565b60016020526000908152604090205481565b4290565b606080825167ffffffffffffffff81118015610d9957600080fd5b50604051908082528060200260200182016040528015610dc3578160200160208202803683370190505b509150825167ffffffffffffffff81118015610dde57600080fd5b50604051908082528060200260200182016040528015610e1257816020015b6060815260200190600190039081610dfd5790505b50905060005b8351811015610fe8576000848281518110610e2f57fe5b60200260200101519050806000015115610e75576040517f08c379a000000000000000000000000000000000000000000000000000000000815260040161059790612336565b80604001515a1015610eb3576040517f08c379a00000000000000000000000000000000000000000000000000000000081526004016105979061213f565b806060015173ffffffffffffffffffffffffffffffffffffffff1681608001518260400151600014610ee9578260400151610eeb565b5a5b908360a00151604051610efe9190611e2e565b600060405180830381858888f193505050503d8060008114610f3c576040519150601f19603f3d011682016040523d82523d6000602084013e610f41565b606091505b50858481518110610f4e57fe5b60200260200101858581518110610f6157fe5b6020026020010182905282151515158152505050838281518110610f8157fe5b602002602001015180610fa95750848281518110610f9b57fe5b602002602001015160200151155b610fdf576040517f08c379a0000000000000000000000000000000000000000000000000000000008152600401610597906120e2565b50600101610e18565b50915091565b6020810151815160f09190911c90600290811115611057576040517f08c379a000000000000000000000000000000000000000000000000000000000815260040180806020018281038252602781526020018061259e6027913960400191505060405180910390fd5b915091565b80820160200151825160f882901c9160f01c60ff169060028401908111156110cf576040517f08c379a00000000000000000000000000000000000000000000000000000000081526004018080602001828103825260268152602001806126d06026913960400191505060405180910390fd5b9250925092565b80820160200151825160609190911c906014830190811115611143576040517f08c379a000000000000000000000000000000000000000000000000000000000815260040180806020018281038252602381526020018061257b6023913960400191505060405180910390fd5b9250929050565b6040805160428082526080820190925260609160009190602082018180368337019050509150828401602001805160208401526020810151604084015260228101516042840152506042830190508351811115611143576040517f08c379a00000000000000000000000000000000000000000000000000000000081526004018080602001828103825260238152602001806126716023913960400191505060405180910390fd5b6000808260018451038151811061120557fe5b602001015160f81c60f81b60f81c60ff16905060008360408151811061122757fe5b016020015160f81c9050600061123d8582611963565b9050600061124c866020611963565b90507f7fffffffffffffffffffffffffffffff5d576e7357a4501ddfe92f46681b20a08111156112c7576040517f08c379a000000000000000000000000000000000000000000000000000000000815260040180806020018281038252603d81526020018061253e603d913960400191505060405180910390fd5b8260ff16601b141580156112df57508260ff16601c14155b15611335576040517f08c379a000000000000000000000000000000000000000000000000000000000815260040180806020018281038252603d8152602001806125c5603d913960400191505060405180910390fd5b60018414156113a95760018784848460405160008152602001604052604051808581526020018460ff1681526020018381526020018281526020019450505050506020604051602081039080840390855afa158015611398573d6000803e3d6000fd5b5050506020604051035194506114ab565b600284141561145a5760018760405160200180807f19457468657265756d205369676e6564204d6573736167653a0a333200000000815250601c018281526020019150506040516020818303038152906040528051906020012084848460405160008152602001604052604051808581526020018460ff1681526020018381526020018281526020019450505050506020604051602081039080840390855afa158015611398573d6000803e3d6000fd5b6040517f08c379a000000000000000000000000000000000000000000000000000000000815260040180806020018281038252603c815260200180612694603c913960400191505060405180910390fd5b73ffffffffffffffffffffffffffffffffffffffff8516611517576040517f08c379a00000000000000000000000000000000000000000000000000000000081526004018080602001828103825260308152602001806126026030913960400191505060405180910390fd5b5050505092915050565b8173ffffffffffffffffffffffffffffffffffffffff168373ffffffffffffffffffffffffffffffffffffffff167f600ba597427f042bcd559a0d06fa1732cc104d6dd43cbe8845b5a0e804b2b39f60405160405180910390a380156115aa5773ffffffffffffffffffffffffffffffffffffffff821660009081526020819052604090204390555b505050565b80820160200151825160f09190911c906002830190811115611143576040517f08c379a00000000000000000000000000000000000000000000000000000000081526004018080602001828103825260228152602001806127176022913960400191505060405180910390fd5b606060008267ffffffffffffffff8111801561163757600080fd5b506040519080825280601f01601f191660200182016040528015611662576020820181803683370190505b509150838501602001600060205b8581101561168957908201518482015260208101611670565b848601602001805193909201519085015252508351838301908111156116fa576040517f08c379a00000000000000000000000000000000000000000000000000000000081526004018080602001828103825260218152602001806126f66021913960400191505060405180910390fd5b935093915050565b6000808260018451038151811061171557fe5b016020015160f81c9050600181148061172e5750600281145b15611772578373ffffffffffffffffffffffffffffffffffffffff1661175486856111f2565b73ffffffffffffffffffffffffffffffffffffffff16149150611942565b60038114156118f15782517fffffffffffffffffffffffffffffffffffffffffffffffffffffffffffffffff81018452604080517f1626ba7e000000000000000000000000000000000000000000000000000000008152600481018881526024820192835286516044830152865173ffffffffffffffffffffffffffffffffffffffff891693631626ba7e938b938a9390929160640190602085019080838360005b8381101561182c578181015183820152602001611814565b50505050905090810190601f1680156118595780820380516001836020036101000a031916815260200191505b50935050505060206040518083038186803b15801561187757600080fd5b505afa15801561188b573d6000803e3d6000fd5b505050506040513d60208110156118a157600080fd5b50519084527fffffffff00000000000000000000000000000000000000000000000000000000167f1626ba7e00000000000000000000000000000000000000000000000000000000149150611942565b6040517f08c379a000000000000000000000000000000000000000000000000000000000815260040180806020018281038252603f815260200180612632603f913960400191505060405180910390fd5b509392505050565b606081901c916bffffffffffffffffffffffff90911690565b600081602001835110156119c2576040517f08c379a000000000000000000000000000000000000000000000000000000000815260040180806020018281038252603c815260200180612739603c913960400191505060405180910390fd5b50016020015190565b604080518082019091526000808252602082015290565b803573ffffffffffffffffffffffffffffffffffffffff8116811461077b57600080fd5b8035801515811461077b57600080fd5b600082601f830112611a26578081fd5b813567ffffffffffffffff811115611a3a57fe5b611a6b60207fffffffffffffffffffffffffffffffffffffffffffffffffffffffffffffffe0601f840116016124e9565b818152846020838601011115611a7f578283fd5b816020850160208301379081016020019190915292915050565b600060208284031215611aaa578081fd5b611ab3826119e2565b9392505050565b600080600080600060a08688031215611ad1578081fd5b611ada866119e2565b94506020860135935060408601359250606086013567ffffffffffffffff811115611b03578182fd5b611b0f88828901611a16565b925050611b1e60808701611a06565b90509295509295909350565b60008060408385031215611b3c578182fd5b611b45836119e2565b946020939093013593505050565b600080600080600060808688031215611b6a578081fd5b611b73866119e2565b945060208601359350604086013567ffffffffffffffff80821115611b96578283fd5b818801915088601f830112611ba9578283fd5b813581811115611bb7578384fd5b896020604083028501011115611bcb578384fd5b602083019550809450505050611b1e60608701611a06565b60006020808385031215611bf5578182fd5b823567ffffffffffffffff80821115611c0c578384fd5b818501915085601f830112611c1f578384fd5b813581811115611c2b57fe5b611c3884858302016124e9565b81815284810190848601875b84811015611d14578135870160c0807fffffffffffffffffffffffffffffffffffffffffffffffffffffffffffffffe0838f03011215611c82578a8bfd5b604080518281018181108b82111715611c9757fe5b8252611ca4848d01611a06565b8152611cb1828501611a06565b8c8201526060808501358383015260809250611cce8386016119e2565b9082015260a084013582820152918301359189831115611cec578c8dfd5b611cfa8f8d85870101611a16565b60a082015287525050509287019290870190600101611c44565b50909998505050505050505050565b600060208284031215611d34578081fd5b5051919050565b600060208284031215611d4c578081fd5b5035919050565b60008151808452611d6b81602086016020860161250d565b601f017fffffffffffffffffffffffffffffffffffffffffffffffffffffffffffffffe0169290920160200192915050565b7fff0000000000000000000000000000000000000000000000000000000000000094909416845260609290921b7fffffffffffffffffffffffffffffffffffffffff0000000000000000000000001660018401526015830152603582015260550190565b7fffffffff0000000000000000000000000000000000000000000000000000000091909116815260040190565b60008251611e4081846020870161250d565b9190910192915050565b7f19010000000000000000000000000000000000000000000000000000000000008152600281019390935260609190911b7fffffffffffffffffffffffffffffffffffffffff000000000000000000000000166022830152603682015260560190565b73ffffffffffffffffffffffffffffffffffffffff91909116815260200190565b604080825283519082018190526000906020906060840190828701845b82811015611f09578151151584529284019290840190600101611eeb565b5050508381038285015284518082528282019080840283018401878501865b83811015611d14577fffffffffffffffffffffffffffffffffffffffffffffffffffffffffffffffe0868403018552611f62838351611d53565b94870194925090860190600101611f28565b6020808252818101839052600090604080840186845b87811015611fcb578135835273ffffffffffffffffffffffffffffffffffffffff611fb68684016119e2565b16838601529183019190830190600101611f8a565b5090979650505050505050565b602080825282518282018190526000919060409081850190868401855b828110156120305781518051855286015173ffffffffffffffffffffffffffffffffffffffff16868501529284019290850190600101611ff5565b5091979650505050505050565b90815260200190565b928352602083019190915273ffffffffffffffffffffffffffffffffffffffff16604082015260600190565b600060208252611ab36020830184611d53565b6020808252603a908201527f526571756972655574696c73237075626c697368496e697469616c5369676e6560408201527f72733a20494e56414c49445f5349474e41545552455f464c4147000000000000606082015260800190565b60208082526027908201527f4d756c746943616c6c5574696c73236d756c746943616c6c3a2043414c4c5f5260408201527f4556455254454400000000000000000000000000000000000000000000000000606082015260800190565b60208082526028908201527f4d756c746943616c6c5574696c73236d756c746943616c6c3a204e4f545f454e60408201527f4f5547485f474153000000000000000000000000000000000000000000000000606082015260800190565b60208082526032908201527f526571756972655574696c7323726571756972654d696e4e6f6e63653a204e4f60408201527f4e43455f42454c4f575f52455155495245440000000000000000000000000000606082015260800190565b60208082526027908201527f526571756972655574696c7323726571756972654e6f6e457870697265643a2060408201527f4558504952454400000000000000000000000000000000000000000000000000606082015260800190565b60208082526048908201527f526571756972655574696c73237075626c697368496e697469616c5369676e6560408201527f72733a20554e45585045435445445f434f554e5445524641435455414c5f494d60608201527f4147455f48415348000000000000000000000000000000000000000000000000608082015260a00190565b60208082526032908201527f4d6f64756c6541757468235f7369676e617475726556616c69646174696f6e3a60408201527f20494e56414c49445f5349474e41545552450000000000000000000000000000606082015260800190565b60208082526032908201527f4d756c746943616c6c5574696c73236d756c746943616c6c3a2064656c65676160408201527f746543616c6c206e6f7420616c6c6f7765640000000000000000000000000000606082015260800190565b60208082526039908201527f526571756972655574696c73237075626c697368496e697469616c5369676e6560408201527f72733a20494e56414c49445f4d454d424552535f434f554e5400000000000000606082015260800190565b60208082526031908201527f526571756972655574696c73237075626c697368436f6e6669673a20554e455860408201527f5045435445445f494d4147455f48415348000000000000000000000000000000606082015260800190565b602080825260409082018190527f526571756972655574696c73237075626c697368436f6e6669673a20554e4558908201527f5045435445445f434f554e5445524641435455414c5f494d4147455f48415348606082015260800190565b600061ffff84168252604060208301526124c86040830184611d53565b949350505050565b6000838252604060208301526124c86040830184611d53565b60405181810167ffffffffffffffff8111828210171561250557fe5b604052919050565b60005b83811015612528578181015183820152602001612510565b83811115612537576000848401525b5050505056fe5369676e617475726556616c696461746f72237265636f7665725369676e65723a20696e76616c6964207369676e6174757265202773272076616c75654c696242797465732372656164416464726573733a204f55545f4f465f424f554e44534c696242797465732372656164466972737455696e7431363a204f55545f4f465f424f554e44535369676e617475726556616c696461746f72237265636f7665725369676e65723a20696e76616c6964207369676e6174757265202776272076616c75655369676e617475726556616c696461746f72237265636f7665725369676e65723a20494e56414c49445f5349474e45525369676e617475726556616c696461746f7223697356616c69645369676e61747572653a20554e535550504f525445445f5349474e41545552455f545950454c696242797465732372656164427974657336363a204f55545f4f465f424f554e44535369676e617475726556616c696461746f72237265636f7665725369676e65723a20554e535550504f525445445f5349474e41545552455f545950454c69624279746573237265616455696e743855696e74383a204f55545f4f465f424f554e44534c69624279746573237265616442797465733a204f55545f4f465f424f554e44534c69624279746573237265616455696e7431363a204f55545f4f465f424f554e44534c696242797465732372656164427974657333323a20475245415445525f4f525f455155414c5f544f5f33325f4c454e4754485f5245515549524544a26469706673582212201550c77eaa87f2c5ac1cfdbff05aa42940e51882911babf647f57aee0d245cca64736f6c63430007060033603a600e3d39601a805130553df3363d3d373d3d3d363d30545af43d82803e903d91601857fd5bf3",
  "linkReferences": {},
  "deployedLinkReferences": {}
}