{
  "_format": "hh-sol-artifact-1",
  "contractName": "RequireUtils",
  "sourceName": "contracts/modules/utils/RequireUtils.sol",
  "abi": [
    {
      "inputs": [
        {
          "internalType": "address",
          "name": "_factory",
          "type": "address"
        },
        {
          "internalType": "address",
          "name": "_mainModule",
          "type": "address"
        }
      ],
      "stateMutability": "nonpayable",
      "type": "constructor"
    },
    {
      "anonymous": false,
      "inputs": [
        {
          "indexed": true,
          "internalType": "address",
          "name": "_wallet",
          "type": "address"
        },
        {
          "indexed": true,
          "internalType": "bytes32",
          "name": "_imageHash",
          "type": "bytes32"
        },
        {
          "indexed": false,
          "internalType": "uint256",
          "name": "_threshold",
          "type": "uint256"
        },
        {
          "indexed": false,
          "internalType": "bytes",
          "name": "_signers",
          "type": "bytes"
        }
      ],
      "name": "RequiredConfig",
      "type": "event"
    },
    {
      "anonymous": false,
      "inputs": [
        {
          "indexed": true,
          "internalType": "address",
          "name": "_wallet",
          "type": "address"
        },
        {
          "indexed": true,
          "internalType": "address",
          "name": "_signer",
          "type": "address"
        }
      ],
      "name": "RequiredSigner",
      "type": "event"
    },
    {
      "inputs": [
        {
          "internalType": "address",
          "name": "",
          "type": "address"
        }
      ],
      "name": "lastSignerUpdate",
      "outputs": [
        {
          "internalType": "uint256",
          "name": "",
          "type": "uint256"
        }
      ],
      "stateMutability": "view",
      "type": "function"
    },
    {
      "inputs": [
        {
          "internalType": "address",
          "name": "",
          "type": "address"
        }
      ],
      "name": "lastWalletUpdate",
      "outputs": [
        {
          "internalType": "uint256",
          "name": "",
          "type": "uint256"
        }
      ],
      "stateMutability": "view",
      "type": "function"
    },
    {
      "inputs": [
        {
          "internalType": "address",
          "name": "_wallet",
          "type": "address"
        },
        {
          "internalType": "uint256",
          "name": "_threshold",
          "type": "uint256"
        },
        {
          "components": [
            {
              "internalType": "uint256",
              "name": "weight",
              "type": "uint256"
            },
            {
              "internalType": "address",
              "name": "signer",
              "type": "address"
            }
          ],
          "internalType": "struct RequireUtils.Member[]",
          "name": "_members",
          "type": "tuple[]"
        },
        {
          "internalType": "bool",
          "name": "_index",
          "type": "bool"
        }
      ],
      "name": "publishConfig",
      "outputs": [],
      "stateMutability": "nonpayable",
      "type": "function"
    },
    {
      "inputs": [
        {
          "internalType": "address",
          "name": "_wallet",
          "type": "address"
        },
        {
          "internalType": "bytes32",
          "name": "_hash",
          "type": "bytes32"
        },
        {
          "internalType": "uint256",
          "name": "_sizeMembers",
          "type": "uint256"
        },
        {
          "internalType": "bytes",
          "name": "_signature",
          "type": "bytes"
        },
        {
          "internalType": "bool",
          "name": "_index",
          "type": "bool"
        }
      ],
      "name": "publishSigners",
      "outputs": [],
      "stateMutability": "nonpayable",
      "type": "function"
    },
    {
      "inputs": [
        {
          "internalType": "address",
          "name": "_wallet",
          "type": "address"
        },
        {
          "internalType": "uint256",
          "name": "_nonce",
          "type": "uint256"
        }
      ],
      "name": "requireMinNonce",
      "outputs": [],
      "stateMutability": "view",
      "type": "function"
    },
    {
      "inputs": [
        {
          "internalType": "uint256",
          "name": "_expiration",
          "type": "uint256"
        }
      ],
      "name": "requireNonExpired",
      "outputs": [],
      "stateMutability": "view",
      "type": "function"
    }
  ],
  "bytecode": "0x60c06040523480156200001157600080fd5b5060405162001bbc38038062001bbc8339810160408190526200003491620000bb565b606082811b6001600160601b03191660a052604080519182019052602880825262001b946020830139816001600160a01b03166040516020016200007a929190620000f2565b60408051601f19818403018152919052805160209091012060805250620001349050565b80516001600160a01b0381168114620000b657600080fd5b919050565b60008060408385031215620000ce578182fd5b620000d9836200009e565b9150620000e9602084016200009e565b90509250929050565b60008351815b81811015620001145760208187018101518583015201620000f8565b81811115620001235782828501525b509190910191825250602001919050565b60805160a05160601c611a2f6200016560003980610314528061083352508061033852806108575250611a2f6000f3fe608060405234801561001057600080fd5b50600436106100725760003560e01c80637f29d538116100505780637f29d538146100c8578063b472f0a2146100db578063e717aba9146100ee57610072565b80631cd05dc41461007757806344d466c2146100a05780637ddd4ed2146100b5575b600080fd5b61008a6100853660046110de565b610101565b60405161009791906117f2565b60405180910390f35b6100b36100ae366004611212565b610113565b005b6100b36100c33660046110ff565b61048d565b6100b36100d63660046112ba565b6109ae565b6100b36100e93660046111e9565b6109ea565b61008a6100fc3660046110de565b610ac8565b60006020819052908152604090205481565b8360005b838110156101ac578185858381811061012c57fe5b9050604002016000013586868481811061014257fe5b905060400201602001602081019061015a91906110de565b60405160200161016c93929190611492565b604080517fffffffffffffffffffffffffffffffffffffffffffffffffffffffffffffffe081840301815291905280516020909101209150600101610117565b506000808773ffffffffffffffffffffffffffffffffffffffff166351605d8060e01b6040516020016101df9190611380565b604080517fffffffffffffffffffffffffffffffffffffffffffffffffffffffffffffffe081840301815290829052610217916113ad565b6000604051808303816000865af19150503d8060008114610254576040519150601f19603f3d011682016040523d82523d6000602084013e610259565b606091505b509150915081801561026c575080516020145b156102d15760008180602001905181019061028791906112a2565b90508381146102cb576040517f08c379a00000000000000000000000000000000000000000000000000000000081526004016102c290611712565b60405180910390fd5b506103c6565b60405173ffffffffffffffffffffffffffffffffffffffff891690610360907fff00000000000000000000000000000000000000000000000000000000000000907f00000000000000000000000000000000000000000000000000000000000000009087907f00000000000000000000000000000000000000000000000000000000000000009060200161131c565b6040516020818303038152906040528051906020012060001c73ffffffffffffffffffffffffffffffffffffffff16146103c6576040517f08c379a00000000000000000000000000000000000000000000000000000000081526004016102c29061176f565b828873ffffffffffffffffffffffffffffffffffffffff167fb502b7446ca079086188acf3abef47c2f464f2ee9a72fcdf05ffcb74dcc17cee8989896040516020016104139291906113c9565b604080517fffffffffffffffffffffffffffffffffffffffffffffffffffffffffffffffe08184030181529082905261044c92916117fb565b60405180910390a383156104835773ffffffffffffffffffffffffffffffffffffffff881660009081526001602052604090204390555b5050505050505050565b60008061049984610ada565b909250905061ffff821660008667ffffffffffffffff811180156104bc57600080fd5b506040519080825280602002602001820160405280156104f657816020015b6104e361108e565b8152602001906001900390816104db5790505b50905060005b865184101561069c57600080806105138a88610b48565b985060ff9182169450169150600183141561053b576105328a88610bc2565b9750905061061d565b826105eb57606061054c8b89610c36565b9850905061055a8d82610cde565b91508173ffffffffffffffffffffffffffffffffffffffff168e73ffffffffffffffffffffffffffffffffffffffff167f600ba597427f042bcd559a0d06fa1732cc104d6dd43cbe8845b5a0e804b2b39f60405160405180910390a389156105e55773ffffffffffffffffffffffffffffffffffffffff821660009081526020819052604090204390555b5061061d565b6040517f08c379a00000000000000000000000000000000000000000000000000000000081526004016102c2906116b5565b60405180604001604052808381526020018273ffffffffffffffffffffffffffffffffffffffff1681525085858151811061065457fe5b6020026020010181905250838060010194505085828260405160200161067c93929190611492565b6040516020818303038152906040528051906020012095505050506104fc565b8781146106d5576040517f08c379a00000000000000000000000000000000000000000000000000000000081526004016102c2906115d5565b6000808b73ffffffffffffffffffffffffffffffffffffffff166351605d8060e01b6040516020016107079190611380565b604080517fffffffffffffffffffffffffffffffffffffffffffffffffffffffffffffffe08184030181529082905261073f916113ad565b6000604051808303816000865af19150503d806000811461077c576040519150601f19603f3d011682016040523d82523d6000602084013e610781565b606091505b5091509150818015610794575080516020145b156107f0576000818060200190518101906107af91906112a2565b90508581146107ea576040517f08c379a00000000000000000000000000000000000000000000000000000000081526004016102c2906114be565b506108e5565b60405173ffffffffffffffffffffffffffffffffffffffff8d169061087f907fff00000000000000000000000000000000000000000000000000000000000000907f00000000000000000000000000000000000000000000000000000000000000009089907f00000000000000000000000000000000000000000000000000000000000000009060200161131c565b6040516020818303038152906040528051906020012060001c73ffffffffffffffffffffffffffffffffffffffff16146108e5576040517f08c379a00000000000000000000000000000000000000000000000000000000081526004016102c290611632565b848c73ffffffffffffffffffffffffffffffffffffffff167fb502b7446ca079086188acf3abef47c2f464f2ee9a72fcdf05ffcb74dcc17cee8987604051602001610930919061142d565b604080517fffffffffffffffffffffffffffffffffffffffffffffffffffffffffffffffe08184030181529082905261096992916117cd565b60405180910390a387156109a05773ffffffffffffffffffffffffffffffffffffffff8c1660009081526001602052604090204390555b505050505050505050505050565b8042106109e7576040517f08c379a00000000000000000000000000000000000000000000000000000000081526004016102c290611578565b50565b6000806109f68361100d565b9150915060008473ffffffffffffffffffffffffffffffffffffffff16638c3f5563846040518263ffffffff1660e01b8152600401610a3591906117f2565b60206040518083038186803b158015610a4d57600080fd5b505afa158015610a61573d6000803e3d6000fd5b505050506040513d601f19601f82011682018060405250810190610a8591906112a2565b905081811015610ac1576040517f08c379a00000000000000000000000000000000000000000000000000000000081526004016102c29061151b565b5050505050565b60016020526000908152604090205481565b6020810151815160f09190911c90600290811115610b43576040517f08c379a00000000000000000000000000000000000000000000000000000000081526004018080602001828103825260278152602001806118a56027913960400191505060405180910390fd5b915091565b80820160200151825160f882901c9160f01c60ff16906002840190811115610bbb576040517f08c379a00000000000000000000000000000000000000000000000000000000081526004018080602001828103825260268152602001806119986026913960400191505060405180910390fd5b9250925092565b80820160200151825160609190911c906014830190811115610c2f576040517f08c379a00000000000000000000000000000000000000000000000000000000081526004018080602001828103825260238152602001806118826023913960400191505060405180910390fd5b9250929050565b6040805160428082526080820190925260609160009190602082018180368337019050509150828401602001805160208401526020810151604084015260228101516042840152506042830190508351811115610c2f576040517f08c379a00000000000000000000000000000000000000000000000000000000081526004018080602001828103825260238152602001806119396023913960400191505060405180910390fd5b60008082600184510381518110610cf157fe5b602001015160f81c60f81b60f81c60ff169050600083604081518110610d1357fe5b016020015160f81c90506000610d298582611026565b90506000610d38866020611026565b90507f7fffffffffffffffffffffffffffffff5d576e7357a4501ddfe92f46681b20a0811115610db3576040517f08c379a000000000000000000000000000000000000000000000000000000000815260040180806020018281038252603d815260200180611845603d913960400191505060405180910390fd5b8260ff16601b14158015610dcb57508260ff16601c14155b15610e21576040517f08c379a000000000000000000000000000000000000000000000000000000000815260040180806020018281038252603d8152602001806118cc603d913960400191505060405180910390fd5b6001841415610e955760018784848460405160008152602001604052604051808581526020018460ff1681526020018381526020018281526020019450505050506020604051602081039080840390855afa158015610e84573d6000803e3d6000fd5b505050602060405103519450610f97565b6002841415610f465760018760405160200180807f19457468657265756d205369676e6564204d6573736167653a0a333200000000815250601c018281526020019150506040516020818303038152906040528051906020012084848460405160008152602001604052604051808581526020018460ff1681526020018381526020018281526020019450505050506020604051602081039080840390855afa158015610e84573d6000803e3d6000fd5b6040517f08c379a000000000000000000000000000000000000000000000000000000000815260040180806020018281038252603c81526020018061195c603c913960400191505060405180910390fd5b73ffffffffffffffffffffffffffffffffffffffff8516611003576040517f08c379a00000000000000000000000000000000000000000000000000000000081526004018080602001828103825260308152602001806119096030913960400191505060405180910390fd5b5050505092915050565b606081901c916bffffffffffffffffffffffff90911690565b60008160200183511015611085576040517f08c379a000000000000000000000000000000000000000000000000000000000815260040180806020018281038252603c8152602001806119be603c913960400191505060405180910390fd5b50016020015190565b604080518082019091526000808252602082015290565b803573ffffffffffffffffffffffffffffffffffffffff811681146110c957600080fd5b919050565b803580151581146110c957600080fd5b6000602082840312156110ef578081fd5b6110f8826110a5565b9392505050565b600080600080600060a08688031215611116578081fd5b61111f866110a5565b9450602080870135945060408701359350606087013567ffffffffffffffff8082111561114a578384fd5b818901915089601f83011261115d578384fd5b81358181111561116957fe5b604051847fffffffffffffffffffffffffffffffffffffffffffffffffffffffffffffffe0601f84011682010181811084821117156111a457fe5b60405281815283820185018c10156111ba578586fd5b81858501868301378585838301015280965050505050506111dd608087016110ce565b90509295509295909350565b600080604083850312156111fb578182fd5b611204836110a5565b946020939093013593505050565b600080600080600060808688031215611229578081fd5b611232866110a5565b945060208601359350604086013567ffffffffffffffff80821115611255578283fd5b818801915088601f830112611268578283fd5b813581811115611276578384fd5b89602060408302850101111561128a578384fd5b6020830195508094505050506111dd606087016110ce565b6000602082840312156112b3578081fd5b5051919050565b6000602082840312156112cb578081fd5b5035919050565b600081518084526112ea816020860160208601611814565b601f017fffffffffffffffffffffffffffffffffffffffffffffffffffffffffffffffe0169290920160200192915050565b7fff0000000000000000000000000000000000000000000000000000000000000094909416845260609290921b7fffffffffffffffffffffffffffffffffffffffff0000000000000000000000001660018401526015830152603582015260550190565b7fffffffff0000000000000000000000000000000000000000000000000000000091909116815260040190565b600082516113bf818460208701611814565b9190910192915050565b6020808252818101839052600090604080840186845b87811015611420578135835273ffffffffffffffffffffffffffffffffffffffff61140b8684016110a5565b168386015291830191908301906001016113df565b5090979650505050505050565b602080825282518282018190526000919060409081850190868401855b828110156114855781518051855286015173ffffffffffffffffffffffffffffffffffffffff1686850152928401929085019060010161144a565b5091979650505050505050565b928352602083019190915273ffffffffffffffffffffffffffffffffffffffff16604082015260600190565b60208082526032908201527f526571756972655574696c73237075626c6973685369676e6572733a20554e4560408201527f585045435445445f494d4147455f484153480000000000000000000000000000606082015260800190565b60208082526032908201527f526571756972655574696c7323726571756972654d696e4e6f6e63653a204e4f60408201527f4e43455f42454c4f575f52455155495245440000000000000000000000000000606082015260800190565b60208082526027908201527f526571756972655574696c7323726571756972654e6f6e457870697265643a2060408201527f4558504952454400000000000000000000000000000000000000000000000000606082015260800190565b60208082526032908201527f526571756972655574696c73237075626c6973685369676e6572733a20494e5660408201527f414c49445f4d454d424552535f434f554e540000000000000000000000000000606082015260800190565b60208082526041908201527f526571756972655574696c73237075626c6973685369676e6572733a20554e4560408201527f585045435445445f434f554e5445524641435455414c5f494d4147455f48415360608201527f4800000000000000000000000000000000000000000000000000000000000000608082015260a00190565b60208082526033908201527f526571756972655574696c73237075626c6973685369676e6572733a20494e5660408201527f414c49445f5349474e41545552455f464c414700000000000000000000000000606082015260800190565b60208082526031908201527f526571756972655574696c73237075626c697368436f6e6669673a20554e455860408201527f5045435445445f494d4147455f48415348000000000000000000000000000000606082015260800190565b602080825260409082018190527f526571756972655574696c73237075626c697368436f6e6669673a20554e4558908201527f5045435445445f434f554e5445524641435455414c5f494d4147455f48415348606082015260800190565b600061ffff84168252604060208301526117ea60408301846112d2565b949350505050565b90815260200190565b6000838252604060208301526117ea60408301846112d2565b60005b8381101561182f578181015183820152602001611817565b8381111561183e576000848401525b5050505056fe5369676e617475726556616c696461746f72237265636f7665725369676e65723a20696e76616c6964207369676e6174757265202773272076616c75654c696242797465732372656164416464726573733a204f55545f4f465f424f554e44534c696242797465732372656164466972737455696e7431363a204f55545f4f465f424f554e44535369676e617475726556616c696461746f72237265636f7665725369676e65723a20696e76616c6964207369676e6174757265202776272076616c75655369676e617475726556616c696461746f72237265636f7665725369676e65723a20494e56414c49445f5349474e45524c696242797465732372656164427974657336363a204f55545f4f465f424f554e44535369676e617475726556616c696461746f72237265636f7665725369676e65723a20554e535550504f525445445f5349474e41545552455f545950454c69624279746573237265616455696e743855696e74383a204f55545f4f465f424f554e44534c696242797465732372656164427974657333323a20475245415445525f4f525f455155414c5f544f5f33325f4c454e4754485f5245515549524544a2646970667358221220111f486742a4fd24d1af6974be90871fbdd3e1dc79de6ff9686d0b58d95d5add64736f6c63430007060033603a600e3d39601a805130553df3363d3d373d3d3d363d30545af43d82803e903d91601857fd5bf3",
  "linkReferences": {},
  "deployedLinkReferences": {}
}