{
  "_format": "hh-sol-artifact-1",
  "contractName": "RequireUtils",
  "sourceName": "contracts/modules/utils/RequireUtils.sol",
  "abi": [
    {
      "inputs": [
        {
          "internalType": "address",
          "name": "_factory",
          "type": "address"
        },
        {
          "internalType": "address",
          "name": "_mainModule",
          "type": "address"
        }
      ],
      "stateMutability": "nonpayable",
      "type": "constructor"
    },
    {
      "anonymous": false,
      "inputs": [
        {
          "indexed": true,
          "internalType": "address",
          "name": "_wallet",
          "type": "address"
        },
        {
          "indexed": true,
          "internalType": "bytes32",
          "name": "_imageHash",
          "type": "bytes32"
        },
        {
          "indexed": false,
          "internalType": "uint256",
          "name": "_threshold",
          "type": "uint256"
        },
        {
          "indexed": false,
          "internalType": "bytes",
          "name": "_signers",
          "type": "bytes"
        }
      ],
      "name": "RequiredConfig",
      "type": "event"
    },
    {
      "inputs": [
        {
          "internalType": "bytes32",
          "name": "",
          "type": "bytes32"
        }
      ],
      "name": "imageHashBlockHeight",
      "outputs": [
        {
          "internalType": "uint256",
          "name": "",
          "type": "uint256"
        }
      ],
      "stateMutability": "view",
      "type": "function"
    },
    {
      "inputs": [
        {
          "internalType": "address",
          "name": "",
          "type": "address"
        }
      ],
      "name": "initialImageHash",
      "outputs": [
        {
          "internalType": "bytes32",
          "name": "",
          "type": "bytes32"
        }
      ],
      "stateMutability": "view",
      "type": "function"
    },
    {
      "inputs": [
        {
          "internalType": "address",
          "name": "_wallet",
          "type": "address"
        },
        {
          "internalType": "uint256",
          "name": "_threshold",
          "type": "uint256"
        },
        {
          "components": [
            {
              "internalType": "uint256",
              "name": "weight",
              "type": "uint256"
            },
            {
              "internalType": "address",
              "name": "signer",
              "type": "address"
            }
          ],
          "internalType": "struct RequireUtils.Member[]",
          "name": "_members",
          "type": "tuple[]"
        }
      ],
      "name": "requireAndIndexConfig",
      "outputs": [],
      "stateMutability": "nonpayable",
      "type": "function"
    },
    {
      "inputs": [
        {
          "internalType": "address",
          "name": "_wallet",
          "type": "address"
        },
        {
          "internalType": "uint256",
          "name": "_threshold",
          "type": "uint256"
        },
        {
          "components": [
            {
              "internalType": "uint256",
              "name": "weight",
              "type": "uint256"
            },
            {
              "internalType": "address",
              "name": "signer",
              "type": "address"
            }
          ],
          "internalType": "struct RequireUtils.Member[]",
          "name": "_members",
          "type": "tuple[]"
        }
      ],
      "name": "requireConfig",
      "outputs": [],
      "stateMutability": "nonpayable",
      "type": "function"
    },
    {
      "inputs": [
        {
          "internalType": "address",
          "name": "_wallet",
          "type": "address"
        },
        {
          "internalType": "uint256",
          "name": "_nonce",
          "type": "uint256"
        }
      ],
      "name": "requireMinNonce",
      "outputs": [],
      "stateMutability": "view",
      "type": "function"
    },
    {
      "inputs": [
        {
          "internalType": "uint256",
          "name": "_expiration",
          "type": "uint256"
        }
      ],
      "name": "requireNonExpired",
      "outputs": [],
      "stateMutability": "view",
      "type": "function"
    }
  ],
  "bytecode": "0x60c060405234801561001057600080fd5b506040516200103038038062001030833981016040819052610031916100b4565b606082811b6001600160601b03191660a0526040805191820190526028808252620010086020830139816001600160a01b03166040516020016100759291906100e6565b60408051601f198184030181529190528051602090910120608052506101259050565b80516001600160a01b03811681146100af57600080fd5b919050565b600080604083850312156100c6578182fd5b6100cf83610098565b91506100dd60208401610098565b90509250929050565b60008351815b8181101561010657602081870181015185830152016100ec565b818111156101145782828501525b509190910191825250602001919050565b60805160a05160601c610eb2620001566000398061036252806107cf52508061038652806107f35250610eb26000f3fe608060405234801561001057600080fd5b50600436106100725760003560e01c80639b8d9011116100505780639b8d9011146100c8578063b472f0a2146100db578063e1613123146100ee57610072565b806376ab3ebf146100775780637f29d538146100a057806389d81dbd146100b5575b600080fd5b61008a610085366004610a29565b610101565b6040516100979190610b6a565b60405180910390f35b6100b36100ae366004610a29565b610113565b005b61008a6100c336600461095a565b610158565b6100b36100d63660046109a4565b61016a565b6100b36100e936600461097b565b6104f9565b6100b36100fc3660046109a4565b6105d7565b60006020819052908152604090205481565b804210610155576040517f08c379a000000000000000000000000000000000000000000000000000000000815260040161014c90610cdc565b60405180910390fd5b50565b60016020526000908152604090205481565b8260005b82811015610203578184848381811061018357fe5b9050604002016000013585858481811061019957fe5b90506040020160200160208101906101b1919061095a565b6040516020016101c393929190610b73565b604080517fffffffffffffffffffffffffffffffffffffffffffffffffffffffffffffffe08184030181529190528051602090910120915060010161016e565b506000808673ffffffffffffffffffffffffffffffffffffffff166351605d8060e01b6040516020016102369190610abd565b604080517fffffffffffffffffffffffffffffffffffffffffffffffffffffffffffffffe08184030181529082905261026e91610aea565b6000604051808303816000865af19150503d80600081146102ab576040519150601f19603f3d011682016040523d82523d6000602084013e6102b0565b606091505b50915091508180156102c3575080516020145b1561031f576000818060200190518101906102de9190610a41565b9050838114610319576040517f08c379a000000000000000000000000000000000000000000000000000000000815260040161014c90610d39565b5061043d565b60405173ffffffffffffffffffffffffffffffffffffffff8816906103ae907fff00000000000000000000000000000000000000000000000000000000000000907f00000000000000000000000000000000000000000000000000000000000000009087907f000000000000000000000000000000000000000000000000000000000000000090602001610a59565b6040516020818303038152906040528051906020012060001c73ffffffffffffffffffffffffffffffffffffffff1614610414576040517f08c379a000000000000000000000000000000000000000000000000000000000815260040161014c90610c59565b73ffffffffffffffffffffffffffffffffffffffff871660009081526001602052604090208390555b828773ffffffffffffffffffffffffffffffffffffffff167fb502b7446ca079086188acf3abef47c2f464f2ee9a72fcdf05ffcb74dcc17cee88888860405160200161048a929190610b06565b604080517fffffffffffffffffffffffffffffffffffffffffffffffffffffffffffffffe0818403018152908290526104c39291610df4565b60405180910390a36000838152602081905260409020546104f05760008381526020819052604090204390555b50505050505050565b60008061050583610918565b9150915060008473ffffffffffffffffffffffffffffffffffffffff16638c3f5563846040518263ffffffff1660e01b81526004016105449190610b6a565b60206040518083038186803b15801561055c57600080fd5b505afa158015610570573d6000803e3d6000fd5b505050506040513d601f19601f820116820180604052508101906105949190610a41565b9050818110156105d0576040517f08c379a000000000000000000000000000000000000000000000000000000000815260040161014c90610bfc565b5050505050565b8260005b8281101561067057818484838181106105f057fe5b9050604002016000013585858481811061060657fe5b905060400201602001602081019061061e919061095a565b60405160200161063093929190610b73565b604080517fffffffffffffffffffffffffffffffffffffffffffffffffffffffffffffffe0818403018152919052805160209091012091506001016105db565b506000808673ffffffffffffffffffffffffffffffffffffffff166351605d8060e01b6040516020016106a39190610abd565b604080517fffffffffffffffffffffffffffffffffffffffffffffffffffffffffffffffe0818403018152908290526106db91610aea565b6000604051808303816000865af19150503d8060008114610718576040519150601f19603f3d011682016040523d82523d6000602084013e61071d565b606091505b5091509150818015610730575080516020145b1561078c5760008180602001905181019061074b9190610a41565b9050838114610786576040517f08c379a000000000000000000000000000000000000000000000000000000000815260040161014c90610b9f565b50610881565b60405173ffffffffffffffffffffffffffffffffffffffff88169061081b907fff00000000000000000000000000000000000000000000000000000000000000907f00000000000000000000000000000000000000000000000000000000000000009087907f000000000000000000000000000000000000000000000000000000000000000090602001610a59565b6040516020818303038152906040528051906020012060001c73ffffffffffffffffffffffffffffffffffffffff1614610881576040517f08c379a000000000000000000000000000000000000000000000000000000000815260040161014c90610d96565b828773ffffffffffffffffffffffffffffffffffffffff167fb502b7446ca079086188acf3abef47c2f464f2ee9a72fcdf05ffcb74dcc17cee8888886040516020016108ce929190610b06565b604080517fffffffffffffffffffffffffffffffffffffffffffffffffffffffffffffffe0818403018152908290526109079291610df4565b60405180910390a350505050505050565b606081901c916bffffffffffffffffffffffff90911690565b803573ffffffffffffffffffffffffffffffffffffffff8116811461095557600080fd5b919050565b60006020828403121561096b578081fd5b61097482610931565b9392505050565b6000806040838503121561098d578081fd5b61099683610931565b946020939093013593505050565b600080600080606085870312156109b9578182fd5b6109c285610931565b935060208501359250604085013567ffffffffffffffff808211156109e5578384fd5b818701915087601f8301126109f8578384fd5b813581811115610a06578485fd5b886020604083028501011115610a1a578485fd5b95989497505060200194505050565b600060208284031215610a3a578081fd5b5035919050565b600060208284031215610a52578081fd5b5051919050565b7fff0000000000000000000000000000000000000000000000000000000000000094909416845260609290921b7fffffffffffffffffffffffffffffffffffffffff0000000000000000000000001660018401526015830152603582015260550190565b7fffffffff0000000000000000000000000000000000000000000000000000000091909116815260040190565b60008251610afc818460208701610e4c565b9190910192915050565b6020808252818101839052600090604080840186845b87811015610b5d578135835273ffffffffffffffffffffffffffffffffffffffff610b48868401610931565b16838601529183019190830190600101610b1c565b5090979650505050505050565b90815260200190565b928352602083019190915273ffffffffffffffffffffffffffffffffffffffff16604082015260600190565b60208082526031908201527f526571756972655574696c732372657175697265436f6e6669673a20554e455860408201527f5045435445445f494d4147455f48415348000000000000000000000000000000606082015260800190565b60208082526032908201527f526571756972655574696c7323726571756972654d696e4e6f6e63653a204e4f60408201527f4e43455f42454c4f575f52455155495245440000000000000000000000000000606082015260800190565b60208082526048908201527f526571756972655574696c732372657175697265416e64496e646578436f6e6660408201527f69673a20554e45585045435445445f434f554e5445524641435455414c5f494d60608201527f4147455f48415348000000000000000000000000000000000000000000000000608082015260a00190565b60208082526027908201527f526571756972655574696c7323726571756972654e6f6e457870697265643a2060408201527f4558504952454400000000000000000000000000000000000000000000000000606082015260800190565b60208082526039908201527f526571756972655574696c732372657175697265416e64496e646578436f6e6660408201527f69673a20554e45585045435445445f494d4147455f4841534800000000000000606082015260800190565b602080825260409082018190527f526571756972655574696c732372657175697265436f6e6669673a20554e4558908201527f5045435445445f434f554e5445524641435455414c5f494d4147455f48415348606082015260800190565b6000838252604060208301528251806040840152610e19816060850160208701610e4c565b601f017fffffffffffffffffffffffffffffffffffffffffffffffffffffffffffffffe016919091016060019392505050565b60005b83811015610e67578181015183820152602001610e4f565b83811115610e76576000848401525b5050505056fea264697066735822122025c4d0f7a01bc12ace6a88e27da42f5b0f6a91ff75f1682a2d74c7d7016cc94b64736f6c63430007060033603a600e3d39601a805130553df3363d3d373d3d3d363d30545af43d82803e903d91601857fd5bf3",
  "linkReferences": {},
  "deployedLinkReferences": {}
}