{
  "_format": "hh-sol-artifact-1",
  "contractName": "GuestModule",
  "sourceName": "contracts/modules/GuestModule.sol",
  "abi": [
    {
      "inputs": [
        {
          "internalType": "uint256",
          "name": "_space",
          "type": "uint256"
        },
        {
          "internalType": "uint256",
          "name": "_provided",
          "type": "uint256"
        },
        {
          "internalType": "uint256",
          "name": "_current",
          "type": "uint256"
        }
      ],
      "name": "BadGapNonce",
      "type": "error"
    },
    {
      "inputs": [
        {
          "internalType": "uint256",
          "name": "_space",
          "type": "uint256"
        },
        {
          "internalType": "uint256",
          "name": "_provided",
          "type": "uint256"
        },
        {
          "internalType": "uint256",
          "name": "_current",
          "type": "uint256"
        }
      ],
      "name": "BadNonce",
      "type": "error"
    },
    {
      "inputs": [],
      "name": "DelegateCallNotAllowed",
      "type": "error"
    },
    {
      "inputs": [
        {
          "internalType": "uint256",
          "name": "_space",
          "type": "uint256"
        },
        {
          "internalType": "uint256",
          "name": "_nonce",
          "type": "uint256"
        }
      ],
      "name": "ExpectedEmptyNonce",
      "type": "error"
    },
    {
      "inputs": [],
      "name": "ImageHashIsZero",
      "type": "error"
    },
    {
      "inputs": [
        {
          "internalType": "bytes32",
          "name": "_hash",
          "type": "bytes32"
        },
        {
          "internalType": "address",
          "name": "_addr",
          "type": "address"
        },
        {
          "internalType": "bytes",
          "name": "_signature",
          "type": "bytes"
        }
      ],
      "name": "InvalidNestedSignature",
      "type": "error"
    },
    {
      "inputs": [
        {
          "internalType": "uint256",
          "name": "_space",
          "type": "uint256"
        }
      ],
      "name": "InvalidNonceSpace",
      "type": "error"
    },
    {
      "inputs": [
        {
          "internalType": "uint256",
          "name": "_type",
          "type": "uint256"
        }
      ],
      "name": "InvalidNonceType",
      "type": "error"
    },
    {
      "inputs": [
        {
          "internalType": "uint256",
          "name": "_type",
          "type": "uint256"
        }
      ],
      "name": "InvalidNonceType",
      "type": "error"
    },
    {
      "inputs": [
        {
          "internalType": "bytes",
          "name": "_signature",
          "type": "bytes"
        },
        {
          "internalType": "bytes32",
          "name": "_s",
          "type": "bytes32"
        }
      ],
      "name": "InvalidSValue",
      "type": "error"
    },
    {
      "inputs": [
        {
          "internalType": "bytes32",
          "name": "_hash",
          "type": "bytes32"
        },
        {
          "internalType": "bytes",
          "name": "_signature",
          "type": "bytes"
        }
      ],
      "name": "InvalidSignature",
      "type": "error"
    },
    {
      "inputs": [
        {
          "internalType": "uint256",
          "name": "_flag",
          "type": "uint256"
        }
      ],
      "name": "InvalidSignatureFlag",
      "type": "error"
    },
    {
      "inputs": [
        {
          "internalType": "bytes",
          "name": "_signature",
          "type": "bytes"
        }
      ],
      "name": "InvalidSignatureLength",
      "type": "error"
    },
    {
      "inputs": [
        {
          "internalType": "uint256",
          "name": "_type",
          "type": "uint256"
        }
      ],
      "name": "InvalidSignatureType",
      "type": "error"
    },
    {
      "inputs": [
        {
          "components": [
            {
              "internalType": "bool",
              "name": "delegateCall",
              "type": "bool"
            },
            {
              "internalType": "bool",
              "name": "revertOnError",
              "type": "bool"
            },
            {
              "internalType": "uint256",
              "name": "gasLimit",
              "type": "uint256"
            },
            {
              "internalType": "address",
              "name": "target",
              "type": "address"
            },
            {
              "internalType": "uint256",
              "name": "value",
              "type": "uint256"
            },
            {
              "internalType": "bytes",
              "name": "data",
              "type": "bytes"
            }
          ],
          "internalType": "struct IModuleCalls.Transaction",
          "name": "_tx",
          "type": "tuple"
        }
      ],
      "name": "InvalidTransaction",
      "type": "error"
    },
    {
      "inputs": [
        {
          "internalType": "bytes",
          "name": "_signature",
          "type": "bytes"
        },
        {
          "internalType": "uint256",
          "name": "_v",
          "type": "uint256"
        }
      ],
      "name": "InvalidVValue",
      "type": "error"
    },
    {
      "inputs": [
        {
          "internalType": "uint256",
          "name": "_requested",
          "type": "uint256"
        },
        {
          "internalType": "uint256",
          "name": "_available",
          "type": "uint256"
        }
      ],
      "name": "NotEnoughGas",
      "type": "error"
    },
    {
      "inputs": [],
      "name": "NotSupported",
      "type": "error"
    },
    {
      "inputs": [
        {
          "internalType": "address",
          "name": "_sender",
          "type": "address"
        },
        {
          "internalType": "address",
          "name": "_self",
          "type": "address"
        }
      ],
      "name": "OnlySelfAuth",
      "type": "error"
    },
    {
      "inputs": [
        {
          "internalType": "bytes",
          "name": "_datam",
          "type": "bytes"
        },
        {
          "internalType": "uint256",
          "name": "_index",
          "type": "uint256"
        },
        {
          "internalType": "uint256",
          "name": "_length",
          "type": "uint256"
        }
      ],
      "name": "ReadBytesOutOfBounds",
      "type": "error"
    },
    {
      "inputs": [
        {
          "internalType": "bytes",
          "name": "_data",
          "type": "bytes"
        }
      ],
      "name": "ReadFirstUint8OutOfBounds",
      "type": "error"
    },
    {
      "inputs": [
        {
          "internalType": "bytes",
          "name": "_signature",
          "type": "bytes"
        }
      ],
      "name": "SignerIsAddress0",
      "type": "error"
    },
    {
      "inputs": [
        {
          "internalType": "bytes",
          "name": "_signature",
          "type": "bytes"
        },
        {
          "internalType": "uint256",
          "name": "_type",
          "type": "uint256"
        },
        {
          "internalType": "bool",
          "name": "_recoverMode",
          "type": "bool"
        }
      ],
      "name": "UnsupportedSignatureType",
      "type": "error"
    },
    {
      "anonymous": false,
      "inputs": [
        {
          "indexed": false,
          "internalType": "address",
          "name": "_contract",
          "type": "address"
        }
      ],
      "name": "CreatedContract",
      "type": "event"
    },
    {
      "anonymous": false,
      "inputs": [
        {
          "indexed": false,
          "internalType": "uint256",
          "name": "_space",
          "type": "uint256"
        },
        {
          "indexed": false,
          "internalType": "uint256",
          "name": "_oldNonce",
          "type": "uint256"
        },
        {
          "indexed": false,
          "internalType": "uint256",
          "name": "_newNonce",
          "type": "uint256"
        }
      ],
      "name": "GapNonceChange",
      "type": "event"
    },
    {
      "anonymous": false,
      "inputs": [
        {
          "indexed": false,
          "internalType": "bytes32",
          "name": "newImageHash",
          "type": "bytes32"
        }
      ],
      "name": "ImageHashUpdated",
      "type": "event"
    },
    {
      "anonymous": false,
      "inputs": [],
      "name": "NoNonceUsed",
      "type": "event"
    },
    {
      "anonymous": false,
      "inputs": [
        {
          "indexed": false,
          "internalType": "uint256",
          "name": "_space",
          "type": "uint256"
        },
        {
          "indexed": false,
          "internalType": "uint256",
          "name": "_newNonce",
          "type": "uint256"
        }
      ],
      "name": "NonceChange",
      "type": "event"
    },
    {
      "anonymous": true,
      "inputs": [
        {
          "indexed": false,
          "internalType": "bytes32",
          "name": "_tx",
          "type": "bytes32"
        }
      ],
      "name": "TxExecuted",
      "type": "event"
    },
    {
      "anonymous": false,
      "inputs": [
        {
          "indexed": false,
          "internalType": "bytes32",
          "name": "_tx",
          "type": "bytes32"
        },
        {
          "indexed": false,
          "internalType": "bytes",
          "name": "_reason",
          "type": "bytes"
        }
      ],
      "name": "TxFailed",
      "type": "event"
    },
    {
      "inputs": [
        {
          "internalType": "bytes32",
          "name": "_msgSubDigest",
          "type": "bytes32"
        },
        {
          "internalType": "bytes",
          "name": "_signature",
          "type": "bytes"
        },
        {
          "internalType": "uint256",
          "name": "_rindex",
          "type": "uint256"
        }
      ],
      "name": "_recoverSignature",
      "outputs": [
        {
          "internalType": "bytes32",
          "name": "_imageHash",
          "type": "bytes32"
        },
        {
          "internalType": "uint256",
          "name": "_weight",
          "type": "uint256"
        },
        {
          "internalType": "uint256",
          "name": "_thershold",
          "type": "uint256"
        }
      ],
      "stateMutability": "view",
      "type": "function"
    },
    {
      "inputs": [
        {
          "internalType": "bytes",
          "name": "_code",
          "type": "bytes"
        }
      ],
      "name": "createContract",
      "outputs": [
        {
          "internalType": "address",
          "name": "addr",
          "type": "address"
        }
      ],
      "stateMutability": "payable",
      "type": "function"
    },
    {
      "inputs": [
        {
          "components": [
            {
              "internalType": "bool",
              "name": "delegateCall",
              "type": "bool"
            },
            {
              "internalType": "bool",
              "name": "revertOnError",
              "type": "bool"
            },
            {
              "internalType": "uint256",
              "name": "gasLimit",
              "type": "uint256"
            },
            {
              "internalType": "address",
              "name": "target",
              "type": "address"
            },
            {
              "internalType": "uint256",
              "name": "value",
              "type": "uint256"
            },
            {
              "internalType": "bytes",
              "name": "data",
              "type": "bytes"
            }
          ],
          "internalType": "struct IModuleCalls.Transaction[]",
          "name": "_txs",
          "type": "tuple[]"
        },
        {
          "internalType": "uint256",
          "name": "",
          "type": "uint256"
        },
        {
          "internalType": "bytes",
          "name": "",
          "type": "bytes"
        }
      ],
      "name": "execute",
      "outputs": [],
      "stateMutability": "nonpayable",
      "type": "function"
    },
    {
      "inputs": [
        {
          "internalType": "bytes32",
          "name": "_hash",
          "type": "bytes32"
        },
        {
          "internalType": "bytes",
          "name": "_signatures",
          "type": "bytes"
        }
      ],
      "name": "isValidSignature",
      "outputs": [
        {
          "internalType": "bytes4",
          "name": "",
          "type": "bytes4"
        }
      ],
      "stateMutability": "view",
      "type": "function"
    },
    {
      "inputs": [
        {
          "internalType": "bytes",
          "name": "_data",
          "type": "bytes"
        },
        {
          "internalType": "bytes",
          "name": "_signatures",
          "type": "bytes"
        }
      ],
      "name": "isValidSignature",
      "outputs": [
        {
          "internalType": "bytes4",
          "name": "",
          "type": "bytes4"
        }
      ],
      "stateMutability": "view",
      "type": "function"
    },
    {
      "inputs": [],
      "name": "nonce",
      "outputs": [
        {
          "internalType": "uint256",
          "name": "",
          "type": "uint256"
        }
      ],
      "stateMutability": "view",
      "type": "function"
    },
    {
      "inputs": [
        {
          "internalType": "uint256",
          "name": "_space",
          "type": "uint256"
        }
      ],
      "name": "readGapNonce",
      "outputs": [
        {
          "internalType": "uint256",
          "name": "",
          "type": "uint256"
        }
      ],
      "stateMutability": "view",
      "type": "function"
    },
    {
      "inputs": [
        {
          "internalType": "uint256",
          "name": "_space",
          "type": "uint256"
        }
      ],
      "name": "readNonce",
      "outputs": [
        {
          "internalType": "uint256",
          "name": "",
          "type": "uint256"
        }
      ],
      "stateMutability": "view",
      "type": "function"
    },
    {
      "inputs": [
        {
          "components": [
            {
              "internalType": "bool",
              "name": "delegateCall",
              "type": "bool"
            },
            {
              "internalType": "bool",
              "name": "revertOnError",
              "type": "bool"
            },
            {
              "internalType": "uint256",
              "name": "gasLimit",
              "type": "uint256"
            },
            {
              "internalType": "address",
              "name": "target",
              "type": "address"
            },
            {
              "internalType": "uint256",
              "name": "value",
              "type": "uint256"
            },
            {
              "internalType": "bytes",
              "name": "data",
              "type": "bytes"
            }
          ],
          "internalType": "struct IModuleCalls.Transaction[]",
          "name": "_txs",
          "type": "tuple[]"
        }
      ],
      "name": "selfExecute",
      "outputs": [],
      "stateMutability": "nonpayable",
      "type": "function"
    },
    {
      "inputs": [
        {
          "internalType": "bytes4",
          "name": "_interfaceID",
          "type": "bytes4"
        }
      ],
      "name": "supportsInterface",
      "outputs": [
        {
          "internalType": "bool",
          "name": "",
          "type": "bool"
        }
      ],
      "stateMutability": "pure",
      "type": "function"
    },
    {
      "inputs": [
        {
          "internalType": "bytes32",
          "name": "",
          "type": "bytes32"
        }
      ],
      "name": "updateImageHash",
      "outputs": [],
      "stateMutability": "nonpayable",
      "type": "function"
    }
  ],
  "bytecode": "0x608060405234801561001057600080fd5b50612588806100206000396000f3fe6080604052600436106100bc5760003560e01c80637a9a162811610074578063affed0e01161004e578063affed0e01461022f578063b90be0f814610244578063cc63f2e21461027f57600080fd5b80637a9a1628146101a95780638c3f5563146101c957806390042baf146101f757600080fd5b806320c13b0b116100a557806320c13b0b14610147578063295614261461016757806361c2926c1461018957600080fd5b806301ffc9a7146100c15780631626ba7e146100f6575b600080fd5b3480156100cd57600080fd5b506100e16100dc3660046119be565b61029f565b60405190151581526020015b60405180910390f35b34801561010257600080fd5b50610116610111366004611a24565b6102b0565b6040517fffffffff0000000000000000000000000000000000000000000000000000000090911681526020016100ed565b34801561015357600080fd5b50610116610162366004611a70565b6102f9565b34801561017357600080fd5b50610187610182366004611adc565b61035a565b005b34801561019557600080fd5b506101876101a4366004611dc0565b6103d2565b3480156101b557600080fd5b506101876101c4366004611df5565b6104a7565b3480156101d557600080fd5b506101e96101e4366004611adc565b6104d0565b6040519081526020016100ed565b61020a610205366004611e4c565b6104fc565b60405173ffffffffffffffffffffffffffffffffffffffff90911681526020016100ed565b34801561023b57600080fd5b506101e9610598565b34801561025057600080fd5b5061026461025f366004611e81565b6105a9565b604080519384526020840192909252908201526060016100ed565b34801561028b57600080fd5b506101e961029a366004611adc565b610785565b60006102aa826107b1565b92915050565b6000806102be85858561080d565b50905080156102f057507f1626ba7e0000000000000000000000000000000000000000000000000000000090506102f2565b505b9392505050565b60008061031e868660405161030f929190611ed4565b6040518091039020858561080d565b509050801561035057507f20c13b0b000000000000000000000000000000000000000000000000000000009050610352565b505b949350505050565b3330146103a0576040517fe12588940000000000000000000000000000000000000000000000000000000081523360048201523060248201526044015b60405180910390fd5b6040517fa038794000000000000000000000000000000000000000000000000000000000815260040160405180910390fd5b6000610497826040516020016103e89190612014565b604080517fffffffffffffffffffffffffffffffffffffffffffffffffffffffffffffffe081840301815282825280516020918201207f1901000000000000000000000000000000000000000000000000000000000000848301524660228501523060601b7fffffffffffffffffffffffffffffffffffffffff000000000000000000000000166042850152605680850191909152825180850390910181526076909301909152815191012090565b90506104a381836108c5565b5050565b60006104bd856040516020016103e8919061205b565b90506104c981866108c5565b5050505050565b60006102aa7f8d0bf1fd623d628c741362c1289948e57b3e2905218c676d3e69abee36d6ae2e83610a52565b600033301461053f576040517fe1258894000000000000000000000000000000000000000000000000000000008152336004820152306024820152604401610397565b81516020830134f060405173ffffffffffffffffffffffffffffffffffffffff821681529091507fa506ad4e7f05eceba62a023c3219e5bd98a615f4fa87e2afb08a2da5cf62bf0c9060200160405180910390a1919050565b60006105a460006104d0565b905090565b8281013560f01c600081600284015b8581101561077a57600281019087013560f881901c9060f01c60ff1660007fffffffffffffffffffffffffffffffffffffffffffffffffffffffffffffffff830161060e5750601483019289013560601c61072a565b826106445760008460420190506106368c8c8c88908592610631939291906120a2565b610ab0565b96830196909450905061072a565b600283036106f557838a013560601c601485019450905060008a85013560f01c600286018161ffff16915080965081925050506000818601905061069a8d848e8e8a908692610695939291906120a2565b610d73565b6106e8578c838d8d899085926106b2939291906120a2565b6040517f9a9462320000000000000000000000000000000000000000000000000000000081526004016103979493929190612115565b96830196945061072a9050565b6040517fb2505f7c00000000000000000000000000000000000000000000000000000000815260048101849052602401610397565b604080516020810189905290810183905273ffffffffffffffffffffffffffffffffffffffff821660608201526080016040516020818303038152906040528051906020012096505050506105b8565b509450945094915050565b60006102aa7f2a37c7c3c3449f4795b05559a0f92a1730815bf20be16b02bbd6dbb8ae8532fe83610a52565b60007f6ffbd451000000000000000000000000000000000000000000000000000000007fffffffff0000000000000000000000000000000000000000000000000000000083160161080457506001919050565b6102aa82610f17565b60008060008061081d8686610f73565b909250905060ff82166108415761083686868984610fc0565b9350935050506108bd565b60018260ff16036108585761083686868984611075565b60028260ff160361086f576108368686898461110c565b60038260ff16036108865761083686868984611194565b6040517fbff01fa700000000000000000000000000000000000000000000000000000000815260ff83166004820152602401610397565b935093915050565b60005b8151811015610a4d5760008282815181106108e5576108e5612155565b602002602001015190506000606082600001511561092f576040517f0d89438e00000000000000000000000000000000000000000000000000000000815260040160405180910390fd5b82604001515a101561097c5782604001515a6040517f9fa7298200000000000000000000000000000000000000000000000000000000815260048101929092526024820152604401610397565b826060015173ffffffffffffffffffffffffffffffffffffffff16836080015184604001516000146109b25784604001516109b4565b5a5b908560a001516040516109c79190612184565b600060405180830381858888f193505050503d8060008114610a05576040519150601f19603f3d011682016040523d82523d6000602084013e610a0a565b606091505b5090925090508115610a2c5760405186815260200160405180910390a0610a37565b610a378387836114e0565b5050508080610a45906121cf565b9150506108c8565b505050565b6000808383604051602001610a71929190918252602082015260400190565b604080517fffffffffffffffffffffffffffffffffffffffffffffffffffffffffffffffe0818403018152919052805160209091012054949350505050565b600060428214610af05782826040517f2ee17a3d000000000000000000000000000000000000000000000000000000008152600401610397929190612207565b6000610b09610b0060018561221b565b85013560f81c90565b60ff169050604084013560f81c843560208601357f7fffffffffffffffffffffffffffffff5d576e7357a4501ddfe92f46681b20a0811115610b7d578686826040517fad4aac7600000000000000000000000000000000000000000000000000000000815260040161039793929190612232565b8260ff16601b14158015610b9557508260ff16601c14155b15610bd2578686846040517fe578897e00000000000000000000000000000000000000000000000000000000815260040161039793929190612256565b60018403610c3f576040805160008152602081018083528a905260ff851691810191909152606081018390526080810182905260019060a0015b6020604051602081039080840390855afa158015610c2e573d6000803e3d6000fd5b505050602060405103519450610d17565b60028403610cdc576040517f19457468657265756d205369676e6564204d6573736167653a0a3332000000006020820152603c8101899052600190605c01604080517fffffffffffffffffffffffffffffffffffffffffffffffffffffffffffffffe08184030181528282528051602091820120600084529083018083525260ff861690820152606081018490526080810183905260a001610c0c565b86868560016040517f9dfba852000000000000000000000000000000000000000000000000000000008152600401610397949392919061227d565b73ffffffffffffffffffffffffffffffffffffffff8516610d685786866040517f6c1719d2000000000000000000000000000000000000000000000000000000008152600401610397929190612207565b505050509392505050565b6000808383610d8360018261221b565b818110610d9257610d92612155565b919091013560f81c9150506001811480610dac5750600281145b15610df1578473ffffffffffffffffffffffffffffffffffffffff16610dd3878686610ab0565b73ffffffffffffffffffffffffffffffffffffffff16149150610350565b60038103610edc5773ffffffffffffffffffffffffffffffffffffffff8516631626ba7e8786600087610e2560018261221b565b92610e32939291906120a2565b6040518463ffffffff1660e01b8152600401610e50939291906122a9565b602060405180830381865afa158015610e6d573d6000803e3d6000fd5b505050506040513d601f19601f82011682018060405250810190610e9191906122cc565b7fffffffff00000000000000000000000000000000000000000000000000000000167f1626ba7e00000000000000000000000000000000000000000000000000000000149150610350565b83838260006040517f9dfba852000000000000000000000000000000000000000000000000000000008152600401610397949392919061227d565b60007f0b050cdb000000000000000000000000000000000000000000000000000000007fffffffff00000000000000000000000000000000000000000000000000000000831601610f6a57506001919050565b6102aa82611530565b600080828103610fb35783836040517f322952a3000000000000000000000000000000000000000000000000000000008152600401610397929190612207565b5050503560f81c90600190565b604080517f19010000000000000000000000000000000000000000000000000000000000006020808301919091524660228301523060601b7fffffffffffffffffffffffffffffffffffffffff000000000000000000000000166042830152605680830186905283518084039091018152607690920190925280519101206000906000806000611053848a8a60006105a9565b925092509250808210158015611067575060015b945050505094509492505050565b604080517f19010000000000000000000000000000000000000000000000000000000000006020808301919091524660228301523060601b7fffffffffffffffffffffffffffffffffffffffff0000000000000000000000001660428301526056808301869052835180840390910181526076909201909252805191012060009081905b90506000806000611053848a8a896105a9565b604080517f19010000000000000000000000000000000000000000000000000000000000006020808301919091526000602283018190523060601b7fffffffffffffffffffffffffffffffffffffffff0000000000000000000000001660428401526056808401879052845180850390910181526076909301909352815191012081906110f9565b60008080806111a6876001818b6120a2565b8101906111b391906122e9565b6040517fcc63f2e20000000000000000000000000000000000000000000000000000000081527396f7fef04d2478e2b011c3aca79dc5a83b5d37ef60048201529193509150600090309063cc63f2e290602401602060405180830381865afa158015611223573d6000803e3d6000fd5b505050506040513d601f19601f820116820180604052508101906112479190612440565b90506000805b84518110156114175760008061129e87848151811061126e5761126e612155565b60200260200101516000015188858151811061128c5761128c612155565b6020026020010151602001513061161a565b9150915060008784815181106112b6576112b6612155565b60200260200101516040015190506000801b851480156112d557508582105b156112e9578582116112e957505050611405565b60008060003073ffffffffffffffffffffffffffffffffffffffff1663b90be0f88c898151811061131c5761131c612155565b6020026020010151600001518d8a8151811061133a5761133a612155565b602002602001015160200151604051602001611357929190612459565b604051602081830303815290604052805190602001208660006040518463ffffffff1660e01b815260040161138e9392919061247b565b606060405180830381865afa1580156113ab573d6000803e3d6000fd5b505050506040513d601f19601f820116820180604052508101906113cf91906124a4565b9250925092508783146113fa5787156113fa575060009b508b9a506114d79950505050505050505050565b509296509294505050505b8061140f816121cf565b91505061124d565b50604080517f19010000000000000000000000000000000000000000000000000000000000006020808301919091524660228301523060601b7fffffffffffffffffffffffffffffffffffffffff00000000000000000000000016604283015260568083018c90528351808403909101815260769092019092528051910120945060008060006114a9888e8e8d6105a9565b9250925092508082101580156114be57508315155b6114c95760016114cd565b8383145b9850505050505050505b94509492505050565b8260200151156114f257805160208201fd5b7f3dbd1590ea96dd3253a91f24e64e3a502e1225d602a5731357bc12643070ccd782826040516115239291906124d2565b60405180910390a1505050565b60007fffffffff0000000000000000000000000000000000000000000000000000000082167f295614260000000000000000000000000000000000000000000000000000000014806115c357507fffffffff0000000000000000000000000000000000000000000000000000000082167f36e7817500000000000000000000000000000000000000000000000000000000145b156115d057506001919050565b7f01ffc9a7000000000000000000000000000000000000000000000000000000007fffffffff000000000000000000000000000000000000000000000000000000008316146102aa565b6000808460000151806116305750608085015115155b8061163c575084602001515b8061164a5750604085015115155b8061165b57508460a0015151602414155b8061169657508273ffffffffffffffffffffffffffffffffffffffff16856060015173ffffffffffffffffffffffffffffffffffffffff1614155b156116cf57846040517f7c6db09e00000000000000000000000000000000000000000000000000000000815260040161039791906124eb565b60008060006116dd87611826565b92509250925060018214611720576040517ff558743900000000000000000000000000000000000000000000000000000000815260048101839052602401610397565b7396f7fef04d2478e2b011c3aca79dc5a83b5d37ef8314611770576040517f2edc0ac400000000000000000000000000000000000000000000000000000000815260048101849052602401610397565b6000806117808a60a00151611886565b90925090507fffffffff0000000000000000000000000000000000000000000000000000000082167f29561426000000000000000000000000000000000000000000000000000000001461180257896040517f7c6db09e00000000000000000000000000000000000000000000000000000000815260040161039791906124eb565b808060200190518101906118169190612440565b9a92995091975050505050505050565b606081901c605882901c60ff166affffffffffffffffffffff8316600282111561187f576040517ff558743900000000000000000000000000000000000000000000000000000000815260048101839052602401610397565b9193909250565b60006060602083015163ffffffff1691506118af8360048086516118aa919061221b565b6118b8565b50919391925050565b606060008267ffffffffffffffff8111156118d5576118d5611af5565b6040519080825280601f01601f1916602001820160405280156118ff576020820181803683370190505b509150838501602001600060205b858110156119265790820151848201526020810161190d565b848601602001805193909201519085015252508282018381101561194c5761194c6124fe565b84518111156108bd578484846040517f10a999ce0000000000000000000000000000000000000000000000000000000081526004016103979392919061252d565b7fffffffff00000000000000000000000000000000000000000000000000000000811681146119bb57600080fd5b50565b6000602082840312156119d057600080fd5b81356102f28161198d565b60008083601f8401126119ed57600080fd5b50813567ffffffffffffffff811115611a0557600080fd5b602083019150836020828501011115611a1d57600080fd5b9250929050565b600080600060408486031215611a3957600080fd5b83359250602084013567ffffffffffffffff811115611a5757600080fd5b611a63868287016119db565b9497909650939450505050565b60008060008060408587031215611a8657600080fd5b843567ffffffffffffffff80821115611a9e57600080fd5b611aaa888389016119db565b90965094506020870135915080821115611ac357600080fd5b50611ad0878288016119db565b95989497509550505050565b600060208284031215611aee57600080fd5b5035919050565b7f4e487b7100000000000000000000000000000000000000000000000000000000600052604160045260246000fd5b60405160c0810167ffffffffffffffff81118282101715611b4757611b47611af5565b60405290565b6040516060810167ffffffffffffffff81118282101715611b4757611b47611af5565b604051601f82017fffffffffffffffffffffffffffffffffffffffffffffffffffffffffffffffe016810167ffffffffffffffff81118282101715611bb757611bb7611af5565b604052919050565b600067ffffffffffffffff821115611bd957611bd9611af5565b5060051b60200190565b80358015158114611bf357600080fd5b919050565b600082601f830112611c0957600080fd5b813567ffffffffffffffff811115611c2357611c23611af5565b611c5460207fffffffffffffffffffffffffffffffffffffffffffffffffffffffffffffffe0601f84011601611b70565b818152846020838601011115611c6957600080fd5b816020850160208301376000918101602001919091529392505050565b600060c08284031215611c9857600080fd5b611ca0611b24565b9050611cab82611be3565b8152611cb960208301611be3565b602082015260408201356040820152606082013573ffffffffffffffffffffffffffffffffffffffff81168114611cef57600080fd5b60608201526080828101359082015260a082013567ffffffffffffffff811115611d1857600080fd5b611d2484828501611bf8565b60a08301525092915050565b600082601f830112611d4157600080fd5b81356020611d56611d5183611bbf565b611b70565b82815260059290921b84018101918181019086841115611d7557600080fd5b8286015b84811015611db557803567ffffffffffffffff811115611d995760008081fd5b611da78986838b0101611c86565b845250918301918301611d79565b509695505050505050565b600060208284031215611dd257600080fd5b813567ffffffffffffffff811115611de957600080fd5b61035284828501611d30565b60008060008060608587031215611e0b57600080fd5b843567ffffffffffffffff80821115611e2357600080fd5b611e2f88838901611d30565b9550602087013594506040870135915080821115611ac357600080fd5b600060208284031215611e5e57600080fd5b813567ffffffffffffffff811115611e7557600080fd5b61035284828501611bf8565b60008060008060608587031215611e9757600080fd5b84359350602085013567ffffffffffffffff811115611eb557600080fd5b611ec1878288016119db565b9598909750949560400135949350505050565b8183823760009101908152919050565b60005b83811015611eff578181015183820152602001611ee7565b83811115611f0e576000848401525b50505050565b60008151808452611f2c816020860160208601611ee4565b601f017fffffffffffffffffffffffffffffffffffffffffffffffffffffffffffffffe0169290920160200192915050565b8051151582526020810151151560208301526040810151604083015273ffffffffffffffffffffffffffffffffffffffff606082015116606083015260808101516080830152600060a082015160c060a085015261035260c0850182611f14565b600081518084526020808501808196508360051b8101915082860160005b85811015612007578284038952611ff5848351611f5e565b98850198935090840190600101611fdd565b5091979650505050505050565b60408152600560408201527f73656c663a00000000000000000000000000000000000000000000000000000060608201526080602082015260006102f26080830184611fbf565b60408152600660408201527f67756573743a000000000000000000000000000000000000000000000000000060608201526080602082015260006102f26080830184611fbf565b600080858511156120b257600080fd5b838611156120bf57600080fd5b5050820193919092039150565b8183528181602085013750600060208284010152600060207fffffffffffffffffffffffffffffffffffffffffffffffffffffffffffffffe0601f840116840101905092915050565b84815273ffffffffffffffffffffffffffffffffffffffff8416602082015260606040820152600061214b6060830184866120cc565b9695505050505050565b7f4e487b7100000000000000000000000000000000000000000000000000000000600052603260045260246000fd5b60008251612196818460208701611ee4565b9190910192915050565b7f4e487b7100000000000000000000000000000000000000000000000000000000600052601160045260246000fd5b60007fffffffffffffffffffffffffffffffffffffffffffffffffffffffffffffffff8203612200576122006121a0565b5060010190565b6020815260006103526020830184866120cc565b60008282101561222d5761222d6121a0565b500390565b6040815260006122466040830185876120cc565b9050826020830152949350505050565b60408152600061226a6040830185876120cc565b905060ff83166020830152949350505050565b6060815260006122916060830186886120cc565b60208301949094525090151560409091015292915050565b8381526040602082015260006122c36040830184866120cc565b95945050505050565b6000602082840312156122de57600080fd5b81516102f28161198d565b600080604083850312156122fc57600080fd5b823567ffffffffffffffff8082111561231457600080fd5b818501915085601f83011261232857600080fd5b81356020612338611d5183611bbf565b82815260059290921b8401810191818101908984111561235757600080fd5b8286015b84811015612412578035868111156123735760008081fd5b87016060818d037fffffffffffffffffffffffffffffffffffffffffffffffffffffffffffffffe0018113156123a95760008081fd5b6123b1611b4d565b86830135898111156123c35760008081fd5b6123d18f8983870101611c86565b8252506040830135878201529082013590888211156123f05760008081fd5b6123fe8e8884860101611bf8565b60408201528552505091830191830161235b565b509650508601359250508082111561242957600080fd5b5061243685828601611bf8565b9150509250929050565b60006020828403121561245257600080fd5b5051919050565b60408152600061246c6040830185611f5e565b90508260208301529392505050565b8381526060602082015260006124946060830185611f14565b9050826040830152949350505050565b6000806000606084860312156124b957600080fd5b8351925060208401519150604084015190509250925092565b8281526040602082015260006103526040830184611f14565b6020815260006102f26020830184611f5e565b7f4e487b7100000000000000000000000000000000000000000000000000000000600052600160045260246000fd5b6060815260006125406060830186611f14565b6020830194909452506040015291905056fea26469706673582212203ef7afb02d407c8c0032c1d5eb08945a00a0e7722abe78d83849bf948c14b32864736f6c634300080e0033",
  "linkReferences": {},
  "deployedLinkReferences": {}
}