{
  "_format": "hh-sol-artifact-1",
  "contractName": "GuestModule",
  "sourceName": "contracts/modules/GuestModule.sol",
  "abi": [
    {
      "inputs": [
        {
          "internalType": "uint256",
          "name": "_space",
          "type": "uint256"
        },
        {
          "internalType": "uint256",
          "name": "_provided",
          "type": "uint256"
        },
        {
          "internalType": "uint256",
          "name": "_current",
          "type": "uint256"
        }
      ],
      "name": "BadGapNonce",
      "type": "error"
    },
    {
      "inputs": [
        {
          "internalType": "uint256",
          "name": "_space",
          "type": "uint256"
        },
        {
          "internalType": "uint256",
          "name": "_provided",
          "type": "uint256"
        },
        {
          "internalType": "uint256",
          "name": "_current",
          "type": "uint256"
        }
      ],
      "name": "BadNonce",
      "type": "error"
    },
    {
      "inputs": [],
      "name": "DelegateCallNotAllowed",
      "type": "error"
    },
    {
      "inputs": [
        {
          "internalType": "uint256",
          "name": "_space",
          "type": "uint256"
        },
        {
          "internalType": "uint256",
          "name": "_nonce",
          "type": "uint256"
        }
      ],
      "name": "ExpectedEmptyNonce",
      "type": "error"
    },
    {
      "inputs": [
        {
          "internalType": "bytes32",
          "name": "_hash",
          "type": "bytes32"
        },
        {
          "internalType": "address",
          "name": "_addr",
          "type": "address"
        },
        {
          "internalType": "bytes",
          "name": "_signature",
          "type": "bytes"
        }
      ],
      "name": "InvalidNestedSignature",
      "type": "error"
    },
    {
      "inputs": [
        {
          "internalType": "uint256",
          "name": "_type",
          "type": "uint256"
        }
      ],
      "name": "InvalidNonceType",
      "type": "error"
    },
    {
      "inputs": [
        {
          "internalType": "bytes",
          "name": "_signature",
          "type": "bytes"
        },
        {
          "internalType": "bytes32",
          "name": "_s",
          "type": "bytes32"
        }
      ],
      "name": "InvalidSValue",
      "type": "error"
    },
    {
      "inputs": [
        {
          "internalType": "bytes32",
          "name": "_hash",
          "type": "bytes32"
        },
        {
          "internalType": "bytes",
          "name": "_signature",
          "type": "bytes"
        }
      ],
      "name": "InvalidSignature",
      "type": "error"
    },
    {
      "inputs": [
        {
          "internalType": "uint256",
          "name": "_flag",
          "type": "uint256"
        }
      ],
      "name": "InvalidSignatureFlag",
      "type": "error"
    },
    {
      "inputs": [
        {
          "internalType": "bytes",
          "name": "_signature",
          "type": "bytes"
        }
      ],
      "name": "InvalidSignatureLength",
      "type": "error"
    },
    {
      "inputs": [
        {
          "internalType": "bytes",
          "name": "_signature",
          "type": "bytes"
        },
        {
          "internalType": "uint256",
          "name": "_v",
          "type": "uint256"
        }
      ],
      "name": "InvalidVValue",
      "type": "error"
    },
    {
      "inputs": [
        {
          "internalType": "uint256",
          "name": "_requested",
          "type": "uint256"
        },
        {
          "internalType": "uint256",
          "name": "_available",
          "type": "uint256"
        }
      ],
      "name": "NotEnoughGas",
      "type": "error"
    },
    {
      "inputs": [
        {
          "internalType": "address",
          "name": "_sender",
          "type": "address"
        },
        {
          "internalType": "address",
          "name": "_self",
          "type": "address"
        }
      ],
      "name": "OnlySelfAuth",
      "type": "error"
    },
    {
      "inputs": [
        {
          "internalType": "bytes",
          "name": "_data",
          "type": "bytes"
        },
        {
          "internalType": "uint256",
          "name": "_index",
          "type": "uint256"
        }
      ],
      "name": "ReadAddressOutOfBounds",
      "type": "error"
    },
    {
      "inputs": [
        {
          "internalType": "bytes",
          "name": "_data",
          "type": "bytes"
        },
        {
          "internalType": "uint256",
          "name": "_index",
          "type": "uint256"
        }
      ],
      "name": "ReadBytes32OutOfBounds",
      "type": "error"
    },
    {
      "inputs": [
        {
          "internalType": "bytes",
          "name": "_data",
          "type": "bytes"
        },
        {
          "internalType": "uint256",
          "name": "_index",
          "type": "uint256"
        }
      ],
      "name": "ReadBytes66OutOfBounds",
      "type": "error"
    },
    {
      "inputs": [
        {
          "internalType": "bytes",
          "name": "_datam",
          "type": "bytes"
        },
        {
          "internalType": "uint256",
          "name": "_index",
          "type": "uint256"
        },
        {
          "internalType": "uint256",
          "name": "_length",
          "type": "uint256"
        }
      ],
      "name": "ReadBytesOutOfBounds",
      "type": "error"
    },
    {
      "inputs": [
        {
          "internalType": "bytes",
          "name": "_data",
          "type": "bytes"
        }
      ],
      "name": "ReadFirstUint16OutOfBounds",
      "type": "error"
    },
    {
      "inputs": [
        {
          "internalType": "bytes",
          "name": "_data",
          "type": "bytes"
        },
        {
          "internalType": "uint256",
          "name": "_index",
          "type": "uint256"
        }
      ],
      "name": "ReadUint16OutOfBounds",
      "type": "error"
    },
    {
      "inputs": [
        {
          "internalType": "bytes",
          "name": "_data",
          "type": "bytes"
        },
        {
          "internalType": "uint256",
          "name": "_index",
          "type": "uint256"
        }
      ],
      "name": "ReadUint8Uint8OutOfBounds",
      "type": "error"
    },
    {
      "inputs": [
        {
          "internalType": "bytes",
          "name": "_signature",
          "type": "bytes"
        }
      ],
      "name": "SignerIsAddress0",
      "type": "error"
    },
    {
      "inputs": [
        {
          "internalType": "bytes",
          "name": "_signature",
          "type": "bytes"
        },
        {
          "internalType": "uint256",
          "name": "_type",
          "type": "uint256"
        },
        {
          "internalType": "bool",
          "name": "_recoverMode",
          "type": "bool"
        }
      ],
      "name": "UnsupportedSignatureType",
      "type": "error"
    },
    {
      "anonymous": false,
      "inputs": [
        {
          "indexed": false,
          "internalType": "address",
          "name": "_contract",
          "type": "address"
        }
      ],
      "name": "CreatedContract",
      "type": "event"
    },
    {
      "anonymous": false,
      "inputs": [
        {
          "indexed": false,
          "internalType": "uint256",
          "name": "_space",
          "type": "uint256"
        },
        {
          "indexed": false,
          "internalType": "uint256",
          "name": "_oldNonce",
          "type": "uint256"
        },
        {
          "indexed": false,
          "internalType": "uint256",
          "name": "_newNonce",
          "type": "uint256"
        }
      ],
      "name": "GapNonceChange",
      "type": "event"
    },
    {
      "anonymous": false,
      "inputs": [],
      "name": "NoNonceUsed",
      "type": "event"
    },
    {
      "anonymous": false,
      "inputs": [
        {
          "indexed": false,
          "internalType": "uint256",
          "name": "_space",
          "type": "uint256"
        },
        {
          "indexed": false,
          "internalType": "uint256",
          "name": "_newNonce",
          "type": "uint256"
        }
      ],
      "name": "NonceChange",
      "type": "event"
    },
    {
      "anonymous": true,
      "inputs": [
        {
          "indexed": false,
          "internalType": "bytes32",
          "name": "_tx",
          "type": "bytes32"
        }
      ],
      "name": "TxExecuted",
      "type": "event"
    },
    {
      "anonymous": false,
      "inputs": [
        {
          "indexed": false,
          "internalType": "bytes32",
          "name": "_tx",
          "type": "bytes32"
        },
        {
          "indexed": false,
          "internalType": "bytes",
          "name": "_reason",
          "type": "bytes"
        }
      ],
      "name": "TxFailed",
      "type": "event"
    },
    {
      "inputs": [
        {
          "internalType": "bytes",
          "name": "_code",
          "type": "bytes"
        }
      ],
      "name": "createContract",
      "outputs": [
        {
          "internalType": "address",
          "name": "addr",
          "type": "address"
        }
      ],
      "stateMutability": "payable",
      "type": "function"
    },
    {
      "inputs": [
        {
          "components": [
            {
              "internalType": "bool",
              "name": "delegateCall",
              "type": "bool"
            },
            {
              "internalType": "bool",
              "name": "revertOnError",
              "type": "bool"
            },
            {
              "internalType": "uint256",
              "name": "gasLimit",
              "type": "uint256"
            },
            {
              "internalType": "address",
              "name": "target",
              "type": "address"
            },
            {
              "internalType": "uint256",
              "name": "value",
              "type": "uint256"
            },
            {
              "internalType": "bytes",
              "name": "data",
              "type": "bytes"
            }
          ],
          "internalType": "struct IModuleCalls.Transaction[]",
          "name": "_txs",
          "type": "tuple[]"
        },
        {
          "internalType": "uint256",
          "name": "",
          "type": "uint256"
        },
        {
          "internalType": "bytes",
          "name": "",
          "type": "bytes"
        }
      ],
      "name": "execute",
      "outputs": [],
      "stateMutability": "nonpayable",
      "type": "function"
    },
    {
      "inputs": [
        {
          "internalType": "bytes32",
          "name": "_hash",
          "type": "bytes32"
        },
        {
          "internalType": "bytes",
          "name": "_signatures",
          "type": "bytes"
        }
      ],
      "name": "isValidSignature",
      "outputs": [
        {
          "internalType": "bytes4",
          "name": "",
          "type": "bytes4"
        }
      ],
      "stateMutability": "view",
      "type": "function"
    },
    {
      "inputs": [
        {
          "internalType": "bytes",
          "name": "_data",
          "type": "bytes"
        },
        {
          "internalType": "bytes",
          "name": "_signatures",
          "type": "bytes"
        }
      ],
      "name": "isValidSignature",
      "outputs": [
        {
          "internalType": "bytes4",
          "name": "",
          "type": "bytes4"
        }
      ],
      "stateMutability": "view",
      "type": "function"
    },
    {
      "inputs": [],
      "name": "nonce",
      "outputs": [
        {
          "internalType": "uint256",
          "name": "",
          "type": "uint256"
        }
      ],
      "stateMutability": "view",
      "type": "function"
    },
    {
      "inputs": [
        {
          "internalType": "uint256",
          "name": "_space",
          "type": "uint256"
        }
      ],
      "name": "readGapNonce",
      "outputs": [
        {
          "internalType": "uint256",
          "name": "",
          "type": "uint256"
        }
      ],
      "stateMutability": "view",
      "type": "function"
    },
    {
      "inputs": [
        {
          "internalType": "uint256",
          "name": "_space",
          "type": "uint256"
        }
      ],
      "name": "readNonce",
      "outputs": [
        {
          "internalType": "uint256",
          "name": "",
          "type": "uint256"
        }
      ],
      "stateMutability": "view",
      "type": "function"
    },
    {
      "inputs": [
        {
          "components": [
            {
              "internalType": "bool",
              "name": "delegateCall",
              "type": "bool"
            },
            {
              "internalType": "bool",
              "name": "revertOnError",
              "type": "bool"
            },
            {
              "internalType": "uint256",
              "name": "gasLimit",
              "type": "uint256"
            },
            {
              "internalType": "address",
              "name": "target",
              "type": "address"
            },
            {
              "internalType": "uint256",
              "name": "value",
              "type": "uint256"
            },
            {
              "internalType": "bytes",
              "name": "data",
              "type": "bytes"
            }
          ],
          "internalType": "struct IModuleCalls.Transaction[]",
          "name": "_txs",
          "type": "tuple[]"
        }
      ],
      "name": "selfExecute",
      "outputs": [],
      "stateMutability": "nonpayable",
      "type": "function"
    },
    {
      "inputs": [
        {
          "internalType": "bytes4",
          "name": "_interfaceID",
          "type": "bytes4"
        }
      ],
      "name": "supportsInterface",
      "outputs": [
        {
          "internalType": "bool",
          "name": "",
          "type": "bool"
        }
      ],
      "stateMutability": "pure",
      "type": "function"
    }
  ],
  "bytecode": "0x608060405234801561001057600080fd5b50611c39806100206000396000f3fe6080604052600436106100965760003560e01c80637a9a16281161006957806390042baf1161004e57806390042baf146101b1578063affed0e0146101e9578063cc63f2e2146101fe57600080fd5b80637a9a1628146101635780638c3f55631461018357600080fd5b806301ffc9a71461009b5780631626ba7e146100d057806320c13b0b1461012157806361c2926c14610141575b600080fd5b3480156100a757600080fd5b506100bb6100b636600461136e565b61021e565b60405190151581526020015b60405180910390f35b3480156100dc57600080fd5b506100f06100eb3660046113cd565b61022f565b6040517fffffffff0000000000000000000000000000000000000000000000000000000090911681526020016100c7565b34801561012d57600080fd5b506100f061013c366004611419565b6102ad565b34801561014d57600080fd5b5061016161015c366004611728565b610343565b005b34801561016f57600080fd5b5061016161017e36600461175d565b610418565b34801561018f57600080fd5b506101a361019e3660046117ca565b610440565b6040519081526020016100c7565b6101c46101bf3660046117e3565b61046c565b60405173ffffffffffffffffffffffffffffffffffffffff90911681526020016100c7565b3480156101f557600080fd5b506101a361050d565b34801561020a57600080fd5b506101a36102193660046117ca565b61051e565b60006102298261054a565b92915050565b6000806102728585858080601f0160208091040260200160405190810160405280939291908181526020018383808284376000920191909152506105a692505050565b50905080156102a457507f1626ba7e0000000000000000000000000000000000000000000000000000000090506102a6565b505b9392505050565b60008061030786866040516102c3929190611818565b604051809103902085858080601f0160208091040260200160405190810160405280939291908181526020018383808284376000920191909152506105a692505050565b509050801561033957507f20c13b0b00000000000000000000000000000000000000000000000000000000905061033b565b505b949350505050565b6000610408826040516020016103599190611948565b604080517fffffffffffffffffffffffffffffffffffffffffffffffffffffffffffffffe081840301815282825280516020918201207f1901000000000000000000000000000000000000000000000000000000000000848301524660228501523060601b7fffffffffffffffffffffffffffffffffffffffff000000000000000000000000166042850152605680850191909152825180850390910181526076909301909152815191012090565b905061041481836107fa565b5050565b600061042e84604051602001610359919061198f565b905061043a81856107fa565b50505050565b60006102297f8d0bf1fd623d628c741362c1289948e57b3e2905218c676d3e69abee36d6ae2e83610987565b60003330146104b4576040517fe12588940000000000000000000000000000000000000000000000000000000081523360048201523060248201526044015b60405180910390fd5b81516020830134f060405173ffffffffffffffffffffffffffffffffffffffff821681529091507fa506ad4e7f05eceba62a023c3219e5bd98a615f4fa87e2afb08a2da5cf62bf0c9060200160405180910390a1919050565b60006105196000610440565b905090565b60006102297f2a37c7c3c3449f4795b05559a0f92a1730815bf20be16b02bbd6dbb8ae8532fe83610987565b60007f6ffbd451000000000000000000000000000000000000000000000000000000007fffffffff0000000000000000000000000000000000000000000000000000000083160161059d57506001919050565b610229826109e5565b604080517f19010000000000000000000000000000000000000000000000000000000000006020808301919091524660228301523060601b7fffffffffffffffffffffffffffffffffffffffff0000000000000000000000001660428301526056808301869052835180840390910181526076909201909252805191012060009060008061063385610a41565b909250905061ffff821660005b86518310156107db57600080806106578a87610a91565b975060ff91821694501691507fffffffffffffffffffffffffffffffffffffffffffffffffffffffffffffffff830161069d576106948a87610af0565b9650905061078b565b826106c95760606106ae8b88610b49565b975090506106bc8982610bd6565b915082850194505061078b565b60028303610756576106db8a87610af0565b9650905060006106eb8b88610ed2565b975061ffff16905060606107008c8984610f24565b9850905061070f8a8483611001565b61074b578983826040517f9a9462320000000000000000000000000000000000000000000000000000000081526004016104ab939291906119d6565b50509281019261078b565b6040517fb2505f7c000000000000000000000000000000000000000000000000000000008152600481018490526024016104ab565b604080516020810187905290810183905273ffffffffffffffffffffffffffffffffffffffff82166060820152608001604051602081830303815290604052805190602001209450505050610640565b8361ffff1681101580156107ed575060015b9550505050509250929050565b60005b815181101561098257600082828151811061081a5761081a611a14565b6020026020010151905060006060826000015115610864576040517f0d89438e00000000000000000000000000000000000000000000000000000000815260040160405180910390fd5b82604001515a10156108b15782604001515a6040517f9fa72982000000000000000000000000000000000000000000000000000000008152600481019290925260248201526044016104ab565b826060015173ffffffffffffffffffffffffffffffffffffffff16836080015184604001516000146108e75784604001516108e9565b5a5b908560a001516040516108fc9190611a43565b600060405180830381858888f193505050503d806000811461093a576040519150601f19603f3d011682016040523d82523d6000602084013e61093f565b606091505b50909250905081156109615760405186815260200160405180910390a061096c565b61096c8387836111cb565b505050808061097a90611a8e565b9150506107fd565b505050565b60008083836040516020016109a6929190918252602082015260400190565b604080517fffffffffffffffffffffffffffffffffffffffffffffffffffffffffffffffe0818403018152919052805160209091012054949350505050565b60007f0b050cdb000000000000000000000000000000000000000000000000000000007fffffffff00000000000000000000000000000000000000000000000000000000831601610a3857506001919050565b6102298261121b565b600080600283511015610a8257826040517f857f2c1a0000000000000000000000000000000000000000000000000000000081526004016104ab9190611ac6565b50506020015160f01c90600290565b80820160200151825160f882901c9160f01c60ff16906002840190811115610ae95784846040517fa19c8fdd0000000000000000000000000000000000000000000000000000000081526004016104ab929190611ad9565b9250925092565b80820160200151825160609190911c906014830190811115610b425783836040517fe36e8a170000000000000000000000000000000000000000000000000000000081526004016104ab929190611ad9565b9250929050565b6040805160428082526080820190925260609160009190602082018180368337019050509150828401602001805160208401526020810151604084015260228101516042840152506042830190508351811115610b425783836040517f2d24eaea0000000000000000000000000000000000000000000000000000000081526004016104ab929190611ad9565b60008151604214610c1557816040517f2ee17a3d0000000000000000000000000000000000000000000000000000000081526004016104ab9190611ac6565b60008260018451610c269190611afb565b81518110610c3657610c36611a14565b602001015160f81c60f81b60f81c60ff169050600083604081518110610c5e57610c5e611a14565b016020015160f81c90506000610c7485826112e4565b90506000610c838660206112e4565b90507f7fffffffffffffffffffffffffffffff5d576e7357a4501ddfe92f46681b20a0811115610ce35785816040517fad4aac760000000000000000000000000000000000000000000000000000000081526004016104ab929190611ad9565b8260ff16601b14158015610cfb57508260ff16601c14155b15610d365785836040517fe578897e0000000000000000000000000000000000000000000000000000000081526004016104ab929190611b12565b60018403610da35760408051600081526020810180835289905260ff851691810191909152606081018390526080810182905260019060a0015b6020604051602081039080840390855afa158015610d92573d6000803e3d6000fd5b505050602060405103519450610e79565b60028403610e40576040517f19457468657265756d205369676e6564204d6573736167653a0a3332000000006020820152603c8101889052600190605c01604080517fffffffffffffffffffffffffffffffffffffffffffffffffffffffffffffffe08184030181528282528051602091820120600084529083018083525260ff861690820152606081018490526080810183905260a001610d70565b858460016040517f9dfba8520000000000000000000000000000000000000000000000000000000081526004016104ab93929190611b37565b73ffffffffffffffffffffffffffffffffffffffff8516610ec857856040517f6c1719d20000000000000000000000000000000000000000000000000000000081526004016104ab9190611ac6565b5050505092915050565b80820160200151825160f09190911c906002830190811115610b425783836040517f80d95e5f0000000000000000000000000000000000000000000000000000000081526004016104ab929190611ad9565b606060008267ffffffffffffffff811115610f4157610f41611485565b6040519080825280601f01601f191660200182016040528015610f6b576020820181803683370190505b509150838501602001600060205b85811015610f9257908201518482015260208101610f79565b8486016020018051939092015190850152525082820183811015610fb857610fb8611b61565b8451811115610ff9578484846040517f10a999ce0000000000000000000000000000000000000000000000000000000081526004016104ab93929190611b90565b935093915050565b60008082600184516110139190611afb565b8151811061102357611023611a14565b016020015160f81c9050600181148061103c5750600281145b15611080578373ffffffffffffffffffffffffffffffffffffffff166110628685610bd6565b73ffffffffffffffffffffffffffffffffffffffff161491506102a4565b600381036111925782517fffffffffffffffffffffffffffffffffffffffffffffffffffffffffffffffff810184526040517f1626ba7e00000000000000000000000000000000000000000000000000000000815273ffffffffffffffffffffffffffffffffffffffff861690631626ba7e906111039089908890600401611bb5565b602060405180830381865afa158015611120573d6000803e3d6000fd5b505050506040513d601f19601f820116820180604052508101906111449190611bce565b9084527fffffffff00000000000000000000000000000000000000000000000000000000167f1626ba7e000000000000000000000000000000000000000000000000000000001491506102a4565b828160006040517f9dfba8520000000000000000000000000000000000000000000000000000000081526004016104ab93929190611b37565b8260200151156111dd57805160208201fd5b7f3dbd1590ea96dd3253a91f24e64e3a502e1225d602a5731357bc12643070ccd7828260405161120e929190611bb5565b60405180910390a1505050565b60007fffffffff000000000000000000000000000000000000000000000000000000008216158061128d57507fffffffff0000000000000000000000000000000000000000000000000000000082167f36e7817500000000000000000000000000000000000000000000000000000000145b1561129a57506001919050565b7f01ffc9a7000000000000000000000000000000000000000000000000000000007fffffffff00000000000000000000000000000000000000000000000000000000831614610229565b6000806112f2836020611beb565b905080845110156113335783836040517fde59ba130000000000000000000000000000000000000000000000000000000081526004016104ab929190611ad9565b9092015192915050565b7fffffffff000000000000000000000000000000000000000000000000000000008116811461136b57600080fd5b50565b60006020828403121561138057600080fd5b81356102a68161133d565b60008083601f84011261139d57600080fd5b50813567ffffffffffffffff8111156113b557600080fd5b602083019150836020828501011115610b4257600080fd5b6000806000604084860312156113e257600080fd5b83359250602084013567ffffffffffffffff81111561140057600080fd5b61140c8682870161138b565b9497909650939450505050565b6000806000806040858703121561142f57600080fd5b843567ffffffffffffffff8082111561144757600080fd5b6114538883890161138b565b9096509450602087013591508082111561146c57600080fd5b506114798782880161138b565b95989497509550505050565b7f4e487b7100000000000000000000000000000000000000000000000000000000600052604160045260246000fd5b60405160c0810167ffffffffffffffff811182821017156114d7576114d7611485565b60405290565b604051601f82017fffffffffffffffffffffffffffffffffffffffffffffffffffffffffffffffe016810167ffffffffffffffff8111828210171561152457611524611485565b604052919050565b8035801515811461153c57600080fd5b919050565b600082601f83011261155257600080fd5b813567ffffffffffffffff81111561156c5761156c611485565b61159d60207fffffffffffffffffffffffffffffffffffffffffffffffffffffffffffffffe0601f840116016114dd565b8181528460208386010111156115b257600080fd5b816020850160208301376000918101602001919091529392505050565b600082601f8301126115e057600080fd5b8135602067ffffffffffffffff808311156115fd576115fd611485565b8260051b61160c8382016114dd565b938452858101830193838101908886111561162657600080fd5b84880192505b8583101561171c578235848111156116445760008081fd5b880160c0818b037fffffffffffffffffffffffffffffffffffffffffffffffffffffffffffffffe00181131561167a5760008081fd5b6116826114b4565b61168d88840161152c565b8152604061169c81850161152c565b8983015260608085013582840152608091508185013573ffffffffffffffffffffffffffffffffffffffff811681146116d55760008081fd5b9083015260a084810135828401529284013592888411156116f857600091508182fd5b6117068e8b86880101611541565b908301525084525050918401919084019061162c565b98975050505050505050565b60006020828403121561173a57600080fd5b813567ffffffffffffffff81111561175157600080fd5b61033b848285016115cf565b60008060006060848603121561177257600080fd5b833567ffffffffffffffff8082111561178a57600080fd5b611796878388016115cf565b94506020860135935060408601359150808211156117b357600080fd5b506117c086828701611541565b9150509250925092565b6000602082840312156117dc57600080fd5b5035919050565b6000602082840312156117f557600080fd5b813567ffffffffffffffff81111561180c57600080fd5b61033b84828501611541565b8183823760009101908152919050565b60005b8381101561184357818101518382015260200161182b565b8381111561043a5750506000910152565b6000815180845261186c816020860160208601611828565b601f017fffffffffffffffffffffffffffffffffffffffffffffffffffffffffffffffe0169290920160200192915050565b6000815180845260208085019450848260051b860182860160005b8581101561193b5783830389528151805115158452858101511515868501526040808201519085015260608082015173ffffffffffffffffffffffffffffffffffffffff16908501526080808201519085015260a09081015160c09185018290529061192781860183611854565b9a87019a94505050908401906001016118b9565b5090979650505050505050565b60408152600560408201527f73656c663a00000000000000000000000000000000000000000000000000000060608201526080602082015260006102a6608083018461189e565b60408152600660408201527f67756573743a000000000000000000000000000000000000000000000000000060608201526080602082015260006102a6608083018461189e565b83815273ffffffffffffffffffffffffffffffffffffffff83166020820152606060408201526000611a0b6060830184611854565b95945050505050565b7f4e487b7100000000000000000000000000000000000000000000000000000000600052603260045260246000fd5b60008251611a55818460208701611828565b9190910192915050565b7f4e487b7100000000000000000000000000000000000000000000000000000000600052601160045260246000fd5b60007fffffffffffffffffffffffffffffffffffffffffffffffffffffffffffffffff8203611abf57611abf611a5f565b5060010190565b6020815260006102a66020830184611854565b604081526000611aec6040830185611854565b90508260208301529392505050565b600082821015611b0d57611b0d611a5f565b500390565b604081526000611b256040830185611854565b905060ff831660208301529392505050565b606081526000611b4a6060830186611854565b602083019490945250901515604090910152919050565b7f4e487b7100000000000000000000000000000000000000000000000000000000600052600160045260246000fd5b606081526000611ba36060830186611854565b60208301949094525060400152919050565b82815260406020820152600061033b6040830184611854565b600060208284031215611be057600080fd5b81516102a68161133d565b60008219821115611bfe57611bfe611a5f565b50019056fea26469706673582212200ea803f36fadac524e19fc6e7d7e0f2afc7cd5f2383e4938e7f3f2225179307064736f6c634300080e0033",
  "linkReferences": {},
  "deployedLinkReferences": {}
}