{
  "_format": "hh-sol-artifact-1",
  "contractName": "GuestModule",
  "sourceName": "contracts/modules/GuestModule.sol",
  "abi": [
    {
      "inputs": [
        {
          "internalType": "uint256",
          "name": "_space",
          "type": "uint256"
        },
        {
          "internalType": "uint256",
          "name": "_provided",
          "type": "uint256"
        },
        {
          "internalType": "uint256",
          "name": "_current",
          "type": "uint256"
        }
      ],
      "name": "BadGapNonce",
      "type": "error"
    },
    {
      "inputs": [
        {
          "internalType": "uint256",
          "name": "_space",
          "type": "uint256"
        },
        {
          "internalType": "uint256",
          "name": "_provided",
          "type": "uint256"
        },
        {
          "internalType": "uint256",
          "name": "_current",
          "type": "uint256"
        }
      ],
      "name": "BadNonce",
      "type": "error"
    },
    {
      "inputs": [],
      "name": "DelegateCallNotAllowed",
      "type": "error"
    },
    {
      "inputs": [
        {
          "internalType": "uint256",
          "name": "_space",
          "type": "uint256"
        },
        {
          "internalType": "uint256",
          "name": "_nonce",
          "type": "uint256"
        }
      ],
      "name": "ExpectedEmptyNonce",
      "type": "error"
    },
    {
      "inputs": [],
      "name": "ImageHashIsZero",
      "type": "error"
    },
    {
      "inputs": [
        {
          "internalType": "bytes32",
          "name": "_hash",
          "type": "bytes32"
        },
        {
          "internalType": "address",
          "name": "_addr",
          "type": "address"
        },
        {
          "internalType": "bytes",
          "name": "_signature",
          "type": "bytes"
        }
      ],
      "name": "InvalidNestedSignature",
      "type": "error"
    },
    {
      "inputs": [
        {
          "internalType": "uint256",
          "name": "_type",
          "type": "uint256"
        }
      ],
      "name": "InvalidNonceType",
      "type": "error"
    },
    {
      "inputs": [
        {
          "internalType": "bytes",
          "name": "_signature",
          "type": "bytes"
        },
        {
          "internalType": "bytes32",
          "name": "_s",
          "type": "bytes32"
        }
      ],
      "name": "InvalidSValue",
      "type": "error"
    },
    {
      "inputs": [
        {
          "internalType": "bytes32",
          "name": "_hash",
          "type": "bytes32"
        },
        {
          "internalType": "bytes",
          "name": "_signature",
          "type": "bytes"
        }
      ],
      "name": "InvalidSignature",
      "type": "error"
    },
    {
      "inputs": [
        {
          "internalType": "uint256",
          "name": "_flag",
          "type": "uint256"
        }
      ],
      "name": "InvalidSignatureFlag",
      "type": "error"
    },
    {
      "inputs": [
        {
          "internalType": "bytes",
          "name": "_signature",
          "type": "bytes"
        }
      ],
      "name": "InvalidSignatureLength",
      "type": "error"
    },
    {
      "inputs": [
        {
          "internalType": "uint256",
          "name": "_type",
          "type": "uint256"
        }
      ],
      "name": "InvalidSignatureType",
      "type": "error"
    },
    {
      "inputs": [
        {
          "internalType": "bytes",
          "name": "_signature",
          "type": "bytes"
        },
        {
          "internalType": "uint256",
          "name": "_v",
          "type": "uint256"
        }
      ],
      "name": "InvalidVValue",
      "type": "error"
    },
    {
      "inputs": [
        {
          "internalType": "uint256",
          "name": "_requested",
          "type": "uint256"
        },
        {
          "internalType": "uint256",
          "name": "_available",
          "type": "uint256"
        }
      ],
      "name": "NotEnoughGas",
      "type": "error"
    },
    {
      "inputs": [],
      "name": "NotSupported",
      "type": "error"
    },
    {
      "inputs": [
        {
          "internalType": "address",
          "name": "_sender",
          "type": "address"
        },
        {
          "internalType": "address",
          "name": "_self",
          "type": "address"
        }
      ],
      "name": "OnlySelfAuth",
      "type": "error"
    },
    {
      "inputs": [
        {
          "internalType": "bytes",
          "name": "_data",
          "type": "bytes"
        }
      ],
      "name": "ReadFirstUint8OutOfBounds",
      "type": "error"
    },
    {
      "inputs": [
        {
          "internalType": "bytes",
          "name": "_signature",
          "type": "bytes"
        }
      ],
      "name": "SignerIsAddress0",
      "type": "error"
    },
    {
      "inputs": [
        {
          "internalType": "bytes",
          "name": "_signature",
          "type": "bytes"
        },
        {
          "internalType": "uint256",
          "name": "_type",
          "type": "uint256"
        },
        {
          "internalType": "bool",
          "name": "_recoverMode",
          "type": "bool"
        }
      ],
      "name": "UnsupportedSignatureType",
      "type": "error"
    },
    {
      "anonymous": false,
      "inputs": [
        {
          "indexed": false,
          "internalType": "address",
          "name": "_contract",
          "type": "address"
        }
      ],
      "name": "CreatedContract",
      "type": "event"
    },
    {
      "anonymous": false,
      "inputs": [
        {
          "indexed": false,
          "internalType": "uint256",
          "name": "_space",
          "type": "uint256"
        },
        {
          "indexed": false,
          "internalType": "uint256",
          "name": "_oldNonce",
          "type": "uint256"
        },
        {
          "indexed": false,
          "internalType": "uint256",
          "name": "_newNonce",
          "type": "uint256"
        }
      ],
      "name": "GapNonceChange",
      "type": "event"
    },
    {
      "anonymous": false,
      "inputs": [
        {
          "indexed": false,
          "internalType": "bytes32",
          "name": "newImageHash",
          "type": "bytes32"
        }
      ],
      "name": "ImageHashUpdated",
      "type": "event"
    },
    {
      "anonymous": false,
      "inputs": [],
      "name": "NoNonceUsed",
      "type": "event"
    },
    {
      "anonymous": false,
      "inputs": [
        {
          "indexed": false,
          "internalType": "uint256",
          "name": "_space",
          "type": "uint256"
        },
        {
          "indexed": false,
          "internalType": "uint256",
          "name": "_newNonce",
          "type": "uint256"
        }
      ],
      "name": "NonceChange",
      "type": "event"
    },
    {
      "anonymous": true,
      "inputs": [
        {
          "indexed": false,
          "internalType": "bytes32",
          "name": "_tx",
          "type": "bytes32"
        }
      ],
      "name": "TxExecuted",
      "type": "event"
    },
    {
      "anonymous": false,
      "inputs": [
        {
          "indexed": false,
          "internalType": "bytes32",
          "name": "_tx",
          "type": "bytes32"
        },
        {
          "indexed": false,
          "internalType": "bytes",
          "name": "_reason",
          "type": "bytes"
        }
      ],
      "name": "TxFailed",
      "type": "event"
    },
    {
      "inputs": [
        {
          "internalType": "bytes",
          "name": "_code",
          "type": "bytes"
        }
      ],
      "name": "createContract",
      "outputs": [
        {
          "internalType": "address",
          "name": "addr",
          "type": "address"
        }
      ],
      "stateMutability": "payable",
      "type": "function"
    },
    {
      "inputs": [
        {
          "components": [
            {
              "internalType": "bool",
              "name": "delegateCall",
              "type": "bool"
            },
            {
              "internalType": "bool",
              "name": "revertOnError",
              "type": "bool"
            },
            {
              "internalType": "uint256",
              "name": "gasLimit",
              "type": "uint256"
            },
            {
              "internalType": "address",
              "name": "target",
              "type": "address"
            },
            {
              "internalType": "uint256",
              "name": "value",
              "type": "uint256"
            },
            {
              "internalType": "bytes",
              "name": "data",
              "type": "bytes"
            }
          ],
          "internalType": "struct IModuleCalls.Transaction[]",
          "name": "_txs",
          "type": "tuple[]"
        },
        {
          "internalType": "uint256",
          "name": "",
          "type": "uint256"
        },
        {
          "internalType": "bytes",
          "name": "",
          "type": "bytes"
        }
      ],
      "name": "execute",
      "outputs": [],
      "stateMutability": "nonpayable",
      "type": "function"
    },
    {
      "inputs": [
        {
          "internalType": "bytes32",
          "name": "_hash",
          "type": "bytes32"
        },
        {
          "internalType": "bytes",
          "name": "_signatures",
          "type": "bytes"
        }
      ],
      "name": "isValidSignature",
      "outputs": [
        {
          "internalType": "bytes4",
          "name": "",
          "type": "bytes4"
        }
      ],
      "stateMutability": "view",
      "type": "function"
    },
    {
      "inputs": [
        {
          "internalType": "bytes",
          "name": "_data",
          "type": "bytes"
        },
        {
          "internalType": "bytes",
          "name": "_signatures",
          "type": "bytes"
        }
      ],
      "name": "isValidSignature",
      "outputs": [
        {
          "internalType": "bytes4",
          "name": "",
          "type": "bytes4"
        }
      ],
      "stateMutability": "view",
      "type": "function"
    },
    {
      "inputs": [],
      "name": "nonce",
      "outputs": [
        {
          "internalType": "uint256",
          "name": "",
          "type": "uint256"
        }
      ],
      "stateMutability": "view",
      "type": "function"
    },
    {
      "inputs": [
        {
          "internalType": "uint256",
          "name": "_space",
          "type": "uint256"
        }
      ],
      "name": "readGapNonce",
      "outputs": [
        {
          "internalType": "uint256",
          "name": "",
          "type": "uint256"
        }
      ],
      "stateMutability": "view",
      "type": "function"
    },
    {
      "inputs": [
        {
          "internalType": "uint256",
          "name": "_space",
          "type": "uint256"
        }
      ],
      "name": "readNonce",
      "outputs": [
        {
          "internalType": "uint256",
          "name": "",
          "type": "uint256"
        }
      ],
      "stateMutability": "view",
      "type": "function"
    },
    {
      "inputs": [
        {
          "components": [
            {
              "internalType": "bool",
              "name": "delegateCall",
              "type": "bool"
            },
            {
              "internalType": "bool",
              "name": "revertOnError",
              "type": "bool"
            },
            {
              "internalType": "uint256",
              "name": "gasLimit",
              "type": "uint256"
            },
            {
              "internalType": "address",
              "name": "target",
              "type": "address"
            },
            {
              "internalType": "uint256",
              "name": "value",
              "type": "uint256"
            },
            {
              "internalType": "bytes",
              "name": "data",
              "type": "bytes"
            }
          ],
          "internalType": "struct IModuleCalls.Transaction[]",
          "name": "_txs",
          "type": "tuple[]"
        }
      ],
      "name": "selfExecute",
      "outputs": [],
      "stateMutability": "nonpayable",
      "type": "function"
    },
    {
      "inputs": [
        {
          "internalType": "bytes4",
          "name": "_interfaceID",
          "type": "bytes4"
        }
      ],
      "name": "supportsInterface",
      "outputs": [
        {
          "internalType": "bool",
          "name": "",
          "type": "bool"
        }
      ],
      "stateMutability": "pure",
      "type": "function"
    },
    {
      "inputs": [
        {
          "internalType": "bytes32",
          "name": "",
          "type": "bytes32"
        }
      ],
      "name": "updateImageHash",
      "outputs": [],
      "stateMutability": "nonpayable",
      "type": "function"
    }
  ],
  "bytecode": "0x608060405234801561001057600080fd5b50611b95806100206000396000f3fe6080604052600436106100b15760003560e01c80637a9a16281161006957806390042baf1161004e57806390042baf146101ec578063affed0e014610224578063cc63f2e21461023957600080fd5b80637a9a16281461019e5780638c3f5563146101be57600080fd5b806320c13b0b1161009a57806320c13b0b1461013c578063295614261461015c57806361c2926c1461017e57600080fd5b806301ffc9a7146100b65780631626ba7e146100eb575b600080fd5b3480156100c257600080fd5b506100d66100d13660046112a2565b610259565b60405190151581526020015b60405180910390f35b3480156100f757600080fd5b5061010b610106366004611308565b61026a565b6040517fffffffff0000000000000000000000000000000000000000000000000000000090911681526020016100e2565b34801561014857600080fd5b5061010b610157366004611354565b6102b3565b34801561016857600080fd5b5061017c6101773660046113c0565b610314565b005b34801561018a57600080fd5b5061017c61019936600461167c565b61038c565b3480156101aa57600080fd5b5061017c6101b93660046116b1565b610461565b3480156101ca57600080fd5b506101de6101d93660046113c0565b61048a565b6040519081526020016100e2565b6101ff6101fa366004611708565b6104b6565b60405173ffffffffffffffffffffffffffffffffffffffff90911681526020016100e2565b34801561023057600080fd5b506101de610552565b34801561024557600080fd5b506101de6102543660046113c0565b610563565b60006102648261058f565b92915050565b6000806102788585856105eb565b50905080156102aa57507f1626ba7e0000000000000000000000000000000000000000000000000000000090506102ac565b505b9392505050565b6000806102d886866040516102c992919061173d565b604051809103902085856105eb565b509050801561030a57507f20c13b0b00000000000000000000000000000000000000000000000000000000905061030c565b505b949350505050565b33301461035a576040517fe12588940000000000000000000000000000000000000000000000000000000081523360048201523060248201526044015b60405180910390fd5b6040517fa038794000000000000000000000000000000000000000000000000000000000815260040160405180910390fd5b6000610451826040516020016103a29190611871565b604080517fffffffffffffffffffffffffffffffffffffffffffffffffffffffffffffffe081840301815282825280516020918201207f1901000000000000000000000000000000000000000000000000000000000000848301524660228501523060601b7fffffffffffffffffffffffffffffffffffffffff000000000000000000000000166042850152605680850191909152825180850390910181526076909301909152815191012090565b905061045d818361068c565b5050565b6000610477856040516020016103a291906118b8565b9050610483818661068c565b5050505050565b60006102647f8d0bf1fd623d628c741362c1289948e57b3e2905218c676d3e69abee36d6ae2e83610819565b60003330146104f9576040517fe1258894000000000000000000000000000000000000000000000000000000008152336004820152306024820152604401610351565b81516020830134f060405173ffffffffffffffffffffffffffffffffffffffff821681529091507fa506ad4e7f05eceba62a023c3219e5bd98a615f4fa87e2afb08a2da5cf62bf0c9060200160405180910390a1919050565b600061055e600061048a565b905090565b60006102647f2a37c7c3c3449f4795b05559a0f92a1730815bf20be16b02bbd6dbb8ae8532fe83610819565b60007f6ffbd451000000000000000000000000000000000000000000000000000000007fffffffff000000000000000000000000000000000000000000000000000000008316016105e257506001919050565b61026482610877565b6000806000806105fb86866108d3565b909250905060ff821661061f5761061486868984610920565b935093505050610684565b60018260ff160361063657610614868689846109d5565b60028260ff160361064d5761061486868984610a6c565b6040517fbff01fa700000000000000000000000000000000000000000000000000000000815260ff83166004820152602401610351565b935093915050565b60005b81518110156108145760008282815181106106ac576106ac6118ff565b60200260200101519050600060608260000151156106f6576040517f0d89438e00000000000000000000000000000000000000000000000000000000815260040160405180910390fd5b82604001515a10156107435782604001515a6040517f9fa7298200000000000000000000000000000000000000000000000000000000815260048101929092526024820152604401610351565b826060015173ffffffffffffffffffffffffffffffffffffffff168360800151846040015160001461077957846040015161077b565b5a5b908560a0015160405161078e919061192e565b600060405180830381858888f193505050503d80600081146107cc576040519150601f19603f3d011682016040523d82523d6000602084013e6107d1565b606091505b50909250905081156107f35760405186815260200160405180910390a06107fe565b6107fe838783610af4565b505050808061080c90611979565b91505061068f565b505050565b6000808383604051602001610838929190918252602082015260400190565b604080517fffffffffffffffffffffffffffffffffffffffffffffffffffffffffffffffe0818403018152919052805160209091012054949350505050565b60007f0b050cdb000000000000000000000000000000000000000000000000000000007fffffffff000000000000000000000000000000000000000000000000000000008316016108ca57506001919050565b61026482610b44565b6000808281036109135783836040517f322952a30000000000000000000000000000000000000000000000000000000081526004016103519291906119fa565b5050503560f81c90600190565b604080517f19010000000000000000000000000000000000000000000000000000000000006020808301919091524660228301523060601b7fffffffffffffffffffffffffffffffffffffffff0000000000000000000000001660428301526056808301869052835180840390910181526076909201909252805191012060009060008060006109b3848a8a6000610c2e565b9250925092508082101580156109c7575060015b945050505094509492505050565b604080517f19010000000000000000000000000000000000000000000000000000000000006020808301919091524660228301523060601b7fffffffffffffffffffffffffffffffffffffffff0000000000000000000000001660428301526056808301869052835180840390910181526076909201909252805191012060009081905b905060008060006109b3848a8a89610c2e565b604080517f19010000000000000000000000000000000000000000000000000000000000006020808301919091526000602283018190523060601b7fffffffffffffffffffffffffffffffffffffffff000000000000000000000000166042840152605680840187905284518085039091018152607690930190935281519101208190610a59565b826020015115610b0657805160208201fd5b7f3dbd1590ea96dd3253a91f24e64e3a502e1225d602a5731357bc12643070ccd78282604051610b37929190611a0e565b60405180910390a1505050565b60007fffffffff0000000000000000000000000000000000000000000000000000000082167f29561426000000000000000000000000000000000000000000000000000000001480610bd757507fffffffff0000000000000000000000000000000000000000000000000000000082167f36e7817500000000000000000000000000000000000000000000000000000000145b15610be457506001919050565b7f01ffc9a7000000000000000000000000000000000000000000000000000000007fffffffff00000000000000000000000000000000000000000000000000000000831614610264565b8281013560f01c600081600284015b85811015610dff57600281019087013560f881901c9060f01c60ff1660007fffffffffffffffffffffffffffffffffffffffffffffffffffffffffffffffff8301610c935750601483019289013560601c610daf565b82610cc9576000846042019050610cbb8c8c8c88908592610cb693929190611a27565b610e0a565b968301969094509050610daf565b60028303610d7a57838a013560601c601485019450905060008a85013560f01c600286018161ffff169150809650819250505060008186019050610d1f8d848e8e8a908692610d1a93929190611a27565b6110cd565b610d6d578c838d8d89908592610d3793929190611a27565b6040517f9a9462320000000000000000000000000000000000000000000000000000000081526004016103519493929190611a51565b968301969450610daf9050565b6040517fb2505f7c00000000000000000000000000000000000000000000000000000000815260048101849052602401610351565b604080516020810189905290810183905273ffffffffffffffffffffffffffffffffffffffff82166060820152608001604051602081830303815290604052805190602001209650505050610c3d565b509450945094915050565b600060428214610e4a5782826040517f2ee17a3d0000000000000000000000000000000000000000000000000000000081526004016103519291906119fa565b6000610e63610e5a600185611a91565b85013560f81c90565b60ff169050604084013560f81c843560208601357f7fffffffffffffffffffffffffffffff5d576e7357a4501ddfe92f46681b20a0811115610ed7578686826040517fad4aac7600000000000000000000000000000000000000000000000000000000815260040161035193929190611aa8565b8260ff16601b14158015610eef57508260ff16601c14155b15610f2c578686846040517fe578897e00000000000000000000000000000000000000000000000000000000815260040161035193929190611acc565b60018403610f99576040805160008152602081018083528a905260ff851691810191909152606081018390526080810182905260019060a0015b6020604051602081039080840390855afa158015610f88573d6000803e3d6000fd5b505050602060405103519450611071565b60028403611036576040517f19457468657265756d205369676e6564204d6573736167653a0a3332000000006020820152603c8101899052600190605c01604080517fffffffffffffffffffffffffffffffffffffffffffffffffffffffffffffffe08184030181528282528051602091820120600084529083018083525260ff861690820152606081018490526080810183905260a001610f66565b86868560016040517f9dfba8520000000000000000000000000000000000000000000000000000000081526004016103519493929190611af3565b73ffffffffffffffffffffffffffffffffffffffff85166110c25786866040517f6c1719d20000000000000000000000000000000000000000000000000000000081526004016103519291906119fa565b505050509392505050565b60008083836110dd600182611a91565b8181106110ec576110ec6118ff565b919091013560f81c91505060018114806111065750600281145b1561114b578473ffffffffffffffffffffffffffffffffffffffff1661112d878686610e0a565b73ffffffffffffffffffffffffffffffffffffffff1614915061030a565b600381036112365773ffffffffffffffffffffffffffffffffffffffff8516631626ba7e878660008761117f600182611a91565b9261118c93929190611a27565b6040518463ffffffff1660e01b81526004016111aa93929190611b1f565b602060405180830381865afa1580156111c7573d6000803e3d6000fd5b505050506040513d601f19601f820116820180604052508101906111eb9190611b42565b7fffffffff00000000000000000000000000000000000000000000000000000000167f1626ba7e0000000000000000000000000000000000000000000000000000000014915061030a565b83838260006040517f9dfba8520000000000000000000000000000000000000000000000000000000081526004016103519493929190611af3565b7fffffffff000000000000000000000000000000000000000000000000000000008116811461129f57600080fd5b50565b6000602082840312156112b457600080fd5b81356102ac81611271565b60008083601f8401126112d157600080fd5b50813567ffffffffffffffff8111156112e957600080fd5b60208301915083602082850101111561130157600080fd5b9250929050565b60008060006040848603121561131d57600080fd5b83359250602084013567ffffffffffffffff81111561133b57600080fd5b611347868287016112bf565b9497909650939450505050565b6000806000806040858703121561136a57600080fd5b843567ffffffffffffffff8082111561138257600080fd5b61138e888389016112bf565b909650945060208701359150808211156113a757600080fd5b506113b4878288016112bf565b95989497509550505050565b6000602082840312156113d257600080fd5b5035919050565b7f4e487b7100000000000000000000000000000000000000000000000000000000600052604160045260246000fd5b60405160c0810167ffffffffffffffff8111828210171561142b5761142b6113d9565b60405290565b604051601f82017fffffffffffffffffffffffffffffffffffffffffffffffffffffffffffffffe016810167ffffffffffffffff81118282101715611478576114786113d9565b604052919050565b8035801515811461149057600080fd5b919050565b600082601f8301126114a657600080fd5b813567ffffffffffffffff8111156114c0576114c06113d9565b6114f160207fffffffffffffffffffffffffffffffffffffffffffffffffffffffffffffffe0601f84011601611431565b81815284602083860101111561150657600080fd5b816020850160208301376000918101602001919091529392505050565b600082601f83011261153457600080fd5b8135602067ffffffffffffffff80831115611551576115516113d9565b8260051b611560838201611431565b938452858101830193838101908886111561157a57600080fd5b84880192505b85831015611670578235848111156115985760008081fd5b880160c0818b037fffffffffffffffffffffffffffffffffffffffffffffffffffffffffffffffe0018113156115ce5760008081fd5b6115d6611408565b6115e1888401611480565b815260406115f0818501611480565b8983015260608085013582840152608091508185013573ffffffffffffffffffffffffffffffffffffffff811681146116295760008081fd5b9083015260a0848101358284015292840135928884111561164c57600091508182fd5b61165a8e8b86880101611495565b9083015250845250509184019190840190611580565b98975050505050505050565b60006020828403121561168e57600080fd5b813567ffffffffffffffff8111156116a557600080fd5b61030c84828501611523565b600080600080606085870312156116c757600080fd5b843567ffffffffffffffff808211156116df57600080fd5b6116eb88838901611523565b95506020870135945060408701359150808211156113a757600080fd5b60006020828403121561171a57600080fd5b813567ffffffffffffffff81111561173157600080fd5b61030c84828501611495565b8183823760009101908152919050565b60005b83811015611768578181015183820152602001611750565b83811115611777576000848401525b50505050565b6000815180845261179581602086016020860161174d565b601f017fffffffffffffffffffffffffffffffffffffffffffffffffffffffffffffffe0169290920160200192915050565b6000815180845260208085019450848260051b860182860160005b858110156118645783830389528151805115158452858101511515868501526040808201519085015260608082015173ffffffffffffffffffffffffffffffffffffffff16908501526080808201519085015260a09081015160c0918501829052906118508186018361177d565b9a87019a94505050908401906001016117e2565b5090979650505050505050565b60408152600560408201527f73656c663a00000000000000000000000000000000000000000000000000000060608201526080602082015260006102ac60808301846117c7565b60408152600660408201527f67756573743a000000000000000000000000000000000000000000000000000060608201526080602082015260006102ac60808301846117c7565b7f4e487b7100000000000000000000000000000000000000000000000000000000600052603260045260246000fd5b6000825161194081846020870161174d565b9190910192915050565b7f4e487b7100000000000000000000000000000000000000000000000000000000600052601160045260246000fd5b60007fffffffffffffffffffffffffffffffffffffffffffffffffffffffffffffffff82036119aa576119aa61194a565b5060010190565b8183528181602085013750600060208284010152600060207fffffffffffffffffffffffffffffffffffffffffffffffffffffffffffffffe0601f840116840101905092915050565b60208152600061030c6020830184866119b1565b82815260406020820152600061030c604083018461177d565b60008085851115611a3757600080fd5b83861115611a4457600080fd5b5050820193919092039150565b84815273ffffffffffffffffffffffffffffffffffffffff84166020820152606060408201526000611a876060830184866119b1565b9695505050505050565b600082821015611aa357611aa361194a565b500390565b604081526000611abc6040830185876119b1565b9050826020830152949350505050565b604081526000611ae06040830185876119b1565b905060ff83166020830152949350505050565b606081526000611b076060830186886119b1565b60208301949094525090151560409091015292915050565b838152604060208201526000611b396040830184866119b1565b95945050505050565b600060208284031215611b5457600080fd5b81516102ac8161127156fea26469706673582212209a4e1b40a78ca75b599a80313711d964300f04d1eee9708d89f72c6677c8efe464736f6c634300080e0033",
  "linkReferences": {},
  "deployedLinkReferences": {}
}