{
  "_format": "hh-sol-artifact-1",
  "contractName": "ModuleMock",
  "sourceName": "contracts/mocks/ModuleMock.sol",
  "abi": [
    {
      "anonymous": false,
      "inputs": [],
      "name": "Pong",
      "type": "event"
    },
    {
      "inputs": [],
      "name": "ping",
      "outputs": [],
      "stateMutability": "nonpayable",
      "type": "function"
    }
  ],
  "bytecode": "0x6080604052348015600f57600080fd5b5060968061001e6000396000f3fe6080604052348015600f57600080fd5b506004361060285760003560e01c80635c36b18614602d575b600080fd5b60336035565b005b6040517f4d015fcc2a20c24d7be893b3a525eac864b5a53a5f88ef7201a600465c73314e90600090a156fea2646970667358221220c9b50615cda7f40d9cf0ed38053425624313c5ede956515d15d919435b7d0e4164736f6c634300080e0033",
  "linkReferences": {},
  "deployedLinkReferences": {}
}